{"contracts/PrizeStorage.sol":{"PrizeStorage":{"abi":[{"inputs":[],"stateMutability":"nonpayable","type":"constructor"},{"inputs":[{"internalType":"address","name":"target","type":"address"}],"name":"AddressEmptyCode","type":"error"},{"inputs":[{"internalType":"address","name":"implementation","type":"address"}],"name":"ERC1967InvalidImplementation","type":"error"},{"inputs":[],"name":"ERC1967NonPayable","type":"error"},{"inputs":[],"name":"FailedCall","type":"error"},{"inputs":[],"name":"InvalidInitialization","type":"error"},{"inputs":[],"name":"NotInitializing","type":"error"},{"inputs":[{"internalType":"address","name":"owner","type":"address"}],"name":"OwnableInvalidOwner","type":"error"},{"inputs":[{"internalType":"address","name":"account","type":"address"}],"name":"OwnableUnauthorizedAccount","type":"error"},{"inputs":[],"name":"UUPSUnauthorizedCallContext","type":"error"},{"inputs":[{"internalType":"bytes32","name":"slot","type":"bytes32"}],"name":"UUPSUnsupportedProxiableUUID","type":"error"},{"anonymous":false,"inputs":[{"indexed":false,"internalType":"uint64","name":"version","type":"uint64"}],"name":"Initialized","type":"event"},{"anonymous":false,"inputs":[{"indexed":true,"internalType":"address","name":"previousOwner","type":"address"},{"indexed":true,"internalType":"address","name":"newOwner","type":"address"}],"name":"OwnershipTransferred","type":"event"},{"anonymous":false,"inputs":[{"indexed":false,"internalType":"uint8[10]","name":"newPercentages","type":"uint8[10]"}],"name":"PrizePercentagesUpdated","type":"event"},{"anonymous":false,"inputs":[{"indexed":false,"internalType":"uint256","name":"newTotal","type":"uint256"}],"name":"PrizePoolUpdated","type":"event"},{"anonymous":false,"inputs":[{"indexed":true,"internalType":"address","name":"implementation","type":"address"}],"name":"Upgraded","type":"event"},{"inputs":[],"name":"UPGRADE_INTERFACE_VERSION","outputs":[{"internalType":"string","name":"","type":"string"}],"stateMutability":"view","type":"function"},{"inputs":[{"internalType":"address","name":"_winner","type":"address"}],"name":"clearPendingPrize","outputs":[],"stateMutability":"nonpayable","type":"function"},{"inputs":[{"internalType":"address","name":"_winner","type":"address"}],"name":"getPendingPrize","outputs":[{"internalType":"uint256","name":"","type":"uint256"}],"stateMutability":"view","type":"function"},{"inputs":[{"internalType":"uint8","name":"index","type":"uint8"}],"name":"getPrizePercentage","outputs":[{"internalType":"uint8","name":"","type":"uint8"}],"stateMutability":"view","type":"function"},{"inputs":[{"internalType":"address","name":"_owner","type":"address"}],"name":"initialize","outputs":[],"stateMutability":"nonpayable","type":"function"},{"inputs":[],"name":"owner","outputs":[{"internalType":"address","name":"","type":"address"}],"stateMutability":"view","type":"function"},{"inputs":[{"internalType":"address","name":"","type":"address"}],"name":"pendingPrizes","outputs":[{"internalType":"uint256","name":"","type":"uint256"}],"stateMutability":"view","type":"function"},{"inputs":[{"internalType":"uint256","name":"","type":"uint256"}],"name":"prizePercentages","outputs":[{"internalType":"uint8","name":"","type":"uint8"}],"stateMutability":"view","type":"function"},{"inputs":[],"name":"proxiableUUID","outputs":[{"internalType":"bytes32","name":"","type":"bytes32"}],"stateMutability":"view","type":"function"},{"inputs":[],"name":"renounceOwnership","outputs":[],"stateMutability":"nonpayable","type":"function"},{"inputs":[{"internalType":"address","name":"_winner","type":"address"},{"internalType":"uint256","name":"_amount","type":"uint256"}],"name":"setPendingPrize","outputs":[],"stateMutability":"nonpayable","type":"function"},{"inputs":[],"name":"totalPrizePool","outputs":[{"internalType":"uint256","name":"","type":"uint256"}],"stateMutability":"view","type":"function"},{"inputs":[{"internalType":"address","name":"newOwner","type":"address"}],"name":"transferOwnership","outputs":[],"stateMutability":"nonpayable","type":"function"},{"inputs":[{"internalType":"uint8[10]","name":"_newPercentages","type":"uint8[10]"}],"name":"updatePrizePercentages","outputs":[],"stateMutability":"nonpayable","type":"function"},{"inputs":[{"internalType":"uint256","name":"_newTotal","type":"uint256"}],"name":"updateTotalPrizePool","outputs":[],"stateMutability":"nonpayable","type":"function"},{"inputs":[{"internalType":"address","name":"newImplementation","type":"address"},{"internalType":"bytes","name":"data","type":"bytes"}],"name":"upgradeToAndCall","outputs":[],"stateMutability":"payable","type":"function"}],"evm":{"bytecode":{"linkReferences":{},"object":"60a080604052346100cc57306080527ff0c57e16840df040f15088dc2f81fe391c3923bec73e23a9662efc9c229c6a009081549060ff8260401c166100bd57506001600160401b036002600160401b031982821601610078575b604051610ca790816100d2823960805181818161071001526107ef0152f35b6001600160401b031990911681179091556040519081527fc7f505b2f371ae2175ee4913f4499e1f2633a7b5936321eed1cdaeb6115181d290602090a1388080610059565b63f92ee8a960e01b8152600490fd5b600080fdfe60406080815260048036101561001457600080fd5b600091823560e01c918263283ea25b14610a35578263370a8fbe146109f9578263398ab9a7146109da5782634254adc81461065a5782634f1ef2861461077457826352d1902d146106fb578263715018a614610691578263788f53521461065a5782638c5119c0146104aa5782638da5cb5b146104705783836394ed4d371461043457508263a448bd23146103f8578263ad3cb1cc14610358578263c4d66de814610157578263c91651bb1461010457505063f2fde38b146100d557600080fd5b34610101576020366003190112610101576100fe6100f1610a63565b6100f9610b74565b610b00565b80f35b80fd5b90915034610153576020366003190112610153577f7bc22304ac771f50d6cc29b56387cb4855f284e7a1f83e6420fe9b8bbdaf45c9916020913590610147610b74565b8160015551908152a180f35b8280fd5b909150346101535760208060031936011261035457610174610a63565b907ff0c57e16840df040f15088dc2f81fe391c3923bec73e23a9662efc9c229c6a009283549060ff9260ff83881c16159467ffffffffffffffff908185169485158061034d575b60018097149081610343575b15908161033a575b5061032a5767ffffffffffffffff198116600117895561020191908861030b575b506101f9610bad565b6100f9610bad565b610209610bad565b8751906101408201908111828210176102f8578894939294526019815260146020820152600f88820152600a91600a606083015260086080830152600760a0830152600560c083015260e08201526003610100820152600361012082015292889489905b8382106102c657505050505050600255610285578280f35b805468ff00000000000000001916905551600181527fc7f505b2f371ae2175ee4913f4499e1f2633a7b5936321eed1cdaeb6115181d290602090a138808280f35b90919293836102eb87988585859a5116919060ff809160031b9316831b921b19161790565b970195949392019061026d565b634e487b7160e01b8a526041845260248afd5b68ffffffffffffffffff191668010000000000000001178955386101f0565b895163f92ee8a960e01b81528590fd5b905015386101cf565b303b1591506101c7565b50876101bb565b8380fd5b909150346101535782600319360112610153578151908282019082821067ffffffffffffffff8311176103e55750825260058152602090640352e302e360dc1b6020820152825193849260208452825192836020860152825b8481106103cf57505050828201840152601f01601f19168101030190f35b81810183015188820188015287955082016103b1565b634e487b7160e01b855260419052602484fd5b90915034610153576020366003190112610153573591600a831015610101575060ff610425602093610ad2565b92905490519260031b1c168152f35b80833461046d57602036600319011261046d5761044f610a63565b610457610b74565b6001600160a01b03168252602082905281205580f35b50fd5b8382346104a657816003193601126104a657600080516020610c528339815191525490516001600160a01b039091168152602090f35b5080fd5b9083346101015761014092836003193601126104a65736602312156104a65782519284840184811067ffffffffffffffff821117610647578152836101443681116106435783915b81831061062557505050610504610b74565b829383945b60ff600a818816101561055157611fe08760051b168301511661ffff8092160190811161053e57600160ff9196011694610509565b634e487b7160e01b855260118452602485fd5b50868385606461ffff899516036105f257508284815b600a81106105c457505060025551809383945b600a86106105aa57847f26d73d99f7b9bc8344f55af5c6c3cffb766441d86855f2cb3293d760f8c4141f8585a180f35b60019060ff8351168152602080910192019501949061057a565b909160206105e96001928460ff875116919060ff809160031b9316831b921b19161790565b93019101610567565b6020606492519162461bcd60e51b8352820152600e60248201526d04d75737420746f74616c203130360941b6044820152fd5b823560ff8116810361063f578152602092830192016104f2565b8680fd5b8480fd5b634e487b7160e01b845260418352602484fd5b8382346104a65760203660031901126104a65760209181906001600160a01b03610682610a63565b16815280845220549051908152f35b83346101015780600319360112610101576106aa610b74565b600080516020610c5283398151915280546001600160a01b0319811690915581906001600160a01b03167f8be0079c531659141344cd1fd0a4f28419497f9722a3daafe3b4186f6b6457e08280a380f35b908334610101578060031936011261010157507f00000000000000000000000000000000000000000000000000000000000000006001600160a01b0316300361076757602090517f360894a13ba1a3210667c828492db98dca3e2076cc3735a920a3ca505d382bbc8152f35b5163703e46dd60e11b8152fd5b91508060031936011261015357610789610a63565b90602493843567ffffffffffffffff81116104a657366023820112156104a657808501356107b681610ab6565b946107c385519687610a7e565b81865260209182870193368a83830101116109d6578186928b8693018737880101526001600160a01b037f000000000000000000000000000000000000000000000000000000000000000081163081149081156109a8575b5061099857610828610b74565b81169585516352d1902d60e01b815283818a818b5afa869181610969575b50610862575050505050505191634c9c8ce360e01b8352820152fd5b9088888894938c7f360894a13ba1a3210667c828492db98dca3e2076cc3735a920a3ca505d382bbc918281036109545750853b15610940575080546001600160a01b031916821790558451889392917fbc7cd75a20ee27fd9adebab32041f755214dbc6bffa90cc0225b39da2e5c2d3b8580a28251156109225750506109149582915190845af4913d15610918573d6109066108fd82610ab6565b92519283610a7e565b81528581943d92013e610bee565b5080f35b5060609250610bee565b95509550505050503461093457505080f35b63b398979f60e01b8152fd5b8651634c9c8ce360e01b8152808501849052fd5b8751632a87526960e21b815280860191909152fd5b9091508481813d8311610991575b6109818183610a7e565b8101031261063f57519038610846565b503d610977565b855163703e46dd60e11b81528890fd5b9050817f360894a13ba1a3210667c828492db98dca3e2076cc3735a920a3ca505d382bbc541614153861081b565b8580fd5b8382346104a657816003193601126104a6576020906001549051908152f35b8382346104a657806003193601126104a657610a13610a63565b610a1b610b74565b6001600160a01b0316825260208290528120602435905580f35b9091503461015357602036600319011261015357359160ff83168303610101575060ff610425602093610ad2565b600435906001600160a01b0382168203610a7957565b600080fd5b90601f8019910116810190811067ffffffffffffffff821117610aa057604052565b634e487b7160e01b600052604160045260246000fd5b67ffffffffffffffff8111610aa057601f01601f191660200190565b90600a821015610aea57601f8260051c600201921690565b634e487b7160e01b600052603260045260246000fd5b6001600160a01b03908116908115610b5b57600080516020610c5283398151915280546001600160a01b031981168417909155167f8be0079c531659141344cd1fd0a4f28419497f9722a3daafe3b4186f6b6457e0600080a3565b604051631e4fbdf760e01b815260006004820152602490fd5b600080516020610c52833981519152546001600160a01b03163303610b9557565b60405163118cdaa760e01b8152336004820152602490fd5b60ff7ff0c57e16840df040f15088dc2f81fe391c3923bec73e23a9662efc9c229c6a005460401c1615610bdc57565b604051631afcd79f60e31b8152600490fd5b90610c155750805115610c0357805190602001fd5b60405163d6bda27560e01b8152600490fd5b81511580610c48575b610c26575090565b604051639996b31560e01b81526001600160a01b039091166004820152602490fd5b50803b15610c1e56fe9016d09d72d40fdae2fd8ceac6b6234c7706214fd39c1cd1e609a0528c199300a26469706673582212204cdd2144dcde8c9e5237ba3f0f4719f9afff762b7bea90ff00bc32535172dc1164736f6c63430008160033","opcodes":"PUSH1 0xA0 DUP1 PUSH1 0x40 MSTORE CALLVALUE PUSH2 0xCC JUMPI ADDRESS PUSH1 0x80 MSTORE PUSH32 0xF0C57E16840DF040F15088DC2F81FE391C3923BEC73E23A9662EFC9C229C6A00 SWAP1 DUP2 SLOAD SWAP1 PUSH1 0xFF DUP3 PUSH1 0x40 SHR AND PUSH2 0xBD JUMPI POP PUSH1 0x1 PUSH1 0x1 PUSH1 0x40 SHL SUB PUSH1 0x2 PUSH1 0x1 PUSH1 0x40 SHL SUB NOT DUP3 DUP3 AND ADD PUSH2 0x78 JUMPI JUMPDEST PUSH1 0x40 MLOAD PUSH2 0xCA7 SWAP1 DUP2 PUSH2 0xD2 DUP3 CODECOPY PUSH1 0x80 MLOAD DUP2 DUP2 DUP2 PUSH2 0x710 ADD MSTORE PUSH2 0x7EF ADD MSTORE RETURN JUMPDEST PUSH1 0x1 PUSH1 0x1 PUSH1 0x40 SHL SUB NOT SWAP1 SWAP2 AND DUP2 OR SWAP1 SWAP2 SSTORE PUSH1 0x40 MLOAD SWAP1 DUP2 MSTORE PUSH32 0xC7F505B2F371AE2175EE4913F4499E1F2633A7B5936321EED1CDAEB6115181D2 SWAP1 PUSH1 0x20 SWAP1 LOG1 CODESIZE DUP1 DUP1 PUSH2 0x59 JUMP JUMPDEST PUSH4 0xF92EE8A9 PUSH1 0xE0 SHL DUP2 MSTORE PUSH1 0x4 SWAP1 REVERT JUMPDEST PUSH1 0x0 DUP1 REVERT INVALID PUSH1 0x40 PUSH1 0x80 DUP2 MSTORE PUSH1 0x4 DUP1 CALLDATASIZE LT ISZERO PUSH2 0x14 JUMPI PUSH1 0x0 DUP1 REVERT JUMPDEST PUSH1 0x0 SWAP2 DUP3 CALLDATALOAD PUSH1 0xE0 SHR SWAP2 DUP3 PUSH4 0x283EA25B EQ PUSH2 0xA35 JUMPI DUP3 PUSH4 0x370A8FBE EQ PUSH2 0x9F9 JUMPI DUP3 PUSH4 0x398AB9A7 EQ PUSH2 0x9DA JUMPI DUP3 PUSH4 0x4254ADC8 EQ PUSH2 0x65A JUMPI DUP3 PUSH4 0x4F1EF286 EQ PUSH2 0x774 JUMPI DUP3 PUSH4 0x52D1902D EQ PUSH2 0x6FB JUMPI DUP3 PUSH4 0x715018A6 EQ PUSH2 0x691 JUMPI DUP3 PUSH4 0x788F5352 EQ PUSH2 0x65A JUMPI DUP3 PUSH4 0x8C5119C0 EQ PUSH2 0x4AA JUMPI DUP3 PUSH4 0x8DA5CB5B EQ PUSH2 0x470 JUMPI DUP4 DUP4 PUSH4 0x94ED4D37 EQ PUSH2 0x434 JUMPI POP DUP3 PUSH4 0xA448BD23 EQ PUSH2 0x3F8 JUMPI DUP3 PUSH4 0xAD3CB1CC EQ PUSH2 0x358 JUMPI DUP3 PUSH4 0xC4D66DE8 EQ PUSH2 0x157 JUMPI DUP3 PUSH4 0xC91651BB EQ PUSH2 0x104 JUMPI POP POP PUSH4 0xF2FDE38B EQ PUSH2 0xD5 JUMPI PUSH1 0x0 DUP1 REVERT JUMPDEST CALLVALUE PUSH2 0x101 JUMPI PUSH1 0x20 CALLDATASIZE PUSH1 0x3 NOT ADD SLT PUSH2 0x101 JUMPI PUSH2 0xFE PUSH2 0xF1 PUSH2 0xA63 JUMP JUMPDEST PUSH2 0xF9 PUSH2 0xB74 JUMP JUMPDEST PUSH2 0xB00 JUMP JUMPDEST DUP1 RETURN JUMPDEST DUP1 REVERT JUMPDEST SWAP1 SWAP2 POP CALLVALUE PUSH2 0x153 JUMPI PUSH1 0x20 CALLDATASIZE PUSH1 0x3 NOT ADD SLT PUSH2 0x153 JUMPI PUSH32 0x7BC22304AC771F50D6CC29B56387CB4855F284E7A1F83E6420FE9B8BBDAF45C9 SWAP2 PUSH1 0x20 SWAP2 CALLDATALOAD SWAP1 PUSH2 0x147 PUSH2 0xB74 JUMP JUMPDEST DUP2 PUSH1 0x1 SSTORE MLOAD SWAP1 DUP2 MSTORE LOG1 DUP1 RETURN JUMPDEST DUP3 DUP1 REVERT JUMPDEST SWAP1 SWAP2 POP CALLVALUE PUSH2 0x153 JUMPI PUSH1 0x20 DUP1 PUSH1 0x3 NOT CALLDATASIZE ADD SLT PUSH2 0x354 JUMPI PUSH2 0x174 PUSH2 0xA63 JUMP JUMPDEST SWAP1 PUSH32 0xF0C57E16840DF040F15088DC2F81FE391C3923BEC73E23A9662EFC9C229C6A00 SWAP3 DUP4 SLOAD SWAP1 PUSH1 0xFF SWAP3 PUSH1 0xFF DUP4 DUP9 SHR AND ISZERO SWAP5 PUSH8 0xFFFFFFFFFFFFFFFF SWAP1 DUP2 DUP6 AND SWAP5 DUP6 ISZERO DUP1 PUSH2 0x34D JUMPI JUMPDEST PUSH1 0x1 DUP1 SWAP8 EQ SWAP1 DUP2 PUSH2 0x343 JUMPI JUMPDEST ISZERO SWAP1 DUP2 PUSH2 0x33A JUMPI JUMPDEST POP PUSH2 0x32A JUMPI PUSH8 0xFFFFFFFFFFFFFFFF NOT DUP2 AND PUSH1 0x1 OR DUP10 SSTORE PUSH2 0x201 SWAP2 SWAP1 DUP9 PUSH2 0x30B JUMPI JUMPDEST POP PUSH2 0x1F9 PUSH2 0xBAD JUMP JUMPDEST PUSH2 0xF9 PUSH2 0xBAD JUMP JUMPDEST PUSH2 0x209 PUSH2 0xBAD JUMP JUMPDEST DUP8 MLOAD SWAP1 PUSH2 0x140 DUP3 ADD SWAP1 DUP2 GT DUP3 DUP3 LT OR PUSH2 0x2F8 JUMPI DUP9 SWAP5 SWAP4 SWAP3 SWAP5 MSTORE PUSH1 0x19 DUP2 MSTORE PUSH1 0x14 PUSH1 0x20 DUP3 ADD MSTORE PUSH1 0xF DUP9 DUP3 ADD MSTORE PUSH1 0xA SWAP2 PUSH1 0xA PUSH1 0x60 DUP4 ADD MSTORE PUSH1 0x8 PUSH1 0x80 DUP4 ADD MSTORE PUSH1 0x7 PUSH1 0xA0 DUP4 ADD MSTORE PUSH1 0x5 PUSH1 0xC0 DUP4 ADD MSTORE PUSH1 0xE0 DUP3 ADD MSTORE PUSH1 0x3 PUSH2 0x100 DUP3 ADD MSTORE PUSH1 0x3 PUSH2 0x120 DUP3 ADD MSTORE SWAP3 DUP9 SWAP5 DUP10 SWAP1 JUMPDEST DUP4 DUP3 LT PUSH2 0x2C6 JUMPI POP POP POP POP POP POP PUSH1 0x2 SSTORE PUSH2 0x285 JUMPI DUP3 DUP1 RETURN JUMPDEST DUP1 SLOAD PUSH9 0xFF0000000000000000 NOT AND SWAP1 SSTORE MLOAD PUSH1 0x1 DUP2 MSTORE PUSH32 0xC7F505B2F371AE2175EE4913F4499E1F2633A7B5936321EED1CDAEB6115181D2 SWAP1 PUSH1 0x20 SWAP1 LOG1 CODESIZE DUP1 DUP3 DUP1 RETURN JUMPDEST SWAP1 SWAP2 SWAP3 SWAP4 DUP4 PUSH2 0x2EB DUP8 SWAP9 DUP6 DUP6 DUP6 SWAP11 MLOAD AND SWAP2 SWAP1 PUSH1 0xFF DUP1 SWAP2 PUSH1 0x3 SHL SWAP4 AND DUP4 SHL SWAP3 SHL NOT AND OR SWAP1 JUMP JUMPDEST SWAP8 ADD SWAP6 SWAP5 SWAP4 SWAP3 ADD SWAP1 PUSH2 0x26D JUMP JUMPDEST PUSH4 0x4E487B71 PUSH1 0xE0 SHL DUP11 MSTORE PUSH1 0x41 DUP5 MSTORE PUSH1 0x24 DUP11 REVERT JUMPDEST PUSH9 0xFFFFFFFFFFFFFFFFFF NOT AND PUSH9 0x10000000000000001 OR DUP10 SSTORE CODESIZE PUSH2 0x1F0 JUMP JUMPDEST DUP10 MLOAD PUSH4 0xF92EE8A9 PUSH1 0xE0 SHL DUP2 MSTORE DUP6 SWAP1 REVERT JUMPDEST SWAP1 POP ISZERO CODESIZE PUSH2 0x1CF JUMP JUMPDEST ADDRESS EXTCODESIZE ISZERO SWAP2 POP PUSH2 0x1C7 JUMP JUMPDEST POP DUP8 PUSH2 0x1BB JUMP JUMPDEST DUP4 DUP1 REVERT JUMPDEST SWAP1 SWAP2 POP CALLVALUE PUSH2 0x153 JUMPI DUP3 PUSH1 0x3 NOT CALLDATASIZE ADD SLT PUSH2 0x153 JUMPI DUP2 MLOAD SWAP1 DUP3 DUP3 ADD SWAP1 DUP3 DUP3 LT PUSH8 0xFFFFFFFFFFFFFFFF DUP4 GT OR PUSH2 0x3E5 JUMPI POP DUP3 MSTORE PUSH1 0x5 DUP2 MSTORE PUSH1 0x20 SWAP1 PUSH5 0x352E302E3 PUSH1 0xDC SHL PUSH1 0x20 DUP3 ADD MSTORE DUP3 MLOAD SWAP4 DUP5 SWAP3 PUSH1 0x20 DUP5 MSTORE DUP3 MLOAD SWAP3 DUP4 PUSH1 0x20 DUP7 ADD MSTORE DUP3 JUMPDEST DUP5 DUP2 LT PUSH2 0x3CF JUMPI POP POP POP DUP3 DUP3 ADD DUP5 ADD MSTORE PUSH1 0x1F ADD PUSH1 0x1F NOT AND DUP2 ADD SUB ADD SWAP1 RETURN JUMPDEST DUP2 DUP2 ADD DUP4 ADD MLOAD DUP9 DUP3 ADD DUP9 ADD MSTORE DUP8 SWAP6 POP DUP3 ADD PUSH2 0x3B1 JUMP JUMPDEST PUSH4 0x4E487B71 PUSH1 0xE0 SHL DUP6 MSTORE PUSH1 0x41 SWAP1 MSTORE PUSH1 0x24 DUP5 REVERT JUMPDEST SWAP1 SWAP2 POP CALLVALUE PUSH2 0x153 JUMPI PUSH1 0x20 CALLDATASIZE PUSH1 0x3 NOT ADD SLT PUSH2 0x153 JUMPI CALLDATALOAD SWAP2 PUSH1 0xA DUP4 LT ISZERO PUSH2 0x101 JUMPI POP PUSH1 0xFF PUSH2 0x425 PUSH1 0x20 SWAP4 PUSH2 0xAD2 JUMP JUMPDEST SWAP3 SWAP1 SLOAD SWAP1 MLOAD SWAP3 PUSH1 0x3 SHL SHR AND DUP2 MSTORE RETURN JUMPDEST DUP1 DUP4 CALLVALUE PUSH2 0x46D JUMPI PUSH1 0x20 CALLDATASIZE PUSH1 0x3 NOT ADD SLT PUSH2 0x46D JUMPI PUSH2 0x44F PUSH2 0xA63 JUMP JUMPDEST PUSH2 0x457 PUSH2 0xB74 JUMP JUMPDEST PUSH1 0x1 PUSH1 0x1 PUSH1 0xA0 SHL SUB AND DUP3 MSTORE PUSH1 0x20 DUP3 SWAP1 MSTORE DUP2 KECCAK256 SSTORE DUP1 RETURN JUMPDEST POP REVERT JUMPDEST DUP4 DUP3 CALLVALUE PUSH2 0x4A6 JUMPI DUP2 PUSH1 0x3 NOT CALLDATASIZE ADD SLT PUSH2 0x4A6 JUMPI PUSH1 0x0 DUP1 MLOAD PUSH1 0x20 PUSH2 0xC52 DUP4 CODECOPY DUP2 MLOAD SWAP2 MSTORE SLOAD SWAP1 MLOAD PUSH1 0x1 PUSH1 0x1 PUSH1 0xA0 SHL SUB SWAP1 SWAP2 AND DUP2 MSTORE PUSH1 0x20 SWAP1 RETURN JUMPDEST POP DUP1 REVERT JUMPDEST SWAP1 DUP4 CALLVALUE PUSH2 0x101 JUMPI PUSH2 0x140 SWAP3 DUP4 PUSH1 0x3 NOT CALLDATASIZE ADD SLT PUSH2 0x4A6 JUMPI CALLDATASIZE PUSH1 0x23 SLT ISZERO PUSH2 0x4A6 JUMPI DUP3 MLOAD SWAP3 DUP5 DUP5 ADD DUP5 DUP2 LT PUSH8 0xFFFFFFFFFFFFFFFF DUP3 GT OR PUSH2 0x647 JUMPI DUP2 MSTORE DUP4 PUSH2 0x144 CALLDATASIZE DUP2 GT PUSH2 0x643 JUMPI DUP4 SWAP2 JUMPDEST DUP2 DUP4 LT PUSH2 0x625 JUMPI POP POP POP PUSH2 0x504 PUSH2 0xB74 JUMP JUMPDEST DUP3 SWAP4 DUP4 SWAP5 JUMPDEST PUSH1 0xFF PUSH1 0xA DUP2 DUP9 AND LT ISZERO PUSH2 0x551 JUMPI PUSH2 0x1FE0 DUP8 PUSH1 0x5 SHL AND DUP4 ADD MLOAD AND PUSH2 0xFFFF DUP1 SWAP3 AND ADD SWAP1 DUP2 GT PUSH2 0x53E JUMPI PUSH1 0x1 PUSH1 0xFF SWAP2 SWAP7 ADD AND SWAP5 PUSH2 0x509 JUMP JUMPDEST PUSH4 0x4E487B71 PUSH1 0xE0 SHL DUP6 MSTORE PUSH1 0x11 DUP5 MSTORE PUSH1 0x24 DUP6 REVERT JUMPDEST POP DUP7 DUP4 DUP6 PUSH1 0x64 PUSH2 0xFFFF DUP10 SWAP6 AND SUB PUSH2 0x5F2 JUMPI POP DUP3 DUP5 DUP2 JUMPDEST PUSH1 0xA DUP2 LT PUSH2 0x5C4 JUMPI POP POP PUSH1 0x2 SSTORE MLOAD DUP1 SWAP4 DUP4 SWAP5 JUMPDEST PUSH1 0xA DUP7 LT PUSH2 0x5AA JUMPI DUP5 PUSH32 0x26D73D99F7B9BC8344F55AF5C6C3CFFB766441D86855F2CB3293D760F8C4141F DUP6 DUP6 LOG1 DUP1 RETURN JUMPDEST PUSH1 0x1 SWAP1 PUSH1 0xFF DUP4 MLOAD AND DUP2 MSTORE PUSH1 0x20 DUP1 SWAP2 ADD SWAP3 ADD SWAP6 ADD SWAP5 SWAP1 PUSH2 0x57A JUMP JUMPDEST SWAP1 SWAP2 PUSH1 0x20 PUSH2 0x5E9 PUSH1 0x1 SWAP3 DUP5 PUSH1 0xFF DUP8 MLOAD AND SWAP2 SWAP1 PUSH1 0xFF DUP1 SWAP2 PUSH1 0x3 SHL SWAP4 AND DUP4 SHL SWAP3 SHL NOT AND OR SWAP1 JUMP JUMPDEST SWAP4 ADD SWAP2 ADD PUSH2 0x567 JUMP JUMPDEST PUSH1 0x20 PUSH1 0x64 SWAP3 MLOAD SWAP2 PUSH3 0x461BCD PUSH1 0xE5 SHL DUP4 MSTORE DUP3 ADD MSTORE PUSH1 0xE PUSH1 0x24 DUP3 ADD MSTORE PUSH14 0x4D75737420746F74616C2031303 PUSH1 0x94 SHL PUSH1 0x44 DUP3 ADD MSTORE REVERT JUMPDEST DUP3 CALLDATALOAD PUSH1 0xFF DUP2 AND DUP2 SUB PUSH2 0x63F JUMPI DUP2 MSTORE PUSH1 0x20 SWAP3 DUP4 ADD SWAP3 ADD PUSH2 0x4F2 JUMP JUMPDEST DUP7 DUP1 REVERT JUMPDEST DUP5 DUP1 REVERT JUMPDEST PUSH4 0x4E487B71 PUSH1 0xE0 SHL DUP5 MSTORE PUSH1 0x41 DUP4 MSTORE PUSH1 0x24 DUP5 REVERT JUMPDEST DUP4 DUP3 CALLVALUE PUSH2 0x4A6 JUMPI PUSH1 0x20 CALLDATASIZE PUSH1 0x3 NOT ADD SLT PUSH2 0x4A6 JUMPI PUSH1 0x20 SWAP2 DUP2 SWAP1 PUSH1 0x1 PUSH1 0x1 PUSH1 0xA0 SHL SUB PUSH2 0x682 PUSH2 0xA63 JUMP JUMPDEST AND DUP2 MSTORE DUP1 DUP5 MSTORE KECCAK256 SLOAD SWAP1 MLOAD SWAP1 DUP2 MSTORE RETURN JUMPDEST DUP4 CALLVALUE PUSH2 0x101 JUMPI DUP1 PUSH1 0x3 NOT CALLDATASIZE ADD SLT PUSH2 0x101 JUMPI PUSH2 0x6AA PUSH2 0xB74 JUMP JUMPDEST PUSH1 0x0 DUP1 MLOAD PUSH1 0x20 PUSH2 0xC52 DUP4 CODECOPY DUP2 MLOAD SWAP2 MSTORE DUP1 SLOAD PUSH1 0x1 PUSH1 0x1 PUSH1 0xA0 SHL SUB NOT DUP2 AND SWAP1 SWAP2 SSTORE DUP2 SWAP1 PUSH1 0x1 PUSH1 0x1 PUSH1 0xA0 SHL SUB AND PUSH32 0x8BE0079C531659141344CD1FD0A4F28419497F9722A3DAAFE3B4186F6B6457E0 DUP3 DUP1 LOG3 DUP1 RETURN JUMPDEST SWAP1 DUP4 CALLVALUE PUSH2 0x101 JUMPI DUP1 PUSH1 0x3 NOT CALLDATASIZE ADD SLT PUSH2 0x101 JUMPI POP PUSH32 0x0 PUSH1 0x1 PUSH1 0x1 PUSH1 0xA0 SHL SUB AND ADDRESS SUB PUSH2 0x767 JUMPI PUSH1 0x20 SWAP1 MLOAD PUSH32 0x360894A13BA1A3210667C828492DB98DCA3E2076CC3735A920A3CA505D382BBC DUP2 MSTORE RETURN JUMPDEST MLOAD PUSH4 0x703E46DD PUSH1 0xE1 SHL DUP2 MSTORE REVERT JUMPDEST SWAP2 POP DUP1 PUSH1 0x3 NOT CALLDATASIZE ADD SLT PUSH2 0x153 JUMPI PUSH2 0x789 PUSH2 0xA63 JUMP JUMPDEST SWAP1 PUSH1 0x24 SWAP4 DUP5 CALLDATALOAD PUSH8 0xFFFFFFFFFFFFFFFF DUP2 GT PUSH2 0x4A6 JUMPI CALLDATASIZE PUSH1 0x23 DUP3 ADD SLT ISZERO PUSH2 0x4A6 JUMPI DUP1 DUP6 ADD CALLDATALOAD PUSH2 0x7B6 DUP2 PUSH2 0xAB6 JUMP JUMPDEST SWAP5 PUSH2 0x7C3 DUP6 MLOAD SWAP7 DUP8 PUSH2 0xA7E JUMP JUMPDEST DUP2 DUP7 MSTORE PUSH1 0x20 SWAP2 DUP3 DUP8 ADD SWAP4 CALLDATASIZE DUP11 DUP4 DUP4 ADD ADD GT PUSH2 0x9D6 JUMPI DUP2 DUP7 SWAP3 DUP12 DUP7 SWAP4 ADD DUP8 CALLDATACOPY DUP9 ADD ADD MSTORE PUSH1 0x1 PUSH1 0x1 PUSH1 0xA0 SHL SUB PUSH32 0x0 DUP2 AND ADDRESS DUP2 EQ SWAP1 DUP2 ISZERO PUSH2 0x9A8 JUMPI JUMPDEST POP PUSH2 0x998 JUMPI PUSH2 0x828 PUSH2 0xB74 JUMP JUMPDEST DUP2 AND SWAP6 DUP6 MLOAD PUSH4 0x52D1902D PUSH1 0xE0 SHL DUP2 MSTORE DUP4 DUP2 DUP11 DUP2 DUP12 GAS STATICCALL DUP7 SWAP2 DUP2 PUSH2 0x969 JUMPI JUMPDEST POP PUSH2 0x862 JUMPI POP POP POP POP POP POP MLOAD SWAP2 PUSH4 0x4C9C8CE3 PUSH1 0xE0 SHL DUP4 MSTORE DUP3 ADD MSTORE REVERT JUMPDEST SWAP1 DUP9 DUP9 DUP9 SWAP5 SWAP4 DUP13 PUSH32 0x360894A13BA1A3210667C828492DB98DCA3E2076CC3735A920A3CA505D382BBC SWAP2 DUP3 DUP2 SUB PUSH2 0x954 JUMPI POP DUP6 EXTCODESIZE ISZERO PUSH2 0x940 JUMPI POP DUP1 SLOAD PUSH1 0x1 PUSH1 0x1 PUSH1 0xA0 SHL SUB NOT AND DUP3 OR SWAP1 SSTORE DUP5 MLOAD DUP9 SWAP4 SWAP3 SWAP2 PUSH32 0xBC7CD75A20EE27FD9ADEBAB32041F755214DBC6BFFA90CC0225B39DA2E5C2D3B DUP6 DUP1 LOG2 DUP3 MLOAD ISZERO PUSH2 0x922 JUMPI POP POP PUSH2 0x914 SWAP6 DUP3 SWAP2 MLOAD SWAP1 DUP5 GAS DELEGATECALL SWAP2 RETURNDATASIZE ISZERO PUSH2 0x918 JUMPI RETURNDATASIZE PUSH2 0x906 PUSH2 0x8FD DUP3 PUSH2 0xAB6 JUMP JUMPDEST SWAP3 MLOAD SWAP3 DUP4 PUSH2 0xA7E JUMP JUMPDEST DUP2 MSTORE DUP6 DUP2 SWAP5 RETURNDATASIZE SWAP3 ADD RETURNDATACOPY PUSH2 0xBEE JUMP JUMPDEST POP DUP1 RETURN JUMPDEST POP PUSH1 0x60 SWAP3 POP PUSH2 0xBEE JUMP JUMPDEST SWAP6 POP SWAP6 POP POP POP POP POP CALLVALUE PUSH2 0x934 JUMPI POP POP DUP1 RETURN JUMPDEST PUSH4 0xB398979F PUSH1 0xE0 SHL DUP2 MSTORE REVERT JUMPDEST DUP7 MLOAD PUSH4 0x4C9C8CE3 PUSH1 0xE0 SHL DUP2 MSTORE DUP1 DUP6 ADD DUP5 SWAP1 MSTORE REVERT JUMPDEST DUP8 MLOAD PUSH4 0x2A875269 PUSH1 0xE2 SHL DUP2 MSTORE DUP1 DUP7 ADD SWAP2 SWAP1 SWAP2 MSTORE REVERT JUMPDEST SWAP1 SWAP2 POP DUP5 DUP2 DUP2 RETURNDATASIZE DUP4 GT PUSH2 0x991 JUMPI JUMPDEST PUSH2 0x981 DUP2 DUP4 PUSH2 0xA7E JUMP JUMPDEST DUP2 ADD SUB SLT PUSH2 0x63F JUMPI MLOAD SWAP1 CODESIZE PUSH2 0x846 JUMP JUMPDEST POP RETURNDATASIZE PUSH2 0x977 JUMP JUMPDEST DUP6 MLOAD PUSH4 0x703E46DD PUSH1 0xE1 SHL DUP2 MSTORE DUP9 SWAP1 REVERT JUMPDEST SWAP1 POP DUP2 PUSH32 0x360894A13BA1A3210667C828492DB98DCA3E2076CC3735A920A3CA505D382BBC SLOAD AND EQ ISZERO CODESIZE PUSH2 0x81B JUMP JUMPDEST DUP6 DUP1 REVERT JUMPDEST DUP4 DUP3 CALLVALUE PUSH2 0x4A6 JUMPI DUP2 PUSH1 0x3 NOT CALLDATASIZE ADD SLT PUSH2 0x4A6 JUMPI PUSH1 0x20 SWAP1 PUSH1 0x1 SLOAD SWAP1 MLOAD SWAP1 DUP2 MSTORE RETURN JUMPDEST DUP4 DUP3 CALLVALUE PUSH2 0x4A6 JUMPI DUP1 PUSH1 0x3 NOT CALLDATASIZE ADD SLT PUSH2 0x4A6 JUMPI PUSH2 0xA13 PUSH2 0xA63 JUMP JUMPDEST PUSH2 0xA1B PUSH2 0xB74 JUMP JUMPDEST PUSH1 0x1 PUSH1 0x1 PUSH1 0xA0 SHL SUB AND DUP3 MSTORE PUSH1 0x20 DUP3 SWAP1 MSTORE DUP2 KECCAK256 PUSH1 0x24 CALLDATALOAD SWAP1 SSTORE DUP1 RETURN JUMPDEST SWAP1 SWAP2 POP CALLVALUE PUSH2 0x153 JUMPI PUSH1 0x20 CALLDATASIZE PUSH1 0x3 NOT ADD SLT PUSH2 0x153 JUMPI CALLDATALOAD SWAP2 PUSH1 0xFF DUP4 AND DUP4 SUB PUSH2 0x101 JUMPI POP PUSH1 0xFF PUSH2 0x425 PUSH1 0x20 SWAP4 PUSH2 0xAD2 JUMP JUMPDEST PUSH1 0x4 CALLDATALOAD SWAP1 PUSH1 0x1 PUSH1 0x1 PUSH1 0xA0 SHL SUB DUP3 AND DUP3 SUB PUSH2 0xA79 JUMPI JUMP JUMPDEST PUSH1 0x0 DUP1 REVERT JUMPDEST SWAP1 PUSH1 0x1F DUP1 NOT SWAP2 ADD AND DUP2 ADD SWAP1 DUP2 LT PUSH8 0xFFFFFFFFFFFFFFFF DUP3 GT OR PUSH2 0xAA0 JUMPI PUSH1 0x40 MSTORE JUMP JUMPDEST PUSH4 0x4E487B71 PUSH1 0xE0 SHL PUSH1 0x0 MSTORE PUSH1 0x41 PUSH1 0x4 MSTORE PUSH1 0x24 PUSH1 0x0 REVERT JUMPDEST PUSH8 0xFFFFFFFFFFFFFFFF DUP2 GT PUSH2 0xAA0 JUMPI PUSH1 0x1F ADD PUSH1 0x1F NOT AND PUSH1 0x20 ADD SWAP1 JUMP JUMPDEST SWAP1 PUSH1 0xA DUP3 LT ISZERO PUSH2 0xAEA JUMPI PUSH1 0x1F DUP3 PUSH1 0x5 SHR PUSH1 0x2 ADD SWAP3 AND SWAP1 JUMP JUMPDEST PUSH4 0x4E487B71 PUSH1 0xE0 SHL PUSH1 0x0 MSTORE PUSH1 0x32 PUSH1 0x4 MSTORE PUSH1 0x24 PUSH1 0x0 REVERT JUMPDEST PUSH1 0x1 PUSH1 0x1 PUSH1 0xA0 SHL SUB SWAP1 DUP2 AND SWAP1 DUP2 ISZERO PUSH2 0xB5B JUMPI PUSH1 0x0 DUP1 MLOAD PUSH1 0x20 PUSH2 0xC52 DUP4 CODECOPY DUP2 MLOAD SWAP2 MSTORE DUP1 SLOAD PUSH1 0x1 PUSH1 0x1 PUSH1 0xA0 SHL SUB NOT DUP2 AND DUP5 OR SWAP1 SWAP2 SSTORE AND PUSH32 0x8BE0079C531659141344CD1FD0A4F28419497F9722A3DAAFE3B4186F6B6457E0 PUSH1 0x0 DUP1 LOG3 JUMP JUMPDEST PUSH1 0x40 MLOAD PUSH4 0x1E4FBDF7 PUSH1 0xE0 SHL DUP2 MSTORE PUSH1 0x0 PUSH1 0x4 DUP3 ADD MSTORE PUSH1 0x24 SWAP1 REVERT JUMPDEST PUSH1 0x0 DUP1 MLOAD PUSH1 0x20 PUSH2 0xC52 DUP4 CODECOPY DUP2 MLOAD SWAP2 MSTORE SLOAD PUSH1 0x1 PUSH1 0x1 PUSH1 0xA0 SHL SUB AND CALLER SUB PUSH2 0xB95 JUMPI JUMP JUMPDEST PUSH1 0x40 MLOAD PUSH4 0x118CDAA7 PUSH1 0xE0 SHL DUP2 MSTORE CALLER PUSH1 0x4 DUP3 ADD MSTORE PUSH1 0x24 SWAP1 REVERT JUMPDEST PUSH1 0xFF PUSH32 0xF0C57E16840DF040F15088DC2F81FE391C3923BEC73E23A9662EFC9C229C6A00 SLOAD PUSH1 0x40 SHR AND ISZERO PUSH2 0xBDC JUMPI JUMP JUMPDEST PUSH1 0x40 MLOAD PUSH4 0x1AFCD79F PUSH1 0xE3 SHL DUP2 MSTORE PUSH1 0x4 SWAP1 REVERT JUMPDEST SWAP1 PUSH2 0xC15 JUMPI POP DUP1 MLOAD ISZERO PUSH2 0xC03 JUMPI DUP1 MLOAD SWAP1 PUSH1 0x20 ADD REVERT JUMPDEST PUSH1 0x40 MLOAD PUSH4 0xD6BDA275 PUSH1 0xE0 SHL DUP2 MSTORE PUSH1 0x4 SWAP1 REVERT JUMPDEST DUP2 MLOAD ISZERO DUP1 PUSH2 0xC48 JUMPI JUMPDEST PUSH2 0xC26 JUMPI POP SWAP1 JUMP JUMPDEST PUSH1 0x40 MLOAD PUSH4 0x9996B315 PUSH1 0xE0 SHL DUP2 MSTORE PUSH1 0x1 PUSH1 0x1 PUSH1 0xA0 SHL SUB SWAP1 SWAP2 AND PUSH1 0x4 DUP3 ADD MSTORE PUSH1 0x24 SWAP1 REVERT JUMPDEST POP DUP1 EXTCODESIZE ISZERO PUSH2 0xC1E JUMP INVALID SWAP1 AND 0xD0 SWAP14 PUSH19 0xD40FDAE2FD8CEAC6B6234C7706214FD39C1CD1 0xE6 MULMOD LOG0 MSTORE DUP13 NOT SWAP4 STOP LOG2 PUSH5 0x6970667358 0x22 SLT KECCAK256 0x4C 0xDD 0x21 PREVRANDAO 0xDC 0xDE DUP13 SWAP15 MSTORE CALLDATACOPY 0xBA EXTCODEHASH 0xF SELFBALANCE NOT 0xF9 0xAF SELFDESTRUCT PUSH23 0x2B7BEA90FF00BC32535172DC1164736F6C634300081600 CALLER "},"methodIdentifiers":{"UPGRADE_INTERFACE_VERSION()":"ad3cb1cc","clearPendingPrize(address)":"94ed4d37","getPendingPrize(address)":"4254adc8","getPrizePercentage(uint8)":"283ea25b","initialize(address)":"c4d66de8","owner()":"8da5cb5b","pendingPrizes(address)":"788f5352","prizePercentages(uint256)":"a448bd23","proxiableUUID()":"52d1902d","renounceOwnership()":"715018a6","setPendingPrize(address,uint256)":"370a8fbe","totalPrizePool()":"398ab9a7","transferOwnership(address)":"f2fde38b","updatePrizePercentages(uint8[10])":"8c5119c0","updateTotalPrizePool(uint256)":"c91651bb","upgradeToAndCall(address,bytes)":"4f1ef286"}},"storageLayout":{"storage":[{"astId":3725,"contract":"contracts/PrizeStorage.sol:PrizeStorage","label":"pendingPrizes","offset":0,"slot":"0","type":"t_mapping(t_address,t_uint256)"},{"astId":3727,"contract":"contracts/PrizeStorage.sol:PrizeStorage","label":"totalPrizePool","offset":0,"slot":"1","type":"t_uint256"},{"astId":3731,"contract":"contracts/PrizeStorage.sol:PrizeStorage","label":"prizePercentages","offset":0,"slot":"2","type":"t_array(t_uint8)10_storage"}],"types":{"t_address":{"encoding":"inplace","label":"address","numberOfBytes":"20"},"t_array(t_uint8)10_storage":{"base":"t_uint8","encoding":"inplace","label":"uint8[10]","numberOfBytes":"32"},"t_mapping(t_address,t_uint256)":{"encoding":"mapping","key":"t_address","label":"mapping(address => uint256)","numberOfBytes":"32","value":"t_uint256"},"t_uint256":{"encoding":"inplace","label":"uint256","numberOfBytes":"32"},"t_uint8":{"encoding":"inplace","label":"uint8","numberOfBytes":"1"}}}}}}