{"contracts/PrizeDistributor.sol":{"PrizeDistributor":{"abi":[{"inputs":[],"stateMutability":"nonpayable","type":"constructor"},{"inputs":[{"internalType":"address","name":"target","type":"address"}],"name":"AddressEmptyCode","type":"error"},{"inputs":[{"internalType":"address","name":"implementation","type":"address"}],"name":"ERC1967InvalidImplementation","type":"error"},{"inputs":[],"name":"ERC1967NonPayable","type":"error"},{"inputs":[],"name":"EnforcedPause","type":"error"},{"inputs":[],"name":"ExpectedPause","type":"error"},{"inputs":[],"name":"FailedCall","type":"error"},{"inputs":[],"name":"InvalidInitialization","type":"error"},{"inputs":[],"name":"NotInitializing","type":"error"},{"inputs":[{"internalType":"address","name":"owner","type":"address"}],"name":"OwnableInvalidOwner","type":"error"},{"inputs":[{"internalType":"address","name":"account","type":"address"}],"name":"OwnableUnauthorizedAccount","type":"error"},{"inputs":[],"name":"ReentrancyGuardReentrantCall","type":"error"},{"inputs":[],"name":"UUPSUnauthorizedCallContext","type":"error"},{"inputs":[{"internalType":"bytes32","name":"slot","type":"bytes32"}],"name":"UUPSUnsupportedProxiableUUID","type":"error"},{"anonymous":false,"inputs":[{"indexed":false,"internalType":"uint64","name":"version","type":"uint64"}],"name":"Initialized","type":"event"},{"anonymous":false,"inputs":[{"indexed":true,"internalType":"address","name":"previousOwner","type":"address"},{"indexed":true,"internalType":"address","name":"newOwner","type":"address"}],"name":"OwnershipTransferred","type":"event"},{"anonymous":false,"inputs":[{"indexed":false,"internalType":"address","name":"account","type":"address"}],"name":"Paused","type":"event"},{"anonymous":false,"inputs":[{"indexed":true,"internalType":"address","name":"winner","type":"address"},{"indexed":false,"internalType":"uint256","name":"amount","type":"uint256"}],"name":"PrizeClaimed","type":"event"},{"anonymous":false,"inputs":[],"name":"PrizeDistributorInitialized","type":"event"},{"anonymous":false,"inputs":[{"indexed":false,"internalType":"address[]","name":"winners","type":"address[]"},{"indexed":false,"internalType":"uint256[]","name":"prizes","type":"uint256[]"}],"name":"PrizesCalculated","type":"event"},{"anonymous":false,"inputs":[{"indexed":false,"internalType":"address","name":"account","type":"address"}],"name":"Unpaused","type":"event"},{"anonymous":false,"inputs":[{"indexed":true,"internalType":"address","name":"implementation","type":"address"}],"name":"Upgraded","type":"event"},{"inputs":[],"name":"UPGRADE_INTERFACE_VERSION","outputs":[{"internalType":"string","name":"","type":"string"}],"stateMutability":"view","type":"function"},{"inputs":[],"name":"claimPrize","outputs":[],"stateMutability":"nonpayable","type":"function"},{"inputs":[{"internalType":"address[]","name":"_winners","type":"address[]"},{"internalType":"uint32[]","name":"_scores","type":"uint32[]"}],"name":"distributePrizes","outputs":[],"stateMutability":"nonpayable","type":"function"},{"inputs":[{"internalType":"address","name":"_owner","type":"address"},{"internalType":"address","name":"_prizeStorage","type":"address"}],"name":"initialize","outputs":[],"stateMutability":"nonpayable","type":"function"},{"inputs":[],"name":"owner","outputs":[{"internalType":"address","name":"","type":"address"}],"stateMutability":"view","type":"function"},{"inputs":[],"name":"pause","outputs":[],"stateMutability":"nonpayable","type":"function"},{"inputs":[],"name":"paused","outputs":[{"internalType":"bool","name":"","type":"bool"}],"stateMutability":"view","type":"function"},{"inputs":[],"name":"prizeStorage","outputs":[{"internalType":"contract PrizeStorage","name":"","type":"address"}],"stateMutability":"view","type":"function"},{"inputs":[],"name":"proxiableUUID","outputs":[{"internalType":"bytes32","name":"","type":"bytes32"}],"stateMutability":"view","type":"function"},{"inputs":[],"name":"renounceOwnership","outputs":[],"stateMutability":"nonpayable","type":"function"},{"inputs":[{"internalType":"address","name":"newOwner","type":"address"}],"name":"transferOwnership","outputs":[],"stateMutability":"nonpayable","type":"function"},{"inputs":[],"name":"unpause","outputs":[],"stateMutability":"nonpayable","type":"function"},{"inputs":[{"internalType":"address","name":"newImplementation","type":"address"},{"internalType":"bytes","name":"data","type":"bytes"}],"name":"upgradeToAndCall","outputs":[],"stateMutability":"payable","type":"function"},{"inputs":[],"name":"withdrawRemainingBalance","outputs":[],"stateMutability":"nonpayable","type":"function"},{"stateMutability":"payable","type":"receive"}],"evm":{"bytecode":{"linkReferences":{},"object":"60a080604052346100cc57306080527ff0c57e16840df040f15088dc2f81fe391c3923bec73e23a9662efc9c229c6a009081549060ff8260401c166100bd57506001600160401b036002600160401b031982821601610078575b60405161123f90816100d2823960805181818161055101526106310152f35b6001600160401b031990911681179091556040519081527fc7f505b2f371ae2175ee4913f4499e1f2633a7b5936321eed1cdaeb6115181d290602090a1388080610059565b63f92ee8a960e01b8152600490fd5b600080fdfe6080604081815260049182361015610079575b50361561001e57600080fd5b600080546001600160a01b0316924790843b15610075579060248392838651978894859363c91651bb60e01b85528401525af191821561006b57505061006057005b61006990610eca565b005b51903d90823e3d90fd5b8280fd5b600090813560e01c9081631620d0c314610ea6575080632486709214610a345780633f4ba83a146109bc578063485cc955146107f05780634f1ef286146105b557806352d1902d1461053d5780635c975abb1461050c57806370740ac914610396578063715018a61461032c5780638456cb59146102c45780638da5cb5b1461028a578063ad3cb1cc146101eb578063b91d53c61461014b5763f2fde38b03610012573461014857602036600319011261014857610145610138610f2e565b610140611071565b610ffd565b80f35b80fd5b509134610075578260031936011261007557610165611071565b61016d6110d5565b479182156101bb57836101a6818080808860018060a01b036000805160206111aa83398151915254165af16101a0610f8f565b50610fbf565b60016000805160206111ea8339815191525580f35b906020606492519162461bcd60e51b8352820152600a6024820152694e6f2062616c616e636560b01b6044820152fd5b5091346100755782600319360112610075578151908282019082821067ffffffffffffffff8311176102775750825260058152602090640352e302e360dc1b6020820152825193849260208452825192836020860152825b84811061026157505050828201840152601f01601f19168101030190f35b8181018301518882018801528795508201610243565b634e487b7160e01b855260419052602484fd5b5090346102c057816003193601126102c0576000805160206111aa8339815191525490516001600160a01b039091168152602090f35b5080fd5b5090346102c057816003193601126102c05760207f62e78cea01bee320cd4e420270b5ea74000d11b0c9f74754ebdbfc544b05a25891610302611071565b61030a6110aa565b6000805160206111ca833981519152805460ff1916600117905551338152a180f35b5034610148578060031936011261014857610345611071565b6000805160206111aa83398151915280546001600160a01b0319811690915581906001600160a01b03167f8be0079c531659141344cd1fd0a4f28419497f9722a3daafe3b4186f6b6457e08280a380f35b5090346102c057816003193601126102c0576103b06110d5565b6103b86110aa565b8154815163084a95b960e31b815233858201526001600160a01b039091169390916020918284602481895afa9384156105025785946104cf575b50831561049a578585963b156104965760248692845197889384926394ed4d3760e01b845233908401525af193841561048c577f95681e512bc0fe659e195e06c283eada494316f3d801213e48e7101af92bf770939461047d575b506104618580808088335af16101a0610f8f565b519283523392a260016000805160206111ea8339815191525580f35b61048690610eca565b3861044d565b81513d87823e3d90fd5b8580fd5b82606492519162461bcd60e51b835282015260116024820152704e6f207072697a6520746f20636c61696d60781b6044820152fd5b9093508281813d83116104fb575b6104e78183610ef4565b810103126104f7575192386103f2565b8480fd5b503d6104dd565b82513d87823e3d90fd5b5090346102c057816003193601126102c05760209060ff6000805160206111ca833981519152541690519015158152f35b5034610148578060031936011261014857507f00000000000000000000000000000000000000000000000000000000000000006001600160a01b031630036105a857602090517f360894a13ba1a3210667c828492db98dca3e2076cc3735a920a3ca505d382bbc8152f35b5163703e46dd60e11b8152fd5b50919080600319360112610075576105cb610f2e565b90602493843567ffffffffffffffff81116102c057366023820112156102c05780850135936105f985610f49565b61060585519182610ef4565b85815260209586820193368a8383010111610496578186928b8a93018737830101526001600160a01b037f000000000000000000000000000000000000000000000000000000000000000081163081149081156107c2575b506107b25761066a611071565b85516352d1902d60e01b81529083169680828a818b5afa9182918793610782575b50506106a75750505050505191634c9c8ce360e01b8352820152fd5b86899689927f360894a13ba1a3210667c828492db98dca3e2076cc3735a920a3ca505d382bbc9081810361076d5750853b156107585780546001600160a01b0319168317905551869392917fbc7cd75a20ee27fd9adebab32041f755214dbc6bffa90cc0225b39da2e5c2d3b8580a282511561073c5750506107389382915190845af4610732610f8f565b91611146565b5080f35b9350935050503461074c57505080f35b63b398979f60e01b8152fd5b5051634c9c8ce360e01b815291820152859150fd5b848a91845191632a87526960e21b8352820152fd5b9080929350813d83116107ab575b61079a8183610ef4565b81010312610496575190388061068b565b503d610790565b855163703e46dd60e11b81528890fd5b9050817f360894a13ba1a3210667c828492db98dca3e2076cc3735a920a3ca505d382bbc541614153861065d565b5091903461007557806003193601126100755761080b610f2e565b906024356001600160a01b038116908190036104f7577ff0c57e16840df040f15088dc2f81fe391c3923bec73e23a9662efc9c229c6a0092835460ff81851c16159567ffffffffffffffff8216801590816109b4575b60011490816109aa575b1590816109a1575b50610993575067ffffffffffffffff19811660011785556108a6919086610974575b5061089e611105565b610140611105565b6108ae611105565b6108b6611105565b6108be611105565b60016000805160206111ea833981519152556108d8611105565b6108e0611105565b6000805160206111ca833981519152805460ff1916905584546001600160a01b03191617845551917f4f07e2e38a1864fa9c225af602b3688bf29a7ff7ef415c98b9a864165e83e2618480a1610934578280f35b805468ff000000000000000019169055600181527fc7f505b2f371ae2175ee4913f4499e1f2633a7b5936321eed1cdaeb6115181d290602090a138808280f35b68ffffffffffffffffff19166801000000000000000117855538610895565b845163f92ee8a960e01b8152fd5b90501538610873565b303b15915061086b565b889150610861565b5091346100755782600319360112610075576109d6611071565b6000805160206111ca8339815191529081549060ff821615610a26575060ff19169055513381527f5db9ee0a495bf2e6ff9c91a7834c1ba4fdd244a5e8aa4e537bd38aeae4b073aa90602090a180f35b8351638dfc202b60e01b8152fd5b5082346102c057826003193601126102c05767ffffffffffffffff9181358381116102c057366023820112156102c0578083013593602492610a7586610f16565b95610a8288519788610ef4565b80875260209384880186819360051b830101913683116104f7578701905b828210610e875750505084359283116102c057366023840112156102c0578286013592610acc84610f16565b93610ad98a519586610ef4565b808552868686019160051b830101913683116104f7578701905b828210610e6b57505050610b05611071565b610b0d6110aa565b8651835103610e3557865115610e065760015b8351811015610bab576000198101818111610b9957610b479063ffffffff91829187610f65565b511690610b548387610f65565b511611610b6357600101610b20565b885162461bcd60e51b81528088018690526011818801527014d8dbdc995cc81b9bdd081cdbdc9d1959607a1b6044820152606490fd5b634e487b7160e01b8452601188528684fd5b50964794939092508415610dc5578651600a811115610dbd575060ff600a5b1695610bd587610f16565b95610be285519788610ef4565b878752610bee88610f16565b87840190601f1901368237845b60ff81168a811015610d22578654885163283ea25b60e01b81528681018390526001600160a01b03918216919088818d81865afa8015610d18578a90610ce0575b60ff16878102915087820403610cce5790610c5e8f9460648195940495610f65565b511690803b15610cca578b916044898c80948f8990519788968795631b8547df60e11b87528601528401525af18015610cc05760ff949260019492610ca992610cb1575b508d610f65565b520116610bfb565b610cba90610eca565b38610ca2565b8a513d8b823e3d90fd5b8980fd5b634e487b7160e01b8a52601188528b8afd5b508881813d8311610d11575b610cf68183610ef4565b81010312610cca575160ff81168103610cca5760ff90610c3c565b503d610cec565b8b513d8c823e3d90fd5b868c848f89908e8d80519581870191875251809152606086019290875b818110610da05750505084820385840152518082529082019291855b828110610d8c57867fe7d58a1d290fcecc00041f0d1eedfc15a8601ba209c8a6ede7d5c5e33dbe5e4b87870388a180f35b835185529381019392810192600101610d5b565b82516001600160a01b031685529385019391850191600101610d3f565b60ff90610bca565b8560178560649386519362461bcd60e51b85528401528201527f4e6f207072697a657320746f20646973747269627574650000000000000000006044820152fd5b875162461bcd60e51b8152808701859052600a81870152694e6f2077696e6e65727360b01b6044820152606490fd5b875162461bcd60e51b8152808701859052601181870152704d69736d6174636865642061727261797360781b6044820152606490fd5b813563ffffffff81168103610496578152908601908601610af3565b81356001600160a01b0381168103610496578152908601908601610aa0565b9050346102c057816003193601126102c05790546001600160a01b03168152602090f35b67ffffffffffffffff8111610ede57604052565b634e487b7160e01b600052604160045260246000fd5b90601f8019910116810190811067ffffffffffffffff821117610ede57604052565b67ffffffffffffffff8111610ede5760051b60200190565b600435906001600160a01b0382168203610f4457565b600080fd5b67ffffffffffffffff8111610ede57601f01601f191660200190565b8051821015610f795760209160051b010190565b634e487b7160e01b600052603260045260246000fd5b3d15610fba573d90610fa082610f49565b91610fae6040519384610ef4565b82523d6000602084013e565b606090565b15610fc657565b60405162461bcd60e51b815260206004820152600f60248201526e151c985b9cd9995c8819985a5b1959608a1b6044820152606490fd5b6001600160a01b03908116908115611058576000805160206111aa83398151915280546001600160a01b031981168417909155167f8be0079c531659141344cd1fd0a4f28419497f9722a3daafe3b4186f6b6457e0600080a3565b604051631e4fbdf760e01b815260006004820152602490fd5b6000805160206111aa833981519152546001600160a01b0316330361109257565b60405163118cdaa760e01b8152336004820152602490fd5b60ff6000805160206111ca83398151915254166110c357565b60405163d93c066560e01b8152600490fd5b6000805160206111ea83398151915260028154146110f35760029055565b604051633ee5aeb560e01b8152600490fd5b60ff7ff0c57e16840df040f15088dc2f81fe391c3923bec73e23a9662efc9c229c6a005460401c161561113457565b604051631afcd79f60e31b8152600490fd5b9061116d575080511561115b57805190602001fd5b60405163d6bda27560e01b8152600490fd5b815115806111a0575b61117e575090565b604051639996b31560e01b81526001600160a01b039091166004820152602490fd5b50803b1561117656fe9016d09d72d40fdae2fd8ceac6b6234c7706214fd39c1cd1e609a0528c199300cd5ed15c6e187e77e9aee88184c21f4f2182ab5827cb3b7e07fbedcd63f033009b779b17422d0df92223018b32b4d1fa46e071723d6817e2486d003becc55f00a264697066735822122097dc39dded84c6ffb573d7e341f0a2a44f27436b379a235c1b6ae21ba27aee0464736f6c63430008160033","opcodes":"PUSH1 0xA0 DUP1 PUSH1 0x40 MSTORE CALLVALUE PUSH2 0xCC JUMPI ADDRESS PUSH1 0x80 MSTORE PUSH32 0xF0C57E16840DF040F15088DC2F81FE391C3923BEC73E23A9662EFC9C229C6A00 SWAP1 DUP2 SLOAD SWAP1 PUSH1 0xFF DUP3 PUSH1 0x40 SHR AND PUSH2 0xBD JUMPI POP PUSH1 0x1 PUSH1 0x1 PUSH1 0x40 SHL SUB PUSH1 0x2 PUSH1 0x1 PUSH1 0x40 SHL SUB NOT DUP3 DUP3 AND ADD PUSH2 0x78 JUMPI JUMPDEST PUSH1 0x40 MLOAD PUSH2 0x123F SWAP1 DUP2 PUSH2 0xD2 DUP3 CODECOPY PUSH1 0x80 MLOAD DUP2 DUP2 DUP2 PUSH2 0x551 ADD MSTORE PUSH2 0x631 ADD MSTORE RETURN JUMPDEST PUSH1 0x1 PUSH1 0x1 PUSH1 0x40 SHL SUB NOT SWAP1 SWAP2 AND DUP2 OR SWAP1 SWAP2 SSTORE PUSH1 0x40 MLOAD SWAP1 DUP2 MSTORE PUSH32 0xC7F505B2F371AE2175EE4913F4499E1F2633A7B5936321EED1CDAEB6115181D2 SWAP1 PUSH1 0x20 SWAP1 LOG1 CODESIZE DUP1 DUP1 PUSH2 0x59 JUMP JUMPDEST PUSH4 0xF92EE8A9 PUSH1 0xE0 SHL DUP2 MSTORE PUSH1 0x4 SWAP1 REVERT JUMPDEST PUSH1 0x0 DUP1 REVERT INVALID PUSH1 0x80 PUSH1 0x40 DUP2 DUP2 MSTORE PUSH1 0x4 SWAP2 DUP3 CALLDATASIZE LT ISZERO PUSH2 0x79 JUMPI JUMPDEST POP CALLDATASIZE ISZERO PUSH2 0x1E JUMPI PUSH1 0x0 DUP1 REVERT JUMPDEST PUSH1 0x0 DUP1 SLOAD PUSH1 0x1 PUSH1 0x1 PUSH1 0xA0 SHL SUB AND SWAP3 SELFBALANCE SWAP1 DUP5 EXTCODESIZE ISZERO PUSH2 0x75 JUMPI SWAP1 PUSH1 0x24 DUP4 SWAP3 DUP4 DUP7 MLOAD SWAP8 DUP9 SWAP5 DUP6 SWAP4 PUSH4 0xC91651BB PUSH1 0xE0 SHL DUP6 MSTORE DUP5 ADD MSTORE GAS CALL SWAP2 DUP3 ISZERO PUSH2 0x6B JUMPI POP POP PUSH2 0x60 JUMPI STOP JUMPDEST PUSH2 0x69 SWAP1 PUSH2 0xECA JUMP JUMPDEST STOP JUMPDEST MLOAD SWAP1 RETURNDATASIZE SWAP1 DUP3 RETURNDATACOPY RETURNDATASIZE SWAP1 REVERT JUMPDEST DUP3 DUP1 REVERT JUMPDEST PUSH1 0x0 SWAP1 DUP2 CALLDATALOAD PUSH1 0xE0 SHR SWAP1 DUP2 PUSH4 0x1620D0C3 EQ PUSH2 0xEA6 JUMPI POP DUP1 PUSH4 0x24867092 EQ PUSH2 0xA34 JUMPI DUP1 PUSH4 0x3F4BA83A EQ PUSH2 0x9BC JUMPI DUP1 PUSH4 0x485CC955 EQ PUSH2 0x7F0 JUMPI DUP1 PUSH4 0x4F1EF286 EQ PUSH2 0x5B5 JUMPI DUP1 PUSH4 0x52D1902D EQ PUSH2 0x53D JUMPI DUP1 PUSH4 0x5C975ABB EQ PUSH2 0x50C JUMPI DUP1 PUSH4 0x70740AC9 EQ PUSH2 0x396 JUMPI DUP1 PUSH4 0x715018A6 EQ PUSH2 0x32C JUMPI DUP1 PUSH4 0x8456CB59 EQ PUSH2 0x2C4 JUMPI DUP1 PUSH4 0x8DA5CB5B EQ PUSH2 0x28A JUMPI DUP1 PUSH4 0xAD3CB1CC EQ PUSH2 0x1EB JUMPI DUP1 PUSH4 0xB91D53C6 EQ PUSH2 0x14B JUMPI PUSH4 0xF2FDE38B SUB PUSH2 0x12 JUMPI CALLVALUE PUSH2 0x148 JUMPI PUSH1 0x20 CALLDATASIZE PUSH1 0x3 NOT ADD SLT PUSH2 0x148 JUMPI PUSH2 0x145 PUSH2 0x138 PUSH2 0xF2E JUMP JUMPDEST PUSH2 0x140 PUSH2 0x1071 JUMP JUMPDEST PUSH2 0xFFD JUMP JUMPDEST DUP1 RETURN JUMPDEST DUP1 REVERT JUMPDEST POP SWAP2 CALLVALUE PUSH2 0x75 JUMPI DUP3 PUSH1 0x3 NOT CALLDATASIZE ADD SLT PUSH2 0x75 JUMPI PUSH2 0x165 PUSH2 0x1071 JUMP JUMPDEST PUSH2 0x16D PUSH2 0x10D5 JUMP JUMPDEST SELFBALANCE SWAP2 DUP3 ISZERO PUSH2 0x1BB JUMPI DUP4 PUSH2 0x1A6 DUP2 DUP1 DUP1 DUP1 DUP9 PUSH1 0x1 DUP1 PUSH1 0xA0 SHL SUB PUSH1 0x0 DUP1 MLOAD PUSH1 0x20 PUSH2 0x11AA DUP4 CODECOPY DUP2 MLOAD SWAP2 MSTORE SLOAD AND GAS CALL PUSH2 0x1A0 PUSH2 0xF8F JUMP JUMPDEST POP PUSH2 0xFBF JUMP JUMPDEST PUSH1 0x1 PUSH1 0x0 DUP1 MLOAD PUSH1 0x20 PUSH2 0x11EA DUP4 CODECOPY DUP2 MLOAD SWAP2 MSTORE SSTORE DUP1 RETURN JUMPDEST SWAP1 PUSH1 0x20 PUSH1 0x64 SWAP3 MLOAD SWAP2 PUSH3 0x461BCD PUSH1 0xE5 SHL DUP4 MSTORE DUP3 ADD MSTORE PUSH1 0xA PUSH1 0x24 DUP3 ADD MSTORE PUSH10 0x4E6F2062616C616E6365 PUSH1 0xB0 SHL PUSH1 0x44 DUP3 ADD MSTORE REVERT JUMPDEST POP SWAP2 CALLVALUE PUSH2 0x75 JUMPI DUP3 PUSH1 0x3 NOT CALLDATASIZE ADD SLT PUSH2 0x75 JUMPI DUP2 MLOAD SWAP1 DUP3 DUP3 ADD SWAP1 DUP3 DUP3 LT PUSH8 0xFFFFFFFFFFFFFFFF DUP4 GT OR PUSH2 0x277 JUMPI POP DUP3 MSTORE PUSH1 0x5 DUP2 MSTORE PUSH1 0x20 SWAP1 PUSH5 0x352E302E3 PUSH1 0xDC SHL PUSH1 0x20 DUP3 ADD MSTORE DUP3 MLOAD SWAP4 DUP5 SWAP3 PUSH1 0x20 DUP5 MSTORE DUP3 MLOAD SWAP3 DUP4 PUSH1 0x20 DUP7 ADD MSTORE DUP3 JUMPDEST DUP5 DUP2 LT PUSH2 0x261 JUMPI POP POP POP DUP3 DUP3 ADD DUP5 ADD MSTORE PUSH1 0x1F ADD PUSH1 0x1F NOT AND DUP2 ADD SUB ADD SWAP1 RETURN JUMPDEST DUP2 DUP2 ADD DUP4 ADD MLOAD DUP9 DUP3 ADD DUP9 ADD MSTORE DUP8 SWAP6 POP DUP3 ADD PUSH2 0x243 JUMP JUMPDEST PUSH4 0x4E487B71 PUSH1 0xE0 SHL DUP6 MSTORE PUSH1 0x41 SWAP1 MSTORE PUSH1 0x24 DUP5 REVERT JUMPDEST POP SWAP1 CALLVALUE PUSH2 0x2C0 JUMPI DUP2 PUSH1 0x3 NOT CALLDATASIZE ADD SLT PUSH2 0x2C0 JUMPI PUSH1 0x0 DUP1 MLOAD PUSH1 0x20 PUSH2 0x11AA DUP4 CODECOPY DUP2 MLOAD SWAP2 MSTORE SLOAD SWAP1 MLOAD PUSH1 0x1 PUSH1 0x1 PUSH1 0xA0 SHL SUB SWAP1 SWAP2 AND DUP2 MSTORE PUSH1 0x20 SWAP1 RETURN JUMPDEST POP DUP1 REVERT JUMPDEST POP SWAP1 CALLVALUE PUSH2 0x2C0 JUMPI DUP2 PUSH1 0x3 NOT CALLDATASIZE ADD SLT PUSH2 0x2C0 JUMPI PUSH1 0x20 PUSH32 0x62E78CEA01BEE320CD4E420270B5EA74000D11B0C9F74754EBDBFC544B05A258 SWAP2 PUSH2 0x302 PUSH2 0x1071 JUMP JUMPDEST PUSH2 0x30A PUSH2 0x10AA JUMP JUMPDEST PUSH1 0x0 DUP1 MLOAD PUSH1 0x20 PUSH2 0x11CA DUP4 CODECOPY DUP2 MLOAD SWAP2 MSTORE DUP1 SLOAD PUSH1 0xFF NOT AND PUSH1 0x1 OR SWAP1 SSTORE MLOAD CALLER DUP2 MSTORE LOG1 DUP1 RETURN JUMPDEST POP CALLVALUE PUSH2 0x148 JUMPI DUP1 PUSH1 0x3 NOT CALLDATASIZE ADD SLT PUSH2 0x148 JUMPI PUSH2 0x345 PUSH2 0x1071 JUMP JUMPDEST PUSH1 0x0 DUP1 MLOAD PUSH1 0x20 PUSH2 0x11AA DUP4 CODECOPY DUP2 MLOAD SWAP2 MSTORE DUP1 SLOAD PUSH1 0x1 PUSH1 0x1 PUSH1 0xA0 SHL SUB NOT DUP2 AND SWAP1 SWAP2 SSTORE DUP2 SWAP1 PUSH1 0x1 PUSH1 0x1 PUSH1 0xA0 SHL SUB AND PUSH32 0x8BE0079C531659141344CD1FD0A4F28419497F9722A3DAAFE3B4186F6B6457E0 DUP3 DUP1 LOG3 DUP1 RETURN JUMPDEST POP SWAP1 CALLVALUE PUSH2 0x2C0 JUMPI DUP2 PUSH1 0x3 NOT CALLDATASIZE ADD SLT PUSH2 0x2C0 JUMPI PUSH2 0x3B0 PUSH2 0x10D5 JUMP JUMPDEST PUSH2 0x3B8 PUSH2 0x10AA JUMP JUMPDEST DUP2 SLOAD DUP2 MLOAD PUSH4 0x84A95B9 PUSH1 0xE3 SHL DUP2 MSTORE CALLER DUP6 DUP3 ADD MSTORE PUSH1 0x1 PUSH1 0x1 PUSH1 0xA0 SHL SUB SWAP1 SWAP2 AND SWAP4 SWAP1 SWAP2 PUSH1 0x20 SWAP2 DUP3 DUP5 PUSH1 0x24 DUP2 DUP10 GAS STATICCALL SWAP4 DUP5 ISZERO PUSH2 0x502 JUMPI DUP6 SWAP5 PUSH2 0x4CF JUMPI JUMPDEST POP DUP4 ISZERO PUSH2 0x49A JUMPI DUP6 DUP6 SWAP7 EXTCODESIZE ISZERO PUSH2 0x496 JUMPI PUSH1 0x24 DUP7 SWAP3 DUP5 MLOAD SWAP8 DUP9 SWAP4 DUP5 SWAP3 PUSH4 0x94ED4D37 PUSH1 0xE0 SHL DUP5 MSTORE CALLER SWAP1 DUP5 ADD MSTORE GAS CALL SWAP4 DUP5 ISZERO PUSH2 0x48C JUMPI PUSH32 0x95681E512BC0FE659E195E06C283EADA494316F3D801213E48E7101AF92BF770 SWAP4 SWAP5 PUSH2 0x47D JUMPI JUMPDEST POP PUSH2 0x461 DUP6 DUP1 DUP1 DUP1 DUP9 CALLER GAS CALL PUSH2 0x1A0 PUSH2 0xF8F JUMP JUMPDEST MLOAD SWAP3 DUP4 MSTORE CALLER SWAP3 LOG2 PUSH1 0x1 PUSH1 0x0 DUP1 MLOAD PUSH1 0x20 PUSH2 0x11EA DUP4 CODECOPY DUP2 MLOAD SWAP2 MSTORE SSTORE DUP1 RETURN JUMPDEST PUSH2 0x486 SWAP1 PUSH2 0xECA JUMP JUMPDEST CODESIZE PUSH2 0x44D JUMP JUMPDEST DUP2 MLOAD RETURNDATASIZE DUP8 DUP3 RETURNDATACOPY RETURNDATASIZE SWAP1 REVERT JUMPDEST DUP6 DUP1 REVERT JUMPDEST DUP3 PUSH1 0x64 SWAP3 MLOAD SWAP2 PUSH3 0x461BCD PUSH1 0xE5 SHL DUP4 MSTORE DUP3 ADD MSTORE PUSH1 0x11 PUSH1 0x24 DUP3 ADD MSTORE PUSH17 0x4E6F207072697A6520746F20636C61696D PUSH1 0x78 SHL PUSH1 0x44 DUP3 ADD MSTORE REVERT JUMPDEST SWAP1 SWAP4 POP DUP3 DUP2 DUP2 RETURNDATASIZE DUP4 GT PUSH2 0x4FB JUMPI JUMPDEST PUSH2 0x4E7 DUP2 DUP4 PUSH2 0xEF4 JUMP JUMPDEST DUP2 ADD SUB SLT PUSH2 0x4F7 JUMPI MLOAD SWAP3 CODESIZE PUSH2 0x3F2 JUMP JUMPDEST DUP5 DUP1 REVERT JUMPDEST POP RETURNDATASIZE PUSH2 0x4DD JUMP JUMPDEST DUP3 MLOAD RETURNDATASIZE DUP8 DUP3 RETURNDATACOPY RETURNDATASIZE SWAP1 REVERT JUMPDEST POP SWAP1 CALLVALUE PUSH2 0x2C0 JUMPI DUP2 PUSH1 0x3 NOT CALLDATASIZE ADD SLT PUSH2 0x2C0 JUMPI PUSH1 0x20 SWAP1 PUSH1 0xFF PUSH1 0x0 DUP1 MLOAD PUSH1 0x20 PUSH2 0x11CA DUP4 CODECOPY DUP2 MLOAD SWAP2 MSTORE SLOAD AND SWAP1 MLOAD SWAP1 ISZERO ISZERO DUP2 MSTORE RETURN JUMPDEST POP CALLVALUE PUSH2 0x148 JUMPI DUP1 PUSH1 0x3 NOT CALLDATASIZE ADD SLT PUSH2 0x148 JUMPI POP PUSH32 0x0 PUSH1 0x1 PUSH1 0x1 PUSH1 0xA0 SHL SUB AND ADDRESS SUB PUSH2 0x5A8 JUMPI PUSH1 0x20 SWAP1 MLOAD PUSH32 0x360894A13BA1A3210667C828492DB98DCA3E2076CC3735A920A3CA505D382BBC DUP2 MSTORE RETURN JUMPDEST MLOAD PUSH4 0x703E46DD PUSH1 0xE1 SHL DUP2 MSTORE REVERT JUMPDEST POP SWAP2 SWAP1 DUP1 PUSH1 0x3 NOT CALLDATASIZE ADD SLT PUSH2 0x75 JUMPI PUSH2 0x5CB PUSH2 0xF2E JUMP JUMPDEST SWAP1 PUSH1 0x24 SWAP4 DUP5 CALLDATALOAD PUSH8 0xFFFFFFFFFFFFFFFF DUP2 GT PUSH2 0x2C0 JUMPI CALLDATASIZE PUSH1 0x23 DUP3 ADD SLT ISZERO PUSH2 0x2C0 JUMPI DUP1 DUP6 ADD CALLDATALOAD SWAP4 PUSH2 0x5F9 DUP6 PUSH2 0xF49 JUMP JUMPDEST PUSH2 0x605 DUP6 MLOAD SWAP2 DUP3 PUSH2 0xEF4 JUMP JUMPDEST DUP6 DUP2 MSTORE PUSH1 0x20 SWAP6 DUP7 DUP3 ADD SWAP4 CALLDATASIZE DUP11 DUP4 DUP4 ADD ADD GT PUSH2 0x496 JUMPI DUP2 DUP7 SWAP3 DUP12 DUP11 SWAP4 ADD DUP8 CALLDATACOPY DUP4 ADD ADD MSTORE PUSH1 0x1 PUSH1 0x1 PUSH1 0xA0 SHL SUB PUSH32 0x0 DUP2 AND ADDRESS DUP2 EQ SWAP1 DUP2 ISZERO PUSH2 0x7C2 JUMPI JUMPDEST POP PUSH2 0x7B2 JUMPI PUSH2 0x66A PUSH2 0x1071 JUMP JUMPDEST DUP6 MLOAD PUSH4 0x52D1902D PUSH1 0xE0 SHL DUP2 MSTORE SWAP1 DUP4 AND SWAP7 DUP1 DUP3 DUP11 DUP2 DUP12 GAS STATICCALL SWAP2 DUP3 SWAP2 DUP8 SWAP4 PUSH2 0x782 JUMPI JUMPDEST POP POP PUSH2 0x6A7 JUMPI POP POP POP POP POP MLOAD SWAP2 PUSH4 0x4C9C8CE3 PUSH1 0xE0 SHL DUP4 MSTORE DUP3 ADD MSTORE REVERT JUMPDEST DUP7 DUP10 SWAP7 DUP10 SWAP3 PUSH32 0x360894A13BA1A3210667C828492DB98DCA3E2076CC3735A920A3CA505D382BBC SWAP1 DUP2 DUP2 SUB PUSH2 0x76D JUMPI POP DUP6 EXTCODESIZE ISZERO PUSH2 0x758 JUMPI DUP1 SLOAD PUSH1 0x1 PUSH1 0x1 PUSH1 0xA0 SHL SUB NOT AND DUP4 OR SWAP1 SSTORE MLOAD DUP7 SWAP4 SWAP3 SWAP2 PUSH32 0xBC7CD75A20EE27FD9ADEBAB32041F755214DBC6BFFA90CC0225B39DA2E5C2D3B DUP6 DUP1 LOG2 DUP3 MLOAD ISZERO PUSH2 0x73C JUMPI POP POP PUSH2 0x738 SWAP4 DUP3 SWAP2 MLOAD SWAP1 DUP5 GAS DELEGATECALL PUSH2 0x732 PUSH2 0xF8F JUMP JUMPDEST SWAP2 PUSH2 0x1146 JUMP JUMPDEST POP DUP1 RETURN JUMPDEST SWAP4 POP SWAP4 POP POP POP CALLVALUE PUSH2 0x74C JUMPI POP POP DUP1 RETURN JUMPDEST PUSH4 0xB398979F PUSH1 0xE0 SHL DUP2 MSTORE REVERT JUMPDEST POP MLOAD PUSH4 0x4C9C8CE3 PUSH1 0xE0 SHL DUP2 MSTORE SWAP2 DUP3 ADD MSTORE DUP6 SWAP2 POP REVERT JUMPDEST DUP5 DUP11 SWAP2 DUP5 MLOAD SWAP2 PUSH4 0x2A875269 PUSH1 0xE2 SHL DUP4 MSTORE DUP3 ADD MSTORE REVERT JUMPDEST SWAP1 DUP1 SWAP3 SWAP4 POP DUP2 RETURNDATASIZE DUP4 GT PUSH2 0x7AB JUMPI JUMPDEST PUSH2 0x79A DUP2 DUP4 PUSH2 0xEF4 JUMP JUMPDEST DUP2 ADD SUB SLT PUSH2 0x496 JUMPI MLOAD SWAP1 CODESIZE DUP1 PUSH2 0x68B JUMP JUMPDEST POP RETURNDATASIZE PUSH2 0x790 JUMP JUMPDEST DUP6 MLOAD PUSH4 0x703E46DD PUSH1 0xE1 SHL DUP2 MSTORE DUP9 SWAP1 REVERT JUMPDEST SWAP1 POP DUP2 PUSH32 0x360894A13BA1A3210667C828492DB98DCA3E2076CC3735A920A3CA505D382BBC SLOAD AND EQ ISZERO CODESIZE PUSH2 0x65D JUMP JUMPDEST POP SWAP2 SWAP1 CALLVALUE PUSH2 0x75 JUMPI DUP1 PUSH1 0x3 NOT CALLDATASIZE ADD SLT PUSH2 0x75 JUMPI PUSH2 0x80B PUSH2 0xF2E JUMP JUMPDEST SWAP1 PUSH1 0x24 CALLDATALOAD PUSH1 0x1 PUSH1 0x1 PUSH1 0xA0 SHL SUB DUP2 AND SWAP1 DUP2 SWAP1 SUB PUSH2 0x4F7 JUMPI PUSH32 0xF0C57E16840DF040F15088DC2F81FE391C3923BEC73E23A9662EFC9C229C6A00 SWAP3 DUP4 SLOAD PUSH1 0xFF DUP2 DUP6 SHR AND ISZERO SWAP6 PUSH8 0xFFFFFFFFFFFFFFFF DUP3 AND DUP1 ISZERO SWAP1 DUP2 PUSH2 0x9B4 JUMPI JUMPDEST PUSH1 0x1 EQ SWAP1 DUP2 PUSH2 0x9AA JUMPI JUMPDEST ISZERO SWAP1 DUP2 PUSH2 0x9A1 JUMPI JUMPDEST POP PUSH2 0x993 JUMPI POP PUSH8 0xFFFFFFFFFFFFFFFF NOT DUP2 AND PUSH1 0x1 OR DUP6 SSTORE PUSH2 0x8A6 SWAP2 SWAP1 DUP7 PUSH2 0x974 JUMPI JUMPDEST POP PUSH2 0x89E PUSH2 0x1105 JUMP JUMPDEST PUSH2 0x140 PUSH2 0x1105 JUMP JUMPDEST PUSH2 0x8AE PUSH2 0x1105 JUMP JUMPDEST PUSH2 0x8B6 PUSH2 0x1105 JUMP JUMPDEST PUSH2 0x8BE PUSH2 0x1105 JUMP JUMPDEST PUSH1 0x1 PUSH1 0x0 DUP1 MLOAD PUSH1 0x20 PUSH2 0x11EA DUP4 CODECOPY DUP2 MLOAD SWAP2 MSTORE SSTORE PUSH2 0x8D8 PUSH2 0x1105 JUMP JUMPDEST PUSH2 0x8E0 PUSH2 0x1105 JUMP JUMPDEST PUSH1 0x0 DUP1 MLOAD PUSH1 0x20 PUSH2 0x11CA DUP4 CODECOPY DUP2 MLOAD SWAP2 MSTORE DUP1 SLOAD PUSH1 0xFF NOT AND SWAP1 SSTORE DUP5 SLOAD PUSH1 0x1 PUSH1 0x1 PUSH1 0xA0 SHL SUB NOT AND OR DUP5 SSTORE MLOAD SWAP2 PUSH32 0x4F07E2E38A1864FA9C225AF602B3688BF29A7FF7EF415C98B9A864165E83E261 DUP5 DUP1 LOG1 PUSH2 0x934 JUMPI DUP3 DUP1 RETURN JUMPDEST DUP1 SLOAD PUSH9 0xFF0000000000000000 NOT AND SWAP1 SSTORE PUSH1 0x1 DUP2 MSTORE PUSH32 0xC7F505B2F371AE2175EE4913F4499E1F2633A7B5936321EED1CDAEB6115181D2 SWAP1 PUSH1 0x20 SWAP1 LOG1 CODESIZE DUP1 DUP3 DUP1 RETURN JUMPDEST PUSH9 0xFFFFFFFFFFFFFFFFFF NOT AND PUSH9 0x10000000000000001 OR DUP6 SSTORE CODESIZE PUSH2 0x895 JUMP JUMPDEST DUP5 MLOAD PUSH4 0xF92EE8A9 PUSH1 0xE0 SHL DUP2 MSTORE REVERT JUMPDEST SWAP1 POP ISZERO CODESIZE PUSH2 0x873 JUMP JUMPDEST ADDRESS EXTCODESIZE ISZERO SWAP2 POP PUSH2 0x86B JUMP JUMPDEST DUP9 SWAP2 POP PUSH2 0x861 JUMP JUMPDEST POP SWAP2 CALLVALUE PUSH2 0x75 JUMPI DUP3 PUSH1 0x3 NOT CALLDATASIZE ADD SLT PUSH2 0x75 JUMPI PUSH2 0x9D6 PUSH2 0x1071 JUMP JUMPDEST PUSH1 0x0 DUP1 MLOAD PUSH1 0x20 PUSH2 0x11CA DUP4 CODECOPY DUP2 MLOAD SWAP2 MSTORE SWAP1 DUP2 SLOAD SWAP1 PUSH1 0xFF DUP3 AND ISZERO PUSH2 0xA26 JUMPI POP PUSH1 0xFF NOT AND SWAP1 SSTORE MLOAD CALLER DUP2 MSTORE PUSH32 0x5DB9EE0A495BF2E6FF9C91A7834C1BA4FDD244A5E8AA4E537BD38AEAE4B073AA SWAP1 PUSH1 0x20 SWAP1 LOG1 DUP1 RETURN JUMPDEST DUP4 MLOAD PUSH4 0x8DFC202B PUSH1 0xE0 SHL DUP2 MSTORE REVERT JUMPDEST POP DUP3 CALLVALUE PUSH2 0x2C0 JUMPI DUP3 PUSH1 0x3 NOT CALLDATASIZE ADD SLT PUSH2 0x2C0 JUMPI PUSH8 0xFFFFFFFFFFFFFFFF SWAP2 DUP2 CALLDATALOAD DUP4 DUP2 GT PUSH2 0x2C0 JUMPI CALLDATASIZE PUSH1 0x23 DUP3 ADD SLT ISZERO PUSH2 0x2C0 JUMPI DUP1 DUP4 ADD CALLDATALOAD SWAP4 PUSH1 0x24 SWAP3 PUSH2 0xA75 DUP7 PUSH2 0xF16 JUMP JUMPDEST SWAP6 PUSH2 0xA82 DUP9 MLOAD SWAP8 DUP9 PUSH2 0xEF4 JUMP JUMPDEST DUP1 DUP8 MSTORE PUSH1 0x20 SWAP4 DUP5 DUP9 ADD DUP7 DUP2 SWAP4 PUSH1 0x5 SHL DUP4 ADD ADD SWAP2 CALLDATASIZE DUP4 GT PUSH2 0x4F7 JUMPI DUP8 ADD SWAP1 JUMPDEST DUP3 DUP3 LT PUSH2 0xE87 JUMPI POP POP POP DUP5 CALLDATALOAD SWAP3 DUP4 GT PUSH2 0x2C0 JUMPI CALLDATASIZE PUSH1 0x23 DUP5 ADD SLT ISZERO PUSH2 0x2C0 JUMPI DUP3 DUP7 ADD CALLDATALOAD SWAP3 PUSH2 0xACC DUP5 PUSH2 0xF16 JUMP JUMPDEST SWAP4 PUSH2 0xAD9 DUP11 MLOAD SWAP6 DUP7 PUSH2 0xEF4 JUMP JUMPDEST DUP1 DUP6 MSTORE DUP7 DUP7 DUP7 ADD SWAP2 PUSH1 0x5 SHL DUP4 ADD ADD SWAP2 CALLDATASIZE DUP4 GT PUSH2 0x4F7 JUMPI DUP8 ADD SWAP1 JUMPDEST DUP3 DUP3 LT PUSH2 0xE6B JUMPI POP POP POP PUSH2 0xB05 PUSH2 0x1071 JUMP JUMPDEST PUSH2 0xB0D PUSH2 0x10AA JUMP JUMPDEST DUP7 MLOAD DUP4 MLOAD SUB PUSH2 0xE35 JUMPI DUP7 MLOAD ISZERO PUSH2 0xE06 JUMPI PUSH1 0x1 JUMPDEST DUP4 MLOAD DUP2 LT ISZERO PUSH2 0xBAB JUMPI PUSH1 0x0 NOT DUP2 ADD DUP2 DUP2 GT PUSH2 0xB99 JUMPI PUSH2 0xB47 SWAP1 PUSH4 0xFFFFFFFF SWAP2 DUP3 SWAP2 DUP8 PUSH2 0xF65 JUMP JUMPDEST MLOAD AND SWAP1 PUSH2 0xB54 DUP4 DUP8 PUSH2 0xF65 JUMP JUMPDEST MLOAD AND GT PUSH2 0xB63 JUMPI PUSH1 0x1 ADD PUSH2 0xB20 JUMP JUMPDEST DUP9 MLOAD PUSH3 0x461BCD PUSH1 0xE5 SHL DUP2 MSTORE DUP1 DUP9 ADD DUP7 SWAP1 MSTORE PUSH1 0x11 DUP2 DUP9 ADD MSTORE PUSH17 0x14D8DBDC995CC81B9BDD081CDBDC9D1959 PUSH1 0x7A SHL PUSH1 0x44 DUP3 ADD MSTORE PUSH1 0x64 SWAP1 REVERT JUMPDEST PUSH4 0x4E487B71 PUSH1 0xE0 SHL DUP5 MSTORE PUSH1 0x11 DUP9 MSTORE DUP7 DUP5 REVERT JUMPDEST POP SWAP7 SELFBALANCE SWAP5 SWAP4 SWAP1 SWAP3 POP DUP5 ISZERO PUSH2 0xDC5 JUMPI DUP7 MLOAD PUSH1 0xA DUP2 GT ISZERO PUSH2 0xDBD JUMPI POP PUSH1 0xFF PUSH1 0xA JUMPDEST AND SWAP6 PUSH2 0xBD5 DUP8 PUSH2 0xF16 JUMP JUMPDEST SWAP6 PUSH2 0xBE2 DUP6 MLOAD SWAP8 DUP9 PUSH2 0xEF4 JUMP JUMPDEST DUP8 DUP8 MSTORE PUSH2 0xBEE DUP9 PUSH2 0xF16 JUMP JUMPDEST DUP8 DUP5 ADD SWAP1 PUSH1 0x1F NOT ADD CALLDATASIZE DUP3 CALLDATACOPY DUP5 JUMPDEST PUSH1 0xFF DUP2 AND DUP11 DUP2 LT ISZERO PUSH2 0xD22 JUMPI DUP7 SLOAD DUP9 MLOAD PUSH4 0x283EA25B PUSH1 0xE0 SHL DUP2 MSTORE DUP7 DUP2 ADD DUP4 SWAP1 MSTORE PUSH1 0x1 PUSH1 0x1 PUSH1 0xA0 SHL SUB SWAP2 DUP3 AND SWAP2 SWAP1 DUP9 DUP2 DUP14 DUP2 DUP7 GAS STATICCALL DUP1 ISZERO PUSH2 0xD18 JUMPI DUP11 SWAP1 PUSH2 0xCE0 JUMPI JUMPDEST PUSH1 0xFF AND DUP8 DUP2 MUL SWAP2 POP DUP8 DUP3 DIV SUB PUSH2 0xCCE JUMPI SWAP1 PUSH2 0xC5E DUP16 SWAP5 PUSH1 0x64 DUP2 SWAP6 SWAP5 DIV SWAP6 PUSH2 0xF65 JUMP JUMPDEST MLOAD AND SWAP1 DUP1 EXTCODESIZE ISZERO PUSH2 0xCCA JUMPI DUP12 SWAP2 PUSH1 0x44 DUP10 DUP13 DUP1 SWAP5 DUP16 DUP10 SWAP1 MLOAD SWAP8 DUP9 SWAP7 DUP8 SWAP6 PUSH4 0x1B8547DF PUSH1 0xE1 SHL DUP8 MSTORE DUP7 ADD MSTORE DUP5 ADD MSTORE GAS CALL DUP1 ISZERO PUSH2 0xCC0 JUMPI PUSH1 0xFF SWAP5 SWAP3 PUSH1 0x1 SWAP5 SWAP3 PUSH2 0xCA9 SWAP3 PUSH2 0xCB1 JUMPI JUMPDEST POP DUP14 PUSH2 0xF65 JUMP JUMPDEST MSTORE ADD AND PUSH2 0xBFB JUMP JUMPDEST PUSH2 0xCBA SWAP1 PUSH2 0xECA JUMP JUMPDEST CODESIZE PUSH2 0xCA2 JUMP JUMPDEST DUP11 MLOAD RETURNDATASIZE DUP12 DUP3 RETURNDATACOPY RETURNDATASIZE SWAP1 REVERT JUMPDEST DUP10 DUP1 REVERT JUMPDEST PUSH4 0x4E487B71 PUSH1 0xE0 SHL DUP11 MSTORE PUSH1 0x11 DUP9 MSTORE DUP12 DUP11 REVERT JUMPDEST POP DUP9 DUP2 DUP2 RETURNDATASIZE DUP4 GT PUSH2 0xD11 JUMPI JUMPDEST PUSH2 0xCF6 DUP2 DUP4 PUSH2 0xEF4 JUMP JUMPDEST DUP2 ADD SUB SLT PUSH2 0xCCA JUMPI MLOAD PUSH1 0xFF DUP2 AND DUP2 SUB PUSH2 0xCCA JUMPI PUSH1 0xFF SWAP1 PUSH2 0xC3C JUMP JUMPDEST POP RETURNDATASIZE PUSH2 0xCEC JUMP JUMPDEST DUP12 MLOAD RETURNDATASIZE DUP13 DUP3 RETURNDATACOPY RETURNDATASIZE SWAP1 REVERT JUMPDEST DUP7 DUP13 DUP5 DUP16 DUP10 SWAP1 DUP15 DUP14 DUP1 MLOAD SWAP6 DUP2 DUP8 ADD SWAP2 DUP8 MSTORE MLOAD DUP1 SWAP2 MSTORE PUSH1 0x60 DUP7 ADD SWAP3 SWAP1 DUP8 JUMPDEST DUP2 DUP2 LT PUSH2 0xDA0 JUMPI POP POP POP DUP5 DUP3 SUB DUP6 DUP5 ADD MSTORE MLOAD DUP1 DUP3 MSTORE SWAP1 DUP3 ADD SWAP3 SWAP2 DUP6 JUMPDEST DUP3 DUP2 LT PUSH2 0xD8C JUMPI DUP7 PUSH32 0xE7D58A1D290FCECC00041F0D1EEDFC15A8601BA209C8A6EDE7D5C5E33DBE5E4B DUP8 DUP8 SUB DUP9 LOG1 DUP1 RETURN JUMPDEST DUP4 MLOAD DUP6 MSTORE SWAP4 DUP2 ADD SWAP4 SWAP3 DUP2 ADD SWAP3 PUSH1 0x1 ADD PUSH2 0xD5B JUMP JUMPDEST DUP3 MLOAD PUSH1 0x1 PUSH1 0x1 PUSH1 0xA0 SHL SUB AND DUP6 MSTORE SWAP4 DUP6 ADD SWAP4 SWAP2 DUP6 ADD SWAP2 PUSH1 0x1 ADD PUSH2 0xD3F JUMP JUMPDEST PUSH1 0xFF SWAP1 PUSH2 0xBCA JUMP JUMPDEST DUP6 PUSH1 0x17 DUP6 PUSH1 0x64 SWAP4 DUP7 MLOAD SWAP4 PUSH3 0x461BCD PUSH1 0xE5 SHL DUP6 MSTORE DUP5 ADD MSTORE DUP3 ADD MSTORE PUSH32 0x4E6F207072697A657320746F2064697374726962757465000000000000000000 PUSH1 0x44 DUP3 ADD MSTORE REVERT JUMPDEST DUP8 MLOAD PUSH3 0x461BCD PUSH1 0xE5 SHL DUP2 MSTORE DUP1 DUP8 ADD DUP6 SWAP1 MSTORE PUSH1 0xA DUP2 DUP8 ADD MSTORE PUSH10 0x4E6F2077696E6E657273 PUSH1 0xB0 SHL PUSH1 0x44 DUP3 ADD MSTORE PUSH1 0x64 SWAP1 REVERT JUMPDEST DUP8 MLOAD PUSH3 0x461BCD PUSH1 0xE5 SHL DUP2 MSTORE DUP1 DUP8 ADD DUP6 SWAP1 MSTORE PUSH1 0x11 DUP2 DUP8 ADD MSTORE PUSH17 0x4D69736D61746368656420617272617973 PUSH1 0x78 SHL PUSH1 0x44 DUP3 ADD MSTORE PUSH1 0x64 SWAP1 REVERT JUMPDEST DUP2 CALLDATALOAD PUSH4 0xFFFFFFFF DUP2 AND DUP2 SUB PUSH2 0x496 JUMPI DUP2 MSTORE SWAP1 DUP7 ADD SWAP1 DUP7 ADD PUSH2 0xAF3 JUMP JUMPDEST DUP2 CALLDATALOAD PUSH1 0x1 PUSH1 0x1 PUSH1 0xA0 SHL SUB DUP2 AND DUP2 SUB PUSH2 0x496 JUMPI DUP2 MSTORE SWAP1 DUP7 ADD SWAP1 DUP7 ADD PUSH2 0xAA0 JUMP JUMPDEST SWAP1 POP CALLVALUE PUSH2 0x2C0 JUMPI DUP2 PUSH1 0x3 NOT CALLDATASIZE ADD SLT PUSH2 0x2C0 JUMPI SWAP1 SLOAD PUSH1 0x1 PUSH1 0x1 PUSH1 0xA0 SHL SUB AND DUP2 MSTORE PUSH1 0x20 SWAP1 RETURN JUMPDEST PUSH8 0xFFFFFFFFFFFFFFFF DUP2 GT PUSH2 0xEDE JUMPI PUSH1 0x40 MSTORE JUMP JUMPDEST PUSH4 0x4E487B71 PUSH1 0xE0 SHL PUSH1 0x0 MSTORE PUSH1 0x41 PUSH1 0x4 MSTORE PUSH1 0x24 PUSH1 0x0 REVERT JUMPDEST SWAP1 PUSH1 0x1F DUP1 NOT SWAP2 ADD AND DUP2 ADD SWAP1 DUP2 LT PUSH8 0xFFFFFFFFFFFFFFFF DUP3 GT OR PUSH2 0xEDE JUMPI PUSH1 0x40 MSTORE JUMP JUMPDEST PUSH8 0xFFFFFFFFFFFFFFFF DUP2 GT PUSH2 0xEDE JUMPI PUSH1 0x5 SHL PUSH1 0x20 ADD SWAP1 JUMP JUMPDEST PUSH1 0x4 CALLDATALOAD SWAP1 PUSH1 0x1 PUSH1 0x1 PUSH1 0xA0 SHL SUB DUP3 AND DUP3 SUB PUSH2 0xF44 JUMPI JUMP JUMPDEST PUSH1 0x0 DUP1 REVERT JUMPDEST PUSH8 0xFFFFFFFFFFFFFFFF DUP2 GT PUSH2 0xEDE JUMPI PUSH1 0x1F ADD PUSH1 0x1F NOT AND PUSH1 0x20 ADD SWAP1 JUMP JUMPDEST DUP1 MLOAD DUP3 LT ISZERO PUSH2 0xF79 JUMPI PUSH1 0x20 SWAP2 PUSH1 0x5 SHL ADD ADD SWAP1 JUMP JUMPDEST PUSH4 0x4E487B71 PUSH1 0xE0 SHL PUSH1 0x0 MSTORE PUSH1 0x32 PUSH1 0x4 MSTORE PUSH1 0x24 PUSH1 0x0 REVERT JUMPDEST RETURNDATASIZE ISZERO PUSH2 0xFBA JUMPI RETURNDATASIZE SWAP1 PUSH2 0xFA0 DUP3 PUSH2 0xF49 JUMP JUMPDEST SWAP2 PUSH2 0xFAE PUSH1 0x40 MLOAD SWAP4 DUP5 PUSH2 0xEF4 JUMP JUMPDEST DUP3 MSTORE RETURNDATASIZE PUSH1 0x0 PUSH1 0x20 DUP5 ADD RETURNDATACOPY JUMP JUMPDEST PUSH1 0x60 SWAP1 JUMP JUMPDEST ISZERO PUSH2 0xFC6 JUMPI JUMP JUMPDEST PUSH1 0x40 MLOAD PUSH3 0x461BCD PUSH1 0xE5 SHL DUP2 MSTORE PUSH1 0x20 PUSH1 0x4 DUP3 ADD MSTORE PUSH1 0xF PUSH1 0x24 DUP3 ADD MSTORE PUSH15 0x151C985B9CD9995C8819985A5B1959 PUSH1 0x8A SHL PUSH1 0x44 DUP3 ADD MSTORE PUSH1 0x64 SWAP1 REVERT JUMPDEST PUSH1 0x1 PUSH1 0x1 PUSH1 0xA0 SHL SUB SWAP1 DUP2 AND SWAP1 DUP2 ISZERO PUSH2 0x1058 JUMPI PUSH1 0x0 DUP1 MLOAD PUSH1 0x20 PUSH2 0x11AA DUP4 CODECOPY DUP2 MLOAD SWAP2 MSTORE DUP1 SLOAD PUSH1 0x1 PUSH1 0x1 PUSH1 0xA0 SHL SUB NOT DUP2 AND DUP5 OR SWAP1 SWAP2 SSTORE AND PUSH32 0x8BE0079C531659141344CD1FD0A4F28419497F9722A3DAAFE3B4186F6B6457E0 PUSH1 0x0 DUP1 LOG3 JUMP JUMPDEST PUSH1 0x40 MLOAD PUSH4 0x1E4FBDF7 PUSH1 0xE0 SHL DUP2 MSTORE PUSH1 0x0 PUSH1 0x4 DUP3 ADD MSTORE PUSH1 0x24 SWAP1 REVERT JUMPDEST PUSH1 0x0 DUP1 MLOAD PUSH1 0x20 PUSH2 0x11AA DUP4 CODECOPY DUP2 MLOAD SWAP2 MSTORE SLOAD PUSH1 0x1 PUSH1 0x1 PUSH1 0xA0 SHL SUB AND CALLER SUB PUSH2 0x1092 JUMPI JUMP JUMPDEST PUSH1 0x40 MLOAD PUSH4 0x118CDAA7 PUSH1 0xE0 SHL DUP2 MSTORE CALLER PUSH1 0x4 DUP3 ADD MSTORE PUSH1 0x24 SWAP1 REVERT JUMPDEST PUSH1 0xFF PUSH1 0x0 DUP1 MLOAD PUSH1 0x20 PUSH2 0x11CA DUP4 CODECOPY DUP2 MLOAD SWAP2 MSTORE SLOAD AND PUSH2 0x10C3 JUMPI JUMP JUMPDEST PUSH1 0x40 MLOAD PUSH4 0xD93C0665 PUSH1 0xE0 SHL DUP2 MSTORE PUSH1 0x4 SWAP1 REVERT JUMPDEST PUSH1 0x0 DUP1 MLOAD PUSH1 0x20 PUSH2 0x11EA DUP4 CODECOPY DUP2 MLOAD SWAP2 MSTORE PUSH1 0x2 DUP2 SLOAD EQ PUSH2 0x10F3 JUMPI PUSH1 0x2 SWAP1 SSTORE JUMP JUMPDEST PUSH1 0x40 MLOAD PUSH4 0x3EE5AEB5 PUSH1 0xE0 SHL DUP2 MSTORE PUSH1 0x4 SWAP1 REVERT JUMPDEST PUSH1 0xFF PUSH32 0xF0C57E16840DF040F15088DC2F81FE391C3923BEC73E23A9662EFC9C229C6A00 SLOAD PUSH1 0x40 SHR AND ISZERO PUSH2 0x1134 JUMPI JUMP JUMPDEST PUSH1 0x40 MLOAD PUSH4 0x1AFCD79F PUSH1 0xE3 SHL DUP2 MSTORE PUSH1 0x4 SWAP1 REVERT JUMPDEST SWAP1 PUSH2 0x116D JUMPI POP DUP1 MLOAD ISZERO PUSH2 0x115B JUMPI DUP1 MLOAD SWAP1 PUSH1 0x20 ADD REVERT JUMPDEST PUSH1 0x40 MLOAD PUSH4 0xD6BDA275 PUSH1 0xE0 SHL DUP2 MSTORE PUSH1 0x4 SWAP1 REVERT JUMPDEST DUP2 MLOAD ISZERO DUP1 PUSH2 0x11A0 JUMPI JUMPDEST PUSH2 0x117E JUMPI POP SWAP1 JUMP JUMPDEST PUSH1 0x40 MLOAD PUSH4 0x9996B315 PUSH1 0xE0 SHL DUP2 MSTORE PUSH1 0x1 PUSH1 0x1 PUSH1 0xA0 SHL SUB SWAP1 SWAP2 AND PUSH1 0x4 DUP3 ADD MSTORE PUSH1 0x24 SWAP1 REVERT JUMPDEST POP DUP1 EXTCODESIZE ISZERO PUSH2 0x1176 JUMP INVALID SWAP1 AND 0xD0 SWAP14 PUSH19 0xD40FDAE2FD8CEAC6B6234C7706214FD39C1CD1 0xE6 MULMOD LOG0 MSTORE DUP13 NOT SWAP4 STOP 0xCD 0x5E 0xD1 0x5C PUSH15 0x187E77E9AEE88184C21F4F2182AB58 0x27 0xCB EXTCODESIZE PUSH31 0x7FBEDCD63F033009B779B17422D0DF92223018B32B4D1FA46E071723D6817 0xE2 BASEFEE PUSH14 0x3BECC55F00A264697066735822 SLT KECCAK256 SWAP8 0xDC CODECOPY 0xDD 0xED DUP5 0xC6 SELFDESTRUCT 0xB5 PUSH20 0xD7E341F0A2A44F27436B379A235C1B6AE21BA27A 0xEE DIV PUSH5 0x736F6C6343 STOP ADDMOD AND STOP CALLER "},"methodIdentifiers":{"UPGRADE_INTERFACE_VERSION()":"ad3cb1cc","claimPrize()":"70740ac9","distributePrizes(address[],uint32[])":"24867092","initialize(address,address)":"485cc955","owner()":"8da5cb5b","pause()":"8456cb59","paused()":"5c975abb","prizeStorage()":"1620d0c3","proxiableUUID()":"52d1902d","renounceOwnership()":"715018a6","transferOwnership(address)":"f2fde38b","unpause()":"3f4ba83a","upgradeToAndCall(address,bytes)":"4f1ef286","withdrawRemainingBalance()":"b91d53c6"}},"storageLayout":{"storage":[{"astId":3374,"contract":"contracts/PrizeDistributor.sol:PrizeDistributor","label":"prizeStorage","offset":0,"slot":"0","type":"t_contract(PrizeStorage)3912"}],"types":{"t_contract(PrizeStorage)3912":{"encoding":"inplace","label":"contract PrizeStorage","numberOfBytes":"20"}}}}}}