{"contracts/PointsSystem.sol":{"PointsSystem":{"abi":[{"inputs":[{"internalType":"address","name":"target","type":"address"}],"name":"AddressEmptyCode","type":"error"},{"inputs":[{"internalType":"address","name":"implementation","type":"address"}],"name":"ERC1967InvalidImplementation","type":"error"},{"inputs":[],"name":"ERC1967NonPayable","type":"error"},{"inputs":[],"name":"FailedCall","type":"error"},{"inputs":[],"name":"InvalidInitialization","type":"error"},{"inputs":[],"name":"InvalidScore","type":"error"},{"inputs":[],"name":"NotInitializing","type":"error"},{"inputs":[],"name":"ScoreOverflow","type":"error"},{"inputs":[],"name":"UUPSUnauthorizedCallContext","type":"error"},{"inputs":[{"internalType":"bytes32","name":"slot","type":"bytes32"}],"name":"UUPSUnsupportedProxiableUUID","type":"error"},{"anonymous":false,"inputs":[{"indexed":true,"internalType":"uint8","name":"actionType","type":"uint8"},{"indexed":false,"internalType":"uint32","name":"timestamp","type":"uint32"}],"name":"GameAction","type":"event"},{"anonymous":false,"inputs":[{"indexed":false,"internalType":"uint64","name":"version","type":"uint64"}],"name":"Initialized","type":"event"},{"anonymous":false,"inputs":[{"indexed":true,"internalType":"address","name":"player","type":"address"},{"indexed":false,"internalType":"uint8","name":"actionType","type":"uint8"},{"indexed":false,"internalType":"uint32","name":"score","type":"uint32"}],"name":"PlayerAction","type":"event"},{"anonymous":false,"inputs":[{"indexed":true,"internalType":"address","name":"implementation","type":"address"}],"name":"Upgraded","type":"event"},{"inputs":[],"name":"UPGRADE_INTERFACE_VERSION","outputs":[{"internalType":"string","name":"","type":"string"}],"stateMutability":"view","type":"function"},{"inputs":[{"internalType":"address","name":"player1","type":"address"},{"internalType":"address","name":"player2","type":"address"}],"name":"calculateInteraction","outputs":[{"internalType":"uint32","name":"","type":"uint32"},{"internalType":"uint32","name":"","type":"uint32"}],"stateMutability":"nonpayable","type":"function"},{"inputs":[],"name":"proxiableUUID","outputs":[{"internalType":"bytes32","name":"","type":"bytes32"}],"stateMutability":"view","type":"function"},{"inputs":[{"internalType":"address","name":"newImplementation","type":"address"},{"internalType":"bytes","name":"data","type":"bytes"}],"name":"upgradeToAndCall","outputs":[],"stateMutability":"payable","type":"function"}],"evm":{"bytecode":{"linkReferences":{},"object":"60a0806040523461002a57306080526106789081610030823960805181818161010501526101e70152f35b600080fdfe6080604081815260048036101561001557600080fd5b600092833560e01c908163174580cf146103d2575080634f1ef2861461016c57806352d1902d146100f05763ad3cb1cc1461004f57600080fd5b346100ec57826003193601126100ec578151908282019082821067ffffffffffffffff8311176100d95750825260058152602090640352e302e360dc1b6020820152825193849260208452825192836020860152825b8481106100c357505050828201840152601f01601f19168101030190f35b81810183015188820188015287955082016100a5565b634e487b7160e01b855260419052602484fd5b8280fd5b509134610169578060031936011261016957507f00000000000000000000000000000000000000000000000000000000000000006001600160a01b0316300361015c57602090517f360894a13ba1a3210667c828492db98dca3e2076cc3735a920a3ca505d382bbc8152f35b5163703e46dd60e11b8152fd5b80fd5b5090806003193601126100ec57610181610509565b90602493843567ffffffffffffffff81116103ce57366023820112156103ce57808501356101ae8161055c565b946101bb85519687610524565b81865260209182870193368a83830101116103ca578186928b8693018737880101526001600160a01b037f0000000000000000000000000000000000000000000000000000000000000000811630811490811561039c575b5061038c5781169585516352d1902d60e01b815283818a818b5afa869181610359575b50610252575050505050505191634c9c8ce360e01b8352820152fd5b9088888894938c7f360894a13ba1a3210667c828492db98dca3e2076cc3735a920a3ca505d382bbc918281036103445750853b15610330575080546001600160a01b031916821790558451889392917fbc7cd75a20ee27fd9adebab32041f755214dbc6bffa90cc0225b39da2e5c2d3b8580a28251156103125750506103049582915190845af4913d15610308573d6102f66102ed8261055c565b92519283610524565b81528581943d92013e6105df565b5080f35b50606092506105df565b95509550505050503461032457505080f35b63b398979f60e01b8152fd5b8651634c9c8ce360e01b8152808501849052fd5b8751632a87526960e21b815280860191909152fd5b9091508481813d8311610385575b6103718183610524565b8101031261038157519038610236565b8680fd5b503d610367565b855163703e46dd60e11b81528890fd5b9050817f360894a13ba1a3210667c828492db98dca3e2076cc3735a920a3ca505d382bbc5416141538610213565b8580fd5b5080fd5b91849150346103ce57836003193601126103ce576103ee610509565b6001600160a01b036024358181169392908490036105055716808452600160205285808520948481522063ffffffff9261043586548580855460281c169160281c16610578565b96909185831698620f4240808b119081156104f9575b506104ed575050868995936104808796946104a0949063ffffffff60281b82549160281b169063ffffffff60281b1916179055565b9063ffffffff60281b82549160281b169063ffffffff60281b1916179055565b8251600181528760208201527fe59e62345b471635a7590edf71e200fea112c72164dd02721fc0556e29735352948591a2815194600186521693846020820152a282519182526020820152f35b6334a24c0d60e01b8152fd5b9050878a16118c61044b565b8480fd5b600435906001600160a01b038216820361051f57565b600080fd5b90601f8019910116810190811067ffffffffffffffff82111761054657604052565b634e487b7160e01b600052604160045260246000fd5b67ffffffffffffffff811161054657601f01601f191660200190565b90919063ffffffff908181168285168082116105b5575060028391116000146105aa5760029160011901165b93011690565b5050600260006105a4565b919491839150600210156105d3576002916001190116935b01169190565b505060026000936105cd565b9061060657508051156105f457805190602001fd5b60405163d6bda27560e01b8152600490fd5b81511580610639575b610617575090565b604051639996b31560e01b81526001600160a01b039091166004820152602490fd5b50803b1561060f56fea2646970667358221220bf8313c438a0618632a0b3008672c14bb0e74f6670b51b95a4d665b30a07a97d64736f6c63430008160033","opcodes":"PUSH1 0xA0 DUP1 PUSH1 0x40 MSTORE CALLVALUE PUSH2 0x2A JUMPI ADDRESS PUSH1 0x80 MSTORE PUSH2 0x678 SWAP1 DUP2 PUSH2 0x30 DUP3 CODECOPY PUSH1 0x80 MLOAD DUP2 DUP2 DUP2 PUSH2 0x105 ADD MSTORE PUSH2 0x1E7 ADD MSTORE RETURN JUMPDEST PUSH1 0x0 DUP1 REVERT INVALID PUSH1 0x80 PUSH1 0x40 DUP2 DUP2 MSTORE PUSH1 0x4 DUP1 CALLDATASIZE LT ISZERO PUSH2 0x15 JUMPI PUSH1 0x0 DUP1 REVERT JUMPDEST PUSH1 0x0 SWAP3 DUP4 CALLDATALOAD PUSH1 0xE0 SHR SWAP1 DUP2 PUSH4 0x174580CF EQ PUSH2 0x3D2 JUMPI POP DUP1 PUSH4 0x4F1EF286 EQ PUSH2 0x16C JUMPI DUP1 PUSH4 0x52D1902D EQ PUSH2 0xF0 JUMPI PUSH4 0xAD3CB1CC EQ PUSH2 0x4F JUMPI PUSH1 0x0 DUP1 REVERT JUMPDEST CALLVALUE PUSH2 0xEC JUMPI DUP3 PUSH1 0x3 NOT CALLDATASIZE ADD SLT PUSH2 0xEC JUMPI DUP2 MLOAD SWAP1 DUP3 DUP3 ADD SWAP1 DUP3 DUP3 LT PUSH8 0xFFFFFFFFFFFFFFFF DUP4 GT OR PUSH2 0xD9 JUMPI POP DUP3 MSTORE PUSH1 0x5 DUP2 MSTORE PUSH1 0x20 SWAP1 PUSH5 0x352E302E3 PUSH1 0xDC SHL PUSH1 0x20 DUP3 ADD MSTORE DUP3 MLOAD SWAP4 DUP5 SWAP3 PUSH1 0x20 DUP5 MSTORE DUP3 MLOAD SWAP3 DUP4 PUSH1 0x20 DUP7 ADD MSTORE DUP3 JUMPDEST DUP5 DUP2 LT PUSH2 0xC3 JUMPI POP POP POP DUP3 DUP3 ADD DUP5 ADD MSTORE PUSH1 0x1F ADD PUSH1 0x1F NOT AND DUP2 ADD SUB ADD SWAP1 RETURN JUMPDEST DUP2 DUP2 ADD DUP4 ADD MLOAD DUP9 DUP3 ADD DUP9 ADD MSTORE DUP8 SWAP6 POP DUP3 ADD PUSH2 0xA5 JUMP JUMPDEST PUSH4 0x4E487B71 PUSH1 0xE0 SHL DUP6 MSTORE PUSH1 0x41 SWAP1 MSTORE PUSH1 0x24 DUP5 REVERT JUMPDEST DUP3 DUP1 REVERT JUMPDEST POP SWAP2 CALLVALUE PUSH2 0x169 JUMPI DUP1 PUSH1 0x3 NOT CALLDATASIZE ADD SLT PUSH2 0x169 JUMPI POP PUSH32 0x0 PUSH1 0x1 PUSH1 0x1 PUSH1 0xA0 SHL SUB AND ADDRESS SUB PUSH2 0x15C JUMPI PUSH1 0x20 SWAP1 MLOAD PUSH32 0x360894A13BA1A3210667C828492DB98DCA3E2076CC3735A920A3CA505D382BBC DUP2 MSTORE RETURN JUMPDEST MLOAD PUSH4 0x703E46DD PUSH1 0xE1 SHL DUP2 MSTORE REVERT JUMPDEST DUP1 REVERT JUMPDEST POP SWAP1 DUP1 PUSH1 0x3 NOT CALLDATASIZE ADD SLT PUSH2 0xEC JUMPI PUSH2 0x181 PUSH2 0x509 JUMP JUMPDEST SWAP1 PUSH1 0x24 SWAP4 DUP5 CALLDATALOAD PUSH8 0xFFFFFFFFFFFFFFFF DUP2 GT PUSH2 0x3CE JUMPI CALLDATASIZE PUSH1 0x23 DUP3 ADD SLT ISZERO PUSH2 0x3CE JUMPI DUP1 DUP6 ADD CALLDATALOAD PUSH2 0x1AE DUP2 PUSH2 0x55C JUMP JUMPDEST SWAP5 PUSH2 0x1BB DUP6 MLOAD SWAP7 DUP8 PUSH2 0x524 JUMP JUMPDEST DUP2 DUP7 MSTORE PUSH1 0x20 SWAP2 DUP3 DUP8 ADD SWAP4 CALLDATASIZE DUP11 DUP4 DUP4 ADD ADD GT PUSH2 0x3CA JUMPI DUP2 DUP7 SWAP3 DUP12 DUP7 SWAP4 ADD DUP8 CALLDATACOPY DUP9 ADD ADD MSTORE PUSH1 0x1 PUSH1 0x1 PUSH1 0xA0 SHL SUB PUSH32 0x0 DUP2 AND ADDRESS DUP2 EQ SWAP1 DUP2 ISZERO PUSH2 0x39C JUMPI JUMPDEST POP PUSH2 0x38C JUMPI DUP2 AND SWAP6 DUP6 MLOAD PUSH4 0x52D1902D PUSH1 0xE0 SHL DUP2 MSTORE DUP4 DUP2 DUP11 DUP2 DUP12 GAS STATICCALL DUP7 SWAP2 DUP2 PUSH2 0x359 JUMPI JUMPDEST POP PUSH2 0x252 JUMPI POP POP POP POP POP POP MLOAD SWAP2 PUSH4 0x4C9C8CE3 PUSH1 0xE0 SHL DUP4 MSTORE DUP3 ADD MSTORE REVERT JUMPDEST SWAP1 DUP9 DUP9 DUP9 SWAP5 SWAP4 DUP13 PUSH32 0x360894A13BA1A3210667C828492DB98DCA3E2076CC3735A920A3CA505D382BBC SWAP2 DUP3 DUP2 SUB PUSH2 0x344 JUMPI POP DUP6 EXTCODESIZE ISZERO PUSH2 0x330 JUMPI POP DUP1 SLOAD PUSH1 0x1 PUSH1 0x1 PUSH1 0xA0 SHL SUB NOT AND DUP3 OR SWAP1 SSTORE DUP5 MLOAD DUP9 SWAP4 SWAP3 SWAP2 PUSH32 0xBC7CD75A20EE27FD9ADEBAB32041F755214DBC6BFFA90CC0225B39DA2E5C2D3B DUP6 DUP1 LOG2 DUP3 MLOAD ISZERO PUSH2 0x312 JUMPI POP POP PUSH2 0x304 SWAP6 DUP3 SWAP2 MLOAD SWAP1 DUP5 GAS DELEGATECALL SWAP2 RETURNDATASIZE ISZERO PUSH2 0x308 JUMPI RETURNDATASIZE PUSH2 0x2F6 PUSH2 0x2ED DUP3 PUSH2 0x55C JUMP JUMPDEST SWAP3 MLOAD SWAP3 DUP4 PUSH2 0x524 JUMP JUMPDEST DUP2 MSTORE DUP6 DUP2 SWAP5 RETURNDATASIZE SWAP3 ADD RETURNDATACOPY PUSH2 0x5DF JUMP JUMPDEST POP DUP1 RETURN JUMPDEST POP PUSH1 0x60 SWAP3 POP PUSH2 0x5DF JUMP JUMPDEST SWAP6 POP SWAP6 POP POP POP POP POP CALLVALUE PUSH2 0x324 JUMPI POP POP DUP1 RETURN JUMPDEST PUSH4 0xB398979F PUSH1 0xE0 SHL DUP2 MSTORE REVERT JUMPDEST DUP7 MLOAD PUSH4 0x4C9C8CE3 PUSH1 0xE0 SHL DUP2 MSTORE DUP1 DUP6 ADD DUP5 SWAP1 MSTORE REVERT JUMPDEST DUP8 MLOAD PUSH4 0x2A875269 PUSH1 0xE2 SHL DUP2 MSTORE DUP1 DUP7 ADD SWAP2 SWAP1 SWAP2 MSTORE REVERT JUMPDEST SWAP1 SWAP2 POP DUP5 DUP2 DUP2 RETURNDATASIZE DUP4 GT PUSH2 0x385 JUMPI JUMPDEST PUSH2 0x371 DUP2 DUP4 PUSH2 0x524 JUMP JUMPDEST DUP2 ADD SUB SLT PUSH2 0x381 JUMPI MLOAD SWAP1 CODESIZE PUSH2 0x236 JUMP JUMPDEST DUP7 DUP1 REVERT JUMPDEST POP RETURNDATASIZE PUSH2 0x367 JUMP JUMPDEST DUP6 MLOAD PUSH4 0x703E46DD PUSH1 0xE1 SHL DUP2 MSTORE DUP9 SWAP1 REVERT JUMPDEST SWAP1 POP DUP2 PUSH32 0x360894A13BA1A3210667C828492DB98DCA3E2076CC3735A920A3CA505D382BBC SLOAD AND EQ ISZERO CODESIZE PUSH2 0x213 JUMP JUMPDEST DUP6 DUP1 REVERT JUMPDEST POP DUP1 REVERT JUMPDEST SWAP2 DUP5 SWAP2 POP CALLVALUE PUSH2 0x3CE JUMPI DUP4 PUSH1 0x3 NOT CALLDATASIZE ADD SLT PUSH2 0x3CE JUMPI PUSH2 0x3EE PUSH2 0x509 JUMP JUMPDEST PUSH1 0x1 PUSH1 0x1 PUSH1 0xA0 SHL SUB PUSH1 0x24 CALLDATALOAD DUP2 DUP2 AND SWAP4 SWAP3 SWAP1 DUP5 SWAP1 SUB PUSH2 0x505 JUMPI AND DUP1 DUP5 MSTORE PUSH1 0x1 PUSH1 0x20 MSTORE DUP6 DUP1 DUP6 KECCAK256 SWAP5 DUP5 DUP2 MSTORE KECCAK256 PUSH4 0xFFFFFFFF SWAP3 PUSH2 0x435 DUP7 SLOAD DUP6 DUP1 DUP6 SLOAD PUSH1 0x28 SHR AND SWAP2 PUSH1 0x28 SHR AND PUSH2 0x578 JUMP JUMPDEST SWAP7 SWAP1 SWAP2 DUP6 DUP4 AND SWAP9 PUSH3 0xF4240 DUP1 DUP12 GT SWAP1 DUP2 ISZERO PUSH2 0x4F9 JUMPI JUMPDEST POP PUSH2 0x4ED JUMPI POP POP DUP7 DUP10 SWAP6 SWAP4 PUSH2 0x480 DUP8 SWAP7 SWAP5 PUSH2 0x4A0 SWAP5 SWAP1 PUSH4 0xFFFFFFFF PUSH1 0x28 SHL DUP3 SLOAD SWAP2 PUSH1 0x28 SHL AND SWAP1 PUSH4 0xFFFFFFFF PUSH1 0x28 SHL NOT AND OR SWAP1 SSTORE JUMP JUMPDEST SWAP1 PUSH4 0xFFFFFFFF PUSH1 0x28 SHL DUP3 SLOAD SWAP2 PUSH1 0x28 SHL AND SWAP1 PUSH4 0xFFFFFFFF PUSH1 0x28 SHL NOT AND OR SWAP1 SSTORE JUMP JUMPDEST DUP3 MLOAD PUSH1 0x1 DUP2 MSTORE DUP8 PUSH1 0x20 DUP3 ADD MSTORE PUSH32 0xE59E62345B471635A7590EDF71E200FEA112C72164DD02721FC0556E29735352 SWAP5 DUP6 SWAP2 LOG2 DUP2 MLOAD SWAP5 PUSH1 0x1 DUP7 MSTORE AND SWAP4 DUP5 PUSH1 0x20 DUP3 ADD MSTORE LOG2 DUP3 MLOAD SWAP2 DUP3 MSTORE PUSH1 0x20 DUP3 ADD MSTORE RETURN JUMPDEST PUSH4 0x34A24C0D PUSH1 0xE0 SHL DUP2 MSTORE REVERT JUMPDEST SWAP1 POP DUP8 DUP11 AND GT DUP13 PUSH2 0x44B JUMP JUMPDEST DUP5 DUP1 REVERT JUMPDEST PUSH1 0x4 CALLDATALOAD SWAP1 PUSH1 0x1 PUSH1 0x1 PUSH1 0xA0 SHL SUB DUP3 AND DUP3 SUB PUSH2 0x51F JUMPI JUMP JUMPDEST PUSH1 0x0 DUP1 REVERT JUMPDEST SWAP1 PUSH1 0x1F DUP1 NOT SWAP2 ADD AND DUP2 ADD SWAP1 DUP2 LT PUSH8 0xFFFFFFFFFFFFFFFF DUP3 GT OR PUSH2 0x546 JUMPI PUSH1 0x40 MSTORE JUMP JUMPDEST PUSH4 0x4E487B71 PUSH1 0xE0 SHL PUSH1 0x0 MSTORE PUSH1 0x41 PUSH1 0x4 MSTORE PUSH1 0x24 PUSH1 0x0 REVERT JUMPDEST PUSH8 0xFFFFFFFFFFFFFFFF DUP2 GT PUSH2 0x546 JUMPI PUSH1 0x1F ADD PUSH1 0x1F NOT AND PUSH1 0x20 ADD SWAP1 JUMP JUMPDEST SWAP1 SWAP2 SWAP1 PUSH4 0xFFFFFFFF SWAP1 DUP2 DUP2 AND DUP3 DUP6 AND DUP1 DUP3 GT PUSH2 0x5B5 JUMPI POP PUSH1 0x2 DUP4 SWAP2 GT PUSH1 0x0 EQ PUSH2 0x5AA JUMPI PUSH1 0x2 SWAP2 PUSH1 0x1 NOT ADD AND JUMPDEST SWAP4 ADD AND SWAP1 JUMP JUMPDEST POP POP PUSH1 0x2 PUSH1 0x0 PUSH2 0x5A4 JUMP JUMPDEST SWAP2 SWAP5 SWAP2 DUP4 SWAP2 POP PUSH1 0x2 LT ISZERO PUSH2 0x5D3 JUMPI PUSH1 0x2 SWAP2 PUSH1 0x1 NOT ADD AND SWAP4 JUMPDEST ADD AND SWAP2 SWAP1 JUMP JUMPDEST POP POP PUSH1 0x2 PUSH1 0x0 SWAP4 PUSH2 0x5CD JUMP JUMPDEST SWAP1 PUSH2 0x606 JUMPI POP DUP1 MLOAD ISZERO PUSH2 0x5F4 JUMPI DUP1 MLOAD SWAP1 PUSH1 0x20 ADD REVERT JUMPDEST PUSH1 0x40 MLOAD PUSH4 0xD6BDA275 PUSH1 0xE0 SHL DUP2 MSTORE PUSH1 0x4 SWAP1 REVERT JUMPDEST DUP2 MLOAD ISZERO DUP1 PUSH2 0x639 JUMPI JUMPDEST PUSH2 0x617 JUMPI POP SWAP1 JUMP JUMPDEST PUSH1 0x40 MLOAD PUSH4 0x9996B315 PUSH1 0xE0 SHL DUP2 MSTORE PUSH1 0x1 PUSH1 0x1 PUSH1 0xA0 SHL SUB SWAP1 SWAP2 AND PUSH1 0x4 DUP3 ADD MSTORE PUSH1 0x24 SWAP1 REVERT JUMPDEST POP DUP1 EXTCODESIZE ISZERO PUSH2 0x60F JUMP INVALID LOG2 PUSH5 0x6970667358 0x22 SLT KECCAK256 0xBF DUP4 SGT 0xC4 CODESIZE LOG0 PUSH2 0x8632 LOG0 0xB3 STOP DUP7 PUSH19 0xC14BB0E74F6670B51B95A4D665B30A07A97D64 PUSH20 0x6F6C634300081600330000000000000000000000 "},"methodIdentifiers":{"UPGRADE_INTERFACE_VERSION()":"ad3cb1cc","calculateInteraction(address,address)":"174580cf","proxiableUUID()":"52d1902d","upgradeToAndCall(address,bytes)":"4f1ef286"}},"storageLayout":{"storage":[{"astId":4539,"contract":"contracts/PointsSystem.sol:PointsSystem","label":"_gameState","offset":0,"slot":"0","type":"t_struct(GameState)4521_storage"},{"astId":4544,"contract":"contracts/PointsSystem.sol:PointsSystem","label":"_players","offset":0,"slot":"1","type":"t_mapping(t_address,t_struct(Player)4536_storage)"},{"astId":4547,"contract":"contracts/PointsSystem.sol:PointsSystem","label":"_playerList","offset":0,"slot":"2","type":"t_array(t_address)dyn_storage"}],"types":{"t_address":{"encoding":"inplace","label":"address","numberOfBytes":"20"},"t_array(t_address)dyn_storage":{"base":"t_address","encoding":"dynamic_array","label":"address[]","numberOfBytes":"32"},"t_bytes32":{"encoding":"inplace","label":"bytes32","numberOfBytes":"32"},"t_mapping(t_address,t_struct(Player)4536_storage)":{"encoding":"mapping","key":"t_address","label":"mapping(address => struct GameStorage.Player)","numberOfBytes":"32","value":"t_struct(Player)4536_storage"},"t_struct(GameState)4521_storage":{"encoding":"inplace","label":"struct GameStorage.GameState","members":[{"astId":4512,"contract":"contracts/PointsSystem.sol:PointsSystem","label":"startTime","offset":0,"slot":"0","type":"t_uint32"},{"astId":4514,"contract":"contracts/PointsSystem.sol:PointsSystem","label":"duration","offset":4,"slot":"0","type":"t_uint32"},{"astId":4516,"contract":"contracts/PointsSystem.sol:PointsSystem","label":"entryFee","offset":8,"slot":"0","type":"t_uint96"},{"astId":4518,"contract":"contracts/PointsSystem.sol:PointsSystem","label":"flags","offset":20,"slot":"0","type":"t_uint8"},{"astId":4520,"contract":"contracts/PointsSystem.sol:PointsSystem","label":"reserved","offset":21,"slot":"0","type":"t_uint88"}],"numberOfBytes":"32"},"t_struct(Player)4536_storage":{"encoding":"inplace","label":"struct GameStorage.Player","members":[{"astId":4523,"contract":"contracts/PointsSystem.sol:PointsSystem","label":"lastInteractionTime","offset":0,"slot":"0","type":"t_uint32"},{"astId":4525,"contract":"contracts/PointsSystem.sol:PointsSystem","label":"interactionCount","offset":4,"slot":"0","type":"t_uint8"},{"astId":4527,"contract":"contracts/PointsSystem.sol:PointsSystem","label":"score","offset":5,"slot":"0","type":"t_uint32"},{"astId":4529,"contract":"contracts/PointsSystem.sol:PointsSystem","label":"username","offset":0,"slot":"1","type":"t_bytes32"},{"astId":4531,"contract":"contracts/PointsSystem.sol:PointsSystem","label":"pseudonym","offset":0,"slot":"2","type":"t_bytes32"},{"astId":4533,"contract":"contracts/PointsSystem.sol:PointsSystem","label":"flags","offset":0,"slot":"3","type":"t_uint8"},{"astId":4535,"contract":"contracts/PointsSystem.sol:PointsSystem","label":"reserved","offset":1,"slot":"3","type":"t_uint40"}],"numberOfBytes":"128"},"t_uint32":{"encoding":"inplace","label":"uint32","numberOfBytes":"4"},"t_uint40":{"encoding":"inplace","label":"uint40","numberOfBytes":"5"},"t_uint8":{"encoding":"inplace","label":"uint8","numberOfBytes":"1"},"t_uint88":{"encoding":"inplace","label":"uint88","numberOfBytes":"11"},"t_uint96":{"encoding":"inplace","label":"uint96","numberOfBytes":"12"}}}}}}