{"contracts/PlayerScoring.sol":{"PlayerScoring":{"abi":[{"inputs":[],"stateMutability":"nonpayable","type":"constructor"},{"inputs":[{"internalType":"address","name":"target","type":"address"}],"name":"AddressEmptyCode","type":"error"},{"inputs":[{"internalType":"address","name":"implementation","type":"address"}],"name":"ERC1967InvalidImplementation","type":"error"},{"inputs":[],"name":"ERC1967NonPayable","type":"error"},{"inputs":[],"name":"FailedCall","type":"error"},{"inputs":[],"name":"InvalidInitialization","type":"error"},{"inputs":[],"name":"NotInitializing","type":"error"},{"inputs":[{"internalType":"address","name":"owner","type":"address"}],"name":"OwnableInvalidOwner","type":"error"},{"inputs":[{"internalType":"address","name":"account","type":"address"}],"name":"OwnableUnauthorizedAccount","type":"error"},{"inputs":[],"name":"UUPSUnauthorizedCallContext","type":"error"},{"inputs":[{"internalType":"bytes32","name":"slot","type":"bytes32"}],"name":"UUPSUnsupportedProxiableUUID","type":"error"},{"anonymous":false,"inputs":[{"indexed":false,"internalType":"uint64","name":"version","type":"uint64"}],"name":"Initialized","type":"event"},{"anonymous":false,"inputs":[{"indexed":true,"internalType":"address","name":"previousOwner","type":"address"},{"indexed":true,"internalType":"address","name":"newOwner","type":"address"}],"name":"OwnershipTransferred","type":"event"},{"anonymous":false,"inputs":[{"indexed":true,"internalType":"address","name":"player","type":"address"},{"indexed":false,"internalType":"uint32","name":"newScore","type":"uint32"}],"name":"ScoreUpdated","type":"event"},{"anonymous":false,"inputs":[{"indexed":true,"internalType":"address","name":"implementation","type":"address"}],"name":"Upgraded","type":"event"},{"inputs":[],"name":"MAX_SCORE","outputs":[{"internalType":"uint32","name":"","type":"uint32"}],"stateMutability":"view","type":"function"},{"inputs":[],"name":"UPGRADE_INTERFACE_VERSION","outputs":[{"internalType":"string","name":"","type":"string"}],"stateMutability":"view","type":"function"},{"inputs":[{"internalType":"address","name":"_player","type":"address"}],"name":"getScore","outputs":[{"internalType":"uint32","name":"","type":"uint32"}],"stateMutability":"view","type":"function"},{"inputs":[{"internalType":"uint256","name":"_limit","type":"uint256"}],"name":"getTopPlayers","outputs":[{"internalType":"address[]","name":"topPlayers","type":"address[]"},{"internalType":"uint32[]","name":"playerScores","type":"uint32[]"}],"stateMutability":"view","type":"function"},{"inputs":[{"internalType":"address","name":"_owner","type":"address"}],"name":"initialize","outputs":[],"stateMutability":"nonpayable","type":"function"},{"inputs":[{"internalType":"address","name":"_player","type":"address"}],"name":"initializeScore","outputs":[],"stateMutability":"nonpayable","type":"function"},{"inputs":[],"name":"owner","outputs":[{"internalType":"address","name":"","type":"address"}],"stateMutability":"view","type":"function"},{"inputs":[],"name":"proxiableUUID","outputs":[{"internalType":"bytes32","name":"","type":"bytes32"}],"stateMutability":"view","type":"function"},{"inputs":[],"name":"renounceOwnership","outputs":[],"stateMutability":"nonpayable","type":"function"},{"inputs":[{"internalType":"address","name":"","type":"address"}],"name":"scores","outputs":[{"internalType":"uint32","name":"","type":"uint32"}],"stateMutability":"view","type":"function"},{"inputs":[{"internalType":"address","name":"newOwner","type":"address"}],"name":"transferOwnership","outputs":[],"stateMutability":"nonpayable","type":"function"},{"inputs":[{"internalType":"address","name":"_player","type":"address"},{"internalType":"uint32","name":"_newScore","type":"uint32"}],"name":"updateScore","outputs":[],"stateMutability":"nonpayable","type":"function"},{"inputs":[{"internalType":"address","name":"newImplementation","type":"address"},{"internalType":"bytes","name":"data","type":"bytes"}],"name":"upgradeToAndCall","outputs":[],"stateMutability":"payable","type":"function"}],"evm":{"bytecode":{"linkReferences":{},"object":"60a080604052346100cc57306080527ff0c57e16840df040f15088dc2f81fe391c3923bec73e23a9662efc9c229c6a009081549060ff8260401c166100bd57506001600160401b036002600160401b031982821601610078575b604051610d2e90816100d282396080518181816107b901526108980152f35b6001600160401b031990911681179091556040519081527fc7f505b2f371ae2175ee4913f4499e1f2633a7b5936321eed1cdaeb6115181d290602090a1388080610059565b63f92ee8a960e01b8152600490fd5b600080fdfe60806040908082526004918236101561001757600080fd5b600092833560e01c92836327ff622314610a87575082634f1ef2861461081d57826352d1902d146107a4578263715018a61461073a57826376dd110f146101af5782638da5cb5b146107045782639c4bcea314610661578263ad3cb1cc146105c1578263ba3c00671461032c578263c4d66de8146101f1578263d47875d0146101af578263e631fb1d146100e557505063f2fde38b146100b657600080fd5b346100e25760203660031901126100e2576100df6100d2610aa4565b6100da610bfb565b610b87565b80f35b80fd5b909150346101ab57816003193601126101ab57610100610aa4565b6024359163ffffffff83168093036101a75761011a610bfb565b620f4240831161017257506001600160a01b03168084526020848152838520805463ffffffff1916841790559251918252917f805564a06a86e3b1c8a50356c06b08a360c106f743ee9ed7361f4bccdd5ae70891a280f35b606490602085519162461bcd60e51b8352820152600f60248201526e45786365656473206d6178696d756d60881b6044820152fd5b8480fd5b8280fd5b8382346101ed5760203660031901126101ed5760209163ffffffff9082906001600160a01b036101dd610aa4565b1681528085522054169051908152f35b5080fd5b909150346101ab5760203660031901126101ab5761020d610aa4565b907ff0c57e16840df040f15088dc2f81fe391c3923bec73e23a9662efc9c229c6a0091825460ff81861c16159267ffffffffffffffff821680159081610324575b600114908161031a575b159081610311575b50610303575067ffffffffffffffff19811660011784556102939190836102e4575b5061028b610c34565b6100da610c34565b61029b610c34565b6102a3578280f35b805468ff00000000000000001916905551600181527fc7f505b2f371ae2175ee4913f4499e1f2633a7b5936321eed1cdaeb6115181d290602090a138808280f35b68ffffffffffffffffff19166801000000000000000117845538610282565b855163f92ee8a960e01b8152fd5b90501538610260565b303b159150610258565b85915061024e565b8390346101ed576020806003193601126101ab5781359261034d333b610b2b565b610357333b610b2b565b829583333b905b81811061055457505086811115610548575085919695949293965b61038283610b2b565b9361038c84610b2b565b96865b85811061042057505050505050835194848695860190865282518091528160608701930190845b81811061040057505050848203818601528080855193848152019401925b8281106103e357505050500390f35b835163ffffffff16855286955093810193928101926001016103d4565b82516001600160a01b0316855288975093830193918301916001016103b6565b809a979698999a6001808301808411610535575b8481106105015750509081816001930361048f575b50818060a01b0361045a8287610b5d565b5116610466828c610b5d565b5263ffffffff6104768288610b5d565b5116610482828d610b5d565b520199989795969961038f565b63ffffffff8061049f838a610b5d565b5116906104ac848a610b5d565b51166104b8838a610b5d565b526104c38389610b5d565b52828060a01b03906104ef826104d9838a610b5d565b5116926104e6858a610b5d565b51169188610b5d565b526104fa8287610b5d565b528c610449565b63ffffffff80610511838b610b5d565b51169061051e858b610b5d565b51161061052d575b8101610434565b915081610526565b634e487b7160e01b8a526011865260248afd5b91969594929396610379565b6001600160a01b0381168087528688528a87205463ffffffff16908161057f575b505060010161035e565b61058c8b889c949c610b5d565b526105978286610b5d565b5260001981146105ae57600180910198908b610575565b634e487b7160e01b865260118852602486fd5b909150346101ab57826003193601126101ab578151908282019082821067ffffffffffffffff83111761064e5750825260058152602090640352e302e360dc1b6020820152825193849260208452825192836020860152825b84811061063857505050828201840152601f01601f19168101030190f35b818101830151888201880152879550820161061a565b634e487b7160e01b855260419052602484fd5b909150346101ab5760203660031901126101ab5761067d610aa4565b610685610bfb565b6001600160a01b031680845260208490528284205490919063ffffffff166106c157508252816020528120600a63ffffffff1982541617905580f35b606490602084519162461bcd60e51b8352820152601960248201527f53636f726520616c726561647920696e697469616c697a6564000000000000006044820152fd5b8382346101ed57816003193601126101ed57600080516020610cd98339815191525490516001600160a01b039091168152602090f35b83346100e257806003193601126100e257610753610bfb565b600080516020610cd983398151915280546001600160a01b0319811690915581906001600160a01b03167f8be0079c531659141344cd1fd0a4f28419497f9722a3daafe3b4186f6b6457e08280a380f35b9083346100e257806003193601126100e257507f00000000000000000000000000000000000000000000000000000000000000006001600160a01b0316300361081057602090517f360894a13ba1a3210667c828492db98dca3e2076cc3735a920a3ca505d382bbc8152f35b5163703e46dd60e11b8152fd5b9150806003193601126101ab57610832610aa4565b90602493843567ffffffffffffffff81116101ed57366023820112156101ed578085013561085f81610af7565b9461086c85519687610abf565b81865260209182870193368a8383010111610a83578186928b8693018737880101526001600160a01b037f00000000000000000000000000000000000000000000000000000000000000008116308114908115610a55575b50610a45576108d1610bfb565b81169585516352d1902d60e01b815283818a818b5afa869181610a12575b5061090b575050505050505191634c9c8ce360e01b8352820152fd5b9088888894938c7f360894a13ba1a3210667c828492db98dca3e2076cc3735a920a3ca505d382bbc918281036109fd5750853b156109e9575080546001600160a01b031916821790558451889392917fbc7cd75a20ee27fd9adebab32041f755214dbc6bffa90cc0225b39da2e5c2d3b8580a28251156109cb5750506109bd9582915190845af4913d156109c1573d6109af6109a682610af7565b92519283610abf565b81528581943d92013e610c75565b5080f35b5060609250610c75565b9550955050505050346109dd57505080f35b63b398979f60e01b8152fd5b8651634c9c8ce360e01b8152808501849052fd5b8751632a87526960e21b815280860191909152fd5b9091508481813d8311610a3e575b610a2a8183610abf565b81010312610a3a575190386108ef565b8680fd5b503d610a20565b855163703e46dd60e11b81528890fd5b9050817f360894a13ba1a3210667c828492db98dca3e2076cc3735a920a3ca505d382bbc54161415386108c4565b8580fd5b8490346101ed57816003193601126101ed5780620f424060209252f35b600435906001600160a01b0382168203610aba57565b600080fd5b90601f8019910116810190811067ffffffffffffffff821117610ae157604052565b634e487b7160e01b600052604160045260246000fd5b67ffffffffffffffff8111610ae157601f01601f191660200190565b67ffffffffffffffff8111610ae15760051b60200190565b90610b3582610b13565b610b426040519182610abf565b8281528092610b53601f1991610b13565b0190602036910137565b8051821015610b715760209160051b010190565b634e487b7160e01b600052603260045260246000fd5b6001600160a01b03908116908115610be257600080516020610cd983398151915280546001600160a01b031981168417909155167f8be0079c531659141344cd1fd0a4f28419497f9722a3daafe3b4186f6b6457e0600080a3565b604051631e4fbdf760e01b815260006004820152602490fd5b600080516020610cd9833981519152546001600160a01b03163303610c1c57565b60405163118cdaa760e01b8152336004820152602490fd5b60ff7ff0c57e16840df040f15088dc2f81fe391c3923bec73e23a9662efc9c229c6a005460401c1615610c6357565b604051631afcd79f60e31b8152600490fd5b90610c9c5750805115610c8a57805190602001fd5b60405163d6bda27560e01b8152600490fd5b81511580610ccf575b610cad575090565b604051639996b31560e01b81526001600160a01b039091166004820152602490fd5b50803b15610ca556fe9016d09d72d40fdae2fd8ceac6b6234c7706214fd39c1cd1e609a0528c199300a26469706673582212207ab6ded8c65021a398e199cb3de0140dfd74b7fd8ab947f67c2bcfe509878b6d64736f6c63430008160033","opcodes":"PUSH1 0xA0 DUP1 PUSH1 0x40 MSTORE CALLVALUE PUSH2 0xCC JUMPI ADDRESS PUSH1 0x80 MSTORE PUSH32 0xF0C57E16840DF040F15088DC2F81FE391C3923BEC73E23A9662EFC9C229C6A00 SWAP1 DUP2 SLOAD SWAP1 PUSH1 0xFF DUP3 PUSH1 0x40 SHR AND PUSH2 0xBD JUMPI POP PUSH1 0x1 PUSH1 0x1 PUSH1 0x40 SHL SUB PUSH1 0x2 PUSH1 0x1 PUSH1 0x40 SHL SUB NOT DUP3 DUP3 AND ADD PUSH2 0x78 JUMPI JUMPDEST PUSH1 0x40 MLOAD PUSH2 0xD2E SWAP1 DUP2 PUSH2 0xD2 DUP3 CODECOPY PUSH1 0x80 MLOAD DUP2 DUP2 DUP2 PUSH2 0x7B9 ADD MSTORE PUSH2 0x898 ADD MSTORE RETURN JUMPDEST PUSH1 0x1 PUSH1 0x1 PUSH1 0x40 SHL SUB NOT SWAP1 SWAP2 AND DUP2 OR SWAP1 SWAP2 SSTORE PUSH1 0x40 MLOAD SWAP1 DUP2 MSTORE PUSH32 0xC7F505B2F371AE2175EE4913F4499E1F2633A7B5936321EED1CDAEB6115181D2 SWAP1 PUSH1 0x20 SWAP1 LOG1 CODESIZE DUP1 DUP1 PUSH2 0x59 JUMP JUMPDEST PUSH4 0xF92EE8A9 PUSH1 0xE0 SHL DUP2 MSTORE PUSH1 0x4 SWAP1 REVERT JUMPDEST PUSH1 0x0 DUP1 REVERT INVALID PUSH1 0x80 PUSH1 0x40 SWAP1 DUP1 DUP3 MSTORE PUSH1 0x4 SWAP2 DUP3 CALLDATASIZE LT ISZERO PUSH2 0x17 JUMPI PUSH1 0x0 DUP1 REVERT JUMPDEST PUSH1 0x0 SWAP3 DUP4 CALLDATALOAD PUSH1 0xE0 SHR SWAP3 DUP4 PUSH4 0x27FF6223 EQ PUSH2 0xA87 JUMPI POP DUP3 PUSH4 0x4F1EF286 EQ PUSH2 0x81D JUMPI DUP3 PUSH4 0x52D1902D EQ PUSH2 0x7A4 JUMPI DUP3 PUSH4 0x715018A6 EQ PUSH2 0x73A JUMPI DUP3 PUSH4 0x76DD110F EQ PUSH2 0x1AF JUMPI DUP3 PUSH4 0x8DA5CB5B EQ PUSH2 0x704 JUMPI DUP3 PUSH4 0x9C4BCEA3 EQ PUSH2 0x661 JUMPI DUP3 PUSH4 0xAD3CB1CC EQ PUSH2 0x5C1 JUMPI DUP3 PUSH4 0xBA3C0067 EQ PUSH2 0x32C JUMPI DUP3 PUSH4 0xC4D66DE8 EQ PUSH2 0x1F1 JUMPI DUP3 PUSH4 0xD47875D0 EQ PUSH2 0x1AF JUMPI DUP3 PUSH4 0xE631FB1D EQ PUSH2 0xE5 JUMPI POP POP PUSH4 0xF2FDE38B EQ PUSH2 0xB6 JUMPI PUSH1 0x0 DUP1 REVERT JUMPDEST CALLVALUE PUSH2 0xE2 JUMPI PUSH1 0x20 CALLDATASIZE PUSH1 0x3 NOT ADD SLT PUSH2 0xE2 JUMPI PUSH2 0xDF PUSH2 0xD2 PUSH2 0xAA4 JUMP JUMPDEST PUSH2 0xDA PUSH2 0xBFB JUMP JUMPDEST PUSH2 0xB87 JUMP JUMPDEST DUP1 RETURN JUMPDEST DUP1 REVERT JUMPDEST SWAP1 SWAP2 POP CALLVALUE PUSH2 0x1AB JUMPI DUP2 PUSH1 0x3 NOT CALLDATASIZE ADD SLT PUSH2 0x1AB JUMPI PUSH2 0x100 PUSH2 0xAA4 JUMP JUMPDEST PUSH1 0x24 CALLDATALOAD SWAP2 PUSH4 0xFFFFFFFF DUP4 AND DUP1 SWAP4 SUB PUSH2 0x1A7 JUMPI PUSH2 0x11A PUSH2 0xBFB JUMP JUMPDEST PUSH3 0xF4240 DUP4 GT PUSH2 0x172 JUMPI POP PUSH1 0x1 PUSH1 0x1 PUSH1 0xA0 SHL SUB AND DUP1 DUP5 MSTORE PUSH1 0x20 DUP5 DUP2 MSTORE DUP4 DUP6 KECCAK256 DUP1 SLOAD PUSH4 0xFFFFFFFF NOT AND DUP5 OR SWAP1 SSTORE SWAP3 MLOAD SWAP2 DUP3 MSTORE SWAP2 PUSH32 0x805564A06A86E3B1C8A50356C06B08A360C106F743EE9ED7361F4BCCDD5AE708 SWAP2 LOG2 DUP1 RETURN JUMPDEST PUSH1 0x64 SWAP1 PUSH1 0x20 DUP6 MLOAD SWAP2 PUSH3 0x461BCD PUSH1 0xE5 SHL DUP4 MSTORE DUP3 ADD MSTORE PUSH1 0xF PUSH1 0x24 DUP3 ADD MSTORE PUSH15 0x45786365656473206D6178696D756D PUSH1 0x88 SHL PUSH1 0x44 DUP3 ADD MSTORE REVERT JUMPDEST DUP5 DUP1 REVERT JUMPDEST DUP3 DUP1 REVERT JUMPDEST DUP4 DUP3 CALLVALUE PUSH2 0x1ED JUMPI PUSH1 0x20 CALLDATASIZE PUSH1 0x3 NOT ADD SLT PUSH2 0x1ED JUMPI PUSH1 0x20 SWAP2 PUSH4 0xFFFFFFFF SWAP1 DUP3 SWAP1 PUSH1 0x1 PUSH1 0x1 PUSH1 0xA0 SHL SUB PUSH2 0x1DD PUSH2 0xAA4 JUMP JUMPDEST AND DUP2 MSTORE DUP1 DUP6 MSTORE KECCAK256 SLOAD AND SWAP1 MLOAD SWAP1 DUP2 MSTORE RETURN JUMPDEST POP DUP1 REVERT JUMPDEST SWAP1 SWAP2 POP CALLVALUE PUSH2 0x1AB JUMPI PUSH1 0x20 CALLDATASIZE PUSH1 0x3 NOT ADD SLT PUSH2 0x1AB JUMPI PUSH2 0x20D PUSH2 0xAA4 JUMP JUMPDEST SWAP1 PUSH32 0xF0C57E16840DF040F15088DC2F81FE391C3923BEC73E23A9662EFC9C229C6A00 SWAP2 DUP3 SLOAD PUSH1 0xFF DUP2 DUP7 SHR AND ISZERO SWAP3 PUSH8 0xFFFFFFFFFFFFFFFF DUP3 AND DUP1 ISZERO SWAP1 DUP2 PUSH2 0x324 JUMPI JUMPDEST PUSH1 0x1 EQ SWAP1 DUP2 PUSH2 0x31A JUMPI JUMPDEST ISZERO SWAP1 DUP2 PUSH2 0x311 JUMPI JUMPDEST POP PUSH2 0x303 JUMPI POP PUSH8 0xFFFFFFFFFFFFFFFF NOT DUP2 AND PUSH1 0x1 OR DUP5 SSTORE PUSH2 0x293 SWAP2 SWAP1 DUP4 PUSH2 0x2E4 JUMPI JUMPDEST POP PUSH2 0x28B PUSH2 0xC34 JUMP JUMPDEST PUSH2 0xDA PUSH2 0xC34 JUMP JUMPDEST PUSH2 0x29B PUSH2 0xC34 JUMP JUMPDEST PUSH2 0x2A3 JUMPI DUP3 DUP1 RETURN JUMPDEST DUP1 SLOAD PUSH9 0xFF0000000000000000 NOT AND SWAP1 SSTORE MLOAD PUSH1 0x1 DUP2 MSTORE PUSH32 0xC7F505B2F371AE2175EE4913F4499E1F2633A7B5936321EED1CDAEB6115181D2 SWAP1 PUSH1 0x20 SWAP1 LOG1 CODESIZE DUP1 DUP3 DUP1 RETURN JUMPDEST PUSH9 0xFFFFFFFFFFFFFFFFFF NOT AND PUSH9 0x10000000000000001 OR DUP5 SSTORE CODESIZE PUSH2 0x282 JUMP JUMPDEST DUP6 MLOAD PUSH4 0xF92EE8A9 PUSH1 0xE0 SHL DUP2 MSTORE REVERT JUMPDEST SWAP1 POP ISZERO CODESIZE PUSH2 0x260 JUMP JUMPDEST ADDRESS EXTCODESIZE ISZERO SWAP2 POP PUSH2 0x258 JUMP JUMPDEST DUP6 SWAP2 POP PUSH2 0x24E JUMP JUMPDEST DUP4 SWAP1 CALLVALUE PUSH2 0x1ED JUMPI PUSH1 0x20 DUP1 PUSH1 0x3 NOT CALLDATASIZE ADD SLT PUSH2 0x1AB JUMPI DUP2 CALLDATALOAD SWAP3 PUSH2 0x34D CALLER EXTCODESIZE PUSH2 0xB2B JUMP JUMPDEST PUSH2 0x357 CALLER EXTCODESIZE PUSH2 0xB2B JUMP JUMPDEST DUP3 SWAP6 DUP4 CALLER EXTCODESIZE SWAP1 JUMPDEST DUP2 DUP2 LT PUSH2 0x554 JUMPI POP POP DUP7 DUP2 GT ISZERO PUSH2 0x548 JUMPI POP DUP6 SWAP2 SWAP7 SWAP6 SWAP5 SWAP3 SWAP4 SWAP7 JUMPDEST PUSH2 0x382 DUP4 PUSH2 0xB2B JUMP JUMPDEST SWAP4 PUSH2 0x38C DUP5 PUSH2 0xB2B JUMP JUMPDEST SWAP7 DUP7 JUMPDEST DUP6 DUP2 LT PUSH2 0x420 JUMPI POP POP POP POP POP POP DUP4 MLOAD SWAP5 DUP5 DUP7 SWAP6 DUP7 ADD SWAP1 DUP7 MSTORE DUP3 MLOAD DUP1 SWAP2 MSTORE DUP2 PUSH1 0x60 DUP8 ADD SWAP4 ADD SWAP1 DUP5 JUMPDEST DUP2 DUP2 LT PUSH2 0x400 JUMPI POP POP POP DUP5 DUP3 SUB DUP2 DUP7 ADD MSTORE DUP1 DUP1 DUP6 MLOAD SWAP4 DUP5 DUP2 MSTORE ADD SWAP5 ADD SWAP3 JUMPDEST DUP3 DUP2 LT PUSH2 0x3E3 JUMPI POP POP POP POP SUB SWAP1 RETURN JUMPDEST DUP4 MLOAD PUSH4 0xFFFFFFFF AND DUP6 MSTORE DUP7 SWAP6 POP SWAP4 DUP2 ADD SWAP4 SWAP3 DUP2 ADD SWAP3 PUSH1 0x1 ADD PUSH2 0x3D4 JUMP JUMPDEST DUP3 MLOAD PUSH1 0x1 PUSH1 0x1 PUSH1 0xA0 SHL SUB AND DUP6 MSTORE DUP9 SWAP8 POP SWAP4 DUP4 ADD SWAP4 SWAP2 DUP4 ADD SWAP2 PUSH1 0x1 ADD PUSH2 0x3B6 JUMP JUMPDEST DUP1 SWAP11 SWAP8 SWAP7 SWAP9 SWAP10 SWAP11 PUSH1 0x1 DUP1 DUP4 ADD DUP1 DUP5 GT PUSH2 0x535 JUMPI JUMPDEST DUP5 DUP2 LT PUSH2 0x501 JUMPI POP POP SWAP1 DUP2 DUP2 PUSH1 0x1 SWAP4 SUB PUSH2 0x48F JUMPI JUMPDEST POP DUP2 DUP1 PUSH1 0xA0 SHL SUB PUSH2 0x45A DUP3 DUP8 PUSH2 0xB5D JUMP JUMPDEST MLOAD AND PUSH2 0x466 DUP3 DUP13 PUSH2 0xB5D JUMP JUMPDEST MSTORE PUSH4 0xFFFFFFFF PUSH2 0x476 DUP3 DUP9 PUSH2 0xB5D JUMP JUMPDEST MLOAD AND PUSH2 0x482 DUP3 DUP14 PUSH2 0xB5D JUMP JUMPDEST MSTORE ADD SWAP10 SWAP9 SWAP8 SWAP6 SWAP7 SWAP10 PUSH2 0x38F JUMP JUMPDEST PUSH4 0xFFFFFFFF DUP1 PUSH2 0x49F DUP4 DUP11 PUSH2 0xB5D JUMP JUMPDEST MLOAD AND SWAP1 PUSH2 0x4AC DUP5 DUP11 PUSH2 0xB5D JUMP JUMPDEST MLOAD AND PUSH2 0x4B8 DUP4 DUP11 PUSH2 0xB5D JUMP JUMPDEST MSTORE PUSH2 0x4C3 DUP4 DUP10 PUSH2 0xB5D JUMP JUMPDEST MSTORE DUP3 DUP1 PUSH1 0xA0 SHL SUB SWAP1 PUSH2 0x4EF DUP3 PUSH2 0x4D9 DUP4 DUP11 PUSH2 0xB5D JUMP JUMPDEST MLOAD AND SWAP3 PUSH2 0x4E6 DUP6 DUP11 PUSH2 0xB5D JUMP JUMPDEST MLOAD AND SWAP2 DUP9 PUSH2 0xB5D JUMP JUMPDEST MSTORE PUSH2 0x4FA DUP3 DUP8 PUSH2 0xB5D JUMP JUMPDEST MSTORE DUP13 PUSH2 0x449 JUMP JUMPDEST PUSH4 0xFFFFFFFF DUP1 PUSH2 0x511 DUP4 DUP12 PUSH2 0xB5D JUMP JUMPDEST MLOAD AND SWAP1 PUSH2 0x51E DUP6 DUP12 PUSH2 0xB5D JUMP JUMPDEST MLOAD AND LT PUSH2 0x52D JUMPI JUMPDEST DUP2 ADD PUSH2 0x434 JUMP JUMPDEST SWAP2 POP DUP2 PUSH2 0x526 JUMP JUMPDEST PUSH4 0x4E487B71 PUSH1 0xE0 SHL DUP11 MSTORE PUSH1 0x11 DUP7 MSTORE PUSH1 0x24 DUP11 REVERT JUMPDEST SWAP2 SWAP7 SWAP6 SWAP5 SWAP3 SWAP4 SWAP7 PUSH2 0x379 JUMP JUMPDEST PUSH1 0x1 PUSH1 0x1 PUSH1 0xA0 SHL SUB DUP2 AND DUP1 DUP8 MSTORE DUP7 DUP9 MSTORE DUP11 DUP8 KECCAK256 SLOAD PUSH4 0xFFFFFFFF AND SWAP1 DUP2 PUSH2 0x57F JUMPI JUMPDEST POP POP PUSH1 0x1 ADD PUSH2 0x35E JUMP JUMPDEST PUSH2 0x58C DUP12 DUP9 SWAP13 SWAP5 SWAP13 PUSH2 0xB5D JUMP JUMPDEST MSTORE PUSH2 0x597 DUP3 DUP7 PUSH2 0xB5D JUMP JUMPDEST MSTORE PUSH1 0x0 NOT DUP2 EQ PUSH2 0x5AE JUMPI PUSH1 0x1 DUP1 SWAP2 ADD SWAP9 SWAP1 DUP12 PUSH2 0x575 JUMP JUMPDEST PUSH4 0x4E487B71 PUSH1 0xE0 SHL DUP7 MSTORE PUSH1 0x11 DUP9 MSTORE PUSH1 0x24 DUP7 REVERT JUMPDEST SWAP1 SWAP2 POP CALLVALUE PUSH2 0x1AB JUMPI DUP3 PUSH1 0x3 NOT CALLDATASIZE ADD SLT PUSH2 0x1AB JUMPI DUP2 MLOAD SWAP1 DUP3 DUP3 ADD SWAP1 DUP3 DUP3 LT PUSH8 0xFFFFFFFFFFFFFFFF DUP4 GT OR PUSH2 0x64E JUMPI POP DUP3 MSTORE PUSH1 0x5 DUP2 MSTORE PUSH1 0x20 SWAP1 PUSH5 0x352E302E3 PUSH1 0xDC SHL PUSH1 0x20 DUP3 ADD MSTORE DUP3 MLOAD SWAP4 DUP5 SWAP3 PUSH1 0x20 DUP5 MSTORE DUP3 MLOAD SWAP3 DUP4 PUSH1 0x20 DUP7 ADD MSTORE DUP3 JUMPDEST DUP5 DUP2 LT PUSH2 0x638 JUMPI POP POP POP DUP3 DUP3 ADD DUP5 ADD MSTORE PUSH1 0x1F ADD PUSH1 0x1F NOT AND DUP2 ADD SUB ADD SWAP1 RETURN JUMPDEST DUP2 DUP2 ADD DUP4 ADD MLOAD DUP9 DUP3 ADD DUP9 ADD MSTORE DUP8 SWAP6 POP DUP3 ADD PUSH2 0x61A JUMP JUMPDEST PUSH4 0x4E487B71 PUSH1 0xE0 SHL DUP6 MSTORE PUSH1 0x41 SWAP1 MSTORE PUSH1 0x24 DUP5 REVERT JUMPDEST SWAP1 SWAP2 POP CALLVALUE PUSH2 0x1AB JUMPI PUSH1 0x20 CALLDATASIZE PUSH1 0x3 NOT ADD SLT PUSH2 0x1AB JUMPI PUSH2 0x67D PUSH2 0xAA4 JUMP JUMPDEST PUSH2 0x685 PUSH2 0xBFB JUMP JUMPDEST PUSH1 0x1 PUSH1 0x1 PUSH1 0xA0 SHL SUB AND DUP1 DUP5 MSTORE PUSH1 0x20 DUP5 SWAP1 MSTORE DUP3 DUP5 KECCAK256 SLOAD SWAP1 SWAP2 SWAP1 PUSH4 0xFFFFFFFF AND PUSH2 0x6C1 JUMPI POP DUP3 MSTORE DUP2 PUSH1 0x20 MSTORE DUP2 KECCAK256 PUSH1 0xA PUSH4 0xFFFFFFFF NOT DUP3 SLOAD AND OR SWAP1 SSTORE DUP1 RETURN JUMPDEST PUSH1 0x64 SWAP1 PUSH1 0x20 DUP5 MLOAD SWAP2 PUSH3 0x461BCD PUSH1 0xE5 SHL DUP4 MSTORE DUP3 ADD MSTORE PUSH1 0x19 PUSH1 0x24 DUP3 ADD MSTORE PUSH32 0x53636F726520616C726561647920696E697469616C697A656400000000000000 PUSH1 0x44 DUP3 ADD MSTORE REVERT JUMPDEST DUP4 DUP3 CALLVALUE PUSH2 0x1ED JUMPI DUP2 PUSH1 0x3 NOT CALLDATASIZE ADD SLT PUSH2 0x1ED JUMPI PUSH1 0x0 DUP1 MLOAD PUSH1 0x20 PUSH2 0xCD9 DUP4 CODECOPY DUP2 MLOAD SWAP2 MSTORE SLOAD SWAP1 MLOAD PUSH1 0x1 PUSH1 0x1 PUSH1 0xA0 SHL SUB SWAP1 SWAP2 AND DUP2 MSTORE PUSH1 0x20 SWAP1 RETURN JUMPDEST DUP4 CALLVALUE PUSH2 0xE2 JUMPI DUP1 PUSH1 0x3 NOT CALLDATASIZE ADD SLT PUSH2 0xE2 JUMPI PUSH2 0x753 PUSH2 0xBFB JUMP JUMPDEST PUSH1 0x0 DUP1 MLOAD PUSH1 0x20 PUSH2 0xCD9 DUP4 CODECOPY DUP2 MLOAD SWAP2 MSTORE DUP1 SLOAD PUSH1 0x1 PUSH1 0x1 PUSH1 0xA0 SHL SUB NOT DUP2 AND SWAP1 SWAP2 SSTORE DUP2 SWAP1 PUSH1 0x1 PUSH1 0x1 PUSH1 0xA0 SHL SUB AND PUSH32 0x8BE0079C531659141344CD1FD0A4F28419497F9722A3DAAFE3B4186F6B6457E0 DUP3 DUP1 LOG3 DUP1 RETURN JUMPDEST SWAP1 DUP4 CALLVALUE PUSH2 0xE2 JUMPI DUP1 PUSH1 0x3 NOT CALLDATASIZE ADD SLT PUSH2 0xE2 JUMPI POP PUSH32 0x0 PUSH1 0x1 PUSH1 0x1 PUSH1 0xA0 SHL SUB AND ADDRESS SUB PUSH2 0x810 JUMPI PUSH1 0x20 SWAP1 MLOAD PUSH32 0x360894A13BA1A3210667C828492DB98DCA3E2076CC3735A920A3CA505D382BBC DUP2 MSTORE RETURN JUMPDEST MLOAD PUSH4 0x703E46DD PUSH1 0xE1 SHL DUP2 MSTORE REVERT JUMPDEST SWAP2 POP DUP1 PUSH1 0x3 NOT CALLDATASIZE ADD SLT PUSH2 0x1AB JUMPI PUSH2 0x832 PUSH2 0xAA4 JUMP JUMPDEST SWAP1 PUSH1 0x24 SWAP4 DUP5 CALLDATALOAD PUSH8 0xFFFFFFFFFFFFFFFF DUP2 GT PUSH2 0x1ED JUMPI CALLDATASIZE PUSH1 0x23 DUP3 ADD SLT ISZERO PUSH2 0x1ED JUMPI DUP1 DUP6 ADD CALLDATALOAD PUSH2 0x85F DUP2 PUSH2 0xAF7 JUMP JUMPDEST SWAP5 PUSH2 0x86C DUP6 MLOAD SWAP7 DUP8 PUSH2 0xABF JUMP JUMPDEST DUP2 DUP7 MSTORE PUSH1 0x20 SWAP2 DUP3 DUP8 ADD SWAP4 CALLDATASIZE DUP11 DUP4 DUP4 ADD ADD GT PUSH2 0xA83 JUMPI DUP2 DUP7 SWAP3 DUP12 DUP7 SWAP4 ADD DUP8 CALLDATACOPY DUP9 ADD ADD MSTORE PUSH1 0x1 PUSH1 0x1 PUSH1 0xA0 SHL SUB PUSH32 0x0 DUP2 AND ADDRESS DUP2 EQ SWAP1 DUP2 ISZERO PUSH2 0xA55 JUMPI JUMPDEST POP PUSH2 0xA45 JUMPI PUSH2 0x8D1 PUSH2 0xBFB JUMP JUMPDEST DUP2 AND SWAP6 DUP6 MLOAD PUSH4 0x52D1902D PUSH1 0xE0 SHL DUP2 MSTORE DUP4 DUP2 DUP11 DUP2 DUP12 GAS STATICCALL DUP7 SWAP2 DUP2 PUSH2 0xA12 JUMPI JUMPDEST POP PUSH2 0x90B JUMPI POP POP POP POP POP POP MLOAD SWAP2 PUSH4 0x4C9C8CE3 PUSH1 0xE0 SHL DUP4 MSTORE DUP3 ADD MSTORE REVERT JUMPDEST SWAP1 DUP9 DUP9 DUP9 SWAP5 SWAP4 DUP13 PUSH32 0x360894A13BA1A3210667C828492DB98DCA3E2076CC3735A920A3CA505D382BBC SWAP2 DUP3 DUP2 SUB PUSH2 0x9FD JUMPI POP DUP6 EXTCODESIZE ISZERO PUSH2 0x9E9 JUMPI POP DUP1 SLOAD PUSH1 0x1 PUSH1 0x1 PUSH1 0xA0 SHL SUB NOT AND DUP3 OR SWAP1 SSTORE DUP5 MLOAD DUP9 SWAP4 SWAP3 SWAP2 PUSH32 0xBC7CD75A20EE27FD9ADEBAB32041F755214DBC6BFFA90CC0225B39DA2E5C2D3B DUP6 DUP1 LOG2 DUP3 MLOAD ISZERO PUSH2 0x9CB JUMPI POP POP PUSH2 0x9BD SWAP6 DUP3 SWAP2 MLOAD SWAP1 DUP5 GAS DELEGATECALL SWAP2 RETURNDATASIZE ISZERO PUSH2 0x9C1 JUMPI RETURNDATASIZE PUSH2 0x9AF PUSH2 0x9A6 DUP3 PUSH2 0xAF7 JUMP JUMPDEST SWAP3 MLOAD SWAP3 DUP4 PUSH2 0xABF JUMP JUMPDEST DUP2 MSTORE DUP6 DUP2 SWAP5 RETURNDATASIZE SWAP3 ADD RETURNDATACOPY PUSH2 0xC75 JUMP JUMPDEST POP DUP1 RETURN JUMPDEST POP PUSH1 0x60 SWAP3 POP PUSH2 0xC75 JUMP JUMPDEST SWAP6 POP SWAP6 POP POP POP POP POP CALLVALUE PUSH2 0x9DD JUMPI POP POP DUP1 RETURN JUMPDEST PUSH4 0xB398979F PUSH1 0xE0 SHL DUP2 MSTORE REVERT JUMPDEST DUP7 MLOAD PUSH4 0x4C9C8CE3 PUSH1 0xE0 SHL DUP2 MSTORE DUP1 DUP6 ADD DUP5 SWAP1 MSTORE REVERT JUMPDEST DUP8 MLOAD PUSH4 0x2A875269 PUSH1 0xE2 SHL DUP2 MSTORE DUP1 DUP7 ADD SWAP2 SWAP1 SWAP2 MSTORE REVERT JUMPDEST SWAP1 SWAP2 POP DUP5 DUP2 DUP2 RETURNDATASIZE DUP4 GT PUSH2 0xA3E JUMPI JUMPDEST PUSH2 0xA2A DUP2 DUP4 PUSH2 0xABF JUMP JUMPDEST DUP2 ADD SUB SLT PUSH2 0xA3A JUMPI MLOAD SWAP1 CODESIZE PUSH2 0x8EF JUMP JUMPDEST DUP7 DUP1 REVERT JUMPDEST POP RETURNDATASIZE PUSH2 0xA20 JUMP JUMPDEST DUP6 MLOAD PUSH4 0x703E46DD PUSH1 0xE1 SHL DUP2 MSTORE DUP9 SWAP1 REVERT JUMPDEST SWAP1 POP DUP2 PUSH32 0x360894A13BA1A3210667C828492DB98DCA3E2076CC3735A920A3CA505D382BBC SLOAD AND EQ ISZERO CODESIZE PUSH2 0x8C4 JUMP JUMPDEST DUP6 DUP1 REVERT JUMPDEST DUP5 SWAP1 CALLVALUE PUSH2 0x1ED JUMPI DUP2 PUSH1 0x3 NOT CALLDATASIZE ADD SLT PUSH2 0x1ED JUMPI DUP1 PUSH3 0xF4240 PUSH1 0x20 SWAP3 MSTORE RETURN JUMPDEST PUSH1 0x4 CALLDATALOAD SWAP1 PUSH1 0x1 PUSH1 0x1 PUSH1 0xA0 SHL SUB DUP3 AND DUP3 SUB PUSH2 0xABA JUMPI JUMP JUMPDEST PUSH1 0x0 DUP1 REVERT JUMPDEST SWAP1 PUSH1 0x1F DUP1 NOT SWAP2 ADD AND DUP2 ADD SWAP1 DUP2 LT PUSH8 0xFFFFFFFFFFFFFFFF DUP3 GT OR PUSH2 0xAE1 JUMPI PUSH1 0x40 MSTORE JUMP JUMPDEST PUSH4 0x4E487B71 PUSH1 0xE0 SHL PUSH1 0x0 MSTORE PUSH1 0x41 PUSH1 0x4 MSTORE PUSH1 0x24 PUSH1 0x0 REVERT JUMPDEST PUSH8 0xFFFFFFFFFFFFFFFF DUP2 GT PUSH2 0xAE1 JUMPI PUSH1 0x1F ADD PUSH1 0x1F NOT AND PUSH1 0x20 ADD SWAP1 JUMP JUMPDEST PUSH8 0xFFFFFFFFFFFFFFFF DUP2 GT PUSH2 0xAE1 JUMPI PUSH1 0x5 SHL PUSH1 0x20 ADD SWAP1 JUMP JUMPDEST SWAP1 PUSH2 0xB35 DUP3 PUSH2 0xB13 JUMP JUMPDEST PUSH2 0xB42 PUSH1 0x40 MLOAD SWAP2 DUP3 PUSH2 0xABF JUMP JUMPDEST DUP3 DUP2 MSTORE DUP1 SWAP3 PUSH2 0xB53 PUSH1 0x1F NOT SWAP2 PUSH2 0xB13 JUMP JUMPDEST ADD SWAP1 PUSH1 0x20 CALLDATASIZE SWAP2 ADD CALLDATACOPY JUMP JUMPDEST DUP1 MLOAD DUP3 LT ISZERO PUSH2 0xB71 JUMPI PUSH1 0x20 SWAP2 PUSH1 0x5 SHL ADD ADD SWAP1 JUMP JUMPDEST PUSH4 0x4E487B71 PUSH1 0xE0 SHL PUSH1 0x0 MSTORE PUSH1 0x32 PUSH1 0x4 MSTORE PUSH1 0x24 PUSH1 0x0 REVERT JUMPDEST PUSH1 0x1 PUSH1 0x1 PUSH1 0xA0 SHL SUB SWAP1 DUP2 AND SWAP1 DUP2 ISZERO PUSH2 0xBE2 JUMPI PUSH1 0x0 DUP1 MLOAD PUSH1 0x20 PUSH2 0xCD9 DUP4 CODECOPY DUP2 MLOAD SWAP2 MSTORE DUP1 SLOAD PUSH1 0x1 PUSH1 0x1 PUSH1 0xA0 SHL SUB NOT DUP2 AND DUP5 OR SWAP1 SWAP2 SSTORE AND PUSH32 0x8BE0079C531659141344CD1FD0A4F28419497F9722A3DAAFE3B4186F6B6457E0 PUSH1 0x0 DUP1 LOG3 JUMP JUMPDEST PUSH1 0x40 MLOAD PUSH4 0x1E4FBDF7 PUSH1 0xE0 SHL DUP2 MSTORE PUSH1 0x0 PUSH1 0x4 DUP3 ADD MSTORE PUSH1 0x24 SWAP1 REVERT JUMPDEST PUSH1 0x0 DUP1 MLOAD PUSH1 0x20 PUSH2 0xCD9 DUP4 CODECOPY DUP2 MLOAD SWAP2 MSTORE SLOAD PUSH1 0x1 PUSH1 0x1 PUSH1 0xA0 SHL SUB AND CALLER SUB PUSH2 0xC1C JUMPI JUMP JUMPDEST PUSH1 0x40 MLOAD PUSH4 0x118CDAA7 PUSH1 0xE0 SHL DUP2 MSTORE CALLER PUSH1 0x4 DUP3 ADD MSTORE PUSH1 0x24 SWAP1 REVERT JUMPDEST PUSH1 0xFF PUSH32 0xF0C57E16840DF040F15088DC2F81FE391C3923BEC73E23A9662EFC9C229C6A00 SLOAD PUSH1 0x40 SHR AND ISZERO PUSH2 0xC63 JUMPI JUMP JUMPDEST PUSH1 0x40 MLOAD PUSH4 0x1AFCD79F PUSH1 0xE3 SHL DUP2 MSTORE PUSH1 0x4 SWAP1 REVERT JUMPDEST SWAP1 PUSH2 0xC9C JUMPI POP DUP1 MLOAD ISZERO PUSH2 0xC8A JUMPI DUP1 MLOAD SWAP1 PUSH1 0x20 ADD REVERT JUMPDEST PUSH1 0x40 MLOAD PUSH4 0xD6BDA275 PUSH1 0xE0 SHL DUP2 MSTORE PUSH1 0x4 SWAP1 REVERT JUMPDEST DUP2 MLOAD ISZERO DUP1 PUSH2 0xCCF JUMPI JUMPDEST PUSH2 0xCAD JUMPI POP SWAP1 JUMP JUMPDEST PUSH1 0x40 MLOAD PUSH4 0x9996B315 PUSH1 0xE0 SHL DUP2 MSTORE PUSH1 0x1 PUSH1 0x1 PUSH1 0xA0 SHL SUB SWAP1 SWAP2 AND PUSH1 0x4 DUP3 ADD MSTORE PUSH1 0x24 SWAP1 REVERT JUMPDEST POP DUP1 EXTCODESIZE ISZERO PUSH2 0xCA5 JUMP INVALID SWAP1 AND 0xD0 SWAP14 PUSH19 0xD40FDAE2FD8CEAC6B6234C7706214FD39C1CD1 0xE6 MULMOD LOG0 MSTORE DUP13 NOT SWAP4 STOP LOG2 PUSH5 0x6970667358 0x22 SLT KECCAK256 PUSH27 0xB6DED8C65021A398E199CB3DE0140DFD74B7FD8AB947F67C2BCFE5 MULMOD DUP8 DUP12 PUSH14 0x64736F6C63430008160033000000 "},"methodIdentifiers":{"MAX_SCORE()":"27ff6223","UPGRADE_INTERFACE_VERSION()":"ad3cb1cc","getScore(address)":"d47875d0","getTopPlayers(uint256)":"ba3c0067","initialize(address)":"c4d66de8","initializeScore(address)":"9c4bcea3","owner()":"8da5cb5b","proxiableUUID()":"52d1902d","renounceOwnership()":"715018a6","scores(address)":"76dd110f","transferOwnership(address)":"f2fde38b","updateScore(address,uint32)":"e631fb1d","upgradeToAndCall(address,bytes)":"4f1ef286"}},"storageLayout":{"storage":[{"astId":2524,"contract":"contracts/PlayerScoring.sol:PlayerScoring","label":"scores","offset":0,"slot":"0","type":"t_mapping(t_address,t_uint32)"}],"types":{"t_address":{"encoding":"inplace","label":"address","numberOfBytes":"20"},"t_mapping(t_address,t_uint32)":{"encoding":"mapping","key":"t_address","label":"mapping(address => uint32)","numberOfBytes":"32","value":"t_uint32"},"t_uint32":{"encoding":"inplace","label":"uint32","numberOfBytes":"4"}}}}}}