{"contracts/GameFactory.sol":{"GameFactory":{"abi":[{"inputs":[],"stateMutability":"nonpayable","type":"constructor"},{"inputs":[{"internalType":"address","name":"target","type":"address"}],"name":"AddressEmptyCode","type":"error"},{"inputs":[{"internalType":"address","name":"implementation","type":"address"}],"name":"ERC1967InvalidImplementation","type":"error"},{"inputs":[],"name":"ERC1967NonPayable","type":"error"},{"inputs":[],"name":"EnforcedPause","type":"error"},{"inputs":[],"name":"ExpectedPause","type":"error"},{"inputs":[],"name":"FailedCall","type":"error"},{"inputs":[],"name":"InvalidInitialization","type":"error"},{"inputs":[],"name":"NotInitializing","type":"error"},{"inputs":[{"internalType":"address","name":"owner","type":"address"}],"name":"OwnableInvalidOwner","type":"error"},{"inputs":[{"internalType":"address","name":"account","type":"address"}],"name":"OwnableUnauthorizedAccount","type":"error"},{"inputs":[],"name":"UUPSUnauthorizedCallContext","type":"error"},{"inputs":[{"internalType":"bytes32","name":"slot","type":"bytes32"}],"name":"UUPSUnsupportedProxiableUUID","type":"error"},{"anonymous":false,"inputs":[{"indexed":true,"internalType":"address","name":"gameAddress","type":"address"},{"indexed":false,"internalType":"uint32","name":"duration","type":"uint32"},{"indexed":false,"internalType":"uint256","name":"entryFee","type":"uint256"}],"name":"GameCreated","type":"event"},{"anonymous":false,"inputs":[],"name":"GameFactoryInitialized","type":"event"},{"anonymous":false,"inputs":[{"indexed":false,"internalType":"uint64","name":"version","type":"uint64"}],"name":"Initialized","type":"event"},{"anonymous":false,"inputs":[{"indexed":true,"internalType":"address","name":"previousOwner","type":"address"},{"indexed":true,"internalType":"address","name":"newOwner","type":"address"}],"name":"OwnershipTransferred","type":"event"},{"anonymous":false,"inputs":[{"indexed":false,"internalType":"address","name":"account","type":"address"}],"name":"Paused","type":"event"},{"anonymous":false,"inputs":[{"indexed":false,"internalType":"address","name":"account","type":"address"}],"name":"Unpaused","type":"event"},{"anonymous":false,"inputs":[{"indexed":true,"internalType":"address","name":"implementation","type":"address"}],"name":"Upgraded","type":"event"},{"inputs":[],"name":"UPGRADE_INTERFACE_VERSION","outputs":[{"internalType":"string","name":"","type":"string"}],"stateMutability":"view","type":"function"},{"inputs":[{"internalType":"uint32","name":"_duration","type":"uint32"},{"internalType":"uint256","name":"_entryFee","type":"uint256"}],"name":"createGame","outputs":[{"internalType":"address","name":"","type":"address"}],"stateMutability":"nonpayable","type":"function"},{"inputs":[],"name":"initialize","outputs":[],"stateMutability":"nonpayable","type":"function"},{"inputs":[],"name":"owner","outputs":[{"internalType":"address","name":"","type":"address"}],"stateMutability":"view","type":"function"},{"inputs":[],"name":"pause","outputs":[],"stateMutability":"nonpayable","type":"function"},{"inputs":[],"name":"paused","outputs":[{"internalType":"bool","name":"","type":"bool"}],"stateMutability":"view","type":"function"},{"inputs":[],"name":"proxiableUUID","outputs":[{"internalType":"bytes32","name":"","type":"bytes32"}],"stateMutability":"view","type":"function"},{"inputs":[],"name":"renounceOwnership","outputs":[],"stateMutability":"nonpayable","type":"function"},{"inputs":[{"internalType":"address","name":"newOwner","type":"address"}],"name":"transferOwnership","outputs":[],"stateMutability":"nonpayable","type":"function"},{"inputs":[],"name":"unpause","outputs":[],"stateMutability":"nonpayable","type":"function"},{"inputs":[{"internalType":"address","name":"newImplementation","type":"address"},{"internalType":"bytes","name":"data","type":"bytes"}],"name":"upgradeToAndCall","outputs":[],"stateMutability":"payable","type":"function"}],"evm":{"bytecode":{"linkReferences":{},"object":"60a080604052346100cc57306080527ff0c57e16840df040f15088dc2f81fe391c3923bec73e23a9662efc9c229c6a009081549060ff8260401c166100bd57506001600160401b036002600160401b031982821601610078575b60405161187690816100d2823960805181818161059a015261067a0152f35b6001600160401b031990911681179091556040519081527fc7f505b2f371ae2175ee4913f4499e1f2633a7b5936321eed1cdaeb6115181d290602090a1388080610059565b63f92ee8a960e01b8152600490fd5b600080fdfe6040608081526004908136101561001557600080fd5b600090813560e01c80633f4ba83a146108695780634f1ef286146105fe57806352d1902d146105855780635c975abb14610555578063715018a6146104eb5780638129fc1c1461036a5780638456cb59146103035780638da5cb5b146102ce578063ad3cb1cc1461022f578063f2fde38b146102025763f4de2d481461009a57600080fd5b346101fe57806003193601126101fe57823563ffffffff81168091036101fa576024356100c56109c4565b6100cd6109fd565b8251610d349081810167ffffffffffffffff92828210848311176101e757908291610acd8339039086f080156101dd576001600160a01b031694853b156101da57845163ce17edf160e01b81528781018590526bffffffffffffffffffffffff84166024820152336044820152918183606481838b5af180156101d057610188575b60208787817f67c30dca4e153e04c532391b0ad542a491945580dd4b24e5c3eff7eb8f989065828a8a825191825287820152a251908152f35b82116101bd575083526020945082827f67c30dca4e153e04c532391b0ad542a491945580dd4b24e5c3eff7eb8f98906561014f565b634e487b7160e01b815260418752602490fd5b86513d84823e3d90fd5b80fd5b84513d87823e3d90fd5b634e487b7160e01b885260418952602488fd5b8280fd5b5080fd5b82346101da5760203660031901126101da5761022c61021f6108e1565b6102276109c4565b610950565b80f35b5082346101fa57826003193601126101fa578151908282019082821067ffffffffffffffff8311176102bb5750825260058152602090640352e302e360dc1b6020820152825193849260208452825192836020860152825b8481106102a557505050828201840152601f01601f19168101030190f35b8181018301518882018801528795508201610287565b634e487b7160e01b855260419052602484fd5b50346101fe57816003193601126101fe576000805160206118018339815191525490516001600160a01b039091168152602090f35b50346101fe57816003193601126101fe5760207f62e78cea01bee320cd4e420270b5ea74000d11b0c9f74754ebdbfc544b05a258916103406109c4565b6103486109fd565b600080516020611821833981519152805460ff1916600117905551338152a180f35b508290346101fa57826003193601126101fa577ff0c57e16840df040f15088dc2f81fe391c3923bec73e23a9662efc9c229c6a0090815460ff81831c16159367ffffffffffffffff8216801590816104e3575b60011490816104d9575b1590816104d0575b506104c2575067ffffffffffffffff1981166001178355836104a3575b506103f5610a28565b6103fd610a28565b61040633610950565b61040e610a28565b610416610a28565b61041e610a28565b600080516020611821833981519152805460ff1916905551917f99f57ea0a5abda889c45a1be0e4458a7482b6ee821ce0648aaf43fdc24528cc68480a1610463578280f35b805468ff000000000000000019169055600181527fc7f505b2f371ae2175ee4913f4499e1f2633a7b5936321eed1cdaeb6115181d290602090a181808280f35b68ffffffffffffffffff191668010000000000000001178255846103ec565b825163f92ee8a960e01b8152fd5b905015876103cf565b303b1591506103c7565b8691506103bd565b82346101da57806003193601126101da576105046109c4565b60008051602061180183398151915280546001600160a01b0319811690915581906001600160a01b03167f8be0079c531659141344cd1fd0a4f28419497f9722a3daafe3b4186f6b6457e08280a380f35b50346101fe57816003193601126101fe5760209060ff600080516020611821833981519152541690519015158152f35b5090346101da57806003193601126101da57507f00000000000000000000000000000000000000000000000000000000000000006001600160a01b031630036105f157602090517f360894a13ba1a3210667c828492db98dca3e2076cc3735a920a3ca505d382bbc8152f35b5163703e46dd60e11b8152fd5b508083916003193601126101fa576106146108e1565b90602493843567ffffffffffffffff81116101fe57366023820112156101fe578085013561064181610934565b9461064e855196876108fc565b81865260209182870193368a8383010111610865578186928b8693018737880101526001600160a01b037f00000000000000000000000000000000000000000000000000000000000000008116308114908115610837575b50610827576106b36109c4565b81169585516352d1902d60e01b815283818a818b5afa8691816107f4575b506106ed575050505050505191634c9c8ce360e01b8352820152fd5b9088888894938c7f360894a13ba1a3210667c828492db98dca3e2076cc3735a920a3ca505d382bbc918281036107df5750853b156107cb575080546001600160a01b031916821790558451889392917fbc7cd75a20ee27fd9adebab32041f755214dbc6bffa90cc0225b39da2e5c2d3b8580a28251156107ad57505061079f9582915190845af4913d156107a3573d61079161078882610934565b925192836108fc565b81528581943d92013e610a69565b5080f35b5060609250610a69565b9550955050505050346107bf57505080f35b63b398979f60e01b8152fd5b8651634c9c8ce360e01b8152808501849052fd5b8751632a87526960e21b815280860191909152fd5b9091508481813d8311610820575b61080c81836108fc565b8101031261081c5751908b6106d1565b8680fd5b503d610802565b855163703e46dd60e11b81528890fd5b9050817f360894a13ba1a3210667c828492db98dca3e2076cc3735a920a3ca505d382bbc541614158a6106a6565b8580fd5b5082346101fa57826003193601126101fa576108836109c4565b6000805160206118218339815191529081549060ff8216156108d3575060ff19169055513381527f5db9ee0a495bf2e6ff9c91a7834c1ba4fdd244a5e8aa4e537bd38aeae4b073aa90602090a180f35b8351638dfc202b60e01b8152fd5b600435906001600160a01b03821682036108f757565b600080fd5b90601f8019910116810190811067ffffffffffffffff82111761091e57604052565b634e487b7160e01b600052604160045260246000fd5b67ffffffffffffffff811161091e57601f01601f191660200190565b6001600160a01b039081169081156109ab5760008051602061180183398151915280546001600160a01b031981168417909155167f8be0079c531659141344cd1fd0a4f28419497f9722a3daafe3b4186f6b6457e0600080a3565b604051631e4fbdf760e01b815260006004820152602490fd5b600080516020611801833981519152546001600160a01b031633036109e557565b60405163118cdaa760e01b8152336004820152602490fd5b60ff6000805160206118218339815191525416610a1657565b60405163d93c066560e01b8152600490fd5b60ff7ff0c57e16840df040f15088dc2f81fe391c3923bec73e23a9662efc9c229c6a005460401c1615610a5757565b604051631afcd79f60e31b8152600490fd5b90610a905750805115610a7e57805190602001fd5b60405163d6bda27560e01b8152600490fd5b81511580610ac3575b610aa1575090565b604051639996b31560e01b81526001600160a01b039091166004820152602490fd5b50803b15610a9956fe60a0806040523461002a5730608052610d049081610030823960805181818161041a01526104f90152f35b600080fdfe6080604081815260048036101561001557600080fd5b600092833560e01c9081631babe07e146108fe575080632f926732146106e45780634f1ef2861461047e57806352d1902d14610405578063715018a6146103985780638da5cb5b14610362578063ad3cb1cc146102c4578063ce17edf114610115578063e586a4f0146100e95763f2fde38b1461009157600080fd5b346100e55760203660031901126100e5576100aa610ae6565b916100b3610bbc565b6001600160a01b038316156100cf57836100cc84610bf5565b80f35b51631e4fbdf760e01b8152908101839052602490fd5b8280fd5b5050346101115781600319360112610111576001600160601b0360209254821c169051908152f35b5080fd5b50346100e55760603660031901126100e55780359063ffffffff821682036102c057602435916001600160601b03831683036102bc57604435906001600160a01b03821682036102b8577ff0c57e16840df040f15088dc2f81fe391c3923bec73e23a9662efc9c229c6a0093845460ff81881c16159467ffffffffffffffff8216801590816102b0575b60011490816102a6575b15908161029d575b5061028f575067ffffffffffffffff19811660011786556102279392919085610270575b5073ffffffffffffffffffffffff0000000000000000885467ffffffff00000000600160a01b9460201b169074ffffffffffffffffffffffffffffffffff0000000019161791881b1617178655610bf5565b61022f578280f35b805468ff00000000000000001916905551600181527fc7f505b2f371ae2175ee4913f4499e1f2633a7b5936321eed1cdaeb6115181d290602090a138808280f35b68ffffffffffffffffff191668010000000000000001178655386101d5565b875163f92ee8a960e01b8152fd5b905015386101b1565b303b1591506101a9565b87915061019f565b8580fd5b8480fd5b8380fd5b50346100e557826003193601126100e5578151908282019082821067ffffffffffffffff83111761034f5750825260058152602090640352e302e360dc1b6020820152825193849260208452825192836020860152825b84811061033957505050828201840152601f01601f19168101030190f35b818101830151888201880152879550820161031b565b634e487b7160e01b855260419052602484fd5b505034610111578160031936011261011157600080516020610caf8339815191525490516001600160a01b039091168152602090f35b83346104025780600319360112610402576103b1610bbc565b600080516020610caf83398151915280546001600160a01b0319811690915581906001600160a01b03167f8be0079c531659141344cd1fd0a4f28419497f9722a3daafe3b4186f6b6457e08280a380f35b80fd5b509134610402578060031936011261040257507f00000000000000000000000000000000000000000000000000000000000000006001600160a01b0316300361047157602090517f360894a13ba1a3210667c828492db98dca3e2076cc3735a920a3ca505d382bbc8152f35b5163703e46dd60e11b8152fd5b5090806003193601126100e557610493610ae6565b90602493843567ffffffffffffffff8111610111573660238201121561011157808501356104c081610b39565b946104cd85519687610b01565b81865260209182870193368a83830101116102b8578186928b8693018737880101526001600160a01b037f000000000000000000000000000000000000000000000000000000000000000081163081149081156106b6575b506106a657610532610bbc565b81169585516352d1902d60e01b815283818a818b5afa869181610673575b5061056c575050505050505191634c9c8ce360e01b8352820152fd5b9088888894938c7f360894a13ba1a3210667c828492db98dca3e2076cc3735a920a3ca505d382bbc9182810361065e5750853b1561064a575080546001600160a01b031916821790558451889392917fbc7cd75a20ee27fd9adebab32041f755214dbc6bffa90cc0225b39da2e5c2d3b8580a282511561062c57505061061e9582915190845af4913d15610622573d61061061060782610b39565b92519283610b01565b81528581943d92013e610c4b565b5080f35b5060609250610c4b565b95509550505050503461063e57505080f35b63b398979f60e01b8152fd5b8651634c9c8ce360e01b8152808501849052fd5b8751632a87526960e21b815280860191909152fd5b9091508481813d831161069f575b61068b8183610b01565b8101031261069b57519038610550565b8680fd5b503d610681565b855163703e46dd60e11b81528890fd5b9050817f360894a13ba1a3210667c828492db98dca3e2076cc3735a920a3ca505d382bbc5416141538610525565b50816003193601126100e557825460018160a01c16156108ef57821c6001600160601b031634036108e15761ffff60025410156108d357815163ffffffff60e0820167ffffffffffffffff8111838210176108c0576003869386859460ff94825280421683526107dc6020840191878352838501600a81526107ba8860608801958d3587528460808a01986024358a5260a08b019e8f528d60c08c019e8f5233815260016020522099511663ffffffff198a54161789555116879064ff0000000082549160201b169064ff000000001916179055565b51855468ffffffff00000000001916911660281b63ffffffff60281b16178455565b5160018301555160028201550192511665ffffffffff008354925160081b169165ffffffffffff19161717905560025490680100000000000000008210156108ad57600182018060025582101561089a5750600283527f405787fa12a823e0f2b7631cc41b3ba8828b3321ca811111fa75cd3aa3bb5ace01336001600160601b0360a01b8254161790557fe59e62345b471635a7590edf71e200fea112c72164dd02721fc0556e29735352815191838352600a60208401523392a280f35b634e487b7160e01b845260329052602483fd5b634e487b7160e01b845260419052602483fd5b634e487b7160e01b865260418452602486fd5b905163f1fcd77960e01b8152fd5b9051630440523d60e41b8152fd5b50905163baf3f0f760e01b8152fd5b929050346102c05760203660031901126102c05761091a610ae6565b9260019081865460a01c1615610ad85750338552806020528185209360018060a01b0316938486528286209080549163ffffffff928381169260ff8260201c1684420392428411610ac5578787620151808096041610801590610abb575b15610aab57610993908780875460281c169160281c16610b55565b9590938785169a620f4240808d11908115610a9f575b50610a915750610a429587959094610a2294919390928a92918c91810184164210610a83575050508042166109f58b5b845464ff00000000191660209190911b64ff0000000016178455565b1663ffffffff198254161781559063ffffffff60281b82549160281b169063ffffffff60281b1916179055565b9063ffffffff60281b82549160281b169063ffffffff60281b1916179055565b83519483865260208601527fe59e62345b471635a7590edf71e200fea112c72164dd02721fc0556e297353529485853392a28351928352166020820152a280f35b916109f5910160ff166109d9565b8a516334a24c0d60e01b8152fd5b905089891611386109a9565b8851633f9d5fd960e01b81528a90fd5b50600a8210610978565b634e487b7160e01b8c5260118a5260248cfd5b63baf3f0f760e01b81528390fd5b600435906001600160a01b0382168203610afc57565b600080fd5b90601f8019910116810190811067ffffffffffffffff821117610b2357604052565b634e487b7160e01b600052604160045260246000fd5b67ffffffffffffffff8111610b2357601f01601f191660200190565b90919063ffffffff90818116828516808211610b9257506002839111600014610b875760029160011901165b93011690565b505060026000610b81565b91949183915060021015610bb0576002916001190116935b01169190565b50506002600093610baa565b600080516020610caf833981519152546001600160a01b03163303610bdd57565b60405163118cdaa760e01b8152336004820152602490fd5b600080516020610caf83398151915280546001600160a01b039283166001600160a01b0319821681179092559091167f8be0079c531659141344cd1fd0a4f28419497f9722a3daafe3b4186f6b6457e0600080a3565b90610c725750805115610c6057805190602001fd5b60405163d6bda27560e01b8152600490fd5b81511580610ca5575b610c83575090565b604051639996b31560e01b81526001600160a01b039091166004820152602490fd5b50803b15610c7b56fe9016d09d72d40fdae2fd8ceac6b6234c7706214fd39c1cd1e609a0528c199300a2646970667358221220f1c05de83e0ad4b32b25a2fd2a5caaa69b189639d21ef101855c95a7fa2d7dd364736f6c634300081600339016d09d72d40fdae2fd8ceac6b6234c7706214fd39c1cd1e609a0528c199300cd5ed15c6e187e77e9aee88184c21f4f2182ab5827cb3b7e07fbedcd63f03300a26469706673582212209c66a8ba43e14a201ea75edae9c15768e8c9981a32f7f5cfe8aa74b589d94aae64736f6c63430008160033","opcodes":"PUSH1 0xA0 DUP1 PUSH1 0x40 MSTORE CALLVALUE PUSH2 0xCC JUMPI ADDRESS PUSH1 0x80 MSTORE PUSH32 0xF0C57E16840DF040F15088DC2F81FE391C3923BEC73E23A9662EFC9C229C6A00 SWAP1 DUP2 SLOAD SWAP1 PUSH1 0xFF DUP3 PUSH1 0x40 SHR AND PUSH2 0xBD JUMPI POP PUSH1 0x1 PUSH1 0x1 PUSH1 0x40 SHL SUB PUSH1 0x2 PUSH1 0x1 PUSH1 0x40 SHL SUB NOT DUP3 DUP3 AND ADD PUSH2 0x78 JUMPI JUMPDEST PUSH1 0x40 MLOAD PUSH2 0x1876 SWAP1 DUP2 PUSH2 0xD2 DUP3 CODECOPY PUSH1 0x80 MLOAD DUP2 DUP2 DUP2 PUSH2 0x59A ADD MSTORE PUSH2 0x67A ADD MSTORE RETURN JUMPDEST PUSH1 0x1 PUSH1 0x1 PUSH1 0x40 SHL SUB NOT SWAP1 SWAP2 AND DUP2 OR SWAP1 SWAP2 SSTORE PUSH1 0x40 MLOAD SWAP1 DUP2 MSTORE PUSH32 0xC7F505B2F371AE2175EE4913F4499E1F2633A7B5936321EED1CDAEB6115181D2 SWAP1 PUSH1 0x20 SWAP1 LOG1 CODESIZE DUP1 DUP1 PUSH2 0x59 JUMP JUMPDEST PUSH4 0xF92EE8A9 PUSH1 0xE0 SHL DUP2 MSTORE PUSH1 0x4 SWAP1 REVERT JUMPDEST PUSH1 0x0 DUP1 REVERT INVALID PUSH1 0x40 PUSH1 0x80 DUP2 MSTORE PUSH1 0x4 SWAP1 DUP2 CALLDATASIZE LT ISZERO PUSH2 0x15 JUMPI PUSH1 0x0 DUP1 REVERT JUMPDEST PUSH1 0x0 SWAP1 DUP2 CALLDATALOAD PUSH1 0xE0 SHR DUP1 PUSH4 0x3F4BA83A EQ PUSH2 0x869 JUMPI DUP1 PUSH4 0x4F1EF286 EQ PUSH2 0x5FE JUMPI DUP1 PUSH4 0x52D1902D EQ PUSH2 0x585 JUMPI DUP1 PUSH4 0x5C975ABB EQ PUSH2 0x555 JUMPI DUP1 PUSH4 0x715018A6 EQ PUSH2 0x4EB JUMPI DUP1 PUSH4 0x8129FC1C EQ PUSH2 0x36A JUMPI DUP1 PUSH4 0x8456CB59 EQ PUSH2 0x303 JUMPI DUP1 PUSH4 0x8DA5CB5B EQ PUSH2 0x2CE JUMPI DUP1 PUSH4 0xAD3CB1CC EQ PUSH2 0x22F JUMPI DUP1 PUSH4 0xF2FDE38B EQ PUSH2 0x202 JUMPI PUSH4 0xF4DE2D48 EQ PUSH2 0x9A JUMPI PUSH1 0x0 DUP1 REVERT JUMPDEST CALLVALUE PUSH2 0x1FE JUMPI DUP1 PUSH1 0x3 NOT CALLDATASIZE ADD SLT PUSH2 0x1FE JUMPI DUP3 CALLDATALOAD PUSH4 0xFFFFFFFF DUP2 AND DUP1 SWAP2 SUB PUSH2 0x1FA JUMPI PUSH1 0x24 CALLDATALOAD PUSH2 0xC5 PUSH2 0x9C4 JUMP JUMPDEST PUSH2 0xCD PUSH2 0x9FD JUMP JUMPDEST DUP3 MLOAD PUSH2 0xD34 SWAP1 DUP2 DUP2 ADD PUSH8 0xFFFFFFFFFFFFFFFF SWAP3 DUP3 DUP3 LT DUP5 DUP4 GT OR PUSH2 0x1E7 JUMPI SWAP1 DUP3 SWAP2 PUSH2 0xACD DUP4 CODECOPY SUB SWAP1 DUP7 CREATE DUP1 ISZERO PUSH2 0x1DD JUMPI PUSH1 0x1 PUSH1 0x1 PUSH1 0xA0 SHL SUB AND SWAP5 DUP6 EXTCODESIZE ISZERO PUSH2 0x1DA JUMPI DUP5 MLOAD PUSH4 0xCE17EDF1 PUSH1 0xE0 SHL DUP2 MSTORE DUP8 DUP2 ADD DUP6 SWAP1 MSTORE PUSH12 0xFFFFFFFFFFFFFFFFFFFFFFFF DUP5 AND PUSH1 0x24 DUP3 ADD MSTORE CALLER PUSH1 0x44 DUP3 ADD MSTORE SWAP2 DUP2 DUP4 PUSH1 0x64 DUP2 DUP4 DUP12 GAS CALL DUP1 ISZERO PUSH2 0x1D0 JUMPI PUSH2 0x188 JUMPI JUMPDEST PUSH1 0x20 DUP8 DUP8 DUP2 PUSH32 0x67C30DCA4E153E04C532391B0AD542A491945580DD4B24E5C3EFF7EB8F989065 DUP3 DUP11 DUP11 DUP3 MLOAD SWAP2 DUP3 MSTORE DUP8 DUP3 ADD MSTORE LOG2 MLOAD SWAP1 DUP2 MSTORE RETURN JUMPDEST DUP3 GT PUSH2 0x1BD JUMPI POP DUP4 MSTORE PUSH1 0x20 SWAP5 POP DUP3 DUP3 PUSH32 0x67C30DCA4E153E04C532391B0AD542A491945580DD4B24E5C3EFF7EB8F989065 PUSH2 0x14F JUMP JUMPDEST PUSH4 0x4E487B71 PUSH1 0xE0 SHL DUP2 MSTORE PUSH1 0x41 DUP8 MSTORE PUSH1 0x24 SWAP1 REVERT JUMPDEST DUP7 MLOAD RETURNDATASIZE DUP5 DUP3 RETURNDATACOPY RETURNDATASIZE SWAP1 REVERT JUMPDEST DUP1 REVERT JUMPDEST DUP5 MLOAD RETURNDATASIZE DUP8 DUP3 RETURNDATACOPY RETURNDATASIZE SWAP1 REVERT JUMPDEST PUSH4 0x4E487B71 PUSH1 0xE0 SHL DUP9 MSTORE PUSH1 0x41 DUP10 MSTORE PUSH1 0x24 DUP9 REVERT JUMPDEST DUP3 DUP1 REVERT JUMPDEST POP DUP1 REVERT JUMPDEST DUP3 CALLVALUE PUSH2 0x1DA JUMPI PUSH1 0x20 CALLDATASIZE PUSH1 0x3 NOT ADD SLT PUSH2 0x1DA JUMPI PUSH2 0x22C PUSH2 0x21F PUSH2 0x8E1 JUMP JUMPDEST PUSH2 0x227 PUSH2 0x9C4 JUMP JUMPDEST PUSH2 0x950 JUMP JUMPDEST DUP1 RETURN JUMPDEST POP DUP3 CALLVALUE PUSH2 0x1FA JUMPI DUP3 PUSH1 0x3 NOT CALLDATASIZE ADD SLT PUSH2 0x1FA JUMPI DUP2 MLOAD SWAP1 DUP3 DUP3 ADD SWAP1 DUP3 DUP3 LT PUSH8 0xFFFFFFFFFFFFFFFF DUP4 GT OR PUSH2 0x2BB JUMPI POP DUP3 MSTORE PUSH1 0x5 DUP2 MSTORE PUSH1 0x20 SWAP1 PUSH5 0x352E302E3 PUSH1 0xDC SHL PUSH1 0x20 DUP3 ADD MSTORE DUP3 MLOAD SWAP4 DUP5 SWAP3 PUSH1 0x20 DUP5 MSTORE DUP3 MLOAD SWAP3 DUP4 PUSH1 0x20 DUP7 ADD MSTORE DUP3 JUMPDEST DUP5 DUP2 LT PUSH2 0x2A5 JUMPI POP POP POP DUP3 DUP3 ADD DUP5 ADD MSTORE PUSH1 0x1F ADD PUSH1 0x1F NOT AND DUP2 ADD SUB ADD SWAP1 RETURN JUMPDEST DUP2 DUP2 ADD DUP4 ADD MLOAD DUP9 DUP3 ADD DUP9 ADD MSTORE DUP8 SWAP6 POP DUP3 ADD PUSH2 0x287 JUMP JUMPDEST PUSH4 0x4E487B71 PUSH1 0xE0 SHL DUP6 MSTORE PUSH1 0x41 SWAP1 MSTORE PUSH1 0x24 DUP5 REVERT JUMPDEST POP CALLVALUE PUSH2 0x1FE JUMPI DUP2 PUSH1 0x3 NOT CALLDATASIZE ADD SLT PUSH2 0x1FE JUMPI PUSH1 0x0 DUP1 MLOAD PUSH1 0x20 PUSH2 0x1801 DUP4 CODECOPY DUP2 MLOAD SWAP2 MSTORE SLOAD SWAP1 MLOAD PUSH1 0x1 PUSH1 0x1 PUSH1 0xA0 SHL SUB SWAP1 SWAP2 AND DUP2 MSTORE PUSH1 0x20 SWAP1 RETURN JUMPDEST POP CALLVALUE PUSH2 0x1FE JUMPI DUP2 PUSH1 0x3 NOT CALLDATASIZE ADD SLT PUSH2 0x1FE JUMPI PUSH1 0x20 PUSH32 0x62E78CEA01BEE320CD4E420270B5EA74000D11B0C9F74754EBDBFC544B05A258 SWAP2 PUSH2 0x340 PUSH2 0x9C4 JUMP JUMPDEST PUSH2 0x348 PUSH2 0x9FD JUMP JUMPDEST PUSH1 0x0 DUP1 MLOAD PUSH1 0x20 PUSH2 0x1821 DUP4 CODECOPY DUP2 MLOAD SWAP2 MSTORE DUP1 SLOAD PUSH1 0xFF NOT AND PUSH1 0x1 OR SWAP1 SSTORE MLOAD CALLER DUP2 MSTORE LOG1 DUP1 RETURN JUMPDEST POP DUP3 SWAP1 CALLVALUE PUSH2 0x1FA JUMPI DUP3 PUSH1 0x3 NOT CALLDATASIZE ADD SLT PUSH2 0x1FA JUMPI PUSH32 0xF0C57E16840DF040F15088DC2F81FE391C3923BEC73E23A9662EFC9C229C6A00 SWAP1 DUP2 SLOAD PUSH1 0xFF DUP2 DUP4 SHR AND ISZERO SWAP4 PUSH8 0xFFFFFFFFFFFFFFFF DUP3 AND DUP1 ISZERO SWAP1 DUP2 PUSH2 0x4E3 JUMPI JUMPDEST PUSH1 0x1 EQ SWAP1 DUP2 PUSH2 0x4D9 JUMPI JUMPDEST ISZERO SWAP1 DUP2 PUSH2 0x4D0 JUMPI JUMPDEST POP PUSH2 0x4C2 JUMPI POP PUSH8 0xFFFFFFFFFFFFFFFF NOT DUP2 AND PUSH1 0x1 OR DUP4 SSTORE DUP4 PUSH2 0x4A3 JUMPI JUMPDEST POP PUSH2 0x3F5 PUSH2 0xA28 JUMP JUMPDEST PUSH2 0x3FD PUSH2 0xA28 JUMP JUMPDEST PUSH2 0x406 CALLER PUSH2 0x950 JUMP JUMPDEST PUSH2 0x40E PUSH2 0xA28 JUMP JUMPDEST PUSH2 0x416 PUSH2 0xA28 JUMP JUMPDEST PUSH2 0x41E PUSH2 0xA28 JUMP JUMPDEST PUSH1 0x0 DUP1 MLOAD PUSH1 0x20 PUSH2 0x1821 DUP4 CODECOPY DUP2 MLOAD SWAP2 MSTORE DUP1 SLOAD PUSH1 0xFF NOT AND SWAP1 SSTORE MLOAD SWAP2 PUSH32 0x99F57EA0A5ABDA889C45A1BE0E4458A7482B6EE821CE0648AAF43FDC24528CC6 DUP5 DUP1 LOG1 PUSH2 0x463 JUMPI DUP3 DUP1 RETURN JUMPDEST DUP1 SLOAD PUSH9 0xFF0000000000000000 NOT AND SWAP1 SSTORE PUSH1 0x1 DUP2 MSTORE PUSH32 0xC7F505B2F371AE2175EE4913F4499E1F2633A7B5936321EED1CDAEB6115181D2 SWAP1 PUSH1 0x20 SWAP1 LOG1 DUP2 DUP1 DUP3 DUP1 RETURN JUMPDEST PUSH9 0xFFFFFFFFFFFFFFFFFF NOT AND PUSH9 0x10000000000000001 OR DUP3 SSTORE DUP5 PUSH2 0x3EC JUMP JUMPDEST DUP3 MLOAD PUSH4 0xF92EE8A9 PUSH1 0xE0 SHL DUP2 MSTORE REVERT JUMPDEST SWAP1 POP ISZERO DUP8 PUSH2 0x3CF JUMP JUMPDEST ADDRESS EXTCODESIZE ISZERO SWAP2 POP PUSH2 0x3C7 JUMP JUMPDEST DUP7 SWAP2 POP PUSH2 0x3BD JUMP JUMPDEST DUP3 CALLVALUE PUSH2 0x1DA JUMPI DUP1 PUSH1 0x3 NOT CALLDATASIZE ADD SLT PUSH2 0x1DA JUMPI PUSH2 0x504 PUSH2 0x9C4 JUMP JUMPDEST PUSH1 0x0 DUP1 MLOAD PUSH1 0x20 PUSH2 0x1801 DUP4 CODECOPY DUP2 MLOAD SWAP2 MSTORE DUP1 SLOAD PUSH1 0x1 PUSH1 0x1 PUSH1 0xA0 SHL SUB NOT DUP2 AND SWAP1 SWAP2 SSTORE DUP2 SWAP1 PUSH1 0x1 PUSH1 0x1 PUSH1 0xA0 SHL SUB AND PUSH32 0x8BE0079C531659141344CD1FD0A4F28419497F9722A3DAAFE3B4186F6B6457E0 DUP3 DUP1 LOG3 DUP1 RETURN JUMPDEST POP CALLVALUE PUSH2 0x1FE JUMPI DUP2 PUSH1 0x3 NOT CALLDATASIZE ADD SLT PUSH2 0x1FE JUMPI PUSH1 0x20 SWAP1 PUSH1 0xFF PUSH1 0x0 DUP1 MLOAD PUSH1 0x20 PUSH2 0x1821 DUP4 CODECOPY DUP2 MLOAD SWAP2 MSTORE SLOAD AND SWAP1 MLOAD SWAP1 ISZERO ISZERO DUP2 MSTORE RETURN JUMPDEST POP SWAP1 CALLVALUE PUSH2 0x1DA JUMPI DUP1 PUSH1 0x3 NOT CALLDATASIZE ADD SLT PUSH2 0x1DA JUMPI POP PUSH32 0x0 PUSH1 0x1 PUSH1 0x1 PUSH1 0xA0 SHL SUB AND ADDRESS SUB PUSH2 0x5F1 JUMPI PUSH1 0x20 SWAP1 MLOAD PUSH32 0x360894A13BA1A3210667C828492DB98DCA3E2076CC3735A920A3CA505D382BBC DUP2 MSTORE RETURN JUMPDEST MLOAD PUSH4 0x703E46DD PUSH1 0xE1 SHL DUP2 MSTORE REVERT JUMPDEST POP DUP1 DUP4 SWAP2 PUSH1 0x3 NOT CALLDATASIZE ADD SLT PUSH2 0x1FA JUMPI PUSH2 0x614 PUSH2 0x8E1 JUMP JUMPDEST SWAP1 PUSH1 0x24 SWAP4 DUP5 CALLDATALOAD PUSH8 0xFFFFFFFFFFFFFFFF DUP2 GT PUSH2 0x1FE JUMPI CALLDATASIZE PUSH1 0x23 DUP3 ADD SLT ISZERO PUSH2 0x1FE JUMPI DUP1 DUP6 ADD CALLDATALOAD PUSH2 0x641 DUP2 PUSH2 0x934 JUMP JUMPDEST SWAP5 PUSH2 0x64E DUP6 MLOAD SWAP7 DUP8 PUSH2 0x8FC JUMP JUMPDEST DUP2 DUP7 MSTORE PUSH1 0x20 SWAP2 DUP3 DUP8 ADD SWAP4 CALLDATASIZE DUP11 DUP4 DUP4 ADD ADD GT PUSH2 0x865 JUMPI DUP2 DUP7 SWAP3 DUP12 DUP7 SWAP4 ADD DUP8 CALLDATACOPY DUP9 ADD ADD MSTORE PUSH1 0x1 PUSH1 0x1 PUSH1 0xA0 SHL SUB PUSH32 0x0 DUP2 AND ADDRESS DUP2 EQ SWAP1 DUP2 ISZERO PUSH2 0x837 JUMPI JUMPDEST POP PUSH2 0x827 JUMPI PUSH2 0x6B3 PUSH2 0x9C4 JUMP JUMPDEST DUP2 AND SWAP6 DUP6 MLOAD PUSH4 0x52D1902D PUSH1 0xE0 SHL DUP2 MSTORE DUP4 DUP2 DUP11 DUP2 DUP12 GAS STATICCALL DUP7 SWAP2 DUP2 PUSH2 0x7F4 JUMPI JUMPDEST POP PUSH2 0x6ED JUMPI POP POP POP POP POP POP MLOAD SWAP2 PUSH4 0x4C9C8CE3 PUSH1 0xE0 SHL DUP4 MSTORE DUP3 ADD MSTORE REVERT JUMPDEST SWAP1 DUP9 DUP9 DUP9 SWAP5 SWAP4 DUP13 PUSH32 0x360894A13BA1A3210667C828492DB98DCA3E2076CC3735A920A3CA505D382BBC SWAP2 DUP3 DUP2 SUB PUSH2 0x7DF JUMPI POP DUP6 EXTCODESIZE ISZERO PUSH2 0x7CB JUMPI POP DUP1 SLOAD PUSH1 0x1 PUSH1 0x1 PUSH1 0xA0 SHL SUB NOT AND DUP3 OR SWAP1 SSTORE DUP5 MLOAD DUP9 SWAP4 SWAP3 SWAP2 PUSH32 0xBC7CD75A20EE27FD9ADEBAB32041F755214DBC6BFFA90CC0225B39DA2E5C2D3B DUP6 DUP1 LOG2 DUP3 MLOAD ISZERO PUSH2 0x7AD JUMPI POP POP PUSH2 0x79F SWAP6 DUP3 SWAP2 MLOAD SWAP1 DUP5 GAS DELEGATECALL SWAP2 RETURNDATASIZE ISZERO PUSH2 0x7A3 JUMPI RETURNDATASIZE PUSH2 0x791 PUSH2 0x788 DUP3 PUSH2 0x934 JUMP JUMPDEST SWAP3 MLOAD SWAP3 DUP4 PUSH2 0x8FC JUMP JUMPDEST DUP2 MSTORE DUP6 DUP2 SWAP5 RETURNDATASIZE SWAP3 ADD RETURNDATACOPY PUSH2 0xA69 JUMP JUMPDEST POP DUP1 RETURN JUMPDEST POP PUSH1 0x60 SWAP3 POP PUSH2 0xA69 JUMP JUMPDEST SWAP6 POP SWAP6 POP POP POP POP POP CALLVALUE PUSH2 0x7BF JUMPI POP POP DUP1 RETURN JUMPDEST PUSH4 0xB398979F PUSH1 0xE0 SHL DUP2 MSTORE REVERT JUMPDEST DUP7 MLOAD PUSH4 0x4C9C8CE3 PUSH1 0xE0 SHL DUP2 MSTORE DUP1 DUP6 ADD DUP5 SWAP1 MSTORE REVERT JUMPDEST DUP8 MLOAD PUSH4 0x2A875269 PUSH1 0xE2 SHL DUP2 MSTORE DUP1 DUP7 ADD SWAP2 SWAP1 SWAP2 MSTORE REVERT JUMPDEST SWAP1 SWAP2 POP DUP5 DUP2 DUP2 RETURNDATASIZE DUP4 GT PUSH2 0x820 JUMPI JUMPDEST PUSH2 0x80C DUP2 DUP4 PUSH2 0x8FC JUMP JUMPDEST DUP2 ADD SUB SLT PUSH2 0x81C JUMPI MLOAD SWAP1 DUP12 PUSH2 0x6D1 JUMP JUMPDEST DUP7 DUP1 REVERT JUMPDEST POP RETURNDATASIZE PUSH2 0x802 JUMP JUMPDEST DUP6 MLOAD PUSH4 0x703E46DD PUSH1 0xE1 SHL DUP2 MSTORE DUP9 SWAP1 REVERT JUMPDEST SWAP1 POP DUP2 PUSH32 0x360894A13BA1A3210667C828492DB98DCA3E2076CC3735A920A3CA505D382BBC SLOAD AND EQ ISZERO DUP11 PUSH2 0x6A6 JUMP JUMPDEST DUP6 DUP1 REVERT JUMPDEST POP DUP3 CALLVALUE PUSH2 0x1FA JUMPI DUP3 PUSH1 0x3 NOT CALLDATASIZE ADD SLT PUSH2 0x1FA JUMPI PUSH2 0x883 PUSH2 0x9C4 JUMP JUMPDEST PUSH1 0x0 DUP1 MLOAD PUSH1 0x20 PUSH2 0x1821 DUP4 CODECOPY DUP2 MLOAD SWAP2 MSTORE SWAP1 DUP2 SLOAD SWAP1 PUSH1 0xFF DUP3 AND ISZERO PUSH2 0x8D3 JUMPI POP PUSH1 0xFF NOT AND SWAP1 SSTORE MLOAD CALLER DUP2 MSTORE PUSH32 0x5DB9EE0A495BF2E6FF9C91A7834C1BA4FDD244A5E8AA4E537BD38AEAE4B073AA SWAP1 PUSH1 0x20 SWAP1 LOG1 DUP1 RETURN JUMPDEST DUP4 MLOAD PUSH4 0x8DFC202B PUSH1 0xE0 SHL DUP2 MSTORE REVERT JUMPDEST PUSH1 0x4 CALLDATALOAD SWAP1 PUSH1 0x1 PUSH1 0x1 PUSH1 0xA0 SHL SUB DUP3 AND DUP3 SUB PUSH2 0x8F7 JUMPI JUMP JUMPDEST PUSH1 0x0 DUP1 REVERT JUMPDEST SWAP1 PUSH1 0x1F DUP1 NOT SWAP2 ADD AND DUP2 ADD SWAP1 DUP2 LT PUSH8 0xFFFFFFFFFFFFFFFF DUP3 GT OR PUSH2 0x91E JUMPI PUSH1 0x40 MSTORE JUMP JUMPDEST PUSH4 0x4E487B71 PUSH1 0xE0 SHL PUSH1 0x0 MSTORE PUSH1 0x41 PUSH1 0x4 MSTORE PUSH1 0x24 PUSH1 0x0 REVERT JUMPDEST PUSH8 0xFFFFFFFFFFFFFFFF DUP2 GT PUSH2 0x91E JUMPI PUSH1 0x1F ADD PUSH1 0x1F NOT AND PUSH1 0x20 ADD SWAP1 JUMP JUMPDEST PUSH1 0x1 PUSH1 0x1 PUSH1 0xA0 SHL SUB SWAP1 DUP2 AND SWAP1 DUP2 ISZERO PUSH2 0x9AB JUMPI PUSH1 0x0 DUP1 MLOAD PUSH1 0x20 PUSH2 0x1801 DUP4 CODECOPY DUP2 MLOAD SWAP2 MSTORE DUP1 SLOAD PUSH1 0x1 PUSH1 0x1 PUSH1 0xA0 SHL SUB NOT DUP2 AND DUP5 OR SWAP1 SWAP2 SSTORE AND PUSH32 0x8BE0079C531659141344CD1FD0A4F28419497F9722A3DAAFE3B4186F6B6457E0 PUSH1 0x0 DUP1 LOG3 JUMP JUMPDEST PUSH1 0x40 MLOAD PUSH4 0x1E4FBDF7 PUSH1 0xE0 SHL DUP2 MSTORE PUSH1 0x0 PUSH1 0x4 DUP3 ADD MSTORE PUSH1 0x24 SWAP1 REVERT JUMPDEST PUSH1 0x0 DUP1 MLOAD PUSH1 0x20 PUSH2 0x1801 DUP4 CODECOPY DUP2 MLOAD SWAP2 MSTORE SLOAD PUSH1 0x1 PUSH1 0x1 PUSH1 0xA0 SHL SUB AND CALLER SUB PUSH2 0x9E5 JUMPI JUMP JUMPDEST PUSH1 0x40 MLOAD PUSH4 0x118CDAA7 PUSH1 0xE0 SHL DUP2 MSTORE CALLER PUSH1 0x4 DUP3 ADD MSTORE PUSH1 0x24 SWAP1 REVERT JUMPDEST PUSH1 0xFF PUSH1 0x0 DUP1 MLOAD PUSH1 0x20 PUSH2 0x1821 DUP4 CODECOPY DUP2 MLOAD SWAP2 MSTORE SLOAD AND PUSH2 0xA16 JUMPI JUMP JUMPDEST PUSH1 0x40 MLOAD PUSH4 0xD93C0665 PUSH1 0xE0 SHL DUP2 MSTORE PUSH1 0x4 SWAP1 REVERT JUMPDEST PUSH1 0xFF PUSH32 0xF0C57E16840DF040F15088DC2F81FE391C3923BEC73E23A9662EFC9C229C6A00 SLOAD PUSH1 0x40 SHR AND ISZERO PUSH2 0xA57 JUMPI JUMP JUMPDEST PUSH1 0x40 MLOAD PUSH4 0x1AFCD79F PUSH1 0xE3 SHL DUP2 MSTORE PUSH1 0x4 SWAP1 REVERT JUMPDEST SWAP1 PUSH2 0xA90 JUMPI POP DUP1 MLOAD ISZERO PUSH2 0xA7E JUMPI DUP1 MLOAD SWAP1 PUSH1 0x20 ADD REVERT JUMPDEST PUSH1 0x40 MLOAD PUSH4 0xD6BDA275 PUSH1 0xE0 SHL DUP2 MSTORE PUSH1 0x4 SWAP1 REVERT JUMPDEST DUP2 MLOAD ISZERO DUP1 PUSH2 0xAC3 JUMPI JUMPDEST PUSH2 0xAA1 JUMPI POP SWAP1 JUMP JUMPDEST PUSH1 0x40 MLOAD PUSH4 0x9996B315 PUSH1 0xE0 SHL DUP2 MSTORE PUSH1 0x1 PUSH1 0x1 PUSH1 0xA0 SHL SUB SWAP1 SWAP2 AND PUSH1 0x4 DUP3 ADD MSTORE PUSH1 0x24 SWAP1 REVERT JUMPDEST POP DUP1 EXTCODESIZE ISZERO PUSH2 0xA99 JUMP INVALID PUSH1 0xA0 DUP1 PUSH1 0x40 MSTORE CALLVALUE PUSH2 0x2A JUMPI ADDRESS PUSH1 0x80 MSTORE PUSH2 0xD04 SWAP1 DUP2 PUSH2 0x30 DUP3 CODECOPY PUSH1 0x80 MLOAD DUP2 DUP2 DUP2 PUSH2 0x41A ADD MSTORE PUSH2 0x4F9 ADD MSTORE RETURN JUMPDEST PUSH1 0x0 DUP1 REVERT INVALID PUSH1 0x80 PUSH1 0x40 DUP2 DUP2 MSTORE PUSH1 0x4 DUP1 CALLDATASIZE LT ISZERO PUSH2 0x15 JUMPI PUSH1 0x0 DUP1 REVERT JUMPDEST PUSH1 0x0 SWAP3 DUP4 CALLDATALOAD PUSH1 0xE0 SHR SWAP1 DUP2 PUSH4 0x1BABE07E EQ PUSH2 0x8FE JUMPI POP DUP1 PUSH4 0x2F926732 EQ PUSH2 0x6E4 JUMPI DUP1 PUSH4 0x4F1EF286 EQ PUSH2 0x47E JUMPI DUP1 PUSH4 0x52D1902D EQ PUSH2 0x405 JUMPI DUP1 PUSH4 0x715018A6 EQ PUSH2 0x398 JUMPI DUP1 PUSH4 0x8DA5CB5B EQ PUSH2 0x362 JUMPI DUP1 PUSH4 0xAD3CB1CC EQ PUSH2 0x2C4 JUMPI DUP1 PUSH4 0xCE17EDF1 EQ PUSH2 0x115 JUMPI DUP1 PUSH4 0xE586A4F0 EQ PUSH2 0xE9 JUMPI PUSH4 0xF2FDE38B EQ PUSH2 0x91 JUMPI PUSH1 0x0 DUP1 REVERT JUMPDEST CALLVALUE PUSH2 0xE5 JUMPI PUSH1 0x20 CALLDATASIZE PUSH1 0x3 NOT ADD SLT PUSH2 0xE5 JUMPI PUSH2 0xAA PUSH2 0xAE6 JUMP JUMPDEST SWAP2 PUSH2 0xB3 PUSH2 0xBBC JUMP JUMPDEST PUSH1 0x1 PUSH1 0x1 PUSH1 0xA0 SHL SUB DUP4 AND ISZERO PUSH2 0xCF JUMPI DUP4 PUSH2 0xCC DUP5 PUSH2 0xBF5 JUMP JUMPDEST DUP1 RETURN JUMPDEST MLOAD PUSH4 0x1E4FBDF7 PUSH1 0xE0 SHL DUP2 MSTORE SWAP1 DUP2 ADD DUP4 SWAP1 MSTORE PUSH1 0x24 SWAP1 REVERT JUMPDEST DUP3 DUP1 REVERT JUMPDEST POP POP CALLVALUE PUSH2 0x111 JUMPI DUP2 PUSH1 0x3 NOT CALLDATASIZE ADD SLT PUSH2 0x111 JUMPI PUSH1 0x1 PUSH1 0x1 PUSH1 0x60 SHL SUB PUSH1 0x20 SWAP3 SLOAD DUP3 SHR AND SWAP1 MLOAD SWAP1 DUP2 MSTORE RETURN JUMPDEST POP DUP1 REVERT JUMPDEST POP CALLVALUE PUSH2 0xE5 JUMPI PUSH1 0x60 CALLDATASIZE PUSH1 0x3 NOT ADD SLT PUSH2 0xE5 JUMPI DUP1 CALLDATALOAD SWAP1 PUSH4 0xFFFFFFFF DUP3 AND DUP3 SUB PUSH2 0x2C0 JUMPI PUSH1 0x24 CALLDATALOAD SWAP2 PUSH1 0x1 PUSH1 0x1 PUSH1 0x60 SHL SUB DUP4 AND DUP4 SUB PUSH2 0x2BC JUMPI PUSH1 0x44 CALLDATALOAD SWAP1 PUSH1 0x1 PUSH1 0x1 PUSH1 0xA0 SHL SUB DUP3 AND DUP3 SUB PUSH2 0x2B8 JUMPI PUSH32 0xF0C57E16840DF040F15088DC2F81FE391C3923BEC73E23A9662EFC9C229C6A00 SWAP4 DUP5 SLOAD PUSH1 0xFF DUP2 DUP9 SHR AND ISZERO SWAP5 PUSH8 0xFFFFFFFFFFFFFFFF DUP3 AND DUP1 ISZERO SWAP1 DUP2 PUSH2 0x2B0 JUMPI JUMPDEST PUSH1 0x1 EQ SWAP1 DUP2 PUSH2 0x2A6 JUMPI JUMPDEST ISZERO SWAP1 DUP2 PUSH2 0x29D JUMPI JUMPDEST POP PUSH2 0x28F JUMPI POP PUSH8 0xFFFFFFFFFFFFFFFF NOT DUP2 AND PUSH1 0x1 OR DUP7 SSTORE PUSH2 0x227 SWAP4 SWAP3 SWAP2 SWAP1 DUP6 PUSH2 0x270 JUMPI JUMPDEST POP PUSH20 0xFFFFFFFFFFFFFFFFFFFFFFFF0000000000000000 DUP9 SLOAD PUSH8 0xFFFFFFFF00000000 PUSH1 0x1 PUSH1 0xA0 SHL SWAP5 PUSH1 0x20 SHL AND SWAP1 PUSH21 0xFFFFFFFFFFFFFFFFFFFFFFFFFFFFFFFFFF00000000 NOT AND OR SWAP2 DUP9 SHL AND OR OR DUP7 SSTORE PUSH2 0xBF5 JUMP JUMPDEST PUSH2 0x22F JUMPI DUP3 DUP1 RETURN JUMPDEST DUP1 SLOAD PUSH9 0xFF0000000000000000 NOT AND SWAP1 SSTORE MLOAD PUSH1 0x1 DUP2 MSTORE PUSH32 0xC7F505B2F371AE2175EE4913F4499E1F2633A7B5936321EED1CDAEB6115181D2 SWAP1 PUSH1 0x20 SWAP1 LOG1 CODESIZE DUP1 DUP3 DUP1 RETURN JUMPDEST PUSH9 0xFFFFFFFFFFFFFFFFFF NOT AND PUSH9 0x10000000000000001 OR DUP7 SSTORE CODESIZE PUSH2 0x1D5 JUMP JUMPDEST DUP8 MLOAD PUSH4 0xF92EE8A9 PUSH1 0xE0 SHL DUP2 MSTORE REVERT JUMPDEST SWAP1 POP ISZERO CODESIZE PUSH2 0x1B1 JUMP JUMPDEST ADDRESS EXTCODESIZE ISZERO SWAP2 POP PUSH2 0x1A9 JUMP JUMPDEST DUP8 SWAP2 POP PUSH2 0x19F JUMP JUMPDEST DUP6 DUP1 REVERT JUMPDEST DUP5 DUP1 REVERT JUMPDEST DUP4 DUP1 REVERT JUMPDEST POP CALLVALUE PUSH2 0xE5 JUMPI DUP3 PUSH1 0x3 NOT CALLDATASIZE ADD SLT PUSH2 0xE5 JUMPI DUP2 MLOAD SWAP1 DUP3 DUP3 ADD SWAP1 DUP3 DUP3 LT PUSH8 0xFFFFFFFFFFFFFFFF DUP4 GT OR PUSH2 0x34F JUMPI POP DUP3 MSTORE PUSH1 0x5 DUP2 MSTORE PUSH1 0x20 SWAP1 PUSH5 0x352E302E3 PUSH1 0xDC SHL PUSH1 0x20 DUP3 ADD MSTORE DUP3 MLOAD SWAP4 DUP5 SWAP3 PUSH1 0x20 DUP5 MSTORE DUP3 MLOAD SWAP3 DUP4 PUSH1 0x20 DUP7 ADD MSTORE DUP3 JUMPDEST DUP5 DUP2 LT PUSH2 0x339 JUMPI POP POP POP DUP3 DUP3 ADD DUP5 ADD MSTORE PUSH1 0x1F ADD PUSH1 0x1F NOT AND DUP2 ADD SUB ADD SWAP1 RETURN JUMPDEST DUP2 DUP2 ADD DUP4 ADD MLOAD DUP9 DUP3 ADD DUP9 ADD MSTORE DUP8 SWAP6 POP DUP3 ADD PUSH2 0x31B JUMP JUMPDEST PUSH4 0x4E487B71 PUSH1 0xE0 SHL DUP6 MSTORE PUSH1 0x41 SWAP1 MSTORE PUSH1 0x24 DUP5 REVERT JUMPDEST POP POP CALLVALUE PUSH2 0x111 JUMPI DUP2 PUSH1 0x3 NOT CALLDATASIZE ADD SLT PUSH2 0x111 JUMPI PUSH1 0x0 DUP1 MLOAD PUSH1 0x20 PUSH2 0xCAF DUP4 CODECOPY DUP2 MLOAD SWAP2 MSTORE SLOAD SWAP1 MLOAD PUSH1 0x1 PUSH1 0x1 PUSH1 0xA0 SHL SUB SWAP1 SWAP2 AND DUP2 MSTORE PUSH1 0x20 SWAP1 RETURN JUMPDEST DUP4 CALLVALUE PUSH2 0x402 JUMPI DUP1 PUSH1 0x3 NOT CALLDATASIZE ADD SLT PUSH2 0x402 JUMPI PUSH2 0x3B1 PUSH2 0xBBC JUMP JUMPDEST PUSH1 0x0 DUP1 MLOAD PUSH1 0x20 PUSH2 0xCAF DUP4 CODECOPY DUP2 MLOAD SWAP2 MSTORE DUP1 SLOAD PUSH1 0x1 PUSH1 0x1 PUSH1 0xA0 SHL SUB NOT DUP2 AND SWAP1 SWAP2 SSTORE DUP2 SWAP1 PUSH1 0x1 PUSH1 0x1 PUSH1 0xA0 SHL SUB AND PUSH32 0x8BE0079C531659141344CD1FD0A4F28419497F9722A3DAAFE3B4186F6B6457E0 DUP3 DUP1 LOG3 DUP1 RETURN JUMPDEST DUP1 REVERT JUMPDEST POP SWAP2 CALLVALUE PUSH2 0x402 JUMPI DUP1 PUSH1 0x3 NOT CALLDATASIZE ADD SLT PUSH2 0x402 JUMPI POP PUSH32 0x0 PUSH1 0x1 PUSH1 0x1 PUSH1 0xA0 SHL SUB AND ADDRESS SUB PUSH2 0x471 JUMPI PUSH1 0x20 SWAP1 MLOAD PUSH32 0x360894A13BA1A3210667C828492DB98DCA3E2076CC3735A920A3CA505D382BBC DUP2 MSTORE RETURN JUMPDEST MLOAD PUSH4 0x703E46DD PUSH1 0xE1 SHL DUP2 MSTORE REVERT JUMPDEST POP SWAP1 DUP1 PUSH1 0x3 NOT CALLDATASIZE ADD SLT PUSH2 0xE5 JUMPI PUSH2 0x493 PUSH2 0xAE6 JUMP JUMPDEST SWAP1 PUSH1 0x24 SWAP4 DUP5 CALLDATALOAD PUSH8 0xFFFFFFFFFFFFFFFF DUP2 GT PUSH2 0x111 JUMPI CALLDATASIZE PUSH1 0x23 DUP3 ADD SLT ISZERO PUSH2 0x111 JUMPI DUP1 DUP6 ADD CALLDATALOAD PUSH2 0x4C0 DUP2 PUSH2 0xB39 JUMP JUMPDEST SWAP5 PUSH2 0x4CD DUP6 MLOAD SWAP7 DUP8 PUSH2 0xB01 JUMP JUMPDEST DUP2 DUP7 MSTORE PUSH1 0x20 SWAP2 DUP3 DUP8 ADD SWAP4 CALLDATASIZE DUP11 DUP4 DUP4 ADD ADD GT PUSH2 0x2B8 JUMPI DUP2 DUP7 SWAP3 DUP12 DUP7 SWAP4 ADD DUP8 CALLDATACOPY DUP9 ADD ADD MSTORE PUSH1 0x1 PUSH1 0x1 PUSH1 0xA0 SHL SUB PUSH32 0x0 DUP2 AND ADDRESS DUP2 EQ SWAP1 DUP2 ISZERO PUSH2 0x6B6 JUMPI JUMPDEST POP PUSH2 0x6A6 JUMPI PUSH2 0x532 PUSH2 0xBBC JUMP JUMPDEST DUP2 AND SWAP6 DUP6 MLOAD PUSH4 0x52D1902D PUSH1 0xE0 SHL DUP2 MSTORE DUP4 DUP2 DUP11 DUP2 DUP12 GAS STATICCALL DUP7 SWAP2 DUP2 PUSH2 0x673 JUMPI JUMPDEST POP PUSH2 0x56C JUMPI POP POP POP POP POP POP MLOAD SWAP2 PUSH4 0x4C9C8CE3 PUSH1 0xE0 SHL DUP4 MSTORE DUP3 ADD MSTORE REVERT JUMPDEST SWAP1 DUP9 DUP9 DUP9 SWAP5 SWAP4 DUP13 PUSH32 0x360894A13BA1A3210667C828492DB98DCA3E2076CC3735A920A3CA505D382BBC SWAP2 DUP3 DUP2 SUB PUSH2 0x65E JUMPI POP DUP6 EXTCODESIZE ISZERO PUSH2 0x64A JUMPI POP DUP1 SLOAD PUSH1 0x1 PUSH1 0x1 PUSH1 0xA0 SHL SUB NOT AND DUP3 OR SWAP1 SSTORE DUP5 MLOAD DUP9 SWAP4 SWAP3 SWAP2 PUSH32 0xBC7CD75A20EE27FD9ADEBAB32041F755214DBC6BFFA90CC0225B39DA2E5C2D3B DUP6 DUP1 LOG2 DUP3 MLOAD ISZERO PUSH2 0x62C JUMPI POP POP PUSH2 0x61E SWAP6 DUP3 SWAP2 MLOAD SWAP1 DUP5 GAS DELEGATECALL SWAP2 RETURNDATASIZE ISZERO PUSH2 0x622 JUMPI RETURNDATASIZE PUSH2 0x610 PUSH2 0x607 DUP3 PUSH2 0xB39 JUMP JUMPDEST SWAP3 MLOAD SWAP3 DUP4 PUSH2 0xB01 JUMP JUMPDEST DUP2 MSTORE DUP6 DUP2 SWAP5 RETURNDATASIZE SWAP3 ADD RETURNDATACOPY PUSH2 0xC4B JUMP JUMPDEST POP DUP1 RETURN JUMPDEST POP PUSH1 0x60 SWAP3 POP PUSH2 0xC4B JUMP JUMPDEST SWAP6 POP SWAP6 POP POP POP POP POP CALLVALUE PUSH2 0x63E JUMPI POP POP DUP1 RETURN JUMPDEST PUSH4 0xB398979F PUSH1 0xE0 SHL DUP2 MSTORE REVERT JUMPDEST DUP7 MLOAD PUSH4 0x4C9C8CE3 PUSH1 0xE0 SHL DUP2 MSTORE DUP1 DUP6 ADD DUP5 SWAP1 MSTORE REVERT JUMPDEST DUP8 MLOAD PUSH4 0x2A875269 PUSH1 0xE2 SHL DUP2 MSTORE DUP1 DUP7 ADD SWAP2 SWAP1 SWAP2 MSTORE REVERT JUMPDEST SWAP1 SWAP2 POP DUP5 DUP2 DUP2 RETURNDATASIZE DUP4 GT PUSH2 0x69F JUMPI JUMPDEST PUSH2 0x68B DUP2 DUP4 PUSH2 0xB01 JUMP JUMPDEST DUP2 ADD SUB SLT PUSH2 0x69B JUMPI MLOAD SWAP1 CODESIZE PUSH2 0x550 JUMP JUMPDEST DUP7 DUP1 REVERT JUMPDEST POP RETURNDATASIZE PUSH2 0x681 JUMP JUMPDEST DUP6 MLOAD PUSH4 0x703E46DD PUSH1 0xE1 SHL DUP2 MSTORE DUP9 SWAP1 REVERT JUMPDEST SWAP1 POP DUP2 PUSH32 0x360894A13BA1A3210667C828492DB98DCA3E2076CC3735A920A3CA505D382BBC SLOAD AND EQ ISZERO CODESIZE PUSH2 0x525 JUMP JUMPDEST POP DUP2 PUSH1 0x3 NOT CALLDATASIZE ADD SLT PUSH2 0xE5 JUMPI DUP3 SLOAD PUSH1 0x1 DUP2 PUSH1 0xA0 SHR AND ISZERO PUSH2 0x8EF JUMPI DUP3 SHR PUSH1 0x1 PUSH1 0x1 PUSH1 0x60 SHL SUB AND CALLVALUE SUB PUSH2 0x8E1 JUMPI PUSH2 0xFFFF PUSH1 0x2 SLOAD LT ISZERO PUSH2 0x8D3 JUMPI DUP2 MLOAD PUSH4 0xFFFFFFFF PUSH1 0xE0 DUP3 ADD PUSH8 0xFFFFFFFFFFFFFFFF DUP2 GT DUP4 DUP3 LT OR PUSH2 0x8C0 JUMPI PUSH1 0x3 DUP7 SWAP4 DUP7 DUP6 SWAP5 PUSH1 0xFF SWAP5 DUP3 MSTORE DUP1 TIMESTAMP AND DUP4 MSTORE PUSH2 0x7DC PUSH1 0x20 DUP5 ADD SWAP2 DUP8 DUP4 MSTORE DUP4 DUP6 ADD PUSH1 0xA DUP2 MSTORE PUSH2 0x7BA DUP9 PUSH1 0x60 DUP9 ADD SWAP6 DUP14 CALLDATALOAD DUP8 MSTORE DUP5 PUSH1 0x80 DUP11 ADD SWAP9 PUSH1 0x24 CALLDATALOAD DUP11 MSTORE PUSH1 0xA0 DUP12 ADD SWAP15 DUP16 MSTORE DUP14 PUSH1 0xC0 DUP13 ADD SWAP15 DUP16 MSTORE CALLER DUP2 MSTORE PUSH1 0x1 PUSH1 0x20 MSTORE KECCAK256 SWAP10 MLOAD AND PUSH4 0xFFFFFFFF NOT DUP11 SLOAD AND OR DUP10 SSTORE MLOAD AND DUP8 SWAP1 PUSH5 0xFF00000000 DUP3 SLOAD SWAP2 PUSH1 0x20 SHL AND SWAP1 PUSH5 0xFF00000000 NOT AND OR SWAP1 SSTORE JUMP JUMPDEST MLOAD DUP6 SLOAD PUSH9 0xFFFFFFFF0000000000 NOT AND SWAP2 AND PUSH1 0x28 SHL PUSH4 0xFFFFFFFF PUSH1 0x28 SHL AND OR DUP5 SSTORE JUMP JUMPDEST MLOAD PUSH1 0x1 DUP4 ADD SSTORE MLOAD PUSH1 0x2 DUP3 ADD SSTORE ADD SWAP3 MLOAD AND PUSH6 0xFFFFFFFFFF00 DUP4 SLOAD SWAP3 MLOAD PUSH1 0x8 SHL AND SWAP2 PUSH6 0xFFFFFFFFFFFF NOT AND OR OR SWAP1 SSTORE PUSH1 0x2 SLOAD SWAP1 PUSH9 0x10000000000000000 DUP3 LT ISZERO PUSH2 0x8AD JUMPI PUSH1 0x1 DUP3 ADD DUP1 PUSH1 0x2 SSTORE DUP3 LT ISZERO PUSH2 0x89A JUMPI POP PUSH1 0x2 DUP4 MSTORE PUSH32 0x405787FA12A823E0F2B7631CC41B3BA8828B3321CA811111FA75CD3AA3BB5ACE ADD CALLER PUSH1 0x1 PUSH1 0x1 PUSH1 0x60 SHL SUB PUSH1 0xA0 SHL DUP3 SLOAD AND OR SWAP1 SSTORE PUSH32 0xE59E62345B471635A7590EDF71E200FEA112C72164DD02721FC0556E29735352 DUP2 MLOAD SWAP2 DUP4 DUP4 MSTORE PUSH1 0xA PUSH1 0x20 DUP5 ADD MSTORE CALLER SWAP3 LOG2 DUP1 RETURN JUMPDEST PUSH4 0x4E487B71 PUSH1 0xE0 SHL DUP5 MSTORE PUSH1 0x32 SWAP1 MSTORE PUSH1 0x24 DUP4 REVERT JUMPDEST PUSH4 0x4E487B71 PUSH1 0xE0 SHL DUP5 MSTORE PUSH1 0x41 SWAP1 MSTORE PUSH1 0x24 DUP4 REVERT JUMPDEST PUSH4 0x4E487B71 PUSH1 0xE0 SHL DUP7 MSTORE PUSH1 0x41 DUP5 MSTORE PUSH1 0x24 DUP7 REVERT JUMPDEST SWAP1 MLOAD PUSH4 0xF1FCD779 PUSH1 0xE0 SHL DUP2 MSTORE REVERT JUMPDEST SWAP1 MLOAD PUSH4 0x440523D PUSH1 0xE4 SHL DUP2 MSTORE REVERT JUMPDEST POP SWAP1 MLOAD PUSH4 0xBAF3F0F7 PUSH1 0xE0 SHL DUP2 MSTORE REVERT JUMPDEST SWAP3 SWAP1 POP CALLVALUE PUSH2 0x2C0 JUMPI PUSH1 0x20 CALLDATASIZE PUSH1 0x3 NOT ADD SLT PUSH2 0x2C0 JUMPI PUSH2 0x91A PUSH2 0xAE6 JUMP JUMPDEST SWAP3 PUSH1 0x1 SWAP1 DUP2 DUP7 SLOAD PUSH1 0xA0 SHR AND ISZERO PUSH2 0xAD8 JUMPI POP CALLER DUP6 MSTORE DUP1 PUSH1 0x20 MSTORE DUP2 DUP6 KECCAK256 SWAP4 PUSH1 0x1 DUP1 PUSH1 0xA0 SHL SUB AND SWAP4 DUP5 DUP7 MSTORE DUP3 DUP7 KECCAK256 SWAP1 DUP1 SLOAD SWAP2 PUSH4 0xFFFFFFFF SWAP3 DUP4 DUP2 AND SWAP3 PUSH1 0xFF DUP3 PUSH1 0x20 SHR AND DUP5 TIMESTAMP SUB SWAP3 TIMESTAMP DUP5 GT PUSH2 0xAC5 JUMPI DUP8 DUP8 PUSH3 0x15180 DUP1 SWAP7 DIV AND LT DUP1 ISZERO SWAP1 PUSH2 0xABB JUMPI JUMPDEST ISZERO PUSH2 0xAAB JUMPI PUSH2 0x993 SWAP1 DUP8 DUP1 DUP8 SLOAD PUSH1 0x28 SHR AND SWAP2 PUSH1 0x28 SHR AND PUSH2 0xB55 JUMP JUMPDEST SWAP6 SWAP1 SWAP4 DUP8 DUP6 AND SWAP11 PUSH3 0xF4240 DUP1 DUP14 GT SWAP1 DUP2 ISZERO PUSH2 0xA9F JUMPI JUMPDEST POP PUSH2 0xA91 JUMPI POP PUSH2 0xA42 SWAP6 DUP8 SWAP6 SWAP1 SWAP5 PUSH2 0xA22 SWAP5 SWAP2 SWAP4 SWAP1 SWAP3 DUP11 SWAP3 SWAP2 DUP13 SWAP2 DUP2 ADD DUP5 AND TIMESTAMP LT PUSH2 0xA83 JUMPI POP POP POP DUP1 TIMESTAMP AND PUSH2 0x9F5 DUP12 JUMPDEST DUP5 SLOAD PUSH5 0xFF00000000 NOT AND PUSH1 0x20 SWAP2 SWAP1 SWAP2 SHL PUSH5 0xFF00000000 AND OR DUP5 SSTORE JUMP JUMPDEST AND PUSH4 0xFFFFFFFF NOT DUP3 SLOAD AND OR DUP2 SSTORE SWAP1 PUSH4 0xFFFFFFFF PUSH1 0x28 SHL DUP3 SLOAD SWAP2 PUSH1 0x28 SHL AND SWAP1 PUSH4 0xFFFFFFFF PUSH1 0x28 SHL NOT AND OR SWAP1 SSTORE JUMP JUMPDEST SWAP1 PUSH4 0xFFFFFFFF PUSH1 0x28 SHL DUP3 SLOAD SWAP2 PUSH1 0x28 SHL AND SWAP1 PUSH4 0xFFFFFFFF PUSH1 0x28 SHL NOT AND OR SWAP1 SSTORE JUMP JUMPDEST DUP4 MLOAD SWAP5 DUP4 DUP7 MSTORE PUSH1 0x20 DUP7 ADD MSTORE PUSH32 0xE59E62345B471635A7590EDF71E200FEA112C72164DD02721FC0556E29735352 SWAP5 DUP6 DUP6 CALLER SWAP3 LOG2 DUP4 MLOAD SWAP3 DUP4 MSTORE AND PUSH1 0x20 DUP3 ADD MSTORE LOG2 DUP1 RETURN JUMPDEST SWAP2 PUSH2 0x9F5 SWAP2 ADD PUSH1 0xFF AND PUSH2 0x9D9 JUMP JUMPDEST DUP11 MLOAD PUSH4 0x34A24C0D PUSH1 0xE0 SHL DUP2 MSTORE REVERT JUMPDEST SWAP1 POP DUP10 DUP10 AND GT CODESIZE PUSH2 0x9A9 JUMP JUMPDEST DUP9 MLOAD PUSH4 0x3F9D5FD9 PUSH1 0xE0 SHL DUP2 MSTORE DUP11 SWAP1 REVERT JUMPDEST POP PUSH1 0xA DUP3 LT PUSH2 0x978 JUMP JUMPDEST PUSH4 0x4E487B71 PUSH1 0xE0 SHL DUP13 MSTORE PUSH1 0x11 DUP11 MSTORE PUSH1 0x24 DUP13 REVERT JUMPDEST PUSH4 0xBAF3F0F7 PUSH1 0xE0 SHL DUP2 MSTORE DUP4 SWAP1 REVERT JUMPDEST PUSH1 0x4 CALLDATALOAD SWAP1 PUSH1 0x1 PUSH1 0x1 PUSH1 0xA0 SHL SUB DUP3 AND DUP3 SUB PUSH2 0xAFC JUMPI JUMP JUMPDEST PUSH1 0x0 DUP1 REVERT JUMPDEST SWAP1 PUSH1 0x1F DUP1 NOT SWAP2 ADD AND DUP2 ADD SWAP1 DUP2 LT PUSH8 0xFFFFFFFFFFFFFFFF DUP3 GT OR PUSH2 0xB23 JUMPI PUSH1 0x40 MSTORE JUMP JUMPDEST PUSH4 0x4E487B71 PUSH1 0xE0 SHL PUSH1 0x0 MSTORE PUSH1 0x41 PUSH1 0x4 MSTORE PUSH1 0x24 PUSH1 0x0 REVERT JUMPDEST PUSH8 0xFFFFFFFFFFFFFFFF DUP2 GT PUSH2 0xB23 JUMPI PUSH1 0x1F ADD PUSH1 0x1F NOT AND PUSH1 0x20 ADD SWAP1 JUMP JUMPDEST SWAP1 SWAP2 SWAP1 PUSH4 0xFFFFFFFF SWAP1 DUP2 DUP2 AND DUP3 DUP6 AND DUP1 DUP3 GT PUSH2 0xB92 JUMPI POP PUSH1 0x2 DUP4 SWAP2 GT PUSH1 0x0 EQ PUSH2 0xB87 JUMPI PUSH1 0x2 SWAP2 PUSH1 0x1 NOT ADD AND JUMPDEST SWAP4 ADD AND SWAP1 JUMP JUMPDEST POP POP PUSH1 0x2 PUSH1 0x0 PUSH2 0xB81 JUMP JUMPDEST SWAP2 SWAP5 SWAP2 DUP4 SWAP2 POP PUSH1 0x2 LT ISZERO PUSH2 0xBB0 JUMPI PUSH1 0x2 SWAP2 PUSH1 0x1 NOT ADD AND SWAP4 JUMPDEST ADD AND SWAP2 SWAP1 JUMP JUMPDEST POP POP PUSH1 0x2 PUSH1 0x0 SWAP4 PUSH2 0xBAA JUMP JUMPDEST PUSH1 0x0 DUP1 MLOAD PUSH1 0x20 PUSH2 0xCAF DUP4 CODECOPY DUP2 MLOAD SWAP2 MSTORE SLOAD PUSH1 0x1 PUSH1 0x1 PUSH1 0xA0 SHL SUB AND CALLER SUB PUSH2 0xBDD JUMPI JUMP JUMPDEST PUSH1 0x40 MLOAD PUSH4 0x118CDAA7 PUSH1 0xE0 SHL DUP2 MSTORE CALLER PUSH1 0x4 DUP3 ADD MSTORE PUSH1 0x24 SWAP1 REVERT JUMPDEST PUSH1 0x0 DUP1 MLOAD PUSH1 0x20 PUSH2 0xCAF DUP4 CODECOPY DUP2 MLOAD SWAP2 MSTORE DUP1 SLOAD PUSH1 0x1 PUSH1 0x1 PUSH1 0xA0 SHL SUB SWAP3 DUP4 AND PUSH1 0x1 PUSH1 0x1 PUSH1 0xA0 SHL SUB NOT DUP3 AND DUP2 OR SWAP1 SWAP3 SSTORE SWAP1 SWAP2 AND PUSH32 0x8BE0079C531659141344CD1FD0A4F28419497F9722A3DAAFE3B4186F6B6457E0 PUSH1 0x0 DUP1 LOG3 JUMP JUMPDEST SWAP1 PUSH2 0xC72 JUMPI POP DUP1 MLOAD ISZERO PUSH2 0xC60 JUMPI DUP1 MLOAD SWAP1 PUSH1 0x20 ADD REVERT JUMPDEST PUSH1 0x40 MLOAD PUSH4 0xD6BDA275 PUSH1 0xE0 SHL DUP2 MSTORE PUSH1 0x4 SWAP1 REVERT JUMPDEST DUP2 MLOAD ISZERO DUP1 PUSH2 0xCA5 JUMPI JUMPDEST PUSH2 0xC83 JUMPI POP SWAP1 JUMP JUMPDEST PUSH1 0x40 MLOAD PUSH4 0x9996B315 PUSH1 0xE0 SHL DUP2 MSTORE PUSH1 0x1 PUSH1 0x1 PUSH1 0xA0 SHL SUB SWAP1 SWAP2 AND PUSH1 0x4 DUP3 ADD MSTORE PUSH1 0x24 SWAP1 REVERT JUMPDEST POP DUP1 EXTCODESIZE ISZERO PUSH2 0xC7B JUMP INVALID SWAP1 AND 0xD0 SWAP14 PUSH19 0xD40FDAE2FD8CEAC6B6234C7706214FD39C1CD1 0xE6 MULMOD LOG0 MSTORE DUP13 NOT SWAP4 STOP LOG2 PUSH5 0x6970667358 0x22 SLT KECCAK256 CALL 0xC0 0x5D 0xE8 RETURNDATACOPY EXP 0xD4 0xB3 0x2B 0x25 LOG2 REVERT 0x2A 0x5C 0xAA 0xA6 SWAP12 XOR SWAP7 CODECOPY 0xD2 0x1E CALL ADD DUP6 0x5C SWAP6 0xA7 STATICCALL 0x2D PUSH30 0xD364736F6C634300081600339016D09D72D40FDAE2FD8CEAC6B6234C7706 0x21 0x4F 0xD3 SWAP13 SHR 0xD1 0xE6 MULMOD LOG0 MSTORE DUP13 NOT SWAP4 STOP 0xCD 0x5E 0xD1 0x5C PUSH15 0x187E77E9AEE88184C21F4F2182AB58 0x27 0xCB EXTCODESIZE PUSH31 0x7FBEDCD63F03300A26469706673582212209C66A8BA43E14A201EA75EDAE9 0xC1 JUMPI PUSH9 0xE8C9981A32F7F5CFE8 0xAA PUSH21 0xB589D94AAE64736F6C634300081600330000000000 "},"methodIdentifiers":{"UPGRADE_INTERFACE_VERSION()":"ad3cb1cc","createGame(uint32,uint256)":"f4de2d48","initialize()":"8129fc1c","owner()":"8da5cb5b","pause()":"8456cb59","paused()":"5c975abb","proxiableUUID()":"52d1902d","renounceOwnership()":"715018a6","transferOwnership(address)":"f2fde38b","unpause()":"3f4ba83a","upgradeToAndCall(address,bytes)":"4f1ef286"}},"storageLayout":{"storage":[],"types":null}}}}