{"contracts/PointsRules.sol":{"PointsRules":{"abi":[{"inputs":[],"stateMutability":"nonpayable","type":"constructor"},{"inputs":[{"internalType":"address","name":"target","type":"address"}],"name":"AddressEmptyCode","type":"error"},{"inputs":[{"internalType":"address","name":"implementation","type":"address"}],"name":"ERC1967InvalidImplementation","type":"error"},{"inputs":[],"name":"ERC1967NonPayable","type":"error"},{"inputs":[],"name":"FailedCall","type":"error"},{"inputs":[],"name":"InvalidInitialization","type":"error"},{"inputs":[],"name":"NotInitializing","type":"error"},{"inputs":[{"internalType":"address","name":"owner","type":"address"}],"name":"OwnableInvalidOwner","type":"error"},{"inputs":[{"internalType":"address","name":"account","type":"address"}],"name":"OwnableUnauthorizedAccount","type":"error"},{"inputs":[],"name":"UUPSUnauthorizedCallContext","type":"error"},{"inputs":[{"internalType":"bytes32","name":"slot","type":"bytes32"}],"name":"UUPSUnsupportedProxiableUUID","type":"error"},{"anonymous":false,"inputs":[{"indexed":false,"internalType":"uint64","name":"version","type":"uint64"}],"name":"Initialized","type":"event"},{"anonymous":false,"inputs":[{"indexed":true,"internalType":"address","name":"previousOwner","type":"address"},{"indexed":true,"internalType":"address","name":"newOwner","type":"address"}],"name":"OwnershipTransferred","type":"event"},{"anonymous":false,"inputs":[{"indexed":true,"internalType":"address","name":"implementation","type":"address"}],"name":"Upgraded","type":"event"},{"inputs":[],"name":"UPGRADE_INTERFACE_VERSION","outputs":[{"internalType":"string","name":"","type":"string"}],"stateMutability":"view","type":"function"},{"inputs":[{"internalType":"uint32","name":"currentScore","type":"uint32"},{"internalType":"uint32","name":"lastAccrualTime","type":"uint32"},{"internalType":"uint32","name":"currentTime","type":"uint32"}],"name":"calculateAccrued","outputs":[{"internalType":"uint32","name":"","type":"uint32"}],"stateMutability":"view","type":"function"},{"inputs":[{"internalType":"uint32","name":"score1","type":"uint32"},{"internalType":"uint32","name":"score2","type":"uint32"}],"name":"calculateInteraction","outputs":[{"internalType":"uint32","name":"","type":"uint32"},{"internalType":"uint32","name":"","type":"uint32"}],"stateMutability":"view","type":"function"},{"inputs":[{"internalType":"uint32","name":"currentScore","type":"uint32"}],"name":"calculateMeetup","outputs":[{"internalType":"uint32","name":"","type":"uint32"}],"stateMutability":"view","type":"function"},{"inputs":[{"internalType":"address","name":"_owner","type":"address"}],"name":"initialize","outputs":[],"stateMutability":"nonpayable","type":"function"},{"inputs":[],"name":"interactionPoints","outputs":[{"internalType":"uint8","name":"","type":"uint8"}],"stateMutability":"view","type":"function"},{"inputs":[],"name":"maxScore","outputs":[{"internalType":"uint32","name":"","type":"uint32"}],"stateMutability":"view","type":"function"},{"inputs":[],"name":"meetupPoints","outputs":[{"internalType":"uint8","name":"","type":"uint8"}],"stateMutability":"view","type":"function"},{"inputs":[],"name":"owner","outputs":[{"internalType":"address","name":"","type":"address"}],"stateMutability":"view","type":"function"},{"inputs":[],"name":"pointsPerTenHours","outputs":[{"internalType":"uint8","name":"","type":"uint8"}],"stateMutability":"view","type":"function"},{"inputs":[],"name":"proxiableUUID","outputs":[{"internalType":"bytes32","name":"","type":"bytes32"}],"stateMutability":"view","type":"function"},{"inputs":[],"name":"renounceOwnership","outputs":[],"stateMutability":"nonpayable","type":"function"},{"inputs":[{"internalType":"address","name":"newOwner","type":"address"}],"name":"transferOwnership","outputs":[],"stateMutability":"nonpayable","type":"function"},{"inputs":[{"internalType":"address","name":"newImplementation","type":"address"},{"internalType":"bytes","name":"data","type":"bytes"}],"name":"upgradeToAndCall","outputs":[],"stateMutability":"payable","type":"function"}],"evm":{"bytecode":{"linkReferences":{},"object":"60a080604052346100cc57306080527ff0c57e16840df040f15088dc2f81fe391c3923bec73e23a9662efc9c229c6a009081549060ff8260401c166100bd57506001600160401b036002600160401b031982821601610078575b604051610b8690816100d282396080518181816104c601526105a50152f35b6001600160401b031990911681179091556040519081527fc7f505b2f371ae2175ee4913f4499e1f2633a7b5936321eed1cdaeb6115181d290602090a1388080610059565b63f92ee8a960e01b8152600490fd5b600080fdfe608060409080825260048036101561001657600080fd5b600091823560e01c90816309e0721c146108715750806331074d45146107f857806338f25862146107d55780633c222c04146107945780634f1ef2861461052a57806352d1902d146104b05780635d5d8b7014610490578063715018a6146104265780638da5cb5b146103f05780639a1b4b38146103ca578063ad3cb1cc1461032a578063c4d66de8146101d5578063f2fde38b146101a55763f66d6078146100be57600080fd5b346101a15760603660031901126101a1576100d7610891565b916100e06108a9565b63ffffffff90604435828116810361019d57610100618ca0928492610954565b1604918054928260ff8560101c169116029082821691820361018a575081610129819287610926565b169416841015918261017a575b505015610147575060209151908152f35b606490602084519162461bcd60e51b8352820152600d60248201526c496e76616c69642073636f726560981b6044820152fd5b60181c1683111590503880610136565b634e487b7160e01b815260118552602490fd5b8380fd5b5080fd5b82346101d25760203660031901126101d2576101cf6101c26108bc565b6101ca610a53565b6109df565b80f35b80fd5b50829034610326576020366003190112610326576101f16108bc565b907ff0c57e16840df040f15088dc2f81fe391c3923bec73e23a9662efc9c229c6a0091825460ff81861c16159267ffffffffffffffff82168015908161031e575b6001149081610314575b15908161030b575b506102fd575067ffffffffffffffff19811660011784556102779190836102de575b5061026f610a8c565b6101ca610a8c565b61027f610a8c565b835466ffffffffffffff1916650f424001040217845561029d578280f35b805468ff00000000000000001916905551600181527fc7f505b2f371ae2175ee4913f4499e1f2633a7b5936321eed1cdaeb6115181d290602090a181808280f35b68ffffffffffffffffff19166801000000000000000117845586610266565b855163f92ee8a960e01b8152fd5b90501588610244565b303b15915061023c565b859150610232565b8280fd5b508290346103265782600319360112610326578151908282019082821067ffffffffffffffff8311176103b75750825260058152602090640352e302e360dc1b6020820152825193849260208452825192836020860152825b8481106103a157505050828201840152601f01601f19168101030190f35b8181018301518882018801528795508201610383565b634e487b7160e01b855260419052602484fd5b8284346101a157816003193601126101a15763ffffffff6020925460181c169051908152f35b8284346101a157816003193601126101a157600080516020610b318339815191525490516001600160a01b039091168152602090f35b82346101d257806003193601126101d25761043f610a53565b600080516020610b3183398151915280546001600160a01b0319811690915581906001600160a01b03167f8be0079c531659141344cd1fd0a4f28419497f9722a3daafe3b4186f6b6457e08280a380f35b8284346101a157816003193601126101a15760ff60209254169051908152f35b509190346101d257806003193601126101d257507f00000000000000000000000000000000000000000000000000000000000000006001600160a01b0316300361051d57602090517f360894a13ba1a3210667c828492db98dca3e2076cc3735a920a3ca505d382bbc8152f35b5163703e46dd60e11b8152fd5b5082806003193601126103265761053f6108bc565b90602493843567ffffffffffffffff81116101a157366023820112156101a1578085013561056c8161090a565b94610579855196876108d2565b81865260209182870193368a8383010111610790578186928b8693018737880101526001600160a01b037f00000000000000000000000000000000000000000000000000000000000000008116308114908115610762575b50610752576105de610a53565b81169585516352d1902d60e01b815283818a818b5afa86918161071f575b50610618575050505050505191634c9c8ce360e01b8352820152fd5b9088888894938c7f360894a13ba1a3210667c828492db98dca3e2076cc3735a920a3ca505d382bbc9182810361070a5750853b156106f6575080546001600160a01b031916821790558451889392917fbc7cd75a20ee27fd9adebab32041f755214dbc6bffa90cc0225b39da2e5c2d3b8580a28251156106d85750506106ca9582915190845af4913d156106ce573d6106bc6106b38261090a565b925192836108d2565b81528581943d92013e610acd565b5080f35b5060609250610acd565b9550955050505050346106ea57505080f35b63b398979f60e01b8152fd5b8651634c9c8ce360e01b8152808501849052fd5b8751632a87526960e21b815280860191909152fd5b9091508481813d831161074b575b61073781836108d2565b810103126107475751908b6105fc565b8680fd5b503d61072d565b855163703e46dd60e11b81528890fd5b9050817f360894a13ba1a3210667c828492db98dca3e2076cc3735a920a3ca505d382bbc541614158a6105d1565b8580fd5b5050346101d257816003193601126101d257506107c06107b2610891565b6107ba6108a9565b9061096a565b825163ffffffff928316815291166020820152f35b8284346101a157816003193601126101a15760ff6020925460081c169051908152f35b50346101a15760203660031901126101a15761082360ff610817610891565b935460081c1683610926565b63ffffffff8091169216821061083d575060209151908152f35b606490602084519162461bcd60e51b8352820152600e60248201526d53636f7265206f766572666c6f7760901b6044820152fd5b8390346101a157816003193601126101a15760ff6020925460101c168152f35b6004359063ffffffff821682036108a457565b600080fd5b6024359063ffffffff821682036108a457565b600435906001600160a01b03821682036108a457565b90601f8019910116810190811067ffffffffffffffff8211176108f457604052565b634e487b7160e01b600052604160045260246000fd5b67ffffffffffffffff81116108f457601f01601f191660200190565b91909163ffffffff8080941691160191821161093e57565b634e487b7160e01b600052601160045260246000fd5b63ffffffff918216908216039190821161093e57565b63ffffffff808316939291908116848111156109ae57506109949060ff6000541691828092610926565b9411156109a7576109a491610954565b90565b5050600090565b906109a492945060ff60005416808093116000146109d5576109cf91610954565b93610926565b5050600093610926565b6001600160a01b03908116908115610a3a57600080516020610b3183398151915280546001600160a01b031981168417909155167f8be0079c531659141344cd1fd0a4f28419497f9722a3daafe3b4186f6b6457e0600080a3565b604051631e4fbdf760e01b815260006004820152602490fd5b600080516020610b31833981519152546001600160a01b03163303610a7457565b60405163118cdaa760e01b8152336004820152602490fd5b60ff7ff0c57e16840df040f15088dc2f81fe391c3923bec73e23a9662efc9c229c6a005460401c1615610abb57565b604051631afcd79f60e31b8152600490fd5b90610af45750805115610ae257805190602001fd5b60405163d6bda27560e01b8152600490fd5b81511580610b27575b610b05575090565b604051639996b31560e01b81526001600160a01b039091166004820152602490fd5b50803b15610afd56fe9016d09d72d40fdae2fd8ceac6b6234c7706214fd39c1cd1e609a0528c199300a264697066735822122008fc0c634d5396abf1bc08f62ef85c33a8cd669fc885b1c96e602160f00bc44d64736f6c63430008160033","opcodes":"PUSH1 0xA0 DUP1 PUSH1 0x40 MSTORE CALLVALUE PUSH2 0xCC JUMPI ADDRESS PUSH1 0x80 MSTORE PUSH32 0xF0C57E16840DF040F15088DC2F81FE391C3923BEC73E23A9662EFC9C229C6A00 SWAP1 DUP2 SLOAD SWAP1 PUSH1 0xFF DUP3 PUSH1 0x40 SHR AND PUSH2 0xBD JUMPI POP PUSH1 0x1 PUSH1 0x1 PUSH1 0x40 SHL SUB PUSH1 0x2 PUSH1 0x1 PUSH1 0x40 SHL SUB NOT DUP3 DUP3 AND ADD PUSH2 0x78 JUMPI JUMPDEST PUSH1 0x40 MLOAD PUSH2 0xB86 SWAP1 DUP2 PUSH2 0xD2 DUP3 CODECOPY PUSH1 0x80 MLOAD DUP2 DUP2 DUP2 PUSH2 0x4C6 ADD MSTORE PUSH2 0x5A5 ADD MSTORE RETURN JUMPDEST PUSH1 0x1 PUSH1 0x1 PUSH1 0x40 SHL SUB NOT SWAP1 SWAP2 AND DUP2 OR SWAP1 SWAP2 SSTORE PUSH1 0x40 MLOAD SWAP1 DUP2 MSTORE PUSH32 0xC7F505B2F371AE2175EE4913F4499E1F2633A7B5936321EED1CDAEB6115181D2 SWAP1 PUSH1 0x20 SWAP1 LOG1 CODESIZE DUP1 DUP1 PUSH2 0x59 JUMP JUMPDEST PUSH4 0xF92EE8A9 PUSH1 0xE0 SHL DUP2 MSTORE PUSH1 0x4 SWAP1 REVERT JUMPDEST PUSH1 0x0 DUP1 REVERT INVALID PUSH1 0x80 PUSH1 0x40 SWAP1 DUP1 DUP3 MSTORE PUSH1 0x4 DUP1 CALLDATASIZE LT ISZERO PUSH2 0x16 JUMPI PUSH1 0x0 DUP1 REVERT JUMPDEST PUSH1 0x0 SWAP2 DUP3 CALLDATALOAD PUSH1 0xE0 SHR SWAP1 DUP2 PUSH4 0x9E0721C EQ PUSH2 0x871 JUMPI POP DUP1 PUSH4 0x31074D45 EQ PUSH2 0x7F8 JUMPI DUP1 PUSH4 0x38F25862 EQ PUSH2 0x7D5 JUMPI DUP1 PUSH4 0x3C222C04 EQ PUSH2 0x794 JUMPI DUP1 PUSH4 0x4F1EF286 EQ PUSH2 0x52A JUMPI DUP1 PUSH4 0x52D1902D EQ PUSH2 0x4B0 JUMPI DUP1 PUSH4 0x5D5D8B70 EQ PUSH2 0x490 JUMPI DUP1 PUSH4 0x715018A6 EQ PUSH2 0x426 JUMPI DUP1 PUSH4 0x8DA5CB5B EQ PUSH2 0x3F0 JUMPI DUP1 PUSH4 0x9A1B4B38 EQ PUSH2 0x3CA JUMPI DUP1 PUSH4 0xAD3CB1CC EQ PUSH2 0x32A JUMPI DUP1 PUSH4 0xC4D66DE8 EQ PUSH2 0x1D5 JUMPI DUP1 PUSH4 0xF2FDE38B EQ PUSH2 0x1A5 JUMPI PUSH4 0xF66D6078 EQ PUSH2 0xBE JUMPI PUSH1 0x0 DUP1 REVERT JUMPDEST CALLVALUE PUSH2 0x1A1 JUMPI PUSH1 0x60 CALLDATASIZE PUSH1 0x3 NOT ADD SLT PUSH2 0x1A1 JUMPI PUSH2 0xD7 PUSH2 0x891 JUMP JUMPDEST SWAP2 PUSH2 0xE0 PUSH2 0x8A9 JUMP JUMPDEST PUSH4 0xFFFFFFFF SWAP1 PUSH1 0x44 CALLDATALOAD DUP3 DUP2 AND DUP2 SUB PUSH2 0x19D JUMPI PUSH2 0x100 PUSH2 0x8CA0 SWAP3 DUP5 SWAP3 PUSH2 0x954 JUMP JUMPDEST AND DIV SWAP2 DUP1 SLOAD SWAP3 DUP3 PUSH1 0xFF DUP6 PUSH1 0x10 SHR AND SWAP2 AND MUL SWAP1 DUP3 DUP3 AND SWAP2 DUP3 SUB PUSH2 0x18A JUMPI POP DUP2 PUSH2 0x129 DUP2 SWAP3 DUP8 PUSH2 0x926 JUMP JUMPDEST AND SWAP5 AND DUP5 LT ISZERO SWAP2 DUP3 PUSH2 0x17A JUMPI JUMPDEST POP POP ISZERO PUSH2 0x147 JUMPI POP PUSH1 0x20 SWAP2 MLOAD SWAP1 DUP2 MSTORE RETURN JUMPDEST PUSH1 0x64 SWAP1 PUSH1 0x20 DUP5 MLOAD SWAP2 PUSH3 0x461BCD PUSH1 0xE5 SHL DUP4 MSTORE DUP3 ADD MSTORE PUSH1 0xD PUSH1 0x24 DUP3 ADD MSTORE PUSH13 0x496E76616C69642073636F7265 PUSH1 0x98 SHL PUSH1 0x44 DUP3 ADD MSTORE REVERT JUMPDEST PUSH1 0x18 SHR AND DUP4 GT ISZERO SWAP1 POP CODESIZE DUP1 PUSH2 0x136 JUMP JUMPDEST PUSH4 0x4E487B71 PUSH1 0xE0 SHL DUP2 MSTORE PUSH1 0x11 DUP6 MSTORE PUSH1 0x24 SWAP1 REVERT JUMPDEST DUP4 DUP1 REVERT JUMPDEST POP DUP1 REVERT JUMPDEST DUP3 CALLVALUE PUSH2 0x1D2 JUMPI PUSH1 0x20 CALLDATASIZE PUSH1 0x3 NOT ADD SLT PUSH2 0x1D2 JUMPI PUSH2 0x1CF PUSH2 0x1C2 PUSH2 0x8BC JUMP JUMPDEST PUSH2 0x1CA PUSH2 0xA53 JUMP JUMPDEST PUSH2 0x9DF JUMP JUMPDEST DUP1 RETURN JUMPDEST DUP1 REVERT JUMPDEST POP DUP3 SWAP1 CALLVALUE PUSH2 0x326 JUMPI PUSH1 0x20 CALLDATASIZE PUSH1 0x3 NOT ADD SLT PUSH2 0x326 JUMPI PUSH2 0x1F1 PUSH2 0x8BC JUMP JUMPDEST SWAP1 PUSH32 0xF0C57E16840DF040F15088DC2F81FE391C3923BEC73E23A9662EFC9C229C6A00 SWAP2 DUP3 SLOAD PUSH1 0xFF DUP2 DUP7 SHR AND ISZERO SWAP3 PUSH8 0xFFFFFFFFFFFFFFFF DUP3 AND DUP1 ISZERO SWAP1 DUP2 PUSH2 0x31E JUMPI JUMPDEST PUSH1 0x1 EQ SWAP1 DUP2 PUSH2 0x314 JUMPI JUMPDEST ISZERO SWAP1 DUP2 PUSH2 0x30B JUMPI JUMPDEST POP PUSH2 0x2FD JUMPI POP PUSH8 0xFFFFFFFFFFFFFFFF NOT DUP2 AND PUSH1 0x1 OR DUP5 SSTORE PUSH2 0x277 SWAP2 SWAP1 DUP4 PUSH2 0x2DE JUMPI JUMPDEST POP PUSH2 0x26F PUSH2 0xA8C JUMP JUMPDEST PUSH2 0x1CA PUSH2 0xA8C JUMP JUMPDEST PUSH2 0x27F PUSH2 0xA8C JUMP JUMPDEST DUP4 SLOAD PUSH7 0xFFFFFFFFFFFFFF NOT AND PUSH6 0xF4240010402 OR DUP5 SSTORE PUSH2 0x29D JUMPI DUP3 DUP1 RETURN JUMPDEST DUP1 SLOAD PUSH9 0xFF0000000000000000 NOT AND SWAP1 SSTORE MLOAD PUSH1 0x1 DUP2 MSTORE PUSH32 0xC7F505B2F371AE2175EE4913F4499E1F2633A7B5936321EED1CDAEB6115181D2 SWAP1 PUSH1 0x20 SWAP1 LOG1 DUP2 DUP1 DUP3 DUP1 RETURN JUMPDEST PUSH9 0xFFFFFFFFFFFFFFFFFF NOT AND PUSH9 0x10000000000000001 OR DUP5 SSTORE DUP7 PUSH2 0x266 JUMP JUMPDEST DUP6 MLOAD PUSH4 0xF92EE8A9 PUSH1 0xE0 SHL DUP2 MSTORE REVERT JUMPDEST SWAP1 POP ISZERO DUP9 PUSH2 0x244 JUMP JUMPDEST ADDRESS EXTCODESIZE ISZERO SWAP2 POP PUSH2 0x23C JUMP JUMPDEST DUP6 SWAP2 POP PUSH2 0x232 JUMP JUMPDEST DUP3 DUP1 REVERT JUMPDEST POP DUP3 SWAP1 CALLVALUE PUSH2 0x326 JUMPI DUP3 PUSH1 0x3 NOT CALLDATASIZE ADD SLT PUSH2 0x326 JUMPI DUP2 MLOAD SWAP1 DUP3 DUP3 ADD SWAP1 DUP3 DUP3 LT PUSH8 0xFFFFFFFFFFFFFFFF DUP4 GT OR PUSH2 0x3B7 JUMPI POP DUP3 MSTORE PUSH1 0x5 DUP2 MSTORE PUSH1 0x20 SWAP1 PUSH5 0x352E302E3 PUSH1 0xDC SHL PUSH1 0x20 DUP3 ADD MSTORE DUP3 MLOAD SWAP4 DUP5 SWAP3 PUSH1 0x20 DUP5 MSTORE DUP3 MLOAD SWAP3 DUP4 PUSH1 0x20 DUP7 ADD MSTORE DUP3 JUMPDEST DUP5 DUP2 LT PUSH2 0x3A1 JUMPI POP POP POP DUP3 DUP3 ADD DUP5 ADD MSTORE PUSH1 0x1F ADD PUSH1 0x1F NOT AND DUP2 ADD SUB ADD SWAP1 RETURN JUMPDEST DUP2 DUP2 ADD DUP4 ADD MLOAD DUP9 DUP3 ADD DUP9 ADD MSTORE DUP8 SWAP6 POP DUP3 ADD PUSH2 0x383 JUMP JUMPDEST PUSH4 0x4E487B71 PUSH1 0xE0 SHL DUP6 MSTORE PUSH1 0x41 SWAP1 MSTORE PUSH1 0x24 DUP5 REVERT JUMPDEST DUP3 DUP5 CALLVALUE PUSH2 0x1A1 JUMPI DUP2 PUSH1 0x3 NOT CALLDATASIZE ADD SLT PUSH2 0x1A1 JUMPI PUSH4 0xFFFFFFFF PUSH1 0x20 SWAP3 SLOAD PUSH1 0x18 SHR AND SWAP1 MLOAD SWAP1 DUP2 MSTORE RETURN JUMPDEST DUP3 DUP5 CALLVALUE PUSH2 0x1A1 JUMPI DUP2 PUSH1 0x3 NOT CALLDATASIZE ADD SLT PUSH2 0x1A1 JUMPI PUSH1 0x0 DUP1 MLOAD PUSH1 0x20 PUSH2 0xB31 DUP4 CODECOPY DUP2 MLOAD SWAP2 MSTORE SLOAD SWAP1 MLOAD PUSH1 0x1 PUSH1 0x1 PUSH1 0xA0 SHL SUB SWAP1 SWAP2 AND DUP2 MSTORE PUSH1 0x20 SWAP1 RETURN JUMPDEST DUP3 CALLVALUE PUSH2 0x1D2 JUMPI DUP1 PUSH1 0x3 NOT CALLDATASIZE ADD SLT PUSH2 0x1D2 JUMPI PUSH2 0x43F PUSH2 0xA53 JUMP JUMPDEST PUSH1 0x0 DUP1 MLOAD PUSH1 0x20 PUSH2 0xB31 DUP4 CODECOPY DUP2 MLOAD SWAP2 MSTORE DUP1 SLOAD PUSH1 0x1 PUSH1 0x1 PUSH1 0xA0 SHL SUB NOT DUP2 AND SWAP1 SWAP2 SSTORE DUP2 SWAP1 PUSH1 0x1 PUSH1 0x1 PUSH1 0xA0 SHL SUB AND PUSH32 0x8BE0079C531659141344CD1FD0A4F28419497F9722A3DAAFE3B4186F6B6457E0 DUP3 DUP1 LOG3 DUP1 RETURN JUMPDEST DUP3 DUP5 CALLVALUE PUSH2 0x1A1 JUMPI DUP2 PUSH1 0x3 NOT CALLDATASIZE ADD SLT PUSH2 0x1A1 JUMPI PUSH1 0xFF PUSH1 0x20 SWAP3 SLOAD AND SWAP1 MLOAD SWAP1 DUP2 MSTORE RETURN JUMPDEST POP SWAP2 SWAP1 CALLVALUE PUSH2 0x1D2 JUMPI DUP1 PUSH1 0x3 NOT CALLDATASIZE ADD SLT PUSH2 0x1D2 JUMPI POP PUSH32 0x0 PUSH1 0x1 PUSH1 0x1 PUSH1 0xA0 SHL SUB AND ADDRESS SUB PUSH2 0x51D JUMPI PUSH1 0x20 SWAP1 MLOAD PUSH32 0x360894A13BA1A3210667C828492DB98DCA3E2076CC3735A920A3CA505D382BBC DUP2 MSTORE RETURN JUMPDEST MLOAD PUSH4 0x703E46DD PUSH1 0xE1 SHL DUP2 MSTORE REVERT JUMPDEST POP DUP3 DUP1 PUSH1 0x3 NOT CALLDATASIZE ADD SLT PUSH2 0x326 JUMPI PUSH2 0x53F PUSH2 0x8BC JUMP JUMPDEST SWAP1 PUSH1 0x24 SWAP4 DUP5 CALLDATALOAD PUSH8 0xFFFFFFFFFFFFFFFF DUP2 GT PUSH2 0x1A1 JUMPI CALLDATASIZE PUSH1 0x23 DUP3 ADD SLT ISZERO PUSH2 0x1A1 JUMPI DUP1 DUP6 ADD CALLDATALOAD PUSH2 0x56C DUP2 PUSH2 0x90A JUMP JUMPDEST SWAP5 PUSH2 0x579 DUP6 MLOAD SWAP7 DUP8 PUSH2 0x8D2 JUMP JUMPDEST DUP2 DUP7 MSTORE PUSH1 0x20 SWAP2 DUP3 DUP8 ADD SWAP4 CALLDATASIZE DUP11 DUP4 DUP4 ADD ADD GT PUSH2 0x790 JUMPI DUP2 DUP7 SWAP3 DUP12 DUP7 SWAP4 ADD DUP8 CALLDATACOPY DUP9 ADD ADD MSTORE PUSH1 0x1 PUSH1 0x1 PUSH1 0xA0 SHL SUB PUSH32 0x0 DUP2 AND ADDRESS DUP2 EQ SWAP1 DUP2 ISZERO PUSH2 0x762 JUMPI JUMPDEST POP PUSH2 0x752 JUMPI PUSH2 0x5DE PUSH2 0xA53 JUMP JUMPDEST DUP2 AND SWAP6 DUP6 MLOAD PUSH4 0x52D1902D PUSH1 0xE0 SHL DUP2 MSTORE DUP4 DUP2 DUP11 DUP2 DUP12 GAS STATICCALL DUP7 SWAP2 DUP2 PUSH2 0x71F JUMPI JUMPDEST POP PUSH2 0x618 JUMPI POP POP POP POP POP POP MLOAD SWAP2 PUSH4 0x4C9C8CE3 PUSH1 0xE0 SHL DUP4 MSTORE DUP3 ADD MSTORE REVERT JUMPDEST SWAP1 DUP9 DUP9 DUP9 SWAP5 SWAP4 DUP13 PUSH32 0x360894A13BA1A3210667C828492DB98DCA3E2076CC3735A920A3CA505D382BBC SWAP2 DUP3 DUP2 SUB PUSH2 0x70A JUMPI POP DUP6 EXTCODESIZE ISZERO PUSH2 0x6F6 JUMPI POP DUP1 SLOAD PUSH1 0x1 PUSH1 0x1 PUSH1 0xA0 SHL SUB NOT AND DUP3 OR SWAP1 SSTORE DUP5 MLOAD DUP9 SWAP4 SWAP3 SWAP2 PUSH32 0xBC7CD75A20EE27FD9ADEBAB32041F755214DBC6BFFA90CC0225B39DA2E5C2D3B DUP6 DUP1 LOG2 DUP3 MLOAD ISZERO PUSH2 0x6D8 JUMPI POP POP PUSH2 0x6CA SWAP6 DUP3 SWAP2 MLOAD SWAP1 DUP5 GAS DELEGATECALL SWAP2 RETURNDATASIZE ISZERO PUSH2 0x6CE JUMPI RETURNDATASIZE PUSH2 0x6BC PUSH2 0x6B3 DUP3 PUSH2 0x90A JUMP JUMPDEST SWAP3 MLOAD SWAP3 DUP4 PUSH2 0x8D2 JUMP JUMPDEST DUP2 MSTORE DUP6 DUP2 SWAP5 RETURNDATASIZE SWAP3 ADD RETURNDATACOPY PUSH2 0xACD JUMP JUMPDEST POP DUP1 RETURN JUMPDEST POP PUSH1 0x60 SWAP3 POP PUSH2 0xACD JUMP JUMPDEST SWAP6 POP SWAP6 POP POP POP POP POP CALLVALUE PUSH2 0x6EA JUMPI POP POP DUP1 RETURN JUMPDEST PUSH4 0xB398979F PUSH1 0xE0 SHL DUP2 MSTORE REVERT JUMPDEST DUP7 MLOAD PUSH4 0x4C9C8CE3 PUSH1 0xE0 SHL DUP2 MSTORE DUP1 DUP6 ADD DUP5 SWAP1 MSTORE REVERT JUMPDEST DUP8 MLOAD PUSH4 0x2A875269 PUSH1 0xE2 SHL DUP2 MSTORE DUP1 DUP7 ADD SWAP2 SWAP1 SWAP2 MSTORE REVERT JUMPDEST SWAP1 SWAP2 POP DUP5 DUP2 DUP2 RETURNDATASIZE DUP4 GT PUSH2 0x74B JUMPI JUMPDEST PUSH2 0x737 DUP2 DUP4 PUSH2 0x8D2 JUMP JUMPDEST DUP2 ADD SUB SLT PUSH2 0x747 JUMPI MLOAD SWAP1 DUP12 PUSH2 0x5FC JUMP JUMPDEST DUP7 DUP1 REVERT JUMPDEST POP RETURNDATASIZE PUSH2 0x72D JUMP JUMPDEST DUP6 MLOAD PUSH4 0x703E46DD PUSH1 0xE1 SHL DUP2 MSTORE DUP9 SWAP1 REVERT JUMPDEST SWAP1 POP DUP2 PUSH32 0x360894A13BA1A3210667C828492DB98DCA3E2076CC3735A920A3CA505D382BBC SLOAD AND EQ ISZERO DUP11 PUSH2 0x5D1 JUMP JUMPDEST DUP6 DUP1 REVERT JUMPDEST POP POP CALLVALUE PUSH2 0x1D2 JUMPI DUP2 PUSH1 0x3 NOT CALLDATASIZE ADD SLT PUSH2 0x1D2 JUMPI POP PUSH2 0x7C0 PUSH2 0x7B2 PUSH2 0x891 JUMP JUMPDEST PUSH2 0x7BA PUSH2 0x8A9 JUMP JUMPDEST SWAP1 PUSH2 0x96A JUMP JUMPDEST DUP3 MLOAD PUSH4 0xFFFFFFFF SWAP3 DUP4 AND DUP2 MSTORE SWAP2 AND PUSH1 0x20 DUP3 ADD MSTORE RETURN JUMPDEST DUP3 DUP5 CALLVALUE PUSH2 0x1A1 JUMPI DUP2 PUSH1 0x3 NOT CALLDATASIZE ADD SLT PUSH2 0x1A1 JUMPI PUSH1 0xFF PUSH1 0x20 SWAP3 SLOAD PUSH1 0x8 SHR AND SWAP1 MLOAD SWAP1 DUP2 MSTORE RETURN JUMPDEST POP CALLVALUE PUSH2 0x1A1 JUMPI PUSH1 0x20 CALLDATASIZE PUSH1 0x3 NOT ADD SLT PUSH2 0x1A1 JUMPI PUSH2 0x823 PUSH1 0xFF PUSH2 0x817 PUSH2 0x891 JUMP JUMPDEST SWAP4 SLOAD PUSH1 0x8 SHR AND DUP4 PUSH2 0x926 JUMP JUMPDEST PUSH4 0xFFFFFFFF DUP1 SWAP2 AND SWAP3 AND DUP3 LT PUSH2 0x83D JUMPI POP PUSH1 0x20 SWAP2 MLOAD SWAP1 DUP2 MSTORE RETURN JUMPDEST PUSH1 0x64 SWAP1 PUSH1 0x20 DUP5 MLOAD SWAP2 PUSH3 0x461BCD PUSH1 0xE5 SHL DUP4 MSTORE DUP3 ADD MSTORE PUSH1 0xE PUSH1 0x24 DUP3 ADD MSTORE PUSH14 0x53636F7265206F766572666C6F77 PUSH1 0x90 SHL PUSH1 0x44 DUP3 ADD MSTORE REVERT JUMPDEST DUP4 SWAP1 CALLVALUE PUSH2 0x1A1 JUMPI DUP2 PUSH1 0x3 NOT CALLDATASIZE ADD SLT PUSH2 0x1A1 JUMPI PUSH1 0xFF PUSH1 0x20 SWAP3 SLOAD PUSH1 0x10 SHR AND DUP2 MSTORE RETURN JUMPDEST PUSH1 0x4 CALLDATALOAD SWAP1 PUSH4 0xFFFFFFFF DUP3 AND DUP3 SUB PUSH2 0x8A4 JUMPI JUMP JUMPDEST PUSH1 0x0 DUP1 REVERT JUMPDEST PUSH1 0x24 CALLDATALOAD SWAP1 PUSH4 0xFFFFFFFF DUP3 AND DUP3 SUB PUSH2 0x8A4 JUMPI JUMP JUMPDEST PUSH1 0x4 CALLDATALOAD SWAP1 PUSH1 0x1 PUSH1 0x1 PUSH1 0xA0 SHL SUB DUP3 AND DUP3 SUB PUSH2 0x8A4 JUMPI JUMP JUMPDEST SWAP1 PUSH1 0x1F DUP1 NOT SWAP2 ADD AND DUP2 ADD SWAP1 DUP2 LT PUSH8 0xFFFFFFFFFFFFFFFF DUP3 GT OR PUSH2 0x8F4 JUMPI PUSH1 0x40 MSTORE JUMP JUMPDEST PUSH4 0x4E487B71 PUSH1 0xE0 SHL PUSH1 0x0 MSTORE PUSH1 0x41 PUSH1 0x4 MSTORE PUSH1 0x24 PUSH1 0x0 REVERT JUMPDEST PUSH8 0xFFFFFFFFFFFFFFFF DUP2 GT PUSH2 0x8F4 JUMPI PUSH1 0x1F ADD PUSH1 0x1F NOT AND PUSH1 0x20 ADD SWAP1 JUMP JUMPDEST SWAP2 SWAP1 SWAP2 PUSH4 0xFFFFFFFF DUP1 DUP1 SWAP5 AND SWAP2 AND ADD SWAP2 DUP3 GT PUSH2 0x93E JUMPI JUMP JUMPDEST PUSH4 0x4E487B71 PUSH1 0xE0 SHL PUSH1 0x0 MSTORE PUSH1 0x11 PUSH1 0x4 MSTORE PUSH1 0x24 PUSH1 0x0 REVERT JUMPDEST PUSH4 0xFFFFFFFF SWAP2 DUP3 AND SWAP1 DUP3 AND SUB SWAP2 SWAP1 DUP3 GT PUSH2 0x93E JUMPI JUMP JUMPDEST PUSH4 0xFFFFFFFF DUP1 DUP4 AND SWAP4 SWAP3 SWAP2 SWAP1 DUP2 AND DUP5 DUP2 GT ISZERO PUSH2 0x9AE JUMPI POP PUSH2 0x994 SWAP1 PUSH1 0xFF PUSH1 0x0 SLOAD AND SWAP2 DUP3 DUP1 SWAP3 PUSH2 0x926 JUMP JUMPDEST SWAP5 GT ISZERO PUSH2 0x9A7 JUMPI PUSH2 0x9A4 SWAP2 PUSH2 0x954 JUMP JUMPDEST SWAP1 JUMP JUMPDEST POP POP PUSH1 0x0 SWAP1 JUMP JUMPDEST SWAP1 PUSH2 0x9A4 SWAP3 SWAP5 POP PUSH1 0xFF PUSH1 0x0 SLOAD AND DUP1 DUP1 SWAP4 GT PUSH1 0x0 EQ PUSH2 0x9D5 JUMPI PUSH2 0x9CF SWAP2 PUSH2 0x954 JUMP JUMPDEST SWAP4 PUSH2 0x926 JUMP JUMPDEST POP POP PUSH1 0x0 SWAP4 PUSH2 0x926 JUMP JUMPDEST PUSH1 0x1 PUSH1 0x1 PUSH1 0xA0 SHL SUB SWAP1 DUP2 AND SWAP1 DUP2 ISZERO PUSH2 0xA3A JUMPI PUSH1 0x0 DUP1 MLOAD PUSH1 0x20 PUSH2 0xB31 DUP4 CODECOPY DUP2 MLOAD SWAP2 MSTORE DUP1 SLOAD PUSH1 0x1 PUSH1 0x1 PUSH1 0xA0 SHL SUB NOT DUP2 AND DUP5 OR SWAP1 SWAP2 SSTORE AND PUSH32 0x8BE0079C531659141344CD1FD0A4F28419497F9722A3DAAFE3B4186F6B6457E0 PUSH1 0x0 DUP1 LOG3 JUMP JUMPDEST PUSH1 0x40 MLOAD PUSH4 0x1E4FBDF7 PUSH1 0xE0 SHL DUP2 MSTORE PUSH1 0x0 PUSH1 0x4 DUP3 ADD MSTORE PUSH1 0x24 SWAP1 REVERT JUMPDEST PUSH1 0x0 DUP1 MLOAD PUSH1 0x20 PUSH2 0xB31 DUP4 CODECOPY DUP2 MLOAD SWAP2 MSTORE SLOAD PUSH1 0x1 PUSH1 0x1 PUSH1 0xA0 SHL SUB AND CALLER SUB PUSH2 0xA74 JUMPI JUMP JUMPDEST PUSH1 0x40 MLOAD PUSH4 0x118CDAA7 PUSH1 0xE0 SHL DUP2 MSTORE CALLER PUSH1 0x4 DUP3 ADD MSTORE PUSH1 0x24 SWAP1 REVERT JUMPDEST PUSH1 0xFF PUSH32 0xF0C57E16840DF040F15088DC2F81FE391C3923BEC73E23A9662EFC9C229C6A00 SLOAD PUSH1 0x40 SHR AND ISZERO PUSH2 0xABB JUMPI JUMP JUMPDEST PUSH1 0x40 MLOAD PUSH4 0x1AFCD79F PUSH1 0xE3 SHL DUP2 MSTORE PUSH1 0x4 SWAP1 REVERT JUMPDEST SWAP1 PUSH2 0xAF4 JUMPI POP DUP1 MLOAD ISZERO PUSH2 0xAE2 JUMPI DUP1 MLOAD SWAP1 PUSH1 0x20 ADD REVERT JUMPDEST PUSH1 0x40 MLOAD PUSH4 0xD6BDA275 PUSH1 0xE0 SHL DUP2 MSTORE PUSH1 0x4 SWAP1 REVERT JUMPDEST DUP2 MLOAD ISZERO DUP1 PUSH2 0xB27 JUMPI JUMPDEST PUSH2 0xB05 JUMPI POP SWAP1 JUMP JUMPDEST PUSH1 0x40 MLOAD PUSH4 0x9996B315 PUSH1 0xE0 SHL DUP2 MSTORE PUSH1 0x1 PUSH1 0x1 PUSH1 0xA0 SHL SUB SWAP1 SWAP2 AND PUSH1 0x4 DUP3 ADD MSTORE PUSH1 0x24 SWAP1 REVERT JUMPDEST POP DUP1 EXTCODESIZE ISZERO PUSH2 0xAFD JUMP INVALID SWAP1 AND 0xD0 SWAP14 PUSH19 0xD40FDAE2FD8CEAC6B6234C7706214FD39C1CD1 0xE6 MULMOD LOG0 MSTORE DUP13 NOT SWAP4 STOP LOG2 PUSH5 0x6970667358 0x22 SLT KECCAK256 ADDMOD 0xFC 0xC PUSH4 0x4D5396AB CALL 0xBC ADDMOD 0xF6 0x2E 0xF8 0x5C CALLER 0xA8 0xCD PUSH7 0x9FC885B1C96E60 0x21 PUSH1 0xF0 SIGNEXTEND 0xC4 0x4D PUSH5 0x736F6C6343 STOP ADDMOD AND STOP CALLER "},"methodIdentifiers":{"UPGRADE_INTERFACE_VERSION()":"ad3cb1cc","calculateAccrued(uint32,uint32,uint32)":"f66d6078","calculateInteraction(uint32,uint32)":"3c222c04","calculateMeetup(uint32)":"31074d45","initialize(address)":"c4d66de8","interactionPoints()":"5d5d8b70","maxScore()":"9a1b4b38","meetupPoints()":"38f25862","owner()":"8da5cb5b","pointsPerTenHours()":"09e0721c","proxiableUUID()":"52d1902d","renounceOwnership()":"715018a6","transferOwnership(address)":"f2fde38b","upgradeToAndCall(address,bytes)":"4f1ef286"}},"storageLayout":{"storage":[{"astId":3076,"contract":"contracts/PointsRules.sol:PointsRules","label":"interactionPoints","offset":0,"slot":"0","type":"t_uint8"},{"astId":3078,"contract":"contracts/PointsRules.sol:PointsRules","label":"meetupPoints","offset":1,"slot":"0","type":"t_uint8"},{"astId":3080,"contract":"contracts/PointsRules.sol:PointsRules","label":"pointsPerTenHours","offset":2,"slot":"0","type":"t_uint8"},{"astId":3082,"contract":"contracts/PointsRules.sol:PointsRules","label":"maxScore","offset":3,"slot":"0","type":"t_uint32"}],"types":{"t_uint32":{"encoding":"inplace","label":"uint32","numberOfBytes":"4"},"t_uint8":{"encoding":"inplace","label":"uint8","numberOfBytes":"1"}}}}}}