{"contracts/PlayerManager.sol":{"PlayerManager":{"abi":[{"inputs":[],"stateMutability":"nonpayable","type":"constructor"},{"inputs":[{"internalType":"address","name":"target","type":"address"}],"name":"AddressEmptyCode","type":"error"},{"inputs":[{"internalType":"address","name":"implementation","type":"address"}],"name":"ERC1967InvalidImplementation","type":"error"},{"inputs":[],"name":"ERC1967NonPayable","type":"error"},{"inputs":[],"name":"FailedCall","type":"error"},{"inputs":[],"name":"InvalidInitialization","type":"error"},{"inputs":[],"name":"NotInitializing","type":"error"},{"inputs":[{"internalType":"address","name":"owner","type":"address"}],"name":"OwnableInvalidOwner","type":"error"},{"inputs":[{"internalType":"address","name":"account","type":"address"}],"name":"OwnableUnauthorizedAccount","type":"error"},{"inputs":[],"name":"UUPSUnauthorizedCallContext","type":"error"},{"inputs":[{"internalType":"bytes32","name":"slot","type":"bytes32"}],"name":"UUPSUnsupportedProxiableUUID","type":"error"},{"anonymous":false,"inputs":[{"indexed":false,"internalType":"uint64","name":"version","type":"uint64"}],"name":"Initialized","type":"event"},{"anonymous":false,"inputs":[{"indexed":true,"internalType":"address","name":"previousOwner","type":"address"},{"indexed":true,"internalType":"address","name":"newOwner","type":"address"}],"name":"OwnershipTransferred","type":"event"},{"anonymous":false,"inputs":[{"indexed":true,"internalType":"address","name":"player","type":"address"},{"indexed":false,"internalType":"bytes32","name":"username","type":"bytes32"}],"name":"PlayerRegistered","type":"event"},{"anonymous":false,"inputs":[{"indexed":true,"internalType":"address","name":"implementation","type":"address"}],"name":"Upgraded","type":"event"},{"inputs":[],"name":"UPGRADE_INTERFACE_VERSION","outputs":[{"internalType":"string","name":"","type":"string"}],"stateMutability":"view","type":"function"},{"inputs":[{"internalType":"address","name":"_player","type":"address"},{"internalType":"bytes32","name":"_username","type":"bytes32"},{"internalType":"bytes32","name":"_pseudonym","type":"bytes32"}],"name":"addPlayer","outputs":[],"stateMutability":"nonpayable","type":"function"},{"inputs":[{"internalType":"address","name":"_player","type":"address"}],"name":"getPlayer","outputs":[{"internalType":"uint32","name":"score","type":"uint32"},{"internalType":"uint32","name":"lastPointAccrualTime","type":"uint32"},{"internalType":"bytes32","name":"username","type":"bytes32"},{"internalType":"bytes32","name":"pseudonym","type":"bytes32"}],"stateMutability":"view","type":"function"},{"inputs":[],"name":"getPlayerCount","outputs":[{"internalType":"uint256","name":"","type":"uint256"}],"stateMutability":"view","type":"function"},{"inputs":[],"name":"getTopPlayers","outputs":[{"internalType":"address[]","name":"","type":"address[]"},{"internalType":"uint32[]","name":"","type":"uint32[]"}],"stateMutability":"view","type":"function"},{"inputs":[{"internalType":"address","name":"_owner","type":"address"},{"internalType":"address","name":"_playerScoring","type":"address"}],"name":"initialize","outputs":[],"stateMutability":"nonpayable","type":"function"},{"inputs":[],"name":"owner","outputs":[{"internalType":"address","name":"","type":"address"}],"stateMutability":"view","type":"function"},{"inputs":[{"internalType":"uint256","name":"","type":"uint256"}],"name":"playerAddresses","outputs":[{"internalType":"address","name":"","type":"address"}],"stateMutability":"view","type":"function"},{"inputs":[],"name":"playerScoring","outputs":[{"internalType":"contract PlayerScoring","name":"","type":"address"}],"stateMutability":"view","type":"function"},{"inputs":[{"internalType":"address","name":"","type":"address"}],"name":"players","outputs":[{"internalType":"uint32","name":"lastPointAccrualTime","type":"uint32"},{"internalType":"bytes32","name":"username","type":"bytes32"},{"internalType":"bytes32","name":"pseudonym","type":"bytes32"},{"internalType":"uint32","name":"score","type":"uint32"},{"internalType":"uint8","name":"flags","type":"uint8"}],"stateMutability":"view","type":"function"},{"inputs":[],"name":"proxiableUUID","outputs":[{"internalType":"bytes32","name":"","type":"bytes32"}],"stateMutability":"view","type":"function"},{"inputs":[],"name":"renounceOwnership","outputs":[],"stateMutability":"nonpayable","type":"function"},{"inputs":[{"internalType":"address","name":"newOwner","type":"address"}],"name":"transferOwnership","outputs":[],"stateMutability":"nonpayable","type":"function"},{"inputs":[{"internalType":"address","name":"_player","type":"address"},{"internalType":"uint32","name":"_newScore","type":"uint32"}],"name":"updateScore","outputs":[],"stateMutability":"nonpayable","type":"function"},{"inputs":[{"internalType":"address","name":"newImplementation","type":"address"},{"internalType":"bytes","name":"data","type":"bytes"}],"name":"upgradeToAndCall","outputs":[],"stateMutability":"payable","type":"function"}],"evm":{"bytecode":{"linkReferences":{},"object":"60a080604052346100cc57306080527ff0c57e16840df040f15088dc2f81fe391c3923bec73e23a9662efc9c229c6a009081549060ff8260401c166100bd57506001600160401b036002600160401b031982821601610078575b6040516110d390816100d282396080518181816109a90152610a8f0152f35b6001600160401b031990911681179091556040519081527fc7f505b2f371ae2175ee4913f4499e1f2633a7b5936321eed1cdaeb6115181d290602090a1388080610059565b63f92ee8a960e01b8152600490fd5b600080fdfe6080604052600436101561001257600080fd5b6000803560e01c806315c6aee214610dd1578063485cc95514610c6b5780634f1ef28614610a1357806352d1902d146109965780635c12cd4b14610883578063715018a61461081957806388e814e6146105715780638da5cb5b1461053b578063a74aa2e814610313578063ad3cb1cc1461026d578063c2e522061461024f578063e2eb41ff146101df578063e631fb1d1461011a578063e742f554146100f15763f2fde38b146100c257600080fd5b346100ee5760203660031901126100ee576100eb6100de610e62565b6100e6610fa0565b610f2c565b80f35b80fd5b50346100ee57806003193601126100ee576002546040516001600160a01b039091168152602090f35b50346100ee5760403660031901126100ee57610134610e62565b6024358263ffffffff928383168093036101db57610150610fa0565b6002546001600160a01b039081169190823b156101d7576044849283604051958694859363e631fb1d60e01b8552169889600485015260248401525af180156101cc576101b4575b5052816020526040822090421663ffffffff1982541617905580f35b6101bd90610e99565b6101c8578238610198565b8280fd5b6040513d84823e3d90fd5b8380fd5b5080fd5b50346100ee5760203660031901126100ee5760a0906040906001600160a01b03610207610e62565b168152806020522060ff63ffffffff9182815416926001820154916003600282015491015492604051958652602086015260408501528116606084015260201c166080820152f35b50346100ee57806003193601126100ee576020600154604051908152f35b50346100ee57806003193601126100ee576040516040810181811067ffffffffffffffff8211176102fd5760405260058152602091640352e302e360dc1b602083015260405192839160208352835191826020850152815b8381106102e657505060408094508284010152601f80199101168101030190f35b8086018201518782016040015286945081016102c5565b634e487b7160e01b600052604160045260246000fd5b50346100ee5760603660031901126100ee5761032d610e62565b60243590610339610fa0565b60018060a01b038091169182845260209184835260016040862001546105015781156104c95760405163ffffffff61037082610e7d565b80421682528482019084825260036040840193604435855260608101948a865260808201948b86528a8c528b8a528460408d2093511663ffffffff198454161783555160018301555160028201550192511664ff0000000083549251871b169164ffffffffff191617179055600154680100000000000000008110156104b55790610402826001889401600155610e15565b81549060031b908388831b921b191617905560025416803b156101db578190602460405180948193639c4bcea360e01b83528960048401525af180156104aa57610475575b50907ff091d63efa6120e473710fa56e2633ee922ceee3574d66ade7a22acf26f835e091604051908152a280f35b936104a27ff091d63efa6120e473710fa56e2633ee922ceee3574d66ade7a22acf26f835e0939295610e99565b939091610447565b6040513d87823e3d90fd5b634e487b7160e01b86526041600452602486fd5b60405162461bcd60e51b815260048101849052601060248201526f496e76616c696420757365726e616d6560801b6044820152606490fd5b60405162461bcd60e51b8152600481018490526012602482015271105b1c9958591e481c9959da5cdd195c995960721b6044820152606490fd5b50346100ee57806003193601126100ee5760008051602061107e833981519152546040516001600160a01b039091168152602090f35b50346100ee57806003193601126100ee5760405161058e81610ead565b600381526060366020830137604051906105a782610ead565b600382526060366020840137825b600381106107f85750600154835b81811061065a5750509060405192839260408401604085528151809152602060608601920190835b818110610638575050508381036020850152602080845192838152019301915b818110610619575050500390f35b825163ffffffff1684528594506020938401939092019160010161060b565b82516001600160a01b03168452879650602093840193909201916001016105eb565b61066381610e15565b9054604051635c12cd4b60e01b815260039290921b1c6001600160a01b031660048201526080908181602481305afa9182156107ed5787926107a6575b5050855b600381106106b7575b50506001016105c3565b63ffffffff6106c68288610f18565b511663ffffffff8316116106dc576001016106a4565b9060025b82811161072757509061071f63ffffffff84936106fe600196610e15565b878060a01b0391549060031b1c16610716858a610f18565b52169187610f18565b5290386106ad565b60001981018181116107925763ffffffff90610762906001600160a01b0361074f828b610f18565b511661075b858b610f18565b5289610f18565b511661076e8289610f18565b52801561077e57600019016106e0565b634e487b7160e01b88526011600452602488fd5b634e487b7160e01b89526011600452602489fd5b90809250813d83116107e6575b6107bd8183610ec9565b810103126107e2576107da60206107d383610f07565b9201610f07565b5038806106a0565b8580fd5b503d6107b3565b6040513d89823e3d90fd5b808461080660019385610f18565b52846108128286610f18565b52016105b5565b50346100ee57806003193601126100ee57610832610fa0565b60008051602061107e83398151915280546001600160a01b0319811690915581906001600160a01b03167f8be0079c531659141344cd1fd0a4f28419497f9722a3daafe3b4186f6b6457e08280a380f35b50346100ee57602090816003193601126100ee576001600160a01b03806108a8610e62565b16908183528284526040832090604051946108c286610e7d565b63ffffffff938484541687528160018501549381890194855260ff600360028801549760408c01988952015488811660608c0152831c1660808a01526002541691602460405180948193630d47875d60e41b835260048301525afa95861561098a57809661094e575b505083608096511691519251936040519516855284015260408301526060820152f35b909695508187813d8311610983575b6109678183610ec9565b810103126100ee57508361097c608097610f07565b959661092b565b503d61095d565b604051903d90823e3d90fd5b50346100ee57806003193601126100ee577f00000000000000000000000000000000000000000000000000000000000000006001600160a01b03163003610a015760206040517f360894a13ba1a3210667c828492db98dca3e2076cc3735a920a3ca505d382bbc8152f35b60405163703e46dd60e11b8152600490fd5b5060403660031901126100ee57610a28610e62565b602491823567ffffffffffffffff81116101db57366023820112156101db578060040135610a5581610eeb565b93610a636040519586610ec9565b81855260209182860193368883830101116107e257818692898693018737870101526001600160a01b037f00000000000000000000000000000000000000000000000000000000000000008116308114908115610c3d575b50610a0157610ac8610fa0565b8116946040516352d1902d60e01b815283816004818a5afa869181610c0a575b50610b0557604051634c9c8ce360e01b8152600481018890528890fd5b8690887f360894a13ba1a3210667c828492db98dca3e2076cc3735a920a3ca505d382bbc91828103610bf55750843b15610bdf575080546001600160a01b031916821790556040518692917fbc7cd75a20ee27fd9adebab32041f755214dbc6bffa90cc0225b39da2e5c2d3b8480a2815115610bc15750610bb49482915190845af4903d15610bb8573d610b9881610eeb565b90610ba66040519283610ec9565b81528581943d92013e61101a565b5080f35b6060925061101a565b94505050505034610bd0575080f35b63b398979f60e01b8152600490fd5b604051634c9c8ce360e01b815260048101849052fd5b60405190632a87526960e21b82526004820152fd5b9091508481813d8311610c36575b610c228183610ec9565b81010312610c3257519038610ae8565b8680fd5b503d610c18565b9050817f360894a13ba1a3210667c828492db98dca3e2076cc3735a920a3ca505d382bbc5416141538610abb565b50346100ee5760403660031901126100ee57610c85610e62565b6024356001600160a01b03811691908290036101c8577ff0c57e16840df040f15088dc2f81fe391c3923bec73e23a9662efc9c229c6a0091825460ff8160401c16159267ffffffffffffffff821680159081610dc9575b6001149081610dbf575b159081610db6575b50610da45767ffffffffffffffff1982166001178555610d1f9184610d85575b50610d17610fd9565b6100e6610fd9565b610d27610fd9565b6bffffffffffffffffffffffff60a01b6002541617600255610d47575080f35b68ff00000000000000001981541690557fc7f505b2f371ae2175ee4913f4499e1f2633a7b5936321eed1cdaeb6115181d2602060405160018152a180f35b68ffffffffffffffffff19166801000000000000000117855538610d0e565b60405163f92ee8a960e01b8152600490fd5b90501538610cee565b303b159150610ce6565b859150610cdc565b50346100ee5760203660031901126100ee57600435906001548210156100ee576020610dfc83610e15565b905460405160039290921b1c6001600160a01b03168152f35b600154811015610e4c5760016000527fb10e2d527612073b26eecdfd717e6a320cf44b4afac2b0732d9fcbe2b7fa0cf60190600090565b634e487b7160e01b600052603260045260246000fd5b600435906001600160a01b0382168203610e7857565b600080fd5b60a0810190811067ffffffffffffffff8211176102fd57604052565b67ffffffffffffffff81116102fd57604052565b6080810190811067ffffffffffffffff8211176102fd57604052565b90601f8019910116810190811067ffffffffffffffff8211176102fd57604052565b67ffffffffffffffff81116102fd57601f01601f191660200190565b519063ffffffff82168203610e7857565b8051821015610e4c5760209160051b010190565b6001600160a01b03908116908115610f875760008051602061107e83398151915280546001600160a01b031981168417909155167f8be0079c531659141344cd1fd0a4f28419497f9722a3daafe3b4186f6b6457e0600080a3565b604051631e4fbdf760e01b815260006004820152602490fd5b60008051602061107e833981519152546001600160a01b03163303610fc157565b60405163118cdaa760e01b8152336004820152602490fd5b60ff7ff0c57e16840df040f15088dc2f81fe391c3923bec73e23a9662efc9c229c6a005460401c161561100857565b604051631afcd79f60e31b8152600490fd5b90611041575080511561102f57805190602001fd5b60405163d6bda27560e01b8152600490fd5b81511580611074575b611052575090565b604051639996b31560e01b81526001600160a01b039091166004820152602490fd5b50803b1561104a56fe9016d09d72d40fdae2fd8ceac6b6234c7706214fd39c1cd1e609a0528c199300a26469706673582212200a399f6af302c6d74d7ccf88dff1b00c9a3da1389dd8363c2bc515216ea6402864736f6c63430008160033","opcodes":"PUSH1 0xA0 DUP1 PUSH1 0x40 MSTORE CALLVALUE PUSH2 0xCC JUMPI ADDRESS PUSH1 0x80 MSTORE PUSH32 0xF0C57E16840DF040F15088DC2F81FE391C3923BEC73E23A9662EFC9C229C6A00 SWAP1 DUP2 SLOAD SWAP1 PUSH1 0xFF DUP3 PUSH1 0x40 SHR AND PUSH2 0xBD JUMPI POP PUSH1 0x1 PUSH1 0x1 PUSH1 0x40 SHL SUB PUSH1 0x2 PUSH1 0x1 PUSH1 0x40 SHL SUB NOT DUP3 DUP3 AND ADD PUSH2 0x78 JUMPI JUMPDEST PUSH1 0x40 MLOAD PUSH2 0x10D3 SWAP1 DUP2 PUSH2 0xD2 DUP3 CODECOPY PUSH1 0x80 MLOAD DUP2 DUP2 DUP2 PUSH2 0x9A9 ADD MSTORE PUSH2 0xA8F ADD MSTORE RETURN JUMPDEST PUSH1 0x1 PUSH1 0x1 PUSH1 0x40 SHL SUB NOT SWAP1 SWAP2 AND DUP2 OR SWAP1 SWAP2 SSTORE PUSH1 0x40 MLOAD SWAP1 DUP2 MSTORE PUSH32 0xC7F505B2F371AE2175EE4913F4499E1F2633A7B5936321EED1CDAEB6115181D2 SWAP1 PUSH1 0x20 SWAP1 LOG1 CODESIZE DUP1 DUP1 PUSH2 0x59 JUMP JUMPDEST PUSH4 0xF92EE8A9 PUSH1 0xE0 SHL DUP2 MSTORE PUSH1 0x4 SWAP1 REVERT JUMPDEST PUSH1 0x0 DUP1 REVERT INVALID PUSH1 0x80 PUSH1 0x40 MSTORE PUSH1 0x4 CALLDATASIZE LT ISZERO PUSH2 0x12 JUMPI PUSH1 0x0 DUP1 REVERT JUMPDEST PUSH1 0x0 DUP1 CALLDATALOAD PUSH1 0xE0 SHR DUP1 PUSH4 0x15C6AEE2 EQ PUSH2 0xDD1 JUMPI DUP1 PUSH4 0x485CC955 EQ PUSH2 0xC6B JUMPI DUP1 PUSH4 0x4F1EF286 EQ PUSH2 0xA13 JUMPI DUP1 PUSH4 0x52D1902D EQ PUSH2 0x996 JUMPI DUP1 PUSH4 0x5C12CD4B EQ PUSH2 0x883 JUMPI DUP1 PUSH4 0x715018A6 EQ PUSH2 0x819 JUMPI DUP1 PUSH4 0x88E814E6 EQ PUSH2 0x571 JUMPI DUP1 PUSH4 0x8DA5CB5B EQ PUSH2 0x53B JUMPI DUP1 PUSH4 0xA74AA2E8 EQ PUSH2 0x313 JUMPI DUP1 PUSH4 0xAD3CB1CC EQ PUSH2 0x26D JUMPI DUP1 PUSH4 0xC2E52206 EQ PUSH2 0x24F JUMPI DUP1 PUSH4 0xE2EB41FF EQ PUSH2 0x1DF JUMPI DUP1 PUSH4 0xE631FB1D EQ PUSH2 0x11A JUMPI DUP1 PUSH4 0xE742F554 EQ PUSH2 0xF1 JUMPI PUSH4 0xF2FDE38B EQ PUSH2 0xC2 JUMPI PUSH1 0x0 DUP1 REVERT JUMPDEST CALLVALUE PUSH2 0xEE JUMPI PUSH1 0x20 CALLDATASIZE PUSH1 0x3 NOT ADD SLT PUSH2 0xEE JUMPI PUSH2 0xEB PUSH2 0xDE PUSH2 0xE62 JUMP JUMPDEST PUSH2 0xE6 PUSH2 0xFA0 JUMP JUMPDEST PUSH2 0xF2C JUMP JUMPDEST DUP1 RETURN JUMPDEST DUP1 REVERT JUMPDEST POP CALLVALUE PUSH2 0xEE JUMPI DUP1 PUSH1 0x3 NOT CALLDATASIZE ADD SLT PUSH2 0xEE JUMPI PUSH1 0x2 SLOAD PUSH1 0x40 MLOAD PUSH1 0x1 PUSH1 0x1 PUSH1 0xA0 SHL SUB SWAP1 SWAP2 AND DUP2 MSTORE PUSH1 0x20 SWAP1 RETURN JUMPDEST POP CALLVALUE PUSH2 0xEE JUMPI PUSH1 0x40 CALLDATASIZE PUSH1 0x3 NOT ADD SLT PUSH2 0xEE JUMPI PUSH2 0x134 PUSH2 0xE62 JUMP JUMPDEST PUSH1 0x24 CALLDATALOAD DUP3 PUSH4 0xFFFFFFFF SWAP3 DUP4 DUP4 AND DUP1 SWAP4 SUB PUSH2 0x1DB JUMPI PUSH2 0x150 PUSH2 0xFA0 JUMP JUMPDEST PUSH1 0x2 SLOAD PUSH1 0x1 PUSH1 0x1 PUSH1 0xA0 SHL SUB SWAP1 DUP2 AND SWAP2 SWAP1 DUP3 EXTCODESIZE ISZERO PUSH2 0x1D7 JUMPI PUSH1 0x44 DUP5 SWAP3 DUP4 PUSH1 0x40 MLOAD SWAP6 DUP7 SWAP5 DUP6 SWAP4 PUSH4 0xE631FB1D PUSH1 0xE0 SHL DUP6 MSTORE AND SWAP9 DUP10 PUSH1 0x4 DUP6 ADD MSTORE PUSH1 0x24 DUP5 ADD MSTORE GAS CALL DUP1 ISZERO PUSH2 0x1CC JUMPI PUSH2 0x1B4 JUMPI JUMPDEST POP MSTORE DUP2 PUSH1 0x20 MSTORE PUSH1 0x40 DUP3 KECCAK256 SWAP1 TIMESTAMP AND PUSH4 0xFFFFFFFF NOT DUP3 SLOAD AND OR SWAP1 SSTORE DUP1 RETURN JUMPDEST PUSH2 0x1BD SWAP1 PUSH2 0xE99 JUMP JUMPDEST PUSH2 0x1C8 JUMPI DUP3 CODESIZE PUSH2 0x198 JUMP JUMPDEST DUP3 DUP1 REVERT JUMPDEST PUSH1 0x40 MLOAD RETURNDATASIZE DUP5 DUP3 RETURNDATACOPY RETURNDATASIZE SWAP1 REVERT JUMPDEST DUP4 DUP1 REVERT JUMPDEST POP DUP1 REVERT JUMPDEST POP CALLVALUE PUSH2 0xEE JUMPI PUSH1 0x20 CALLDATASIZE PUSH1 0x3 NOT ADD SLT PUSH2 0xEE JUMPI PUSH1 0xA0 SWAP1 PUSH1 0x40 SWAP1 PUSH1 0x1 PUSH1 0x1 PUSH1 0xA0 SHL SUB PUSH2 0x207 PUSH2 0xE62 JUMP JUMPDEST AND DUP2 MSTORE DUP1 PUSH1 0x20 MSTORE KECCAK256 PUSH1 0xFF PUSH4 0xFFFFFFFF SWAP2 DUP3 DUP2 SLOAD AND SWAP3 PUSH1 0x1 DUP3 ADD SLOAD SWAP2 PUSH1 0x3 PUSH1 0x2 DUP3 ADD SLOAD SWAP2 ADD SLOAD SWAP3 PUSH1 0x40 MLOAD SWAP6 DUP7 MSTORE PUSH1 0x20 DUP7 ADD MSTORE PUSH1 0x40 DUP6 ADD MSTORE DUP2 AND PUSH1 0x60 DUP5 ADD MSTORE PUSH1 0x20 SHR AND PUSH1 0x80 DUP3 ADD MSTORE RETURN JUMPDEST POP CALLVALUE PUSH2 0xEE JUMPI DUP1 PUSH1 0x3 NOT CALLDATASIZE ADD SLT PUSH2 0xEE JUMPI PUSH1 0x20 PUSH1 0x1 SLOAD PUSH1 0x40 MLOAD SWAP1 DUP2 MSTORE RETURN JUMPDEST POP CALLVALUE PUSH2 0xEE JUMPI DUP1 PUSH1 0x3 NOT CALLDATASIZE ADD SLT PUSH2 0xEE JUMPI PUSH1 0x40 MLOAD PUSH1 0x40 DUP2 ADD DUP2 DUP2 LT PUSH8 0xFFFFFFFFFFFFFFFF DUP3 GT OR PUSH2 0x2FD JUMPI PUSH1 0x40 MSTORE PUSH1 0x5 DUP2 MSTORE PUSH1 0x20 SWAP2 PUSH5 0x352E302E3 PUSH1 0xDC SHL PUSH1 0x20 DUP4 ADD MSTORE PUSH1 0x40 MLOAD SWAP3 DUP4 SWAP2 PUSH1 0x20 DUP4 MSTORE DUP4 MLOAD SWAP2 DUP3 PUSH1 0x20 DUP6 ADD MSTORE DUP2 JUMPDEST DUP4 DUP2 LT PUSH2 0x2E6 JUMPI POP POP PUSH1 0x40 DUP1 SWAP5 POP DUP3 DUP5 ADD ADD MSTORE PUSH1 0x1F DUP1 NOT SWAP2 ADD AND DUP2 ADD SUB ADD SWAP1 RETURN JUMPDEST DUP1 DUP7 ADD DUP3 ADD MLOAD DUP8 DUP3 ADD PUSH1 0x40 ADD MSTORE DUP7 SWAP5 POP DUP2 ADD PUSH2 0x2C5 JUMP JUMPDEST PUSH4 0x4E487B71 PUSH1 0xE0 SHL PUSH1 0x0 MSTORE PUSH1 0x41 PUSH1 0x4 MSTORE PUSH1 0x24 PUSH1 0x0 REVERT JUMPDEST POP CALLVALUE PUSH2 0xEE JUMPI PUSH1 0x60 CALLDATASIZE PUSH1 0x3 NOT ADD SLT PUSH2 0xEE JUMPI PUSH2 0x32D PUSH2 0xE62 JUMP JUMPDEST PUSH1 0x24 CALLDATALOAD SWAP1 PUSH2 0x339 PUSH2 0xFA0 JUMP JUMPDEST PUSH1 0x1 DUP1 PUSH1 0xA0 SHL SUB DUP1 SWAP2 AND SWAP2 DUP3 DUP5 MSTORE PUSH1 0x20 SWAP2 DUP5 DUP4 MSTORE PUSH1 0x1 PUSH1 0x40 DUP7 KECCAK256 ADD SLOAD PUSH2 0x501 JUMPI DUP2 ISZERO PUSH2 0x4C9 JUMPI PUSH1 0x40 MLOAD PUSH4 0xFFFFFFFF PUSH2 0x370 DUP3 PUSH2 0xE7D JUMP JUMPDEST DUP1 TIMESTAMP AND DUP3 MSTORE DUP5 DUP3 ADD SWAP1 DUP5 DUP3 MSTORE PUSH1 0x3 PUSH1 0x40 DUP5 ADD SWAP4 PUSH1 0x44 CALLDATALOAD DUP6 MSTORE PUSH1 0x60 DUP2 ADD SWAP5 DUP11 DUP7 MSTORE PUSH1 0x80 DUP3 ADD SWAP5 DUP12 DUP7 MSTORE DUP11 DUP13 MSTORE DUP12 DUP11 MSTORE DUP5 PUSH1 0x40 DUP14 KECCAK256 SWAP4 MLOAD AND PUSH4 0xFFFFFFFF NOT DUP5 SLOAD AND OR DUP4 SSTORE MLOAD PUSH1 0x1 DUP4 ADD SSTORE MLOAD PUSH1 0x2 DUP3 ADD SSTORE ADD SWAP3 MLOAD AND PUSH5 0xFF00000000 DUP4 SLOAD SWAP3 MLOAD DUP8 SHL AND SWAP2 PUSH5 0xFFFFFFFFFF NOT AND OR OR SWAP1 SSTORE PUSH1 0x1 SLOAD PUSH9 0x10000000000000000 DUP2 LT ISZERO PUSH2 0x4B5 JUMPI SWAP1 PUSH2 0x402 DUP3 PUSH1 0x1 DUP9 SWAP5 ADD PUSH1 0x1 SSTORE PUSH2 0xE15 JUMP JUMPDEST DUP2 SLOAD SWAP1 PUSH1 0x3 SHL SWAP1 DUP4 DUP9 DUP4 SHL SWAP3 SHL NOT AND OR SWAP1 SSTORE PUSH1 0x2 SLOAD AND DUP1 EXTCODESIZE ISZERO PUSH2 0x1DB JUMPI DUP2 SWAP1 PUSH1 0x24 PUSH1 0x40 MLOAD DUP1 SWAP5 DUP2 SWAP4 PUSH4 0x9C4BCEA3 PUSH1 0xE0 SHL DUP4 MSTORE DUP10 PUSH1 0x4 DUP5 ADD MSTORE GAS CALL DUP1 ISZERO PUSH2 0x4AA JUMPI PUSH2 0x475 JUMPI JUMPDEST POP SWAP1 PUSH32 0xF091D63EFA6120E473710FA56E2633EE922CEEE3574D66ADE7A22ACF26F835E0 SWAP2 PUSH1 0x40 MLOAD SWAP1 DUP2 MSTORE LOG2 DUP1 RETURN JUMPDEST SWAP4 PUSH2 0x4A2 PUSH32 0xF091D63EFA6120E473710FA56E2633EE922CEEE3574D66ADE7A22ACF26F835E0 SWAP4 SWAP3 SWAP6 PUSH2 0xE99 JUMP JUMPDEST SWAP4 SWAP1 SWAP2 PUSH2 0x447 JUMP JUMPDEST PUSH1 0x40 MLOAD RETURNDATASIZE DUP8 DUP3 RETURNDATACOPY RETURNDATASIZE SWAP1 REVERT JUMPDEST PUSH4 0x4E487B71 PUSH1 0xE0 SHL DUP7 MSTORE PUSH1 0x41 PUSH1 0x4 MSTORE PUSH1 0x24 DUP7 REVERT JUMPDEST PUSH1 0x40 MLOAD PUSH3 0x461BCD PUSH1 0xE5 SHL DUP2 MSTORE PUSH1 0x4 DUP2 ADD DUP5 SWAP1 MSTORE PUSH1 0x10 PUSH1 0x24 DUP3 ADD MSTORE PUSH16 0x496E76616C696420757365726E616D65 PUSH1 0x80 SHL PUSH1 0x44 DUP3 ADD MSTORE PUSH1 0x64 SWAP1 REVERT JUMPDEST PUSH1 0x40 MLOAD PUSH3 0x461BCD PUSH1 0xE5 SHL DUP2 MSTORE PUSH1 0x4 DUP2 ADD DUP5 SWAP1 MSTORE PUSH1 0x12 PUSH1 0x24 DUP3 ADD MSTORE PUSH18 0x105B1C9958591E481C9959DA5CDD195C9959 PUSH1 0x72 SHL PUSH1 0x44 DUP3 ADD MSTORE PUSH1 0x64 SWAP1 REVERT JUMPDEST POP CALLVALUE PUSH2 0xEE JUMPI DUP1 PUSH1 0x3 NOT CALLDATASIZE ADD SLT PUSH2 0xEE JUMPI PUSH1 0x0 DUP1 MLOAD PUSH1 0x20 PUSH2 0x107E DUP4 CODECOPY DUP2 MLOAD SWAP2 MSTORE SLOAD PUSH1 0x40 MLOAD PUSH1 0x1 PUSH1 0x1 PUSH1 0xA0 SHL SUB SWAP1 SWAP2 AND DUP2 MSTORE PUSH1 0x20 SWAP1 RETURN JUMPDEST POP CALLVALUE PUSH2 0xEE JUMPI DUP1 PUSH1 0x3 NOT CALLDATASIZE ADD SLT PUSH2 0xEE JUMPI PUSH1 0x40 MLOAD PUSH2 0x58E DUP2 PUSH2 0xEAD JUMP JUMPDEST PUSH1 0x3 DUP2 MSTORE PUSH1 0x60 CALLDATASIZE PUSH1 0x20 DUP4 ADD CALLDATACOPY PUSH1 0x40 MLOAD SWAP1 PUSH2 0x5A7 DUP3 PUSH2 0xEAD JUMP JUMPDEST PUSH1 0x3 DUP3 MSTORE PUSH1 0x60 CALLDATASIZE PUSH1 0x20 DUP5 ADD CALLDATACOPY DUP3 JUMPDEST PUSH1 0x3 DUP2 LT PUSH2 0x7F8 JUMPI POP PUSH1 0x1 SLOAD DUP4 JUMPDEST DUP2 DUP2 LT PUSH2 0x65A JUMPI POP POP SWAP1 PUSH1 0x40 MLOAD SWAP3 DUP4 SWAP3 PUSH1 0x40 DUP5 ADD PUSH1 0x40 DUP6 MSTORE DUP2 MLOAD DUP1 SWAP2 MSTORE PUSH1 0x20 PUSH1 0x60 DUP7 ADD SWAP3 ADD SWAP1 DUP4 JUMPDEST DUP2 DUP2 LT PUSH2 0x638 JUMPI POP POP POP DUP4 DUP2 SUB PUSH1 0x20 DUP6 ADD MSTORE PUSH1 0x20 DUP1 DUP5 MLOAD SWAP3 DUP4 DUP2 MSTORE ADD SWAP4 ADD SWAP2 JUMPDEST DUP2 DUP2 LT PUSH2 0x619 JUMPI POP POP POP SUB SWAP1 RETURN JUMPDEST DUP3 MLOAD PUSH4 0xFFFFFFFF AND DUP5 MSTORE DUP6 SWAP5 POP PUSH1 0x20 SWAP4 DUP5 ADD SWAP4 SWAP1 SWAP3 ADD SWAP2 PUSH1 0x1 ADD PUSH2 0x60B JUMP JUMPDEST DUP3 MLOAD PUSH1 0x1 PUSH1 0x1 PUSH1 0xA0 SHL SUB AND DUP5 MSTORE DUP8 SWAP7 POP PUSH1 0x20 SWAP4 DUP5 ADD SWAP4 SWAP1 SWAP3 ADD SWAP2 PUSH1 0x1 ADD PUSH2 0x5EB JUMP JUMPDEST PUSH2 0x663 DUP2 PUSH2 0xE15 JUMP JUMPDEST SWAP1 SLOAD PUSH1 0x40 MLOAD PUSH4 0x5C12CD4B PUSH1 0xE0 SHL DUP2 MSTORE PUSH1 0x3 SWAP3 SWAP1 SWAP3 SHL SHR PUSH1 0x1 PUSH1 0x1 PUSH1 0xA0 SHL SUB AND PUSH1 0x4 DUP3 ADD MSTORE PUSH1 0x80 SWAP1 DUP2 DUP2 PUSH1 0x24 DUP2 ADDRESS GAS STATICCALL SWAP2 DUP3 ISZERO PUSH2 0x7ED JUMPI DUP8 SWAP3 PUSH2 0x7A6 JUMPI JUMPDEST POP POP DUP6 JUMPDEST PUSH1 0x3 DUP2 LT PUSH2 0x6B7 JUMPI JUMPDEST POP POP PUSH1 0x1 ADD PUSH2 0x5C3 JUMP JUMPDEST PUSH4 0xFFFFFFFF PUSH2 0x6C6 DUP3 DUP9 PUSH2 0xF18 JUMP JUMPDEST MLOAD AND PUSH4 0xFFFFFFFF DUP4 AND GT PUSH2 0x6DC JUMPI PUSH1 0x1 ADD PUSH2 0x6A4 JUMP JUMPDEST SWAP1 PUSH1 0x2 JUMPDEST DUP3 DUP2 GT PUSH2 0x727 JUMPI POP SWAP1 PUSH2 0x71F PUSH4 0xFFFFFFFF DUP5 SWAP4 PUSH2 0x6FE PUSH1 0x1 SWAP7 PUSH2 0xE15 JUMP JUMPDEST DUP8 DUP1 PUSH1 0xA0 SHL SUB SWAP2 SLOAD SWAP1 PUSH1 0x3 SHL SHR AND PUSH2 0x716 DUP6 DUP11 PUSH2 0xF18 JUMP JUMPDEST MSTORE AND SWAP2 DUP8 PUSH2 0xF18 JUMP JUMPDEST MSTORE SWAP1 CODESIZE PUSH2 0x6AD JUMP JUMPDEST PUSH1 0x0 NOT DUP2 ADD DUP2 DUP2 GT PUSH2 0x792 JUMPI PUSH4 0xFFFFFFFF SWAP1 PUSH2 0x762 SWAP1 PUSH1 0x1 PUSH1 0x1 PUSH1 0xA0 SHL SUB PUSH2 0x74F DUP3 DUP12 PUSH2 0xF18 JUMP JUMPDEST MLOAD AND PUSH2 0x75B DUP6 DUP12 PUSH2 0xF18 JUMP JUMPDEST MSTORE DUP10 PUSH2 0xF18 JUMP JUMPDEST MLOAD AND PUSH2 0x76E DUP3 DUP10 PUSH2 0xF18 JUMP JUMPDEST MSTORE DUP1 ISZERO PUSH2 0x77E JUMPI PUSH1 0x0 NOT ADD PUSH2 0x6E0 JUMP JUMPDEST PUSH4 0x4E487B71 PUSH1 0xE0 SHL DUP9 MSTORE PUSH1 0x11 PUSH1 0x4 MSTORE PUSH1 0x24 DUP9 REVERT JUMPDEST PUSH4 0x4E487B71 PUSH1 0xE0 SHL DUP10 MSTORE PUSH1 0x11 PUSH1 0x4 MSTORE PUSH1 0x24 DUP10 REVERT JUMPDEST SWAP1 DUP1 SWAP3 POP DUP2 RETURNDATASIZE DUP4 GT PUSH2 0x7E6 JUMPI JUMPDEST PUSH2 0x7BD DUP2 DUP4 PUSH2 0xEC9 JUMP JUMPDEST DUP2 ADD SUB SLT PUSH2 0x7E2 JUMPI PUSH2 0x7DA PUSH1 0x20 PUSH2 0x7D3 DUP4 PUSH2 0xF07 JUMP JUMPDEST SWAP3 ADD PUSH2 0xF07 JUMP JUMPDEST POP CODESIZE DUP1 PUSH2 0x6A0 JUMP JUMPDEST DUP6 DUP1 REVERT JUMPDEST POP RETURNDATASIZE PUSH2 0x7B3 JUMP JUMPDEST PUSH1 0x40 MLOAD RETURNDATASIZE DUP10 DUP3 RETURNDATACOPY RETURNDATASIZE SWAP1 REVERT JUMPDEST DUP1 DUP5 PUSH2 0x806 PUSH1 0x1 SWAP4 DUP6 PUSH2 0xF18 JUMP JUMPDEST MSTORE DUP5 PUSH2 0x812 DUP3 DUP7 PUSH2 0xF18 JUMP JUMPDEST MSTORE ADD PUSH2 0x5B5 JUMP JUMPDEST POP CALLVALUE PUSH2 0xEE JUMPI DUP1 PUSH1 0x3 NOT CALLDATASIZE ADD SLT PUSH2 0xEE JUMPI PUSH2 0x832 PUSH2 0xFA0 JUMP JUMPDEST PUSH1 0x0 DUP1 MLOAD PUSH1 0x20 PUSH2 0x107E DUP4 CODECOPY DUP2 MLOAD SWAP2 MSTORE DUP1 SLOAD PUSH1 0x1 PUSH1 0x1 PUSH1 0xA0 SHL SUB NOT DUP2 AND SWAP1 SWAP2 SSTORE DUP2 SWAP1 PUSH1 0x1 PUSH1 0x1 PUSH1 0xA0 SHL SUB AND PUSH32 0x8BE0079C531659141344CD1FD0A4F28419497F9722A3DAAFE3B4186F6B6457E0 DUP3 DUP1 LOG3 DUP1 RETURN JUMPDEST POP CALLVALUE PUSH2 0xEE JUMPI PUSH1 0x20 SWAP1 DUP2 PUSH1 0x3 NOT CALLDATASIZE ADD SLT PUSH2 0xEE JUMPI PUSH1 0x1 PUSH1 0x1 PUSH1 0xA0 SHL SUB DUP1 PUSH2 0x8A8 PUSH2 0xE62 JUMP JUMPDEST AND SWAP1 DUP2 DUP4 MSTORE DUP3 DUP5 MSTORE PUSH1 0x40 DUP4 KECCAK256 SWAP1 PUSH1 0x40 MLOAD SWAP5 PUSH2 0x8C2 DUP7 PUSH2 0xE7D JUMP JUMPDEST PUSH4 0xFFFFFFFF SWAP4 DUP5 DUP5 SLOAD AND DUP8 MSTORE DUP2 PUSH1 0x1 DUP6 ADD SLOAD SWAP4 DUP2 DUP10 ADD SWAP5 DUP6 MSTORE PUSH1 0xFF PUSH1 0x3 PUSH1 0x2 DUP9 ADD SLOAD SWAP8 PUSH1 0x40 DUP13 ADD SWAP9 DUP10 MSTORE ADD SLOAD DUP9 DUP2 AND PUSH1 0x60 DUP13 ADD MSTORE DUP4 SHR AND PUSH1 0x80 DUP11 ADD MSTORE PUSH1 0x2 SLOAD AND SWAP2 PUSH1 0x24 PUSH1 0x40 MLOAD DUP1 SWAP5 DUP2 SWAP4 PUSH4 0xD47875D PUSH1 0xE4 SHL DUP4 MSTORE PUSH1 0x4 DUP4 ADD MSTORE GAS STATICCALL SWAP6 DUP7 ISZERO PUSH2 0x98A JUMPI DUP1 SWAP7 PUSH2 0x94E JUMPI JUMPDEST POP POP DUP4 PUSH1 0x80 SWAP7 MLOAD AND SWAP2 MLOAD SWAP3 MLOAD SWAP4 PUSH1 0x40 MLOAD SWAP6 AND DUP6 MSTORE DUP5 ADD MSTORE PUSH1 0x40 DUP4 ADD MSTORE PUSH1 0x60 DUP3 ADD MSTORE RETURN JUMPDEST SWAP1 SWAP7 SWAP6 POP DUP2 DUP8 DUP2 RETURNDATASIZE DUP4 GT PUSH2 0x983 JUMPI JUMPDEST PUSH2 0x967 DUP2 DUP4 PUSH2 0xEC9 JUMP JUMPDEST DUP2 ADD SUB SLT PUSH2 0xEE JUMPI POP DUP4 PUSH2 0x97C PUSH1 0x80 SWAP8 PUSH2 0xF07 JUMP JUMPDEST SWAP6 SWAP7 PUSH2 0x92B JUMP JUMPDEST POP RETURNDATASIZE PUSH2 0x95D JUMP JUMPDEST PUSH1 0x40 MLOAD SWAP1 RETURNDATASIZE SWAP1 DUP3 RETURNDATACOPY RETURNDATASIZE SWAP1 REVERT JUMPDEST POP CALLVALUE PUSH2 0xEE JUMPI DUP1 PUSH1 0x3 NOT CALLDATASIZE ADD SLT PUSH2 0xEE JUMPI PUSH32 0x0 PUSH1 0x1 PUSH1 0x1 PUSH1 0xA0 SHL SUB AND ADDRESS SUB PUSH2 0xA01 JUMPI PUSH1 0x20 PUSH1 0x40 MLOAD PUSH32 0x360894A13BA1A3210667C828492DB98DCA3E2076CC3735A920A3CA505D382BBC DUP2 MSTORE RETURN JUMPDEST PUSH1 0x40 MLOAD PUSH4 0x703E46DD PUSH1 0xE1 SHL DUP2 MSTORE PUSH1 0x4 SWAP1 REVERT JUMPDEST POP PUSH1 0x40 CALLDATASIZE PUSH1 0x3 NOT ADD SLT PUSH2 0xEE JUMPI PUSH2 0xA28 PUSH2 0xE62 JUMP JUMPDEST PUSH1 0x24 SWAP2 DUP3 CALLDATALOAD PUSH8 0xFFFFFFFFFFFFFFFF DUP2 GT PUSH2 0x1DB JUMPI CALLDATASIZE PUSH1 0x23 DUP3 ADD SLT ISZERO PUSH2 0x1DB JUMPI DUP1 PUSH1 0x4 ADD CALLDATALOAD PUSH2 0xA55 DUP2 PUSH2 0xEEB JUMP JUMPDEST SWAP4 PUSH2 0xA63 PUSH1 0x40 MLOAD SWAP6 DUP7 PUSH2 0xEC9 JUMP JUMPDEST DUP2 DUP6 MSTORE PUSH1 0x20 SWAP2 DUP3 DUP7 ADD SWAP4 CALLDATASIZE DUP9 DUP4 DUP4 ADD ADD GT PUSH2 0x7E2 JUMPI DUP2 DUP7 SWAP3 DUP10 DUP7 SWAP4 ADD DUP8 CALLDATACOPY DUP8 ADD ADD MSTORE PUSH1 0x1 PUSH1 0x1 PUSH1 0xA0 SHL SUB PUSH32 0x0 DUP2 AND ADDRESS DUP2 EQ SWAP1 DUP2 ISZERO PUSH2 0xC3D JUMPI JUMPDEST POP PUSH2 0xA01 JUMPI PUSH2 0xAC8 PUSH2 0xFA0 JUMP JUMPDEST DUP2 AND SWAP5 PUSH1 0x40 MLOAD PUSH4 0x52D1902D PUSH1 0xE0 SHL DUP2 MSTORE DUP4 DUP2 PUSH1 0x4 DUP2 DUP11 GAS STATICCALL DUP7 SWAP2 DUP2 PUSH2 0xC0A JUMPI JUMPDEST POP PUSH2 0xB05 JUMPI PUSH1 0x40 MLOAD PUSH4 0x4C9C8CE3 PUSH1 0xE0 SHL DUP2 MSTORE PUSH1 0x4 DUP2 ADD DUP9 SWAP1 MSTORE DUP9 SWAP1 REVERT JUMPDEST DUP7 SWAP1 DUP9 PUSH32 0x360894A13BA1A3210667C828492DB98DCA3E2076CC3735A920A3CA505D382BBC SWAP2 DUP3 DUP2 SUB PUSH2 0xBF5 JUMPI POP DUP5 EXTCODESIZE ISZERO PUSH2 0xBDF JUMPI POP DUP1 SLOAD PUSH1 0x1 PUSH1 0x1 PUSH1 0xA0 SHL SUB NOT AND DUP3 OR SWAP1 SSTORE PUSH1 0x40 MLOAD DUP7 SWAP3 SWAP2 PUSH32 0xBC7CD75A20EE27FD9ADEBAB32041F755214DBC6BFFA90CC0225B39DA2E5C2D3B DUP5 DUP1 LOG2 DUP2 MLOAD ISZERO PUSH2 0xBC1 JUMPI POP PUSH2 0xBB4 SWAP5 DUP3 SWAP2 MLOAD SWAP1 DUP5 GAS DELEGATECALL SWAP1 RETURNDATASIZE ISZERO PUSH2 0xBB8 JUMPI RETURNDATASIZE PUSH2 0xB98 DUP2 PUSH2 0xEEB JUMP JUMPDEST SWAP1 PUSH2 0xBA6 PUSH1 0x40 MLOAD SWAP3 DUP4 PUSH2 0xEC9 JUMP JUMPDEST DUP2 MSTORE DUP6 DUP2 SWAP5 RETURNDATASIZE SWAP3 ADD RETURNDATACOPY PUSH2 0x101A JUMP JUMPDEST POP DUP1 RETURN JUMPDEST PUSH1 0x60 SWAP3 POP PUSH2 0x101A JUMP JUMPDEST SWAP5 POP POP POP POP POP CALLVALUE PUSH2 0xBD0 JUMPI POP DUP1 RETURN JUMPDEST PUSH4 0xB398979F PUSH1 0xE0 SHL DUP2 MSTORE PUSH1 0x4 SWAP1 REVERT JUMPDEST PUSH1 0x40 MLOAD PUSH4 0x4C9C8CE3 PUSH1 0xE0 SHL DUP2 MSTORE PUSH1 0x4 DUP2 ADD DUP5 SWAP1 MSTORE REVERT JUMPDEST PUSH1 0x40 MLOAD SWAP1 PUSH4 0x2A875269 PUSH1 0xE2 SHL DUP3 MSTORE PUSH1 0x4 DUP3 ADD MSTORE REVERT JUMPDEST SWAP1 SWAP2 POP DUP5 DUP2 DUP2 RETURNDATASIZE DUP4 GT PUSH2 0xC36 JUMPI JUMPDEST PUSH2 0xC22 DUP2 DUP4 PUSH2 0xEC9 JUMP JUMPDEST DUP2 ADD SUB SLT PUSH2 0xC32 JUMPI MLOAD SWAP1 CODESIZE PUSH2 0xAE8 JUMP JUMPDEST DUP7 DUP1 REVERT JUMPDEST POP RETURNDATASIZE PUSH2 0xC18 JUMP JUMPDEST SWAP1 POP DUP2 PUSH32 0x360894A13BA1A3210667C828492DB98DCA3E2076CC3735A920A3CA505D382BBC SLOAD AND EQ ISZERO CODESIZE PUSH2 0xABB JUMP JUMPDEST POP CALLVALUE PUSH2 0xEE JUMPI PUSH1 0x40 CALLDATASIZE PUSH1 0x3 NOT ADD SLT PUSH2 0xEE JUMPI PUSH2 0xC85 PUSH2 0xE62 JUMP JUMPDEST PUSH1 0x24 CALLDATALOAD PUSH1 0x1 PUSH1 0x1 PUSH1 0xA0 SHL SUB DUP2 AND SWAP2 SWAP1 DUP3 SWAP1 SUB PUSH2 0x1C8 JUMPI PUSH32 0xF0C57E16840DF040F15088DC2F81FE391C3923BEC73E23A9662EFC9C229C6A00 SWAP2 DUP3 SLOAD PUSH1 0xFF DUP2 PUSH1 0x40 SHR AND ISZERO SWAP3 PUSH8 0xFFFFFFFFFFFFFFFF DUP3 AND DUP1 ISZERO SWAP1 DUP2 PUSH2 0xDC9 JUMPI JUMPDEST PUSH1 0x1 EQ SWAP1 DUP2 PUSH2 0xDBF JUMPI JUMPDEST ISZERO SWAP1 DUP2 PUSH2 0xDB6 JUMPI JUMPDEST POP PUSH2 0xDA4 JUMPI PUSH8 0xFFFFFFFFFFFFFFFF NOT DUP3 AND PUSH1 0x1 OR DUP6 SSTORE PUSH2 0xD1F SWAP2 DUP5 PUSH2 0xD85 JUMPI JUMPDEST POP PUSH2 0xD17 PUSH2 0xFD9 JUMP JUMPDEST PUSH2 0xE6 PUSH2 0xFD9 JUMP JUMPDEST PUSH2 0xD27 PUSH2 0xFD9 JUMP JUMPDEST PUSH12 0xFFFFFFFFFFFFFFFFFFFFFFFF PUSH1 0xA0 SHL PUSH1 0x2 SLOAD AND OR PUSH1 0x2 SSTORE PUSH2 0xD47 JUMPI POP DUP1 RETURN JUMPDEST PUSH9 0xFF0000000000000000 NOT DUP2 SLOAD AND SWAP1 SSTORE PUSH32 0xC7F505B2F371AE2175EE4913F4499E1F2633A7B5936321EED1CDAEB6115181D2 PUSH1 0x20 PUSH1 0x40 MLOAD PUSH1 0x1 DUP2 MSTORE LOG1 DUP1 RETURN JUMPDEST PUSH9 0xFFFFFFFFFFFFFFFFFF NOT AND PUSH9 0x10000000000000001 OR DUP6 SSTORE CODESIZE PUSH2 0xD0E JUMP JUMPDEST PUSH1 0x40 MLOAD PUSH4 0xF92EE8A9 PUSH1 0xE0 SHL DUP2 MSTORE PUSH1 0x4 SWAP1 REVERT JUMPDEST SWAP1 POP ISZERO CODESIZE PUSH2 0xCEE JUMP JUMPDEST ADDRESS EXTCODESIZE ISZERO SWAP2 POP PUSH2 0xCE6 JUMP JUMPDEST DUP6 SWAP2 POP PUSH2 0xCDC JUMP JUMPDEST POP CALLVALUE PUSH2 0xEE JUMPI PUSH1 0x20 CALLDATASIZE PUSH1 0x3 NOT ADD SLT PUSH2 0xEE JUMPI PUSH1 0x4 CALLDATALOAD SWAP1 PUSH1 0x1 SLOAD DUP3 LT ISZERO PUSH2 0xEE JUMPI PUSH1 0x20 PUSH2 0xDFC DUP4 PUSH2 0xE15 JUMP JUMPDEST SWAP1 SLOAD PUSH1 0x40 MLOAD PUSH1 0x3 SWAP3 SWAP1 SWAP3 SHL SHR PUSH1 0x1 PUSH1 0x1 PUSH1 0xA0 SHL SUB AND DUP2 MSTORE RETURN JUMPDEST PUSH1 0x1 SLOAD DUP2 LT ISZERO PUSH2 0xE4C JUMPI PUSH1 0x1 PUSH1 0x0 MSTORE PUSH32 0xB10E2D527612073B26EECDFD717E6A320CF44B4AFAC2B0732D9FCBE2B7FA0CF6 ADD SWAP1 PUSH1 0x0 SWAP1 JUMP JUMPDEST PUSH4 0x4E487B71 PUSH1 0xE0 SHL PUSH1 0x0 MSTORE PUSH1 0x32 PUSH1 0x4 MSTORE PUSH1 0x24 PUSH1 0x0 REVERT JUMPDEST PUSH1 0x4 CALLDATALOAD SWAP1 PUSH1 0x1 PUSH1 0x1 PUSH1 0xA0 SHL SUB DUP3 AND DUP3 SUB PUSH2 0xE78 JUMPI JUMP JUMPDEST PUSH1 0x0 DUP1 REVERT JUMPDEST PUSH1 0xA0 DUP2 ADD SWAP1 DUP2 LT PUSH8 0xFFFFFFFFFFFFFFFF DUP3 GT OR PUSH2 0x2FD JUMPI PUSH1 0x40 MSTORE JUMP JUMPDEST PUSH8 0xFFFFFFFFFFFFFFFF DUP2 GT PUSH2 0x2FD JUMPI PUSH1 0x40 MSTORE JUMP JUMPDEST PUSH1 0x80 DUP2 ADD SWAP1 DUP2 LT PUSH8 0xFFFFFFFFFFFFFFFF DUP3 GT OR PUSH2 0x2FD JUMPI PUSH1 0x40 MSTORE JUMP JUMPDEST SWAP1 PUSH1 0x1F DUP1 NOT SWAP2 ADD AND DUP2 ADD SWAP1 DUP2 LT PUSH8 0xFFFFFFFFFFFFFFFF DUP3 GT OR PUSH2 0x2FD JUMPI PUSH1 0x40 MSTORE JUMP JUMPDEST PUSH8 0xFFFFFFFFFFFFFFFF DUP2 GT PUSH2 0x2FD JUMPI PUSH1 0x1F ADD PUSH1 0x1F NOT AND PUSH1 0x20 ADD SWAP1 JUMP JUMPDEST MLOAD SWAP1 PUSH4 0xFFFFFFFF DUP3 AND DUP3 SUB PUSH2 0xE78 JUMPI JUMP JUMPDEST DUP1 MLOAD DUP3 LT ISZERO PUSH2 0xE4C JUMPI PUSH1 0x20 SWAP2 PUSH1 0x5 SHL ADD ADD SWAP1 JUMP JUMPDEST PUSH1 0x1 PUSH1 0x1 PUSH1 0xA0 SHL SUB SWAP1 DUP2 AND SWAP1 DUP2 ISZERO PUSH2 0xF87 JUMPI PUSH1 0x0 DUP1 MLOAD PUSH1 0x20 PUSH2 0x107E DUP4 CODECOPY DUP2 MLOAD SWAP2 MSTORE DUP1 SLOAD PUSH1 0x1 PUSH1 0x1 PUSH1 0xA0 SHL SUB NOT DUP2 AND DUP5 OR SWAP1 SWAP2 SSTORE AND PUSH32 0x8BE0079C531659141344CD1FD0A4F28419497F9722A3DAAFE3B4186F6B6457E0 PUSH1 0x0 DUP1 LOG3 JUMP JUMPDEST PUSH1 0x40 MLOAD PUSH4 0x1E4FBDF7 PUSH1 0xE0 SHL DUP2 MSTORE PUSH1 0x0 PUSH1 0x4 DUP3 ADD MSTORE PUSH1 0x24 SWAP1 REVERT JUMPDEST PUSH1 0x0 DUP1 MLOAD PUSH1 0x20 PUSH2 0x107E DUP4 CODECOPY DUP2 MLOAD SWAP2 MSTORE SLOAD PUSH1 0x1 PUSH1 0x1 PUSH1 0xA0 SHL SUB AND CALLER SUB PUSH2 0xFC1 JUMPI JUMP JUMPDEST PUSH1 0x40 MLOAD PUSH4 0x118CDAA7 PUSH1 0xE0 SHL DUP2 MSTORE CALLER PUSH1 0x4 DUP3 ADD MSTORE PUSH1 0x24 SWAP1 REVERT JUMPDEST PUSH1 0xFF PUSH32 0xF0C57E16840DF040F15088DC2F81FE391C3923BEC73E23A9662EFC9C229C6A00 SLOAD PUSH1 0x40 SHR AND ISZERO PUSH2 0x1008 JUMPI JUMP JUMPDEST PUSH1 0x40 MLOAD PUSH4 0x1AFCD79F PUSH1 0xE3 SHL DUP2 MSTORE PUSH1 0x4 SWAP1 REVERT JUMPDEST SWAP1 PUSH2 0x1041 JUMPI POP DUP1 MLOAD ISZERO PUSH2 0x102F JUMPI DUP1 MLOAD SWAP1 PUSH1 0x20 ADD REVERT JUMPDEST PUSH1 0x40 MLOAD PUSH4 0xD6BDA275 PUSH1 0xE0 SHL DUP2 MSTORE PUSH1 0x4 SWAP1 REVERT JUMPDEST DUP2 MLOAD ISZERO DUP1 PUSH2 0x1074 JUMPI JUMPDEST PUSH2 0x1052 JUMPI POP SWAP1 JUMP JUMPDEST PUSH1 0x40 MLOAD PUSH4 0x9996B315 PUSH1 0xE0 SHL DUP2 MSTORE PUSH1 0x1 PUSH1 0x1 PUSH1 0xA0 SHL SUB SWAP1 SWAP2 AND PUSH1 0x4 DUP3 ADD MSTORE PUSH1 0x24 SWAP1 REVERT JUMPDEST POP DUP1 EXTCODESIZE ISZERO PUSH2 0x104A JUMP INVALID SWAP1 AND 0xD0 SWAP14 PUSH19 0xD40FDAE2FD8CEAC6B6234C7706214FD39C1CD1 0xE6 MULMOD LOG0 MSTORE DUP13 NOT SWAP4 STOP LOG2 PUSH5 0x6970667358 0x22 SLT KECCAK256 EXP CODECOPY SWAP16 PUSH11 0xF302C6D74D7CCF88DFF1B0 0xC SWAP11 RETURNDATASIZE LOG1 CODESIZE SWAP14 0xD8 CALLDATASIZE EXTCODECOPY 0x2B 0xC5 ISZERO 0x21 PUSH15 0xA6402864736F6C6343000816003300 "},"methodIdentifiers":{"UPGRADE_INTERFACE_VERSION()":"ad3cb1cc","addPlayer(address,bytes32,bytes32)":"a74aa2e8","getPlayer(address)":"5c12cd4b","getPlayerCount()":"c2e52206","getTopPlayers()":"88e814e6","initialize(address,address)":"485cc955","owner()":"8da5cb5b","playerAddresses(uint256)":"15c6aee2","playerScoring()":"e742f554","players(address)":"e2eb41ff","proxiableUUID()":"52d1902d","renounceOwnership()":"715018a6","transferOwnership(address)":"f2fde38b","updateScore(address,uint32)":"e631fb1d","upgradeToAndCall(address,bytes)":"4f1ef286"}},"storageLayout":{"storage":[{"astId":2150,"contract":"contracts/PlayerManager.sol:PlayerManager","label":"players","offset":0,"slot":"0","type":"t_mapping(t_address,t_struct(Player)2145_storage)"},{"astId":2153,"contract":"contracts/PlayerManager.sol:PlayerManager","label":"playerAddresses","offset":0,"slot":"1","type":"t_array(t_address)dyn_storage"},{"astId":2156,"contract":"contracts/PlayerManager.sol:PlayerManager","label":"playerScoring","offset":0,"slot":"2","type":"t_contract(PlayerScoring)2848"}],"types":{"t_address":{"encoding":"inplace","label":"address","numberOfBytes":"20"},"t_array(t_address)dyn_storage":{"base":"t_address","encoding":"dynamic_array","label":"address[]","numberOfBytes":"32"},"t_bytes32":{"encoding":"inplace","label":"bytes32","numberOfBytes":"32"},"t_contract(PlayerScoring)2848":{"encoding":"inplace","label":"contract PlayerScoring","numberOfBytes":"20"},"t_mapping(t_address,t_struct(Player)2145_storage)":{"encoding":"mapping","key":"t_address","label":"mapping(address => struct PlayerManager.Player)","numberOfBytes":"32","value":"t_struct(Player)2145_storage"},"t_struct(Player)2145_storage":{"encoding":"inplace","label":"struct PlayerManager.Player","members":[{"astId":2136,"contract":"contracts/PlayerManager.sol:PlayerManager","label":"lastPointAccrualTime","offset":0,"slot":"0","type":"t_uint32"},{"astId":2138,"contract":"contracts/PlayerManager.sol:PlayerManager","label":"username","offset":0,"slot":"1","type":"t_bytes32"},{"astId":2140,"contract":"contracts/PlayerManager.sol:PlayerManager","label":"pseudonym","offset":0,"slot":"2","type":"t_bytes32"},{"astId":2142,"contract":"contracts/PlayerManager.sol:PlayerManager","label":"score","offset":0,"slot":"3","type":"t_uint32"},{"astId":2144,"contract":"contracts/PlayerManager.sol:PlayerManager","label":"flags","offset":4,"slot":"3","type":"t_uint8"}],"numberOfBytes":"128"},"t_uint32":{"encoding":"inplace","label":"uint32","numberOfBytes":"4"},"t_uint8":{"encoding":"inplace","label":"uint8","numberOfBytes":"1"}}}}}}