{"contracts/PointsCalculator.sol":{"PointsCalculator":{"abi":[{"inputs":[],"stateMutability":"nonpayable","type":"constructor"},{"inputs":[{"internalType":"address","name":"target","type":"address"}],"name":"AddressEmptyCode","type":"error"},{"inputs":[{"internalType":"address","name":"implementation","type":"address"}],"name":"ERC1967InvalidImplementation","type":"error"},{"inputs":[],"name":"ERC1967NonPayable","type":"error"},{"inputs":[],"name":"FailedCall","type":"error"},{"inputs":[],"name":"InvalidInitialization","type":"error"},{"inputs":[],"name":"NotInitializing","type":"error"},{"inputs":[{"internalType":"address","name":"owner","type":"address"}],"name":"OwnableInvalidOwner","type":"error"},{"inputs":[{"internalType":"address","name":"account","type":"address"}],"name":"OwnableUnauthorizedAccount","type":"error"},{"inputs":[],"name":"UUPSUnauthorizedCallContext","type":"error"},{"inputs":[{"internalType":"bytes32","name":"slot","type":"bytes32"}],"name":"UUPSUnsupportedProxiableUUID","type":"error"},{"anonymous":false,"inputs":[{"indexed":false,"internalType":"uint64","name":"version","type":"uint64"}],"name":"Initialized","type":"event"},{"anonymous":false,"inputs":[{"indexed":true,"internalType":"address","name":"previousOwner","type":"address"},{"indexed":true,"internalType":"address","name":"newOwner","type":"address"}],"name":"OwnershipTransferred","type":"event"},{"anonymous":false,"inputs":[{"indexed":true,"internalType":"address","name":"player","type":"address"},{"indexed":false,"internalType":"uint32","name":"newScore","type":"uint32"}],"name":"PointsCalculated","type":"event"},{"anonymous":false,"inputs":[{"indexed":true,"internalType":"address","name":"implementation","type":"address"}],"name":"Upgraded","type":"event"},{"inputs":[],"name":"UPGRADE_INTERFACE_VERSION","outputs":[{"internalType":"string","name":"","type":"string"}],"stateMutability":"view","type":"function"},{"inputs":[{"internalType":"address","name":"_player","type":"address"}],"name":"calculateAccruedPoints","outputs":[],"stateMutability":"nonpayable","type":"function"},{"inputs":[{"internalType":"address","name":"_player1","type":"address"},{"internalType":"address","name":"_player2","type":"address"}],"name":"calculateInteractionPoints","outputs":[],"stateMutability":"nonpayable","type":"function"},{"inputs":[{"internalType":"address","name":"_player","type":"address"}],"name":"calculateMeetupPoints","outputs":[],"stateMutability":"nonpayable","type":"function"},{"inputs":[{"internalType":"address","name":"_playerManager","type":"address"},{"internalType":"address","name":"_pointsRules","type":"address"},{"internalType":"address","name":"_owner","type":"address"}],"name":"initialize","outputs":[],"stateMutability":"nonpayable","type":"function"},{"inputs":[],"name":"owner","outputs":[{"internalType":"address","name":"","type":"address"}],"stateMutability":"view","type":"function"},{"inputs":[],"name":"playerManager","outputs":[{"internalType":"contract PlayerManager","name":"","type":"address"}],"stateMutability":"view","type":"function"},{"inputs":[],"name":"pointsRules","outputs":[{"internalType":"contract PointsRules","name":"","type":"address"}],"stateMutability":"view","type":"function"},{"inputs":[],"name":"proxiableUUID","outputs":[{"internalType":"bytes32","name":"","type":"bytes32"}],"stateMutability":"view","type":"function"},{"inputs":[],"name":"renounceOwnership","outputs":[],"stateMutability":"nonpayable","type":"function"},{"inputs":[{"internalType":"address","name":"newOwner","type":"address"}],"name":"transferOwnership","outputs":[],"stateMutability":"nonpayable","type":"function"},{"inputs":[{"internalType":"address","name":"newImplementation","type":"address"},{"internalType":"bytes","name":"data","type":"bytes"}],"name":"upgradeToAndCall","outputs":[],"stateMutability":"payable","type":"function"}],"evm":{"bytecode":{"linkReferences":{},"object":"60a080604052346100cc57306080527ff0c57e16840df040f15088dc2f81fe391c3923bec73e23a9662efc9c229c6a009081549060ff8260401c166100bd57506001600160401b036002600160401b031982821601610078575b604051610eb990816100d282396080518181816106db0152610a560152f35b6001600160401b031990911681179091556040519081527fc7f505b2f371ae2175ee4913f4499e1f2633a7b5936321eed1cdaeb6115181d290602090a1388080610059565b63f92ee8a960e01b8152600490fd5b600080fdfe60406080815260048036101561001457600080fd5b600091823560e01c9182634f1ef286146109db57826352a6092e1461073f57826352d1902d146106c6578263715018a61461065b5782638da5cb5b146106255782639cdac8b8146105fd578263a0d5b223146104e9578263ad3cb1cc14610447578263c0c53b8b146102c4578263e515776114610297578263ea276a74146100d657505063f2fde38b146100a757600080fd5b346100d35760203660031901126100d3576100d06100c3610c3d565b6100cb610d86565b610d12565b80f35b80fd5b909150346102935760209182600319360112610210576100f4610c3d565b926100fd610d86565b60018060a01b03938585815416845192635c12cd4b60e01b8452878116968781860152608085602481865afa9485156102895795809798996024978697610255575b50600154168951978880926331074d4560e01b825263ffffffff809a16868301525afa95861561024b578496610214575b50823b1561021057875163e631fb1d60e01b81526001600160a01b0390921690820190815263ffffffff86166020820152909183918391908290849082906040015b03925af18015610206576101ee575b50507f89cb75684f3cccb8e054732bed784af8a1bbf4e1176fb270eaf3c7b7466c5d55935191168152a280f35b6101f790610c69565b6102025785386101c1565b8580fd5b86513d84823e3d90fd5b8380fd5b9095508681813d8311610244575b61022c8183610c93565b810103126102105761023d90610cd1565b9438610170565b503d610222565b88513d86823e3d90fd5b61027891975060803d608011610282575b6102708183610c93565b810190610ce2565b505050953861013f565b503d610266565b87513d86823e3d90fd5b8280fd5b8382346102c057816003193601126102c05760015490516001600160a01b039091168152602090f35b5080fd5b90915034610293576060366003190112610293576102e0610c3d565b906102e9610c53565b60443592906001600160a01b03908185168503610442577ff0c57e16840df040f15088dc2f81fe391c3923bec73e23a9662efc9c229c6a0094855460ff81891c16159567ffffffffffffffff82168015908161043a575b6001149081610430575b159081610427575b50610419575067ffffffffffffffff19811660011787556103859190866103fa575b5061037d610dbf565b6100cb610dbf565b61038d610dbf565b816bffffffffffffffffffffffff60a01b931683885416178755169060015416176001556103b9578280f35b805468ff00000000000000001916905551600181527fc7f505b2f371ae2175ee4913f4499e1f2633a7b5936321eed1cdaeb6115181d290602090a138808280f35b68ffffffffffffffffff19166801000000000000000117875538610374565b885163f92ee8a960e01b8152fd5b90501538610352565b303b15915061034a565b889150610340565b600080fd5b909150346102935782600319360112610293578151908282019082821067ffffffffffffffff8311176104d45750825260058152602090640352e302e360dc1b6020820152825193849260208452825192836020860152825b8481106104be57505050828201840152601f01601f19168101030190f35b81810183015188820188015287955082016104a0565b604190634e487b7160e01b6000525260246000fd5b9150346102935760208060031936011261021057610505610c3d565b61050d610d86565b60018060a01b03908582815416855192635c12cd4b60e01b8452848116978881860152608085602481865afa95861561024b578790859686986105d4575b506001548a51631ecdac0f60e31b815263ffffffff9889168582015298881660248a015242881660448a015288916064918391165afa95861561024b5784966102145750823b1561021057875163e631fb1d60e01b81526001600160a01b0390921690820190815263ffffffff86166020820152909183918391908290849082906040016101b2565b9097506105f191965060803d608011610282576102708183610c93565b5050959095963861054b565b8382346102c057816003193601126102c057905490516001600160a01b039091168152602090f35b8382346102c057816003193601126102c057600080516020610e648339815191525490516001600160a01b039091168152602090f35b83346100d357806003193601126100d357610674610d86565b600080516020610e6483398151915280546001600160a01b031981169091556000906001600160a01b03167f8be0079c531659141344cd1fd0a4f28419497f9722a3daafe3b4186f6b6457e08280a380f35b9083346100d357806003193601126100d357507f00000000000000000000000000000000000000000000000000000000000000006001600160a01b0316300361073257602090517f360894a13ba1a3210667c828492db98dca3e2076cc3735a920a3ca505d382bbc8152f35b5163703e46dd60e11b8152fd5b915034610293578060031936011261029357610759610c3d565b91610762610c53565b9161076b610d86565b60018060a01b03908186541692815190635c12cd4b60e01b9687835284811696878385015260809586856024818b5afa94851561098d578b956109b9575b508551998a52808216998a8582015287816024818c5afa978815610936578c98610997575b5050858160015416956044825180988193630f088b0160e21b835263ffffffff9c8d8092168b8501521660248301525afa97881561098d578b958c99610944575b50803b1561094057865163e631fb1d60e01b8082526001600160a01b0390951686820190815263ffffffff8816602082015290918d9183919082908490829060400103925af180156109365761091d575b50908a939291845416803b156109195786519283526001600160a01b0390911692820192835263ffffffff8816602084015290918391839182908490829060400103925af1801561090f576108ef575b50509060209483928695948351911681527f89cb75684f3cccb8e054732bed784af8a1bbf4e1176fb270eaf3c7b7466c5d55968791a25191168152a280f35b6108fd909594939295610c69565b61090b5790919286386108b0565b8680fd5b84513d84823e3d90fd5b8480fd5b61092c909b919493929b610c69565b9990919238610860565b87513d8e823e3d90fd5b8b80fd5b8780929a508197503d8311610986575b61095e8183610c93565b810103126109825761097b602061097487610cd1565b9601610cd1565b973861080f565b8a80fd5b503d610954565b86513d8d823e3d90fd5b6109ae929850803d10610282576102708183610c93565b5050509538806107ce565b6109d1919550873d8911610282576102708183610c93565b50505093386107a9565b915080600319360112610293576109f0610c3d565b90602493843567ffffffffffffffff81116102c057366023820112156102c05780850135610a1d81610cb5565b94610a2a85519687610c93565b81865260209182870193368a8383010111610202578186928b8693018737880101526001600160a01b037f00000000000000000000000000000000000000000000000000000000000000008116308114908115610c0f575b50610bff57610a8f610d86565b81169585516352d1902d60e01b815283818a818b5afa869181610bd0575b50610ac9575050505050505191634c9c8ce360e01b8352820152fd5b9088888894938c7f360894a13ba1a3210667c828492db98dca3e2076cc3735a920a3ca505d382bbc91828103610bbb5750853b15610ba7575080546001600160a01b031916821790558451889392917fbc7cd75a20ee27fd9adebab32041f755214dbc6bffa90cc0225b39da2e5c2d3b8580a2825115610b89575050610b7b9582915190845af4913d15610b7f573d610b6d610b6482610cb5565b92519283610c93565b81528581943d92013e610e00565b5080f35b5060609250610e00565b955095505050505034610b9b57505080f35b63b398979f60e01b8152fd5b8651634c9c8ce360e01b8152808501849052fd5b8751632a87526960e21b815280860191909152fd5b9091508481813d8311610bf8575b610be88183610c93565b8101031261090b57519038610aad565b503d610bde565b855163703e46dd60e11b81528890fd5b9050817f360894a13ba1a3210667c828492db98dca3e2076cc3735a920a3ca505d382bbc5416141538610a82565b600435906001600160a01b038216820361044257565b602435906001600160a01b038216820361044257565b67ffffffffffffffff8111610c7d57604052565b634e487b7160e01b600052604160045260246000fd5b90601f8019910116810190811067ffffffffffffffff821117610c7d57604052565b67ffffffffffffffff8111610c7d57601f01601f191660200190565b519063ffffffff8216820361044257565b919082608091031261044257610cf782610cd1565b91610d0460208201610cd1565b916060604083015192015190565b6001600160a01b03908116908115610d6d57600080516020610e6483398151915280546001600160a01b031981168417909155167f8be0079c531659141344cd1fd0a4f28419497f9722a3daafe3b4186f6b6457e0600080a3565b604051631e4fbdf760e01b815260006004820152602490fd5b600080516020610e64833981519152546001600160a01b03163303610da757565b60405163118cdaa760e01b8152336004820152602490fd5b60ff7ff0c57e16840df040f15088dc2f81fe391c3923bec73e23a9662efc9c229c6a005460401c1615610dee57565b604051631afcd79f60e31b8152600490fd5b90610e275750805115610e1557805190602001fd5b60405163d6bda27560e01b8152600490fd5b81511580610e5a575b610e38575090565b604051639996b31560e01b81526001600160a01b039091166004820152602490fd5b50803b15610e3056fe9016d09d72d40fdae2fd8ceac6b6234c7706214fd39c1cd1e609a0528c199300a26469706673582212209fa24f80fa01e2d0e2af90258cc5a3c6455fdfea933b7acc2f9090e912f630e764736f6c63430008160033","opcodes":"PUSH1 0xA0 DUP1 PUSH1 0x40 MSTORE CALLVALUE PUSH2 0xCC JUMPI ADDRESS PUSH1 0x80 MSTORE PUSH32 0xF0C57E16840DF040F15088DC2F81FE391C3923BEC73E23A9662EFC9C229C6A00 SWAP1 DUP2 SLOAD SWAP1 PUSH1 0xFF DUP3 PUSH1 0x40 SHR AND PUSH2 0xBD JUMPI POP PUSH1 0x1 PUSH1 0x1 PUSH1 0x40 SHL SUB PUSH1 0x2 PUSH1 0x1 PUSH1 0x40 SHL SUB NOT DUP3 DUP3 AND ADD PUSH2 0x78 JUMPI JUMPDEST PUSH1 0x40 MLOAD PUSH2 0xEB9 SWAP1 DUP2 PUSH2 0xD2 DUP3 CODECOPY PUSH1 0x80 MLOAD DUP2 DUP2 DUP2 PUSH2 0x6DB ADD MSTORE PUSH2 0xA56 ADD MSTORE RETURN JUMPDEST PUSH1 0x1 PUSH1 0x1 PUSH1 0x40 SHL SUB NOT SWAP1 SWAP2 AND DUP2 OR SWAP1 SWAP2 SSTORE PUSH1 0x40 MLOAD SWAP1 DUP2 MSTORE PUSH32 0xC7F505B2F371AE2175EE4913F4499E1F2633A7B5936321EED1CDAEB6115181D2 SWAP1 PUSH1 0x20 SWAP1 LOG1 CODESIZE DUP1 DUP1 PUSH2 0x59 JUMP JUMPDEST PUSH4 0xF92EE8A9 PUSH1 0xE0 SHL DUP2 MSTORE PUSH1 0x4 SWAP1 REVERT JUMPDEST PUSH1 0x0 DUP1 REVERT INVALID PUSH1 0x40 PUSH1 0x80 DUP2 MSTORE PUSH1 0x4 DUP1 CALLDATASIZE LT ISZERO PUSH2 0x14 JUMPI PUSH1 0x0 DUP1 REVERT JUMPDEST PUSH1 0x0 SWAP2 DUP3 CALLDATALOAD PUSH1 0xE0 SHR SWAP2 DUP3 PUSH4 0x4F1EF286 EQ PUSH2 0x9DB JUMPI DUP3 PUSH4 0x52A6092E EQ PUSH2 0x73F JUMPI DUP3 PUSH4 0x52D1902D EQ PUSH2 0x6C6 JUMPI DUP3 PUSH4 0x715018A6 EQ PUSH2 0x65B JUMPI DUP3 PUSH4 0x8DA5CB5B EQ PUSH2 0x625 JUMPI DUP3 PUSH4 0x9CDAC8B8 EQ PUSH2 0x5FD JUMPI DUP3 PUSH4 0xA0D5B223 EQ PUSH2 0x4E9 JUMPI DUP3 PUSH4 0xAD3CB1CC EQ PUSH2 0x447 JUMPI DUP3 PUSH4 0xC0C53B8B EQ PUSH2 0x2C4 JUMPI DUP3 PUSH4 0xE5157761 EQ PUSH2 0x297 JUMPI DUP3 PUSH4 0xEA276A74 EQ PUSH2 0xD6 JUMPI POP POP PUSH4 0xF2FDE38B EQ PUSH2 0xA7 JUMPI PUSH1 0x0 DUP1 REVERT JUMPDEST CALLVALUE PUSH2 0xD3 JUMPI PUSH1 0x20 CALLDATASIZE PUSH1 0x3 NOT ADD SLT PUSH2 0xD3 JUMPI PUSH2 0xD0 PUSH2 0xC3 PUSH2 0xC3D JUMP JUMPDEST PUSH2 0xCB PUSH2 0xD86 JUMP JUMPDEST PUSH2 0xD12 JUMP JUMPDEST DUP1 RETURN JUMPDEST DUP1 REVERT JUMPDEST SWAP1 SWAP2 POP CALLVALUE PUSH2 0x293 JUMPI PUSH1 0x20 SWAP2 DUP3 PUSH1 0x3 NOT CALLDATASIZE ADD SLT PUSH2 0x210 JUMPI PUSH2 0xF4 PUSH2 0xC3D JUMP JUMPDEST SWAP3 PUSH2 0xFD PUSH2 0xD86 JUMP JUMPDEST PUSH1 0x1 DUP1 PUSH1 0xA0 SHL SUB SWAP4 DUP6 DUP6 DUP2 SLOAD AND DUP5 MLOAD SWAP3 PUSH4 0x5C12CD4B PUSH1 0xE0 SHL DUP5 MSTORE DUP8 DUP2 AND SWAP7 DUP8 DUP2 DUP7 ADD MSTORE PUSH1 0x80 DUP6 PUSH1 0x24 DUP2 DUP7 GAS STATICCALL SWAP5 DUP6 ISZERO PUSH2 0x289 JUMPI SWAP6 DUP1 SWAP8 SWAP9 SWAP10 PUSH1 0x24 SWAP8 DUP7 SWAP8 PUSH2 0x255 JUMPI JUMPDEST POP PUSH1 0x1 SLOAD AND DUP10 MLOAD SWAP8 DUP9 DUP1 SWAP3 PUSH4 0x31074D45 PUSH1 0xE0 SHL DUP3 MSTORE PUSH4 0xFFFFFFFF DUP1 SWAP11 AND DUP7 DUP4 ADD MSTORE GAS STATICCALL SWAP6 DUP7 ISZERO PUSH2 0x24B JUMPI DUP5 SWAP7 PUSH2 0x214 JUMPI JUMPDEST POP DUP3 EXTCODESIZE ISZERO PUSH2 0x210 JUMPI DUP8 MLOAD PUSH4 0xE631FB1D PUSH1 0xE0 SHL DUP2 MSTORE PUSH1 0x1 PUSH1 0x1 PUSH1 0xA0 SHL SUB SWAP1 SWAP3 AND SWAP1 DUP3 ADD SWAP1 DUP2 MSTORE PUSH4 0xFFFFFFFF DUP7 AND PUSH1 0x20 DUP3 ADD MSTORE SWAP1 SWAP2 DUP4 SWAP2 DUP4 SWAP2 SWAP1 DUP3 SWAP1 DUP5 SWAP1 DUP3 SWAP1 PUSH1 0x40 ADD JUMPDEST SUB SWAP3 GAS CALL DUP1 ISZERO PUSH2 0x206 JUMPI PUSH2 0x1EE JUMPI JUMPDEST POP POP PUSH32 0x89CB75684F3CCCB8E054732BED784AF8A1BBF4E1176FB270EAF3C7B7466C5D55 SWAP4 MLOAD SWAP2 AND DUP2 MSTORE LOG2 DUP1 RETURN JUMPDEST PUSH2 0x1F7 SWAP1 PUSH2 0xC69 JUMP JUMPDEST PUSH2 0x202 JUMPI DUP6 CODESIZE PUSH2 0x1C1 JUMP JUMPDEST DUP6 DUP1 REVERT JUMPDEST DUP7 MLOAD RETURNDATASIZE DUP5 DUP3 RETURNDATACOPY RETURNDATASIZE SWAP1 REVERT JUMPDEST DUP4 DUP1 REVERT JUMPDEST SWAP1 SWAP6 POP DUP7 DUP2 DUP2 RETURNDATASIZE DUP4 GT PUSH2 0x244 JUMPI JUMPDEST PUSH2 0x22C DUP2 DUP4 PUSH2 0xC93 JUMP JUMPDEST DUP2 ADD SUB SLT PUSH2 0x210 JUMPI PUSH2 0x23D SWAP1 PUSH2 0xCD1 JUMP JUMPDEST SWAP5 CODESIZE PUSH2 0x170 JUMP JUMPDEST POP RETURNDATASIZE PUSH2 0x222 JUMP JUMPDEST DUP9 MLOAD RETURNDATASIZE DUP7 DUP3 RETURNDATACOPY RETURNDATASIZE SWAP1 REVERT JUMPDEST PUSH2 0x278 SWAP2 SWAP8 POP PUSH1 0x80 RETURNDATASIZE PUSH1 0x80 GT PUSH2 0x282 JUMPI JUMPDEST PUSH2 0x270 DUP2 DUP4 PUSH2 0xC93 JUMP JUMPDEST DUP2 ADD SWAP1 PUSH2 0xCE2 JUMP JUMPDEST POP POP POP SWAP6 CODESIZE PUSH2 0x13F JUMP JUMPDEST POP RETURNDATASIZE PUSH2 0x266 JUMP JUMPDEST DUP8 MLOAD RETURNDATASIZE DUP7 DUP3 RETURNDATACOPY RETURNDATASIZE SWAP1 REVERT JUMPDEST DUP3 DUP1 REVERT JUMPDEST DUP4 DUP3 CALLVALUE PUSH2 0x2C0 JUMPI DUP2 PUSH1 0x3 NOT CALLDATASIZE ADD SLT PUSH2 0x2C0 JUMPI PUSH1 0x1 SLOAD SWAP1 MLOAD PUSH1 0x1 PUSH1 0x1 PUSH1 0xA0 SHL SUB SWAP1 SWAP2 AND DUP2 MSTORE PUSH1 0x20 SWAP1 RETURN JUMPDEST POP DUP1 REVERT JUMPDEST SWAP1 SWAP2 POP CALLVALUE PUSH2 0x293 JUMPI PUSH1 0x60 CALLDATASIZE PUSH1 0x3 NOT ADD SLT PUSH2 0x293 JUMPI PUSH2 0x2E0 PUSH2 0xC3D JUMP JUMPDEST SWAP1 PUSH2 0x2E9 PUSH2 0xC53 JUMP JUMPDEST PUSH1 0x44 CALLDATALOAD SWAP3 SWAP1 PUSH1 0x1 PUSH1 0x1 PUSH1 0xA0 SHL SUB SWAP1 DUP2 DUP6 AND DUP6 SUB PUSH2 0x442 JUMPI PUSH32 0xF0C57E16840DF040F15088DC2F81FE391C3923BEC73E23A9662EFC9C229C6A00 SWAP5 DUP6 SLOAD PUSH1 0xFF DUP2 DUP10 SHR AND ISZERO SWAP6 PUSH8 0xFFFFFFFFFFFFFFFF DUP3 AND DUP1 ISZERO SWAP1 DUP2 PUSH2 0x43A JUMPI JUMPDEST PUSH1 0x1 EQ SWAP1 DUP2 PUSH2 0x430 JUMPI JUMPDEST ISZERO SWAP1 DUP2 PUSH2 0x427 JUMPI JUMPDEST POP PUSH2 0x419 JUMPI POP PUSH8 0xFFFFFFFFFFFFFFFF NOT DUP2 AND PUSH1 0x1 OR DUP8 SSTORE PUSH2 0x385 SWAP2 SWAP1 DUP7 PUSH2 0x3FA JUMPI JUMPDEST POP PUSH2 0x37D PUSH2 0xDBF JUMP JUMPDEST PUSH2 0xCB PUSH2 0xDBF JUMP JUMPDEST PUSH2 0x38D PUSH2 0xDBF JUMP JUMPDEST DUP2 PUSH12 0xFFFFFFFFFFFFFFFFFFFFFFFF PUSH1 0xA0 SHL SWAP4 AND DUP4 DUP9 SLOAD AND OR DUP8 SSTORE AND SWAP1 PUSH1 0x1 SLOAD AND OR PUSH1 0x1 SSTORE PUSH2 0x3B9 JUMPI DUP3 DUP1 RETURN JUMPDEST DUP1 SLOAD PUSH9 0xFF0000000000000000 NOT AND SWAP1 SSTORE MLOAD PUSH1 0x1 DUP2 MSTORE PUSH32 0xC7F505B2F371AE2175EE4913F4499E1F2633A7B5936321EED1CDAEB6115181D2 SWAP1 PUSH1 0x20 SWAP1 LOG1 CODESIZE DUP1 DUP3 DUP1 RETURN JUMPDEST PUSH9 0xFFFFFFFFFFFFFFFFFF NOT AND PUSH9 0x10000000000000001 OR DUP8 SSTORE CODESIZE PUSH2 0x374 JUMP JUMPDEST DUP9 MLOAD PUSH4 0xF92EE8A9 PUSH1 0xE0 SHL DUP2 MSTORE REVERT JUMPDEST SWAP1 POP ISZERO CODESIZE PUSH2 0x352 JUMP JUMPDEST ADDRESS EXTCODESIZE ISZERO SWAP2 POP PUSH2 0x34A JUMP JUMPDEST DUP9 SWAP2 POP PUSH2 0x340 JUMP JUMPDEST PUSH1 0x0 DUP1 REVERT JUMPDEST SWAP1 SWAP2 POP CALLVALUE PUSH2 0x293 JUMPI DUP3 PUSH1 0x3 NOT CALLDATASIZE ADD SLT PUSH2 0x293 JUMPI DUP2 MLOAD SWAP1 DUP3 DUP3 ADD SWAP1 DUP3 DUP3 LT PUSH8 0xFFFFFFFFFFFFFFFF DUP4 GT OR PUSH2 0x4D4 JUMPI POP DUP3 MSTORE PUSH1 0x5 DUP2 MSTORE PUSH1 0x20 SWAP1 PUSH5 0x352E302E3 PUSH1 0xDC SHL PUSH1 0x20 DUP3 ADD MSTORE DUP3 MLOAD SWAP4 DUP5 SWAP3 PUSH1 0x20 DUP5 MSTORE DUP3 MLOAD SWAP3 DUP4 PUSH1 0x20 DUP7 ADD MSTORE DUP3 JUMPDEST DUP5 DUP2 LT PUSH2 0x4BE JUMPI POP POP POP DUP3 DUP3 ADD DUP5 ADD MSTORE PUSH1 0x1F ADD PUSH1 0x1F NOT AND DUP2 ADD SUB ADD SWAP1 RETURN JUMPDEST DUP2 DUP2 ADD DUP4 ADD MLOAD DUP9 DUP3 ADD DUP9 ADD MSTORE DUP8 SWAP6 POP DUP3 ADD PUSH2 0x4A0 JUMP JUMPDEST PUSH1 0x41 SWAP1 PUSH4 0x4E487B71 PUSH1 0xE0 SHL PUSH1 0x0 MSTORE MSTORE PUSH1 0x24 PUSH1 0x0 REVERT JUMPDEST SWAP2 POP CALLVALUE PUSH2 0x293 JUMPI PUSH1 0x20 DUP1 PUSH1 0x3 NOT CALLDATASIZE ADD SLT PUSH2 0x210 JUMPI PUSH2 0x505 PUSH2 0xC3D JUMP JUMPDEST PUSH2 0x50D PUSH2 0xD86 JUMP JUMPDEST PUSH1 0x1 DUP1 PUSH1 0xA0 SHL SUB SWAP1 DUP6 DUP3 DUP2 SLOAD AND DUP6 MLOAD SWAP3 PUSH4 0x5C12CD4B PUSH1 0xE0 SHL DUP5 MSTORE DUP5 DUP2 AND SWAP8 DUP9 DUP2 DUP7 ADD MSTORE PUSH1 0x80 DUP6 PUSH1 0x24 DUP2 DUP7 GAS STATICCALL SWAP6 DUP7 ISZERO PUSH2 0x24B JUMPI DUP8 SWAP1 DUP6 SWAP7 DUP7 SWAP9 PUSH2 0x5D4 JUMPI JUMPDEST POP PUSH1 0x1 SLOAD DUP11 MLOAD PUSH4 0x1ECDAC0F PUSH1 0xE3 SHL DUP2 MSTORE PUSH4 0xFFFFFFFF SWAP9 DUP10 AND DUP6 DUP3 ADD MSTORE SWAP9 DUP9 AND PUSH1 0x24 DUP11 ADD MSTORE TIMESTAMP DUP9 AND PUSH1 0x44 DUP11 ADD MSTORE DUP9 SWAP2 PUSH1 0x64 SWAP2 DUP4 SWAP2 AND GAS STATICCALL SWAP6 DUP7 ISZERO PUSH2 0x24B JUMPI DUP5 SWAP7 PUSH2 0x214 JUMPI POP DUP3 EXTCODESIZE ISZERO PUSH2 0x210 JUMPI DUP8 MLOAD PUSH4 0xE631FB1D PUSH1 0xE0 SHL DUP2 MSTORE PUSH1 0x1 PUSH1 0x1 PUSH1 0xA0 SHL SUB SWAP1 SWAP3 AND SWAP1 DUP3 ADD SWAP1 DUP2 MSTORE PUSH4 0xFFFFFFFF DUP7 AND PUSH1 0x20 DUP3 ADD MSTORE SWAP1 SWAP2 DUP4 SWAP2 DUP4 SWAP2 SWAP1 DUP3 SWAP1 DUP5 SWAP1 DUP3 SWAP1 PUSH1 0x40 ADD PUSH2 0x1B2 JUMP JUMPDEST SWAP1 SWAP8 POP PUSH2 0x5F1 SWAP2 SWAP7 POP PUSH1 0x80 RETURNDATASIZE PUSH1 0x80 GT PUSH2 0x282 JUMPI PUSH2 0x270 DUP2 DUP4 PUSH2 0xC93 JUMP JUMPDEST POP POP SWAP6 SWAP1 SWAP6 SWAP7 CODESIZE PUSH2 0x54B JUMP JUMPDEST DUP4 DUP3 CALLVALUE PUSH2 0x2C0 JUMPI DUP2 PUSH1 0x3 NOT CALLDATASIZE ADD SLT PUSH2 0x2C0 JUMPI SWAP1 SLOAD SWAP1 MLOAD PUSH1 0x1 PUSH1 0x1 PUSH1 0xA0 SHL SUB SWAP1 SWAP2 AND DUP2 MSTORE PUSH1 0x20 SWAP1 RETURN JUMPDEST DUP4 DUP3 CALLVALUE PUSH2 0x2C0 JUMPI DUP2 PUSH1 0x3 NOT CALLDATASIZE ADD SLT PUSH2 0x2C0 JUMPI PUSH1 0x0 DUP1 MLOAD PUSH1 0x20 PUSH2 0xE64 DUP4 CODECOPY DUP2 MLOAD SWAP2 MSTORE SLOAD SWAP1 MLOAD PUSH1 0x1 PUSH1 0x1 PUSH1 0xA0 SHL SUB SWAP1 SWAP2 AND DUP2 MSTORE PUSH1 0x20 SWAP1 RETURN JUMPDEST DUP4 CALLVALUE PUSH2 0xD3 JUMPI DUP1 PUSH1 0x3 NOT CALLDATASIZE ADD SLT PUSH2 0xD3 JUMPI PUSH2 0x674 PUSH2 0xD86 JUMP JUMPDEST PUSH1 0x0 DUP1 MLOAD PUSH1 0x20 PUSH2 0xE64 DUP4 CODECOPY DUP2 MLOAD SWAP2 MSTORE DUP1 SLOAD PUSH1 0x1 PUSH1 0x1 PUSH1 0xA0 SHL SUB NOT DUP2 AND SWAP1 SWAP2 SSTORE PUSH1 0x0 SWAP1 PUSH1 0x1 PUSH1 0x1 PUSH1 0xA0 SHL SUB AND PUSH32 0x8BE0079C531659141344CD1FD0A4F28419497F9722A3DAAFE3B4186F6B6457E0 DUP3 DUP1 LOG3 DUP1 RETURN JUMPDEST SWAP1 DUP4 CALLVALUE PUSH2 0xD3 JUMPI DUP1 PUSH1 0x3 NOT CALLDATASIZE ADD SLT PUSH2 0xD3 JUMPI POP PUSH32 0x0 PUSH1 0x1 PUSH1 0x1 PUSH1 0xA0 SHL SUB AND ADDRESS SUB PUSH2 0x732 JUMPI PUSH1 0x20 SWAP1 MLOAD PUSH32 0x360894A13BA1A3210667C828492DB98DCA3E2076CC3735A920A3CA505D382BBC DUP2 MSTORE RETURN JUMPDEST MLOAD PUSH4 0x703E46DD PUSH1 0xE1 SHL DUP2 MSTORE REVERT JUMPDEST SWAP2 POP CALLVALUE PUSH2 0x293 JUMPI DUP1 PUSH1 0x3 NOT CALLDATASIZE ADD SLT PUSH2 0x293 JUMPI PUSH2 0x759 PUSH2 0xC3D JUMP JUMPDEST SWAP2 PUSH2 0x762 PUSH2 0xC53 JUMP JUMPDEST SWAP2 PUSH2 0x76B PUSH2 0xD86 JUMP JUMPDEST PUSH1 0x1 DUP1 PUSH1 0xA0 SHL SUB SWAP1 DUP2 DUP7 SLOAD AND SWAP3 DUP2 MLOAD SWAP1 PUSH4 0x5C12CD4B PUSH1 0xE0 SHL SWAP7 DUP8 DUP4 MSTORE DUP5 DUP2 AND SWAP7 DUP8 DUP4 DUP6 ADD MSTORE PUSH1 0x80 SWAP6 DUP7 DUP6 PUSH1 0x24 DUP2 DUP12 GAS STATICCALL SWAP5 DUP6 ISZERO PUSH2 0x98D JUMPI DUP12 SWAP6 PUSH2 0x9B9 JUMPI JUMPDEST POP DUP6 MLOAD SWAP10 DUP11 MSTORE DUP1 DUP3 AND SWAP10 DUP11 DUP6 DUP3 ADD MSTORE DUP8 DUP2 PUSH1 0x24 DUP2 DUP13 GAS STATICCALL SWAP8 DUP9 ISZERO PUSH2 0x936 JUMPI DUP13 SWAP9 PUSH2 0x997 JUMPI JUMPDEST POP POP DUP6 DUP2 PUSH1 0x1 SLOAD AND SWAP6 PUSH1 0x44 DUP3 MLOAD DUP1 SWAP9 DUP2 SWAP4 PUSH4 0xF088B01 PUSH1 0xE2 SHL DUP4 MSTORE PUSH4 0xFFFFFFFF SWAP13 DUP14 DUP1 SWAP3 AND DUP12 DUP6 ADD MSTORE AND PUSH1 0x24 DUP4 ADD MSTORE GAS STATICCALL SWAP8 DUP9 ISZERO PUSH2 0x98D JUMPI DUP12 SWAP6 DUP13 SWAP10 PUSH2 0x944 JUMPI JUMPDEST POP DUP1 EXTCODESIZE ISZERO PUSH2 0x940 JUMPI DUP7 MLOAD PUSH4 0xE631FB1D PUSH1 0xE0 SHL DUP1 DUP3 MSTORE PUSH1 0x1 PUSH1 0x1 PUSH1 0xA0 SHL SUB SWAP1 SWAP6 AND DUP7 DUP3 ADD SWAP1 DUP2 MSTORE PUSH4 0xFFFFFFFF DUP9 AND PUSH1 0x20 DUP3 ADD MSTORE SWAP1 SWAP2 DUP14 SWAP2 DUP4 SWAP2 SWAP1 DUP3 SWAP1 DUP5 SWAP1 DUP3 SWAP1 PUSH1 0x40 ADD SUB SWAP3 GAS CALL DUP1 ISZERO PUSH2 0x936 JUMPI PUSH2 0x91D JUMPI JUMPDEST POP SWAP1 DUP11 SWAP4 SWAP3 SWAP2 DUP5 SLOAD AND DUP1 EXTCODESIZE ISZERO PUSH2 0x919 JUMPI DUP7 MLOAD SWAP3 DUP4 MSTORE PUSH1 0x1 PUSH1 0x1 PUSH1 0xA0 SHL SUB SWAP1 SWAP2 AND SWAP3 DUP3 ADD SWAP3 DUP4 MSTORE PUSH4 0xFFFFFFFF DUP9 AND PUSH1 0x20 DUP5 ADD MSTORE SWAP1 SWAP2 DUP4 SWAP2 DUP4 SWAP2 DUP3 SWAP1 DUP5 SWAP1 DUP3 SWAP1 PUSH1 0x40 ADD SUB SWAP3 GAS CALL DUP1 ISZERO PUSH2 0x90F JUMPI PUSH2 0x8EF JUMPI JUMPDEST POP POP SWAP1 PUSH1 0x20 SWAP5 DUP4 SWAP3 DUP7 SWAP6 SWAP5 DUP4 MLOAD SWAP2 AND DUP2 MSTORE PUSH32 0x89CB75684F3CCCB8E054732BED784AF8A1BBF4E1176FB270EAF3C7B7466C5D55 SWAP7 DUP8 SWAP2 LOG2 MLOAD SWAP2 AND DUP2 MSTORE LOG2 DUP1 RETURN JUMPDEST PUSH2 0x8FD SWAP1 SWAP6 SWAP5 SWAP4 SWAP3 SWAP6 PUSH2 0xC69 JUMP JUMPDEST PUSH2 0x90B JUMPI SWAP1 SWAP2 SWAP3 DUP7 CODESIZE PUSH2 0x8B0 JUMP JUMPDEST DUP7 DUP1 REVERT JUMPDEST DUP5 MLOAD RETURNDATASIZE DUP5 DUP3 RETURNDATACOPY RETURNDATASIZE SWAP1 REVERT JUMPDEST DUP5 DUP1 REVERT JUMPDEST PUSH2 0x92C SWAP1 SWAP12 SWAP2 SWAP5 SWAP4 SWAP3 SWAP12 PUSH2 0xC69 JUMP JUMPDEST SWAP10 SWAP1 SWAP2 SWAP3 CODESIZE PUSH2 0x860 JUMP JUMPDEST DUP8 MLOAD RETURNDATASIZE DUP15 DUP3 RETURNDATACOPY RETURNDATASIZE SWAP1 REVERT JUMPDEST DUP12 DUP1 REVERT JUMPDEST DUP8 DUP1 SWAP3 SWAP11 POP DUP2 SWAP8 POP RETURNDATASIZE DUP4 GT PUSH2 0x986 JUMPI JUMPDEST PUSH2 0x95E DUP2 DUP4 PUSH2 0xC93 JUMP JUMPDEST DUP2 ADD SUB SLT PUSH2 0x982 JUMPI PUSH2 0x97B PUSH1 0x20 PUSH2 0x974 DUP8 PUSH2 0xCD1 JUMP JUMPDEST SWAP7 ADD PUSH2 0xCD1 JUMP JUMPDEST SWAP8 CODESIZE PUSH2 0x80F JUMP JUMPDEST DUP11 DUP1 REVERT JUMPDEST POP RETURNDATASIZE PUSH2 0x954 JUMP JUMPDEST DUP7 MLOAD RETURNDATASIZE DUP14 DUP3 RETURNDATACOPY RETURNDATASIZE SWAP1 REVERT JUMPDEST PUSH2 0x9AE SWAP3 SWAP9 POP DUP1 RETURNDATASIZE LT PUSH2 0x282 JUMPI PUSH2 0x270 DUP2 DUP4 PUSH2 0xC93 JUMP JUMPDEST POP POP POP SWAP6 CODESIZE DUP1 PUSH2 0x7CE JUMP JUMPDEST PUSH2 0x9D1 SWAP2 SWAP6 POP DUP8 RETURNDATASIZE DUP10 GT PUSH2 0x282 JUMPI PUSH2 0x270 DUP2 DUP4 PUSH2 0xC93 JUMP JUMPDEST POP POP POP SWAP4 CODESIZE PUSH2 0x7A9 JUMP JUMPDEST SWAP2 POP DUP1 PUSH1 0x3 NOT CALLDATASIZE ADD SLT PUSH2 0x293 JUMPI PUSH2 0x9F0 PUSH2 0xC3D JUMP JUMPDEST SWAP1 PUSH1 0x24 SWAP4 DUP5 CALLDATALOAD PUSH8 0xFFFFFFFFFFFFFFFF DUP2 GT PUSH2 0x2C0 JUMPI CALLDATASIZE PUSH1 0x23 DUP3 ADD SLT ISZERO PUSH2 0x2C0 JUMPI DUP1 DUP6 ADD CALLDATALOAD PUSH2 0xA1D DUP2 PUSH2 0xCB5 JUMP JUMPDEST SWAP5 PUSH2 0xA2A DUP6 MLOAD SWAP7 DUP8 PUSH2 0xC93 JUMP JUMPDEST DUP2 DUP7 MSTORE PUSH1 0x20 SWAP2 DUP3 DUP8 ADD SWAP4 CALLDATASIZE DUP11 DUP4 DUP4 ADD ADD GT PUSH2 0x202 JUMPI DUP2 DUP7 SWAP3 DUP12 DUP7 SWAP4 ADD DUP8 CALLDATACOPY DUP9 ADD ADD MSTORE PUSH1 0x1 PUSH1 0x1 PUSH1 0xA0 SHL SUB PUSH32 0x0 DUP2 AND ADDRESS DUP2 EQ SWAP1 DUP2 ISZERO PUSH2 0xC0F JUMPI JUMPDEST POP PUSH2 0xBFF JUMPI PUSH2 0xA8F PUSH2 0xD86 JUMP JUMPDEST DUP2 AND SWAP6 DUP6 MLOAD PUSH4 0x52D1902D PUSH1 0xE0 SHL DUP2 MSTORE DUP4 DUP2 DUP11 DUP2 DUP12 GAS STATICCALL DUP7 SWAP2 DUP2 PUSH2 0xBD0 JUMPI JUMPDEST POP PUSH2 0xAC9 JUMPI POP POP POP POP POP POP MLOAD SWAP2 PUSH4 0x4C9C8CE3 PUSH1 0xE0 SHL DUP4 MSTORE DUP3 ADD MSTORE REVERT JUMPDEST SWAP1 DUP9 DUP9 DUP9 SWAP5 SWAP4 DUP13 PUSH32 0x360894A13BA1A3210667C828492DB98DCA3E2076CC3735A920A3CA505D382BBC SWAP2 DUP3 DUP2 SUB PUSH2 0xBBB JUMPI POP DUP6 EXTCODESIZE ISZERO PUSH2 0xBA7 JUMPI POP DUP1 SLOAD PUSH1 0x1 PUSH1 0x1 PUSH1 0xA0 SHL SUB NOT AND DUP3 OR SWAP1 SSTORE DUP5 MLOAD DUP9 SWAP4 SWAP3 SWAP2 PUSH32 0xBC7CD75A20EE27FD9ADEBAB32041F755214DBC6BFFA90CC0225B39DA2E5C2D3B DUP6 DUP1 LOG2 DUP3 MLOAD ISZERO PUSH2 0xB89 JUMPI POP POP PUSH2 0xB7B SWAP6 DUP3 SWAP2 MLOAD SWAP1 DUP5 GAS DELEGATECALL SWAP2 RETURNDATASIZE ISZERO PUSH2 0xB7F JUMPI RETURNDATASIZE PUSH2 0xB6D PUSH2 0xB64 DUP3 PUSH2 0xCB5 JUMP JUMPDEST SWAP3 MLOAD SWAP3 DUP4 PUSH2 0xC93 JUMP JUMPDEST DUP2 MSTORE DUP6 DUP2 SWAP5 RETURNDATASIZE SWAP3 ADD RETURNDATACOPY PUSH2 0xE00 JUMP JUMPDEST POP DUP1 RETURN JUMPDEST POP PUSH1 0x60 SWAP3 POP PUSH2 0xE00 JUMP JUMPDEST SWAP6 POP SWAP6 POP POP POP POP POP CALLVALUE PUSH2 0xB9B JUMPI POP POP DUP1 RETURN JUMPDEST PUSH4 0xB398979F PUSH1 0xE0 SHL DUP2 MSTORE REVERT JUMPDEST DUP7 MLOAD PUSH4 0x4C9C8CE3 PUSH1 0xE0 SHL DUP2 MSTORE DUP1 DUP6 ADD DUP5 SWAP1 MSTORE REVERT JUMPDEST DUP8 MLOAD PUSH4 0x2A875269 PUSH1 0xE2 SHL DUP2 MSTORE DUP1 DUP7 ADD SWAP2 SWAP1 SWAP2 MSTORE REVERT JUMPDEST SWAP1 SWAP2 POP DUP5 DUP2 DUP2 RETURNDATASIZE DUP4 GT PUSH2 0xBF8 JUMPI JUMPDEST PUSH2 0xBE8 DUP2 DUP4 PUSH2 0xC93 JUMP JUMPDEST DUP2 ADD SUB SLT PUSH2 0x90B JUMPI MLOAD SWAP1 CODESIZE PUSH2 0xAAD JUMP JUMPDEST POP RETURNDATASIZE PUSH2 0xBDE JUMP JUMPDEST DUP6 MLOAD PUSH4 0x703E46DD PUSH1 0xE1 SHL DUP2 MSTORE DUP9 SWAP1 REVERT JUMPDEST SWAP1 POP DUP2 PUSH32 0x360894A13BA1A3210667C828492DB98DCA3E2076CC3735A920A3CA505D382BBC SLOAD AND EQ ISZERO CODESIZE PUSH2 0xA82 JUMP JUMPDEST PUSH1 0x4 CALLDATALOAD SWAP1 PUSH1 0x1 PUSH1 0x1 PUSH1 0xA0 SHL SUB DUP3 AND DUP3 SUB PUSH2 0x442 JUMPI JUMP JUMPDEST PUSH1 0x24 CALLDATALOAD SWAP1 PUSH1 0x1 PUSH1 0x1 PUSH1 0xA0 SHL SUB DUP3 AND DUP3 SUB PUSH2 0x442 JUMPI JUMP JUMPDEST PUSH8 0xFFFFFFFFFFFFFFFF DUP2 GT PUSH2 0xC7D JUMPI PUSH1 0x40 MSTORE JUMP JUMPDEST PUSH4 0x4E487B71 PUSH1 0xE0 SHL PUSH1 0x0 MSTORE PUSH1 0x41 PUSH1 0x4 MSTORE PUSH1 0x24 PUSH1 0x0 REVERT JUMPDEST SWAP1 PUSH1 0x1F DUP1 NOT SWAP2 ADD AND DUP2 ADD SWAP1 DUP2 LT PUSH8 0xFFFFFFFFFFFFFFFF DUP3 GT OR PUSH2 0xC7D JUMPI PUSH1 0x40 MSTORE JUMP JUMPDEST PUSH8 0xFFFFFFFFFFFFFFFF DUP2 GT PUSH2 0xC7D JUMPI PUSH1 0x1F ADD PUSH1 0x1F NOT AND PUSH1 0x20 ADD SWAP1 JUMP JUMPDEST MLOAD SWAP1 PUSH4 0xFFFFFFFF DUP3 AND DUP3 SUB PUSH2 0x442 JUMPI JUMP JUMPDEST SWAP2 SWAP1 DUP3 PUSH1 0x80 SWAP2 SUB SLT PUSH2 0x442 JUMPI PUSH2 0xCF7 DUP3 PUSH2 0xCD1 JUMP JUMPDEST SWAP2 PUSH2 0xD04 PUSH1 0x20 DUP3 ADD PUSH2 0xCD1 JUMP JUMPDEST SWAP2 PUSH1 0x60 PUSH1 0x40 DUP4 ADD MLOAD SWAP3 ADD MLOAD SWAP1 JUMP JUMPDEST PUSH1 0x1 PUSH1 0x1 PUSH1 0xA0 SHL SUB SWAP1 DUP2 AND SWAP1 DUP2 ISZERO PUSH2 0xD6D JUMPI PUSH1 0x0 DUP1 MLOAD PUSH1 0x20 PUSH2 0xE64 DUP4 CODECOPY DUP2 MLOAD SWAP2 MSTORE DUP1 SLOAD PUSH1 0x1 PUSH1 0x1 PUSH1 0xA0 SHL SUB NOT DUP2 AND DUP5 OR SWAP1 SWAP2 SSTORE AND PUSH32 0x8BE0079C531659141344CD1FD0A4F28419497F9722A3DAAFE3B4186F6B6457E0 PUSH1 0x0 DUP1 LOG3 JUMP JUMPDEST PUSH1 0x40 MLOAD PUSH4 0x1E4FBDF7 PUSH1 0xE0 SHL DUP2 MSTORE PUSH1 0x0 PUSH1 0x4 DUP3 ADD MSTORE PUSH1 0x24 SWAP1 REVERT JUMPDEST PUSH1 0x0 DUP1 MLOAD PUSH1 0x20 PUSH2 0xE64 DUP4 CODECOPY DUP2 MLOAD SWAP2 MSTORE SLOAD PUSH1 0x1 PUSH1 0x1 PUSH1 0xA0 SHL SUB AND CALLER SUB PUSH2 0xDA7 JUMPI JUMP JUMPDEST PUSH1 0x40 MLOAD PUSH4 0x118CDAA7 PUSH1 0xE0 SHL DUP2 MSTORE CALLER PUSH1 0x4 DUP3 ADD MSTORE PUSH1 0x24 SWAP1 REVERT JUMPDEST PUSH1 0xFF PUSH32 0xF0C57E16840DF040F15088DC2F81FE391C3923BEC73E23A9662EFC9C229C6A00 SLOAD PUSH1 0x40 SHR AND ISZERO PUSH2 0xDEE JUMPI JUMP JUMPDEST PUSH1 0x40 MLOAD PUSH4 0x1AFCD79F PUSH1 0xE3 SHL DUP2 MSTORE PUSH1 0x4 SWAP1 REVERT JUMPDEST SWAP1 PUSH2 0xE27 JUMPI POP DUP1 MLOAD ISZERO PUSH2 0xE15 JUMPI DUP1 MLOAD SWAP1 PUSH1 0x20 ADD REVERT JUMPDEST PUSH1 0x40 MLOAD PUSH4 0xD6BDA275 PUSH1 0xE0 SHL DUP2 MSTORE PUSH1 0x4 SWAP1 REVERT JUMPDEST DUP2 MLOAD ISZERO DUP1 PUSH2 0xE5A JUMPI JUMPDEST PUSH2 0xE38 JUMPI POP SWAP1 JUMP JUMPDEST PUSH1 0x40 MLOAD PUSH4 0x9996B315 PUSH1 0xE0 SHL DUP2 MSTORE PUSH1 0x1 PUSH1 0x1 PUSH1 0xA0 SHL SUB SWAP1 SWAP2 AND PUSH1 0x4 DUP3 ADD MSTORE PUSH1 0x24 SWAP1 REVERT JUMPDEST POP DUP1 EXTCODESIZE ISZERO PUSH2 0xE30 JUMP INVALID SWAP1 AND 0xD0 SWAP14 PUSH19 0xD40FDAE2FD8CEAC6B6234C7706214FD39C1CD1 0xE6 MULMOD LOG0 MSTORE DUP13 NOT SWAP4 STOP LOG2 PUSH5 0x6970667358 0x22 SLT KECCAK256 SWAP16 LOG2 0x4F DUP1 STATICCALL ADD 0xE2 0xD0 0xE2 0xAF SWAP1 0x25 DUP13 0xC5 LOG3 0xC6 GASLIMIT PUSH0 0xDF 0xEA SWAP4 EXTCODESIZE PUSH27 0xCC2F9090E912F630E764736F6C6343000816003300000000000000 "},"methodIdentifiers":{"UPGRADE_INTERFACE_VERSION()":"ad3cb1cc","calculateAccruedPoints(address)":"a0d5b223","calculateInteractionPoints(address,address)":"52a6092e","calculateMeetupPoints(address)":"ea276a74","initialize(address,address,address)":"c0c53b8b","owner()":"8da5cb5b","playerManager()":"9cdac8b8","pointsRules()":"e5157761","proxiableUUID()":"52d1902d","renounceOwnership()":"715018a6","transferOwnership(address)":"f2fde38b","upgradeToAndCall(address,bytes)":"4f1ef286"}},"storageLayout":{"storage":[{"astId":2865,"contract":"contracts/PointsCalculator.sol:PointsCalculator","label":"playerManager","offset":0,"slot":"0","type":"t_contract(PlayerManager)2505"},{"astId":2868,"contract":"contracts/PointsCalculator.sol:PointsCalculator","label":"pointsRules","offset":0,"slot":"1","type":"t_contract(PointsRules)3249"}],"types":{"t_contract(PlayerManager)2505":{"encoding":"inplace","label":"contract PlayerManager","numberOfBytes":"20"},"t_contract(PointsRules)3249":{"encoding":"inplace","label":"contract PointsRules","numberOfBytes":"20"}}}}}}