{
  "_format": "hh-sol-artifact-1",
  "contractName": "PlayerScoring",
  "sourceName": "contracts/PlayerScoring.sol",
  "abi": [
    {
      "inputs": [],
      "stateMutability": "nonpayable",
      "type": "constructor"
    },
    {
      "inputs": [
        {
          "internalType": "address",
          "name": "target",
          "type": "address"
        }
      ],
      "name": "AddressEmptyCode",
      "type": "error"
    },
    {
      "inputs": [
        {
          "internalType": "address",
          "name": "implementation",
          "type": "address"
        }
      ],
      "name": "ERC1967InvalidImplementation",
      "type": "error"
    },
    {
      "inputs": [],
      "name": "ERC1967NonPayable",
      "type": "error"
    },
    {
      "inputs": [],
      "name": "FailedCall",
      "type": "error"
    },
    {
      "inputs": [],
      "name": "InvalidInitialization",
      "type": "error"
    },
    {
      "inputs": [],
      "name": "NotInitializing",
      "type": "error"
    },
    {
      "inputs": [
        {
          "internalType": "address",
          "name": "owner",
          "type": "address"
        }
      ],
      "name": "OwnableInvalidOwner",
      "type": "error"
    },
    {
      "inputs": [
        {
          "internalType": "address",
          "name": "account",
          "type": "address"
        }
      ],
      "name": "OwnableUnauthorizedAccount",
      "type": "error"
    },
    {
      "inputs": [],
      "name": "UUPSUnauthorizedCallContext",
      "type": "error"
    },
    {
      "inputs": [
        {
          "internalType": "bytes32",
          "name": "slot",
          "type": "bytes32"
        }
      ],
      "name": "UUPSUnsupportedProxiableUUID",
      "type": "error"
    },
    {
      "anonymous": false,
      "inputs": [
        {
          "indexed": false,
          "internalType": "uint64",
          "name": "version",
          "type": "uint64"
        }
      ],
      "name": "Initialized",
      "type": "event"
    },
    {
      "anonymous": false,
      "inputs": [
        {
          "indexed": true,
          "internalType": "address",
          "name": "previousOwner",
          "type": "address"
        },
        {
          "indexed": true,
          "internalType": "address",
          "name": "newOwner",
          "type": "address"
        }
      ],
      "name": "OwnershipTransferred",
      "type": "event"
    },
    {
      "anonymous": false,
      "inputs": [
        {
          "indexed": true,
          "internalType": "address",
          "name": "player",
          "type": "address"
        },
        {
          "indexed": false,
          "internalType": "uint32",
          "name": "newScore",
          "type": "uint32"
        }
      ],
      "name": "ScoreUpdated",
      "type": "event"
    },
    {
      "anonymous": false,
      "inputs": [
        {
          "indexed": true,
          "internalType": "address",
          "name": "implementation",
          "type": "address"
        }
      ],
      "name": "Upgraded",
      "type": "event"
    },
    {
      "inputs": [],
      "name": "MAX_SCORE",
      "outputs": [
        {
          "internalType": "uint32",
          "name": "",
          "type": "uint32"
        }
      ],
      "stateMutability": "view",
      "type": "function"
    },
    {
      "inputs": [],
      "name": "UPGRADE_INTERFACE_VERSION",
      "outputs": [
        {
          "internalType": "string",
          "name": "",
          "type": "string"
        }
      ],
      "stateMutability": "view",
      "type": "function"
    },
    {
      "inputs": [
        {
          "internalType": "address",
          "name": "_player",
          "type": "address"
        }
      ],
      "name": "getScore",
      "outputs": [
        {
          "internalType": "uint32",
          "name": "",
          "type": "uint32"
        }
      ],
      "stateMutability": "view",
      "type": "function"
    },
    {
      "inputs": [
        {
          "internalType": "uint256",
          "name": "_limit",
          "type": "uint256"
        }
      ],
      "name": "getTopPlayers",
      "outputs": [
        {
          "internalType": "address[]",
          "name": "topPlayers",
          "type": "address[]"
        },
        {
          "internalType": "uint32[]",
          "name": "playerScores",
          "type": "uint32[]"
        }
      ],
      "stateMutability": "view",
      "type": "function"
    },
    {
      "inputs": [
        {
          "internalType": "address",
          "name": "_owner",
          "type": "address"
        }
      ],
      "name": "initialize",
      "outputs": [],
      "stateMutability": "nonpayable",
      "type": "function"
    },
    {
      "inputs": [
        {
          "internalType": "address",
          "name": "_player",
          "type": "address"
        }
      ],
      "name": "initializeScore",
      "outputs": [],
      "stateMutability": "nonpayable",
      "type": "function"
    },
    {
      "inputs": [],
      "name": "owner",
      "outputs": [
        {
          "internalType": "address",
          "name": "",
          "type": "address"
        }
      ],
      "stateMutability": "view",
      "type": "function"
    },
    {
      "inputs": [],
      "name": "proxiableUUID",
      "outputs": [
        {
          "internalType": "bytes32",
          "name": "",
          "type": "bytes32"
        }
      ],
      "stateMutability": "view",
      "type": "function"
    },
    {
      "inputs": [],
      "name": "renounceOwnership",
      "outputs": [],
      "stateMutability": "nonpayable",
      "type": "function"
    },
    {
      "inputs": [
        {
          "internalType": "address",
          "name": "",
          "type": "address"
        }
      ],
      "name": "scores",
      "outputs": [
        {
          "internalType": "uint32",
          "name": "",
          "type": "uint32"
        }
      ],
      "stateMutability": "view",
      "type": "function"
    },
    {
      "inputs": [
        {
          "internalType": "address",
          "name": "newOwner",
          "type": "address"
        }
      ],
      "name": "transferOwnership",
      "outputs": [],
      "stateMutability": "nonpayable",
      "type": "function"
    },
    {
      "inputs": [
        {
          "internalType": "address",
          "name": "_player",
          "type": "address"
        },
        {
          "internalType": "uint32",
          "name": "_newScore",
          "type": "uint32"
        }
      ],
      "name": "updateScore",
      "outputs": [],
      "stateMutability": "nonpayable",
      "type": "function"
    },
    {
      "inputs": [
        {
          "internalType": "address",
          "name": "newImplementation",
          "type": "address"
        },
        {
          "internalType": "bytes",
          "name": "data",
          "type": "bytes"
        }
      ],
      "name": "upgradeToAndCall",
      "outputs": [],
      "stateMutability": "payable",
      "type": "function"
    }
  ],
  "bytecode": "0x60a080604052346100cc57306080527ff0c57e16840df040f15088dc2f81fe391c3923bec73e23a9662efc9c229c6a009081549060ff8260401c166100bd57506001600160401b036002600160401b031982821601610078575b604051610d2e90816100d282396080518181816107b901526108980152f35b6001600160401b031990911681179091556040519081527fc7f505b2f371ae2175ee4913f4499e1f2633a7b5936321eed1cdaeb6115181d290602090a1388080610059565b63f92ee8a960e01b8152600490fd5b600080fdfe60806040908082526004918236101561001757600080fd5b600092833560e01c92836327ff622314610a87575082634f1ef2861461081d57826352d1902d146107a4578263715018a61461073a57826376dd110f146101af5782638da5cb5b146107045782639c4bcea314610661578263ad3cb1cc146105c1578263ba3c00671461032c578263c4d66de8146101f1578263d47875d0146101af578263e631fb1d146100e557505063f2fde38b146100b657600080fd5b346100e25760203660031901126100e2576100df6100d2610aa4565b6100da610bfb565b610b87565b80f35b80fd5b909150346101ab57816003193601126101ab57610100610aa4565b6024359163ffffffff83168093036101a75761011a610bfb565b620f4240831161017257506001600160a01b03168084526020848152838520805463ffffffff1916841790559251918252917f805564a06a86e3b1c8a50356c06b08a360c106f743ee9ed7361f4bccdd5ae70891a280f35b606490602085519162461bcd60e51b8352820152600f60248201526e45786365656473206d6178696d756d60881b6044820152fd5b8480fd5b8280fd5b8382346101ed5760203660031901126101ed5760209163ffffffff9082906001600160a01b036101dd610aa4565b1681528085522054169051908152f35b5080fd5b909150346101ab5760203660031901126101ab5761020d610aa4565b907ff0c57e16840df040f15088dc2f81fe391c3923bec73e23a9662efc9c229c6a0091825460ff81861c16159267ffffffffffffffff821680159081610324575b600114908161031a575b159081610311575b50610303575067ffffffffffffffff19811660011784556102939190836102e4575b5061028b610c34565b6100da610c34565b61029b610c34565b6102a3578280f35b805468ff00000000000000001916905551600181527fc7f505b2f371ae2175ee4913f4499e1f2633a7b5936321eed1cdaeb6115181d290602090a138808280f35b68ffffffffffffffffff19166801000000000000000117845538610282565b855163f92ee8a960e01b8152fd5b90501538610260565b303b159150610258565b85915061024e565b8390346101ed576020806003193601126101ab5781359261034d333b610b2b565b610357333b610b2b565b829583333b905b81811061055457505086811115610548575085919695949293965b61038283610b2b565b9361038c84610b2b565b96865b85811061042057505050505050835194848695860190865282518091528160608701930190845b81811061040057505050848203818601528080855193848152019401925b8281106103e357505050500390f35b835163ffffffff16855286955093810193928101926001016103d4565b82516001600160a01b0316855288975093830193918301916001016103b6565b809a979698999a6001808301808411610535575b8481106105015750509081816001930361048f575b50818060a01b0361045a8287610b5d565b5116610466828c610b5d565b5263ffffffff6104768288610b5d565b5116610482828d610b5d565b520199989795969961038f565b63ffffffff8061049f838a610b5d565b5116906104ac848a610b5d565b51166104b8838a610b5d565b526104c38389610b5d565b52828060a01b03906104ef826104d9838a610b5d565b5116926104e6858a610b5d565b51169188610b5d565b526104fa8287610b5d565b528c610449565b63ffffffff80610511838b610b5d565b51169061051e858b610b5d565b51161061052d575b8101610434565b915081610526565b634e487b7160e01b8a526011865260248afd5b91969594929396610379565b6001600160a01b0381168087528688528a87205463ffffffff16908161057f575b505060010161035e565b61058c8b889c949c610b5d565b526105978286610b5d565b5260001981146105ae57600180910198908b610575565b634e487b7160e01b865260118852602486fd5b909150346101ab57826003193601126101ab578151908282019082821067ffffffffffffffff83111761064e5750825260058152602090640352e302e360dc1b6020820152825193849260208452825192836020860152825b84811061063857505050828201840152601f01601f19168101030190f35b818101830151888201880152879550820161061a565b634e487b7160e01b855260419052602484fd5b909150346101ab5760203660031901126101ab5761067d610aa4565b610685610bfb565b6001600160a01b031680845260208490528284205490919063ffffffff166106c157508252816020528120600a63ffffffff1982541617905580f35b606490602084519162461bcd60e51b8352820152601960248201527f53636f726520616c726561647920696e697469616c697a6564000000000000006044820152fd5b8382346101ed57816003193601126101ed57600080516020610cd98339815191525490516001600160a01b039091168152602090f35b83346100e257806003193601126100e257610753610bfb565b600080516020610cd983398151915280546001600160a01b0319811690915581906001600160a01b03167f8be0079c531659141344cd1fd0a4f28419497f9722a3daafe3b4186f6b6457e08280a380f35b9083346100e257806003193601126100e257507f00000000000000000000000000000000000000000000000000000000000000006001600160a01b0316300361081057602090517f360894a13ba1a3210667c828492db98dca3e2076cc3735a920a3ca505d382bbc8152f35b5163703e46dd60e11b8152fd5b9150806003193601126101ab57610832610aa4565b90602493843567ffffffffffffffff81116101ed57366023820112156101ed578085013561085f81610af7565b9461086c85519687610abf565b81865260209182870193368a8383010111610a83578186928b8693018737880101526001600160a01b037f00000000000000000000000000000000000000000000000000000000000000008116308114908115610a55575b50610a45576108d1610bfb565b81169585516352d1902d60e01b815283818a818b5afa869181610a12575b5061090b575050505050505191634c9c8ce360e01b8352820152fd5b9088888894938c7f360894a13ba1a3210667c828492db98dca3e2076cc3735a920a3ca505d382bbc918281036109fd5750853b156109e9575080546001600160a01b031916821790558451889392917fbc7cd75a20ee27fd9adebab32041f755214dbc6bffa90cc0225b39da2e5c2d3b8580a28251156109cb5750506109bd9582915190845af4913d156109c1573d6109af6109a682610af7565b92519283610abf565b81528581943d92013e610c75565b5080f35b5060609250610c75565b9550955050505050346109dd57505080f35b63b398979f60e01b8152fd5b8651634c9c8ce360e01b8152808501849052fd5b8751632a87526960e21b815280860191909152fd5b9091508481813d8311610a3e575b610a2a8183610abf565b81010312610a3a575190386108ef565b8680fd5b503d610a20565b855163703e46dd60e11b81528890fd5b9050817f360894a13ba1a3210667c828492db98dca3e2076cc3735a920a3ca505d382bbc54161415386108c4565b8580fd5b8490346101ed57816003193601126101ed5780620f424060209252f35b600435906001600160a01b0382168203610aba57565b600080fd5b90601f8019910116810190811067ffffffffffffffff821117610ae157604052565b634e487b7160e01b600052604160045260246000fd5b67ffffffffffffffff8111610ae157601f01601f191660200190565b67ffffffffffffffff8111610ae15760051b60200190565b90610b3582610b13565b610b426040519182610abf565b8281528092610b53601f1991610b13565b0190602036910137565b8051821015610b715760209160051b010190565b634e487b7160e01b600052603260045260246000fd5b6001600160a01b03908116908115610be257600080516020610cd983398151915280546001600160a01b031981168417909155167f8be0079c531659141344cd1fd0a4f28419497f9722a3daafe3b4186f6b6457e0600080a3565b604051631e4fbdf760e01b815260006004820152602490fd5b600080516020610cd9833981519152546001600160a01b03163303610c1c57565b60405163118cdaa760e01b8152336004820152602490fd5b60ff7ff0c57e16840df040f15088dc2f81fe391c3923bec73e23a9662efc9c229c6a005460401c1615610c6357565b604051631afcd79f60e31b8152600490fd5b90610c9c5750805115610c8a57805190602001fd5b60405163d6bda27560e01b8152600490fd5b81511580610ccf575b610cad575090565b604051639996b31560e01b81526001600160a01b039091166004820152602490fd5b50803b15610ca556fe9016d09d72d40fdae2fd8ceac6b6234c7706214fd39c1cd1e609a0528c199300a26469706673582212207ab6ded8c65021a398e199cb3de0140dfd74b7fd8ab947f67c2bcfe509878b6d64736f6c63430008160033",
  "linkReferences": {},
  "deployedLinkReferences": {}
}