{
  "_format": "hh-sol-artifact-1",
  "contractName": "GameFactory",
  "sourceName": "contracts/GameFactory.sol",
  "abi": [
    {
      "inputs": [],
      "stateMutability": "nonpayable",
      "type": "constructor"
    },
    {
      "inputs": [
        {
          "internalType": "address",
          "name": "target",
          "type": "address"
        }
      ],
      "name": "AddressEmptyCode",
      "type": "error"
    },
    {
      "inputs": [
        {
          "internalType": "address",
          "name": "implementation",
          "type": "address"
        }
      ],
      "name": "ERC1967InvalidImplementation",
      "type": "error"
    },
    {
      "inputs": [],
      "name": "ERC1967NonPayable",
      "type": "error"
    },
    {
      "inputs": [],
      "name": "EnforcedPause",
      "type": "error"
    },
    {
      "inputs": [],
      "name": "ExpectedPause",
      "type": "error"
    },
    {
      "inputs": [],
      "name": "FailedCall",
      "type": "error"
    },
    {
      "inputs": [],
      "name": "InvalidInitialization",
      "type": "error"
    },
    {
      "inputs": [],
      "name": "NotInitializing",
      "type": "error"
    },
    {
      "inputs": [
        {
          "internalType": "address",
          "name": "owner",
          "type": "address"
        }
      ],
      "name": "OwnableInvalidOwner",
      "type": "error"
    },
    {
      "inputs": [
        {
          "internalType": "address",
          "name": "account",
          "type": "address"
        }
      ],
      "name": "OwnableUnauthorizedAccount",
      "type": "error"
    },
    {
      "inputs": [],
      "name": "UUPSUnauthorizedCallContext",
      "type": "error"
    },
    {
      "inputs": [
        {
          "internalType": "bytes32",
          "name": "slot",
          "type": "bytes32"
        }
      ],
      "name": "UUPSUnsupportedProxiableUUID",
      "type": "error"
    },
    {
      "anonymous": false,
      "inputs": [
        {
          "indexed": true,
          "internalType": "address",
          "name": "gameAddress",
          "type": "address"
        },
        {
          "indexed": false,
          "internalType": "uint32",
          "name": "duration",
          "type": "uint32"
        },
        {
          "indexed": false,
          "internalType": "uint256",
          "name": "entryFee",
          "type": "uint256"
        }
      ],
      "name": "GameCreated",
      "type": "event"
    },
    {
      "anonymous": false,
      "inputs": [],
      "name": "GameFactoryInitialized",
      "type": "event"
    },
    {
      "anonymous": false,
      "inputs": [
        {
          "indexed": false,
          "internalType": "uint64",
          "name": "version",
          "type": "uint64"
        }
      ],
      "name": "Initialized",
      "type": "event"
    },
    {
      "anonymous": false,
      "inputs": [
        {
          "indexed": true,
          "internalType": "address",
          "name": "previousOwner",
          "type": "address"
        },
        {
          "indexed": true,
          "internalType": "address",
          "name": "newOwner",
          "type": "address"
        }
      ],
      "name": "OwnershipTransferred",
      "type": "event"
    },
    {
      "anonymous": false,
      "inputs": [
        {
          "indexed": false,
          "internalType": "address",
          "name": "account",
          "type": "address"
        }
      ],
      "name": "Paused",
      "type": "event"
    },
    {
      "anonymous": false,
      "inputs": [
        {
          "indexed": false,
          "internalType": "address",
          "name": "account",
          "type": "address"
        }
      ],
      "name": "Unpaused",
      "type": "event"
    },
    {
      "anonymous": false,
      "inputs": [
        {
          "indexed": true,
          "internalType": "address",
          "name": "implementation",
          "type": "address"
        }
      ],
      "name": "Upgraded",
      "type": "event"
    },
    {
      "inputs": [],
      "name": "UPGRADE_INTERFACE_VERSION",
      "outputs": [
        {
          "internalType": "string",
          "name": "",
          "type": "string"
        }
      ],
      "stateMutability": "view",
      "type": "function"
    },
    {
      "inputs": [
        {
          "internalType": "uint32",
          "name": "_duration",
          "type": "uint32"
        },
        {
          "internalType": "uint256",
          "name": "_entryFee",
          "type": "uint256"
        }
      ],
      "name": "createGame",
      "outputs": [
        {
          "internalType": "address",
          "name": "",
          "type": "address"
        }
      ],
      "stateMutability": "nonpayable",
      "type": "function"
    },
    {
      "inputs": [],
      "name": "initialize",
      "outputs": [],
      "stateMutability": "nonpayable",
      "type": "function"
    },
    {
      "inputs": [],
      "name": "owner",
      "outputs": [
        {
          "internalType": "address",
          "name": "",
          "type": "address"
        }
      ],
      "stateMutability": "view",
      "type": "function"
    },
    {
      "inputs": [],
      "name": "pause",
      "outputs": [],
      "stateMutability": "nonpayable",
      "type": "function"
    },
    {
      "inputs": [],
      "name": "paused",
      "outputs": [
        {
          "internalType": "bool",
          "name": "",
          "type": "bool"
        }
      ],
      "stateMutability": "view",
      "type": "function"
    },
    {
      "inputs": [],
      "name": "proxiableUUID",
      "outputs": [
        {
          "internalType": "bytes32",
          "name": "",
          "type": "bytes32"
        }
      ],
      "stateMutability": "view",
      "type": "function"
    },
    {
      "inputs": [],
      "name": "renounceOwnership",
      "outputs": [],
      "stateMutability": "nonpayable",
      "type": "function"
    },
    {
      "inputs": [
        {
          "internalType": "address",
          "name": "newOwner",
          "type": "address"
        }
      ],
      "name": "transferOwnership",
      "outputs": [],
      "stateMutability": "nonpayable",
      "type": "function"
    },
    {
      "inputs": [],
      "name": "unpause",
      "outputs": [],
      "stateMutability": "nonpayable",
      "type": "function"
    },
    {
      "inputs": [
        {
          "internalType": "address",
          "name": "newImplementation",
          "type": "address"
        },
        {
          "internalType": "bytes",
          "name": "data",
          "type": "bytes"
        }
      ],
      "name": "upgradeToAndCall",
      "outputs": [],
      "stateMutability": "payable",
      "type": "function"
    }
  ],
  "bytecode": "0x60a080604052346100cc57306080527ff0c57e16840df040f15088dc2f81fe391c3923bec73e23a9662efc9c229c6a009081549060ff8260401c166100bd57506001600160401b036002600160401b031982821601610078575b60405161187690816100d2823960805181818161059a015261067a0152f35b6001600160401b031990911681179091556040519081527fc7f505b2f371ae2175ee4913f4499e1f2633a7b5936321eed1cdaeb6115181d290602090a1388080610059565b63f92ee8a960e01b8152600490fd5b600080fdfe6040608081526004908136101561001557600080fd5b600090813560e01c80633f4ba83a146108695780634f1ef286146105fe57806352d1902d146105855780635c975abb14610555578063715018a6146104eb5780638129fc1c1461036a5780638456cb59146103035780638da5cb5b146102ce578063ad3cb1cc1461022f578063f2fde38b146102025763f4de2d481461009a57600080fd5b346101fe57806003193601126101fe57823563ffffffff81168091036101fa576024356100c56109c4565b6100cd6109fd565b8251610d349081810167ffffffffffffffff92828210848311176101e757908291610acd8339039086f080156101dd576001600160a01b031694853b156101da57845163ce17edf160e01b81528781018590526bffffffffffffffffffffffff84166024820152336044820152918183606481838b5af180156101d057610188575b60208787817f67c30dca4e153e04c532391b0ad542a491945580dd4b24e5c3eff7eb8f989065828a8a825191825287820152a251908152f35b82116101bd575083526020945082827f67c30dca4e153e04c532391b0ad542a491945580dd4b24e5c3eff7eb8f98906561014f565b634e487b7160e01b815260418752602490fd5b86513d84823e3d90fd5b80fd5b84513d87823e3d90fd5b634e487b7160e01b885260418952602488fd5b8280fd5b5080fd5b82346101da5760203660031901126101da5761022c61021f6108e1565b6102276109c4565b610950565b80f35b5082346101fa57826003193601126101fa578151908282019082821067ffffffffffffffff8311176102bb5750825260058152602090640352e302e360dc1b6020820152825193849260208452825192836020860152825b8481106102a557505050828201840152601f01601f19168101030190f35b8181018301518882018801528795508201610287565b634e487b7160e01b855260419052602484fd5b50346101fe57816003193601126101fe576000805160206118018339815191525490516001600160a01b039091168152602090f35b50346101fe57816003193601126101fe5760207f62e78cea01bee320cd4e420270b5ea74000d11b0c9f74754ebdbfc544b05a258916103406109c4565b6103486109fd565b600080516020611821833981519152805460ff1916600117905551338152a180f35b508290346101fa57826003193601126101fa577ff0c57e16840df040f15088dc2f81fe391c3923bec73e23a9662efc9c229c6a0090815460ff81831c16159367ffffffffffffffff8216801590816104e3575b60011490816104d9575b1590816104d0575b506104c2575067ffffffffffffffff1981166001178355836104a3575b506103f5610a28565b6103fd610a28565b61040633610950565b61040e610a28565b610416610a28565b61041e610a28565b600080516020611821833981519152805460ff1916905551917f99f57ea0a5abda889c45a1be0e4458a7482b6ee821ce0648aaf43fdc24528cc68480a1610463578280f35b805468ff000000000000000019169055600181527fc7f505b2f371ae2175ee4913f4499e1f2633a7b5936321eed1cdaeb6115181d290602090a181808280f35b68ffffffffffffffffff191668010000000000000001178255846103ec565b825163f92ee8a960e01b8152fd5b905015876103cf565b303b1591506103c7565b8691506103bd565b82346101da57806003193601126101da576105046109c4565b60008051602061180183398151915280546001600160a01b0319811690915581906001600160a01b03167f8be0079c531659141344cd1fd0a4f28419497f9722a3daafe3b4186f6b6457e08280a380f35b50346101fe57816003193601126101fe5760209060ff600080516020611821833981519152541690519015158152f35b5090346101da57806003193601126101da57507f00000000000000000000000000000000000000000000000000000000000000006001600160a01b031630036105f157602090517f360894a13ba1a3210667c828492db98dca3e2076cc3735a920a3ca505d382bbc8152f35b5163703e46dd60e11b8152fd5b508083916003193601126101fa576106146108e1565b90602493843567ffffffffffffffff81116101fe57366023820112156101fe578085013561064181610934565b9461064e855196876108fc565b81865260209182870193368a8383010111610865578186928b8693018737880101526001600160a01b037f00000000000000000000000000000000000000000000000000000000000000008116308114908115610837575b50610827576106b36109c4565b81169585516352d1902d60e01b815283818a818b5afa8691816107f4575b506106ed575050505050505191634c9c8ce360e01b8352820152fd5b9088888894938c7f360894a13ba1a3210667c828492db98dca3e2076cc3735a920a3ca505d382bbc918281036107df5750853b156107cb575080546001600160a01b031916821790558451889392917fbc7cd75a20ee27fd9adebab32041f755214dbc6bffa90cc0225b39da2e5c2d3b8580a28251156107ad57505061079f9582915190845af4913d156107a3573d61079161078882610934565b925192836108fc565b81528581943d92013e610a69565b5080f35b5060609250610a69565b9550955050505050346107bf57505080f35b63b398979f60e01b8152fd5b8651634c9c8ce360e01b8152808501849052fd5b8751632a87526960e21b815280860191909152fd5b9091508481813d8311610820575b61080c81836108fc565b8101031261081c5751908b6106d1565b8680fd5b503d610802565b855163703e46dd60e11b81528890fd5b9050817f360894a13ba1a3210667c828492db98dca3e2076cc3735a920a3ca505d382bbc541614158a6106a6565b8580fd5b5082346101fa57826003193601126101fa576108836109c4565b6000805160206118218339815191529081549060ff8216156108d3575060ff19169055513381527f5db9ee0a495bf2e6ff9c91a7834c1ba4fdd244a5e8aa4e537bd38aeae4b073aa90602090a180f35b8351638dfc202b60e01b8152fd5b600435906001600160a01b03821682036108f757565b600080fd5b90601f8019910116810190811067ffffffffffffffff82111761091e57604052565b634e487b7160e01b600052604160045260246000fd5b67ffffffffffffffff811161091e57601f01601f191660200190565b6001600160a01b039081169081156109ab5760008051602061180183398151915280546001600160a01b031981168417909155167f8be0079c531659141344cd1fd0a4f28419497f9722a3daafe3b4186f6b6457e0600080a3565b604051631e4fbdf760e01b815260006004820152602490fd5b600080516020611801833981519152546001600160a01b031633036109e557565b60405163118cdaa760e01b8152336004820152602490fd5b60ff6000805160206118218339815191525416610a1657565b60405163d93c066560e01b8152600490fd5b60ff7ff0c57e16840df040f15088dc2f81fe391c3923bec73e23a9662efc9c229c6a005460401c1615610a5757565b604051631afcd79f60e31b8152600490fd5b90610a905750805115610a7e57805190602001fd5b60405163d6bda27560e01b8152600490fd5b81511580610ac3575b610aa1575090565b604051639996b31560e01b81526001600160a01b039091166004820152602490fd5b50803b15610a9956fe60a0806040523461002a5730608052610d049081610030823960805181818161041a01526104f90152f35b600080fdfe6080604081815260048036101561001557600080fd5b600092833560e01c9081631babe07e146108fe575080632f926732146106e45780634f1ef2861461047e57806352d1902d14610405578063715018a6146103985780638da5cb5b14610362578063ad3cb1cc146102c4578063ce17edf114610115578063e586a4f0146100e95763f2fde38b1461009157600080fd5b346100e55760203660031901126100e5576100aa610ae6565b916100b3610bbc565b6001600160a01b038316156100cf57836100cc84610bf5565b80f35b51631e4fbdf760e01b8152908101839052602490fd5b8280fd5b5050346101115781600319360112610111576001600160601b0360209254821c169051908152f35b5080fd5b50346100e55760603660031901126100e55780359063ffffffff821682036102c057602435916001600160601b03831683036102bc57604435906001600160a01b03821682036102b8577ff0c57e16840df040f15088dc2f81fe391c3923bec73e23a9662efc9c229c6a0093845460ff81881c16159467ffffffffffffffff8216801590816102b0575b60011490816102a6575b15908161029d575b5061028f575067ffffffffffffffff19811660011786556102279392919085610270575b5073ffffffffffffffffffffffff0000000000000000885467ffffffff00000000600160a01b9460201b169074ffffffffffffffffffffffffffffffffff0000000019161791881b1617178655610bf5565b61022f578280f35b805468ff00000000000000001916905551600181527fc7f505b2f371ae2175ee4913f4499e1f2633a7b5936321eed1cdaeb6115181d290602090a138808280f35b68ffffffffffffffffff191668010000000000000001178655386101d5565b875163f92ee8a960e01b8152fd5b905015386101b1565b303b1591506101a9565b87915061019f565b8580fd5b8480fd5b8380fd5b50346100e557826003193601126100e5578151908282019082821067ffffffffffffffff83111761034f5750825260058152602090640352e302e360dc1b6020820152825193849260208452825192836020860152825b84811061033957505050828201840152601f01601f19168101030190f35b818101830151888201880152879550820161031b565b634e487b7160e01b855260419052602484fd5b505034610111578160031936011261011157600080516020610caf8339815191525490516001600160a01b039091168152602090f35b83346104025780600319360112610402576103b1610bbc565b600080516020610caf83398151915280546001600160a01b0319811690915581906001600160a01b03167f8be0079c531659141344cd1fd0a4f28419497f9722a3daafe3b4186f6b6457e08280a380f35b80fd5b509134610402578060031936011261040257507f00000000000000000000000000000000000000000000000000000000000000006001600160a01b0316300361047157602090517f360894a13ba1a3210667c828492db98dca3e2076cc3735a920a3ca505d382bbc8152f35b5163703e46dd60e11b8152fd5b5090806003193601126100e557610493610ae6565b90602493843567ffffffffffffffff8111610111573660238201121561011157808501356104c081610b39565b946104cd85519687610b01565b81865260209182870193368a83830101116102b8578186928b8693018737880101526001600160a01b037f000000000000000000000000000000000000000000000000000000000000000081163081149081156106b6575b506106a657610532610bbc565b81169585516352d1902d60e01b815283818a818b5afa869181610673575b5061056c575050505050505191634c9c8ce360e01b8352820152fd5b9088888894938c7f360894a13ba1a3210667c828492db98dca3e2076cc3735a920a3ca505d382bbc9182810361065e5750853b1561064a575080546001600160a01b031916821790558451889392917fbc7cd75a20ee27fd9adebab32041f755214dbc6bffa90cc0225b39da2e5c2d3b8580a282511561062c57505061061e9582915190845af4913d15610622573d61061061060782610b39565b92519283610b01565b81528581943d92013e610c4b565b5080f35b5060609250610c4b565b95509550505050503461063e57505080f35b63b398979f60e01b8152fd5b8651634c9c8ce360e01b8152808501849052fd5b8751632a87526960e21b815280860191909152fd5b9091508481813d831161069f575b61068b8183610b01565b8101031261069b57519038610550565b8680fd5b503d610681565b855163703e46dd60e11b81528890fd5b9050817f360894a13ba1a3210667c828492db98dca3e2076cc3735a920a3ca505d382bbc5416141538610525565b50816003193601126100e557825460018160a01c16156108ef57821c6001600160601b031634036108e15761ffff60025410156108d357815163ffffffff60e0820167ffffffffffffffff8111838210176108c0576003869386859460ff94825280421683526107dc6020840191878352838501600a81526107ba8860608801958d3587528460808a01986024358a5260a08b019e8f528d60c08c019e8f5233815260016020522099511663ffffffff198a54161789555116879064ff0000000082549160201b169064ff000000001916179055565b51855468ffffffff00000000001916911660281b63ffffffff60281b16178455565b5160018301555160028201550192511665ffffffffff008354925160081b169165ffffffffffff19161717905560025490680100000000000000008210156108ad57600182018060025582101561089a5750600283527f405787fa12a823e0f2b7631cc41b3ba8828b3321ca811111fa75cd3aa3bb5ace01336001600160601b0360a01b8254161790557fe59e62345b471635a7590edf71e200fea112c72164dd02721fc0556e29735352815191838352600a60208401523392a280f35b634e487b7160e01b845260329052602483fd5b634e487b7160e01b845260419052602483fd5b634e487b7160e01b865260418452602486fd5b905163f1fcd77960e01b8152fd5b9051630440523d60e41b8152fd5b50905163baf3f0f760e01b8152fd5b929050346102c05760203660031901126102c05761091a610ae6565b9260019081865460a01c1615610ad85750338552806020528185209360018060a01b0316938486528286209080549163ffffffff928381169260ff8260201c1684420392428411610ac5578787620151808096041610801590610abb575b15610aab57610993908780875460281c169160281c16610b55565b9590938785169a620f4240808d11908115610a9f575b50610a915750610a429587959094610a2294919390928a92918c91810184164210610a83575050508042166109f58b5b845464ff00000000191660209190911b64ff0000000016178455565b1663ffffffff198254161781559063ffffffff60281b82549160281b169063ffffffff60281b1916179055565b9063ffffffff60281b82549160281b169063ffffffff60281b1916179055565b83519483865260208601527fe59e62345b471635a7590edf71e200fea112c72164dd02721fc0556e297353529485853392a28351928352166020820152a280f35b916109f5910160ff166109d9565b8a516334a24c0d60e01b8152fd5b905089891611386109a9565b8851633f9d5fd960e01b81528a90fd5b50600a8210610978565b634e487b7160e01b8c5260118a5260248cfd5b63baf3f0f760e01b81528390fd5b600435906001600160a01b0382168203610afc57565b600080fd5b90601f8019910116810190811067ffffffffffffffff821117610b2357604052565b634e487b7160e01b600052604160045260246000fd5b67ffffffffffffffff8111610b2357601f01601f191660200190565b90919063ffffffff90818116828516808211610b9257506002839111600014610b875760029160011901165b93011690565b505060026000610b81565b91949183915060021015610bb0576002916001190116935b01169190565b50506002600093610baa565b600080516020610caf833981519152546001600160a01b03163303610bdd57565b60405163118cdaa760e01b8152336004820152602490fd5b600080516020610caf83398151915280546001600160a01b039283166001600160a01b0319821681179092559091167f8be0079c531659141344cd1fd0a4f28419497f9722a3daafe3b4186f6b6457e0600080a3565b90610c725750805115610c6057805190602001fd5b60405163d6bda27560e01b8152600490fd5b81511580610ca5575b610c83575090565b604051639996b31560e01b81526001600160a01b039091166004820152602490fd5b50803b15610c7b56fe9016d09d72d40fdae2fd8ceac6b6234c7706214fd39c1cd1e609a0528c199300a2646970667358221220f1c05de83e0ad4b32b25a2fd2a5caaa69b189639d21ef101855c95a7fa2d7dd364736f6c634300081600339016d09d72d40fdae2fd8ceac6b6234c7706214fd39c1cd1e609a0528c199300cd5ed15c6e187e77e9aee88184c21f4f2182ab5827cb3b7e07fbedcd63f03300a26469706673582212209c66a8ba43e14a201ea75edae9c15768e8c9981a32f7f5cfe8aa74b589d94aae64736f6c63430008160033",
  "linkReferences": {},
  "deployedLinkReferences": {}
}