{
  "_format": "hh-sol-artifact-1",
  "contractName": "PlayerManager",
  "sourceName": "contracts/PlayerManager.sol",
  "abi": [
    {
      "inputs": [],
      "stateMutability": "nonpayable",
      "type": "constructor"
    },
    {
      "inputs": [
        {
          "internalType": "address",
          "name": "target",
          "type": "address"
        }
      ],
      "name": "AddressEmptyCode",
      "type": "error"
    },
    {
      "inputs": [
        {
          "internalType": "address",
          "name": "implementation",
          "type": "address"
        }
      ],
      "name": "ERC1967InvalidImplementation",
      "type": "error"
    },
    {
      "inputs": [],
      "name": "ERC1967NonPayable",
      "type": "error"
    },
    {
      "inputs": [],
      "name": "FailedCall",
      "type": "error"
    },
    {
      "inputs": [],
      "name": "InvalidInitialization",
      "type": "error"
    },
    {
      "inputs": [],
      "name": "NotInitializing",
      "type": "error"
    },
    {
      "inputs": [
        {
          "internalType": "address",
          "name": "owner",
          "type": "address"
        }
      ],
      "name": "OwnableInvalidOwner",
      "type": "error"
    },
    {
      "inputs": [
        {
          "internalType": "address",
          "name": "account",
          "type": "address"
        }
      ],
      "name": "OwnableUnauthorizedAccount",
      "type": "error"
    },
    {
      "inputs": [],
      "name": "UUPSUnauthorizedCallContext",
      "type": "error"
    },
    {
      "inputs": [
        {
          "internalType": "bytes32",
          "name": "slot",
          "type": "bytes32"
        }
      ],
      "name": "UUPSUnsupportedProxiableUUID",
      "type": "error"
    },
    {
      "anonymous": false,
      "inputs": [
        {
          "indexed": false,
          "internalType": "uint64",
          "name": "version",
          "type": "uint64"
        }
      ],
      "name": "Initialized",
      "type": "event"
    },
    {
      "anonymous": false,
      "inputs": [
        {
          "indexed": true,
          "internalType": "address",
          "name": "previousOwner",
          "type": "address"
        },
        {
          "indexed": true,
          "internalType": "address",
          "name": "newOwner",
          "type": "address"
        }
      ],
      "name": "OwnershipTransferred",
      "type": "event"
    },
    {
      "anonymous": false,
      "inputs": [
        {
          "indexed": true,
          "internalType": "address",
          "name": "player",
          "type": "address"
        },
        {
          "indexed": false,
          "internalType": "bytes32",
          "name": "username",
          "type": "bytes32"
        }
      ],
      "name": "PlayerRegistered",
      "type": "event"
    },
    {
      "anonymous": false,
      "inputs": [
        {
          "indexed": true,
          "internalType": "address",
          "name": "implementation",
          "type": "address"
        }
      ],
      "name": "Upgraded",
      "type": "event"
    },
    {
      "inputs": [],
      "name": "UPGRADE_INTERFACE_VERSION",
      "outputs": [
        {
          "internalType": "string",
          "name": "",
          "type": "string"
        }
      ],
      "stateMutability": "view",
      "type": "function"
    },
    {
      "inputs": [
        {
          "internalType": "address",
          "name": "_player",
          "type": "address"
        },
        {
          "internalType": "bytes32",
          "name": "_username",
          "type": "bytes32"
        },
        {
          "internalType": "bytes32",
          "name": "_pseudonym",
          "type": "bytes32"
        }
      ],
      "name": "addPlayer",
      "outputs": [],
      "stateMutability": "nonpayable",
      "type": "function"
    },
    {
      "inputs": [
        {
          "internalType": "address",
          "name": "_player",
          "type": "address"
        }
      ],
      "name": "getPlayer",
      "outputs": [
        {
          "internalType": "uint32",
          "name": "score",
          "type": "uint32"
        },
        {
          "internalType": "uint32",
          "name": "lastPointAccrualTime",
          "type": "uint32"
        },
        {
          "internalType": "bytes32",
          "name": "username",
          "type": "bytes32"
        },
        {
          "internalType": "bytes32",
          "name": "pseudonym",
          "type": "bytes32"
        }
      ],
      "stateMutability": "view",
      "type": "function"
    },
    {
      "inputs": [],
      "name": "getPlayerCount",
      "outputs": [
        {
          "internalType": "uint256",
          "name": "",
          "type": "uint256"
        }
      ],
      "stateMutability": "view",
      "type": "function"
    },
    {
      "inputs": [],
      "name": "getTopPlayers",
      "outputs": [
        {
          "internalType": "address[]",
          "name": "",
          "type": "address[]"
        },
        {
          "internalType": "uint32[]",
          "name": "",
          "type": "uint32[]"
        }
      ],
      "stateMutability": "view",
      "type": "function"
    },
    {
      "inputs": [
        {
          "internalType": "address",
          "name": "_owner",
          "type": "address"
        },
        {
          "internalType": "address",
          "name": "_playerScoring",
          "type": "address"
        }
      ],
      "name": "initialize",
      "outputs": [],
      "stateMutability": "nonpayable",
      "type": "function"
    },
    {
      "inputs": [],
      "name": "owner",
      "outputs": [
        {
          "internalType": "address",
          "name": "",
          "type": "address"
        }
      ],
      "stateMutability": "view",
      "type": "function"
    },
    {
      "inputs": [
        {
          "internalType": "uint256",
          "name": "",
          "type": "uint256"
        }
      ],
      "name": "playerAddresses",
      "outputs": [
        {
          "internalType": "address",
          "name": "",
          "type": "address"
        }
      ],
      "stateMutability": "view",
      "type": "function"
    },
    {
      "inputs": [],
      "name": "playerScoring",
      "outputs": [
        {
          "internalType": "contract PlayerScoring",
          "name": "",
          "type": "address"
        }
      ],
      "stateMutability": "view",
      "type": "function"
    },
    {
      "inputs": [
        {
          "internalType": "address",
          "name": "",
          "type": "address"
        }
      ],
      "name": "players",
      "outputs": [
        {
          "internalType": "uint32",
          "name": "lastPointAccrualTime",
          "type": "uint32"
        },
        {
          "internalType": "bytes32",
          "name": "username",
          "type": "bytes32"
        },
        {
          "internalType": "bytes32",
          "name": "pseudonym",
          "type": "bytes32"
        },
        {
          "internalType": "uint32",
          "name": "score",
          "type": "uint32"
        },
        {
          "internalType": "uint8",
          "name": "flags",
          "type": "uint8"
        }
      ],
      "stateMutability": "view",
      "type": "function"
    },
    {
      "inputs": [],
      "name": "proxiableUUID",
      "outputs": [
        {
          "internalType": "bytes32",
          "name": "",
          "type": "bytes32"
        }
      ],
      "stateMutability": "view",
      "type": "function"
    },
    {
      "inputs": [],
      "name": "renounceOwnership",
      "outputs": [],
      "stateMutability": "nonpayable",
      "type": "function"
    },
    {
      "inputs": [
        {
          "internalType": "address",
          "name": "newOwner",
          "type": "address"
        }
      ],
      "name": "transferOwnership",
      "outputs": [],
      "stateMutability": "nonpayable",
      "type": "function"
    },
    {
      "inputs": [
        {
          "internalType": "address",
          "name": "_player",
          "type": "address"
        },
        {
          "internalType": "uint32",
          "name": "_newScore",
          "type": "uint32"
        }
      ],
      "name": "updateScore",
      "outputs": [],
      "stateMutability": "nonpayable",
      "type": "function"
    },
    {
      "inputs": [
        {
          "internalType": "address",
          "name": "newImplementation",
          "type": "address"
        },
        {
          "internalType": "bytes",
          "name": "data",
          "type": "bytes"
        }
      ],
      "name": "upgradeToAndCall",
      "outputs": [],
      "stateMutability": "payable",
      "type": "function"
    }
  ],
  "bytecode": "0x60a080604052346100cc57306080527ff0c57e16840df040f15088dc2f81fe391c3923bec73e23a9662efc9c229c6a009081549060ff8260401c166100bd57506001600160401b036002600160401b031982821601610078575b6040516110d390816100d282396080518181816109a90152610a8f0152f35b6001600160401b031990911681179091556040519081527fc7f505b2f371ae2175ee4913f4499e1f2633a7b5936321eed1cdaeb6115181d290602090a1388080610059565b63f92ee8a960e01b8152600490fd5b600080fdfe6080604052600436101561001257600080fd5b6000803560e01c806315c6aee214610dd1578063485cc95514610c6b5780634f1ef28614610a1357806352d1902d146109965780635c12cd4b14610883578063715018a61461081957806388e814e6146105715780638da5cb5b1461053b578063a74aa2e814610313578063ad3cb1cc1461026d578063c2e522061461024f578063e2eb41ff146101df578063e631fb1d1461011a578063e742f554146100f15763f2fde38b146100c257600080fd5b346100ee5760203660031901126100ee576100eb6100de610e62565b6100e6610fa0565b610f2c565b80f35b80fd5b50346100ee57806003193601126100ee576002546040516001600160a01b039091168152602090f35b50346100ee5760403660031901126100ee57610134610e62565b6024358263ffffffff928383168093036101db57610150610fa0565b6002546001600160a01b039081169190823b156101d7576044849283604051958694859363e631fb1d60e01b8552169889600485015260248401525af180156101cc576101b4575b5052816020526040822090421663ffffffff1982541617905580f35b6101bd90610e99565b6101c8578238610198565b8280fd5b6040513d84823e3d90fd5b8380fd5b5080fd5b50346100ee5760203660031901126100ee5760a0906040906001600160a01b03610207610e62565b168152806020522060ff63ffffffff9182815416926001820154916003600282015491015492604051958652602086015260408501528116606084015260201c166080820152f35b50346100ee57806003193601126100ee576020600154604051908152f35b50346100ee57806003193601126100ee576040516040810181811067ffffffffffffffff8211176102fd5760405260058152602091640352e302e360dc1b602083015260405192839160208352835191826020850152815b8381106102e657505060408094508284010152601f80199101168101030190f35b8086018201518782016040015286945081016102c5565b634e487b7160e01b600052604160045260246000fd5b50346100ee5760603660031901126100ee5761032d610e62565b60243590610339610fa0565b60018060a01b038091169182845260209184835260016040862001546105015781156104c95760405163ffffffff61037082610e7d565b80421682528482019084825260036040840193604435855260608101948a865260808201948b86528a8c528b8a528460408d2093511663ffffffff198454161783555160018301555160028201550192511664ff0000000083549251871b169164ffffffffff191617179055600154680100000000000000008110156104b55790610402826001889401600155610e15565b81549060031b908388831b921b191617905560025416803b156101db578190602460405180948193639c4bcea360e01b83528960048401525af180156104aa57610475575b50907ff091d63efa6120e473710fa56e2633ee922ceee3574d66ade7a22acf26f835e091604051908152a280f35b936104a27ff091d63efa6120e473710fa56e2633ee922ceee3574d66ade7a22acf26f835e0939295610e99565b939091610447565b6040513d87823e3d90fd5b634e487b7160e01b86526041600452602486fd5b60405162461bcd60e51b815260048101849052601060248201526f496e76616c696420757365726e616d6560801b6044820152606490fd5b60405162461bcd60e51b8152600481018490526012602482015271105b1c9958591e481c9959da5cdd195c995960721b6044820152606490fd5b50346100ee57806003193601126100ee5760008051602061107e833981519152546040516001600160a01b039091168152602090f35b50346100ee57806003193601126100ee5760405161058e81610ead565b600381526060366020830137604051906105a782610ead565b600382526060366020840137825b600381106107f85750600154835b81811061065a5750509060405192839260408401604085528151809152602060608601920190835b818110610638575050508381036020850152602080845192838152019301915b818110610619575050500390f35b825163ffffffff1684528594506020938401939092019160010161060b565b82516001600160a01b03168452879650602093840193909201916001016105eb565b61066381610e15565b9054604051635c12cd4b60e01b815260039290921b1c6001600160a01b031660048201526080908181602481305afa9182156107ed5787926107a6575b5050855b600381106106b7575b50506001016105c3565b63ffffffff6106c68288610f18565b511663ffffffff8316116106dc576001016106a4565b9060025b82811161072757509061071f63ffffffff84936106fe600196610e15565b878060a01b0391549060031b1c16610716858a610f18565b52169187610f18565b5290386106ad565b60001981018181116107925763ffffffff90610762906001600160a01b0361074f828b610f18565b511661075b858b610f18565b5289610f18565b511661076e8289610f18565b52801561077e57600019016106e0565b634e487b7160e01b88526011600452602488fd5b634e487b7160e01b89526011600452602489fd5b90809250813d83116107e6575b6107bd8183610ec9565b810103126107e2576107da60206107d383610f07565b9201610f07565b5038806106a0565b8580fd5b503d6107b3565b6040513d89823e3d90fd5b808461080660019385610f18565b52846108128286610f18565b52016105b5565b50346100ee57806003193601126100ee57610832610fa0565b60008051602061107e83398151915280546001600160a01b0319811690915581906001600160a01b03167f8be0079c531659141344cd1fd0a4f28419497f9722a3daafe3b4186f6b6457e08280a380f35b50346100ee57602090816003193601126100ee576001600160a01b03806108a8610e62565b16908183528284526040832090604051946108c286610e7d565b63ffffffff938484541687528160018501549381890194855260ff600360028801549760408c01988952015488811660608c0152831c1660808a01526002541691602460405180948193630d47875d60e41b835260048301525afa95861561098a57809661094e575b505083608096511691519251936040519516855284015260408301526060820152f35b909695508187813d8311610983575b6109678183610ec9565b810103126100ee57508361097c608097610f07565b959661092b565b503d61095d565b604051903d90823e3d90fd5b50346100ee57806003193601126100ee577f00000000000000000000000000000000000000000000000000000000000000006001600160a01b03163003610a015760206040517f360894a13ba1a3210667c828492db98dca3e2076cc3735a920a3ca505d382bbc8152f35b60405163703e46dd60e11b8152600490fd5b5060403660031901126100ee57610a28610e62565b602491823567ffffffffffffffff81116101db57366023820112156101db578060040135610a5581610eeb565b93610a636040519586610ec9565b81855260209182860193368883830101116107e257818692898693018737870101526001600160a01b037f00000000000000000000000000000000000000000000000000000000000000008116308114908115610c3d575b50610a0157610ac8610fa0565b8116946040516352d1902d60e01b815283816004818a5afa869181610c0a575b50610b0557604051634c9c8ce360e01b8152600481018890528890fd5b8690887f360894a13ba1a3210667c828492db98dca3e2076cc3735a920a3ca505d382bbc91828103610bf55750843b15610bdf575080546001600160a01b031916821790556040518692917fbc7cd75a20ee27fd9adebab32041f755214dbc6bffa90cc0225b39da2e5c2d3b8480a2815115610bc15750610bb49482915190845af4903d15610bb8573d610b9881610eeb565b90610ba66040519283610ec9565b81528581943d92013e61101a565b5080f35b6060925061101a565b94505050505034610bd0575080f35b63b398979f60e01b8152600490fd5b604051634c9c8ce360e01b815260048101849052fd5b60405190632a87526960e21b82526004820152fd5b9091508481813d8311610c36575b610c228183610ec9565b81010312610c3257519038610ae8565b8680fd5b503d610c18565b9050817f360894a13ba1a3210667c828492db98dca3e2076cc3735a920a3ca505d382bbc5416141538610abb565b50346100ee5760403660031901126100ee57610c85610e62565b6024356001600160a01b03811691908290036101c8577ff0c57e16840df040f15088dc2f81fe391c3923bec73e23a9662efc9c229c6a0091825460ff8160401c16159267ffffffffffffffff821680159081610dc9575b6001149081610dbf575b159081610db6575b50610da45767ffffffffffffffff1982166001178555610d1f9184610d85575b50610d17610fd9565b6100e6610fd9565b610d27610fd9565b6bffffffffffffffffffffffff60a01b6002541617600255610d47575080f35b68ff00000000000000001981541690557fc7f505b2f371ae2175ee4913f4499e1f2633a7b5936321eed1cdaeb6115181d2602060405160018152a180f35b68ffffffffffffffffff19166801000000000000000117855538610d0e565b60405163f92ee8a960e01b8152600490fd5b90501538610cee565b303b159150610ce6565b859150610cdc565b50346100ee5760203660031901126100ee57600435906001548210156100ee576020610dfc83610e15565b905460405160039290921b1c6001600160a01b03168152f35b600154811015610e4c5760016000527fb10e2d527612073b26eecdfd717e6a320cf44b4afac2b0732d9fcbe2b7fa0cf60190600090565b634e487b7160e01b600052603260045260246000fd5b600435906001600160a01b0382168203610e7857565b600080fd5b60a0810190811067ffffffffffffffff8211176102fd57604052565b67ffffffffffffffff81116102fd57604052565b6080810190811067ffffffffffffffff8211176102fd57604052565b90601f8019910116810190811067ffffffffffffffff8211176102fd57604052565b67ffffffffffffffff81116102fd57601f01601f191660200190565b519063ffffffff82168203610e7857565b8051821015610e4c5760209160051b010190565b6001600160a01b03908116908115610f875760008051602061107e83398151915280546001600160a01b031981168417909155167f8be0079c531659141344cd1fd0a4f28419497f9722a3daafe3b4186f6b6457e0600080a3565b604051631e4fbdf760e01b815260006004820152602490fd5b60008051602061107e833981519152546001600160a01b03163303610fc157565b60405163118cdaa760e01b8152336004820152602490fd5b60ff7ff0c57e16840df040f15088dc2f81fe391c3923bec73e23a9662efc9c229c6a005460401c161561100857565b604051631afcd79f60e31b8152600490fd5b90611041575080511561102f57805190602001fd5b60405163d6bda27560e01b8152600490fd5b81511580611074575b611052575090565b604051639996b31560e01b81526001600160a01b039091166004820152602490fd5b50803b1561104a56fe9016d09d72d40fdae2fd8ceac6b6234c7706214fd39c1cd1e609a0528c199300a26469706673582212200a399f6af302c6d74d7ccf88dff1b00c9a3da1389dd8363c2bc515216ea6402864736f6c63430008160033",
  "linkReferences": {},
  "deployedLinkReferences": {}
}