{
  "_format": "hh-sol-artifact-1",
  "contractName": "PointsSystem",
  "sourceName": "contracts/PointsSystem.sol",
  "abi": [
    {
      "inputs": [
        {
          "internalType": "address",
          "name": "target",
          "type": "address"
        }
      ],
      "name": "AddressEmptyCode",
      "type": "error"
    },
    {
      "inputs": [
        {
          "internalType": "address",
          "name": "implementation",
          "type": "address"
        }
      ],
      "name": "ERC1967InvalidImplementation",
      "type": "error"
    },
    {
      "inputs": [],
      "name": "ERC1967NonPayable",
      "type": "error"
    },
    {
      "inputs": [],
      "name": "FailedCall",
      "type": "error"
    },
    {
      "inputs": [],
      "name": "InvalidInitialization",
      "type": "error"
    },
    {
      "inputs": [],
      "name": "InvalidScore",
      "type": "error"
    },
    {
      "inputs": [],
      "name": "NotInitializing",
      "type": "error"
    },
    {
      "inputs": [],
      "name": "ScoreOverflow",
      "type": "error"
    },
    {
      "inputs": [],
      "name": "UUPSUnauthorizedCallContext",
      "type": "error"
    },
    {
      "inputs": [
        {
          "internalType": "bytes32",
          "name": "slot",
          "type": "bytes32"
        }
      ],
      "name": "UUPSUnsupportedProxiableUUID",
      "type": "error"
    },
    {
      "anonymous": false,
      "inputs": [
        {
          "indexed": true,
          "internalType": "uint8",
          "name": "actionType",
          "type": "uint8"
        },
        {
          "indexed": false,
          "internalType": "uint32",
          "name": "timestamp",
          "type": "uint32"
        }
      ],
      "name": "GameAction",
      "type": "event"
    },
    {
      "anonymous": false,
      "inputs": [
        {
          "indexed": false,
          "internalType": "uint64",
          "name": "version",
          "type": "uint64"
        }
      ],
      "name": "Initialized",
      "type": "event"
    },
    {
      "anonymous": false,
      "inputs": [
        {
          "indexed": true,
          "internalType": "address",
          "name": "player",
          "type": "address"
        },
        {
          "indexed": false,
          "internalType": "uint8",
          "name": "actionType",
          "type": "uint8"
        },
        {
          "indexed": false,
          "internalType": "uint32",
          "name": "score",
          "type": "uint32"
        }
      ],
      "name": "PlayerAction",
      "type": "event"
    },
    {
      "anonymous": false,
      "inputs": [
        {
          "indexed": true,
          "internalType": "address",
          "name": "implementation",
          "type": "address"
        }
      ],
      "name": "Upgraded",
      "type": "event"
    },
    {
      "inputs": [],
      "name": "UPGRADE_INTERFACE_VERSION",
      "outputs": [
        {
          "internalType": "string",
          "name": "",
          "type": "string"
        }
      ],
      "stateMutability": "view",
      "type": "function"
    },
    {
      "inputs": [
        {
          "internalType": "address",
          "name": "player1",
          "type": "address"
        },
        {
          "internalType": "address",
          "name": "player2",
          "type": "address"
        }
      ],
      "name": "calculateInteraction",
      "outputs": [
        {
          "internalType": "uint32",
          "name": "",
          "type": "uint32"
        },
        {
          "internalType": "uint32",
          "name": "",
          "type": "uint32"
        }
      ],
      "stateMutability": "nonpayable",
      "type": "function"
    },
    {
      "inputs": [],
      "name": "proxiableUUID",
      "outputs": [
        {
          "internalType": "bytes32",
          "name": "",
          "type": "bytes32"
        }
      ],
      "stateMutability": "view",
      "type": "function"
    },
    {
      "inputs": [
        {
          "internalType": "address",
          "name": "newImplementation",
          "type": "address"
        },
        {
          "internalType": "bytes",
          "name": "data",
          "type": "bytes"
        }
      ],
      "name": "upgradeToAndCall",
      "outputs": [],
      "stateMutability": "payable",
      "type": "function"
    }
  ],
  "bytecode": "0x60a0806040523461002a57306080526106789081610030823960805181818161010501526101e70152f35b600080fdfe6080604081815260048036101561001557600080fd5b600092833560e01c908163174580cf146103d2575080634f1ef2861461016c57806352d1902d146100f05763ad3cb1cc1461004f57600080fd5b346100ec57826003193601126100ec578151908282019082821067ffffffffffffffff8311176100d95750825260058152602090640352e302e360dc1b6020820152825193849260208452825192836020860152825b8481106100c357505050828201840152601f01601f19168101030190f35b81810183015188820188015287955082016100a5565b634e487b7160e01b855260419052602484fd5b8280fd5b509134610169578060031936011261016957507f00000000000000000000000000000000000000000000000000000000000000006001600160a01b0316300361015c57602090517f360894a13ba1a3210667c828492db98dca3e2076cc3735a920a3ca505d382bbc8152f35b5163703e46dd60e11b8152fd5b80fd5b5090806003193601126100ec57610181610509565b90602493843567ffffffffffffffff81116103ce57366023820112156103ce57808501356101ae8161055c565b946101bb85519687610524565b81865260209182870193368a83830101116103ca578186928b8693018737880101526001600160a01b037f0000000000000000000000000000000000000000000000000000000000000000811630811490811561039c575b5061038c5781169585516352d1902d60e01b815283818a818b5afa869181610359575b50610252575050505050505191634c9c8ce360e01b8352820152fd5b9088888894938c7f360894a13ba1a3210667c828492db98dca3e2076cc3735a920a3ca505d382bbc918281036103445750853b15610330575080546001600160a01b031916821790558451889392917fbc7cd75a20ee27fd9adebab32041f755214dbc6bffa90cc0225b39da2e5c2d3b8580a28251156103125750506103049582915190845af4913d15610308573d6102f66102ed8261055c565b92519283610524565b81528581943d92013e6105df565b5080f35b50606092506105df565b95509550505050503461032457505080f35b63b398979f60e01b8152fd5b8651634c9c8ce360e01b8152808501849052fd5b8751632a87526960e21b815280860191909152fd5b9091508481813d8311610385575b6103718183610524565b8101031261038157519038610236565b8680fd5b503d610367565b855163703e46dd60e11b81528890fd5b9050817f360894a13ba1a3210667c828492db98dca3e2076cc3735a920a3ca505d382bbc5416141538610213565b8580fd5b5080fd5b91849150346103ce57836003193601126103ce576103ee610509565b6001600160a01b036024358181169392908490036105055716808452600160205285808520948481522063ffffffff9261043586548580855460281c169160281c16610578565b96909185831698620f4240808b119081156104f9575b506104ed575050868995936104808796946104a0949063ffffffff60281b82549160281b169063ffffffff60281b1916179055565b9063ffffffff60281b82549160281b169063ffffffff60281b1916179055565b8251600181528760208201527fe59e62345b471635a7590edf71e200fea112c72164dd02721fc0556e29735352948591a2815194600186521693846020820152a282519182526020820152f35b6334a24c0d60e01b8152fd5b9050878a16118c61044b565b8480fd5b600435906001600160a01b038216820361051f57565b600080fd5b90601f8019910116810190811067ffffffffffffffff82111761054657604052565b634e487b7160e01b600052604160045260246000fd5b67ffffffffffffffff811161054657601f01601f191660200190565b90919063ffffffff908181168285168082116105b5575060028391116000146105aa5760029160011901165b93011690565b5050600260006105a4565b919491839150600210156105d3576002916001190116935b01169190565b505060026000936105cd565b9061060657508051156105f457805190602001fd5b60405163d6bda27560e01b8152600490fd5b81511580610639575b610617575090565b604051639996b31560e01b81526001600160a01b039091166004820152602490fd5b50803b1561060f56fea2646970667358221220bf8313c438a0618632a0b3008672c14bb0e74f6670b51b95a4d665b30a07a97d64736f6c63430008160033",
  "linkReferences": {},
  "deployedLinkReferences": {}
}