{
  "_format": "hh-sol-artifact-1",
  "contractName": "PrizeStorage",
  "sourceName": "contracts/PrizeStorage.sol",
  "abi": [
    {
      "inputs": [],
      "stateMutability": "nonpayable",
      "type": "constructor"
    },
    {
      "inputs": [
        {
          "internalType": "address",
          "name": "target",
          "type": "address"
        }
      ],
      "name": "AddressEmptyCode",
      "type": "error"
    },
    {
      "inputs": [
        {
          "internalType": "address",
          "name": "implementation",
          "type": "address"
        }
      ],
      "name": "ERC1967InvalidImplementation",
      "type": "error"
    },
    {
      "inputs": [],
      "name": "ERC1967NonPayable",
      "type": "error"
    },
    {
      "inputs": [],
      "name": "FailedCall",
      "type": "error"
    },
    {
      "inputs": [],
      "name": "InvalidInitialization",
      "type": "error"
    },
    {
      "inputs": [],
      "name": "NotInitializing",
      "type": "error"
    },
    {
      "inputs": [
        {
          "internalType": "address",
          "name": "owner",
          "type": "address"
        }
      ],
      "name": "OwnableInvalidOwner",
      "type": "error"
    },
    {
      "inputs": [
        {
          "internalType": "address",
          "name": "account",
          "type": "address"
        }
      ],
      "name": "OwnableUnauthorizedAccount",
      "type": "error"
    },
    {
      "inputs": [],
      "name": "UUPSUnauthorizedCallContext",
      "type": "error"
    },
    {
      "inputs": [
        {
          "internalType": "bytes32",
          "name": "slot",
          "type": "bytes32"
        }
      ],
      "name": "UUPSUnsupportedProxiableUUID",
      "type": "error"
    },
    {
      "anonymous": false,
      "inputs": [
        {
          "indexed": false,
          "internalType": "uint64",
          "name": "version",
          "type": "uint64"
        }
      ],
      "name": "Initialized",
      "type": "event"
    },
    {
      "anonymous": false,
      "inputs": [
        {
          "indexed": true,
          "internalType": "address",
          "name": "previousOwner",
          "type": "address"
        },
        {
          "indexed": true,
          "internalType": "address",
          "name": "newOwner",
          "type": "address"
        }
      ],
      "name": "OwnershipTransferred",
      "type": "event"
    },
    {
      "anonymous": false,
      "inputs": [
        {
          "indexed": false,
          "internalType": "uint8[10]",
          "name": "newPercentages",
          "type": "uint8[10]"
        }
      ],
      "name": "PrizePercentagesUpdated",
      "type": "event"
    },
    {
      "anonymous": false,
      "inputs": [
        {
          "indexed": false,
          "internalType": "uint256",
          "name": "newTotal",
          "type": "uint256"
        }
      ],
      "name": "PrizePoolUpdated",
      "type": "event"
    },
    {
      "anonymous": false,
      "inputs": [
        {
          "indexed": true,
          "internalType": "address",
          "name": "implementation",
          "type": "address"
        }
      ],
      "name": "Upgraded",
      "type": "event"
    },
    {
      "inputs": [],
      "name": "UPGRADE_INTERFACE_VERSION",
      "outputs": [
        {
          "internalType": "string",
          "name": "",
          "type": "string"
        }
      ],
      "stateMutability": "view",
      "type": "function"
    },
    {
      "inputs": [
        {
          "internalType": "address",
          "name": "_winner",
          "type": "address"
        }
      ],
      "name": "clearPendingPrize",
      "outputs": [],
      "stateMutability": "nonpayable",
      "type": "function"
    },
    {
      "inputs": [
        {
          "internalType": "address",
          "name": "_winner",
          "type": "address"
        }
      ],
      "name": "getPendingPrize",
      "outputs": [
        {
          "internalType": "uint256",
          "name": "",
          "type": "uint256"
        }
      ],
      "stateMutability": "view",
      "type": "function"
    },
    {
      "inputs": [
        {
          "internalType": "uint8",
          "name": "index",
          "type": "uint8"
        }
      ],
      "name": "getPrizePercentage",
      "outputs": [
        {
          "internalType": "uint8",
          "name": "",
          "type": "uint8"
        }
      ],
      "stateMutability": "view",
      "type": "function"
    },
    {
      "inputs": [
        {
          "internalType": "address",
          "name": "_owner",
          "type": "address"
        }
      ],
      "name": "initialize",
      "outputs": [],
      "stateMutability": "nonpayable",
      "type": "function"
    },
    {
      "inputs": [],
      "name": "owner",
      "outputs": [
        {
          "internalType": "address",
          "name": "",
          "type": "address"
        }
      ],
      "stateMutability": "view",
      "type": "function"
    },
    {
      "inputs": [
        {
          "internalType": "address",
          "name": "",
          "type": "address"
        }
      ],
      "name": "pendingPrizes",
      "outputs": [
        {
          "internalType": "uint256",
          "name": "",
          "type": "uint256"
        }
      ],
      "stateMutability": "view",
      "type": "function"
    },
    {
      "inputs": [
        {
          "internalType": "uint256",
          "name": "",
          "type": "uint256"
        }
      ],
      "name": "prizePercentages",
      "outputs": [
        {
          "internalType": "uint8",
          "name": "",
          "type": "uint8"
        }
      ],
      "stateMutability": "view",
      "type": "function"
    },
    {
      "inputs": [],
      "name": "proxiableUUID",
      "outputs": [
        {
          "internalType": "bytes32",
          "name": "",
          "type": "bytes32"
        }
      ],
      "stateMutability": "view",
      "type": "function"
    },
    {
      "inputs": [],
      "name": "renounceOwnership",
      "outputs": [],
      "stateMutability": "nonpayable",
      "type": "function"
    },
    {
      "inputs": [
        {
          "internalType": "address",
          "name": "_winner",
          "type": "address"
        },
        {
          "internalType": "uint256",
          "name": "_amount",
          "type": "uint256"
        }
      ],
      "name": "setPendingPrize",
      "outputs": [],
      "stateMutability": "nonpayable",
      "type": "function"
    },
    {
      "inputs": [],
      "name": "totalPrizePool",
      "outputs": [
        {
          "internalType": "uint256",
          "name": "",
          "type": "uint256"
        }
      ],
      "stateMutability": "view",
      "type": "function"
    },
    {
      "inputs": [
        {
          "internalType": "address",
          "name": "newOwner",
          "type": "address"
        }
      ],
      "name": "transferOwnership",
      "outputs": [],
      "stateMutability": "nonpayable",
      "type": "function"
    },
    {
      "inputs": [
        {
          "internalType": "uint8[10]",
          "name": "_newPercentages",
          "type": "uint8[10]"
        }
      ],
      "name": "updatePrizePercentages",
      "outputs": [],
      "stateMutability": "nonpayable",
      "type": "function"
    },
    {
      "inputs": [
        {
          "internalType": "uint256",
          "name": "_newTotal",
          "type": "uint256"
        }
      ],
      "name": "updateTotalPrizePool",
      "outputs": [],
      "stateMutability": "nonpayable",
      "type": "function"
    },
    {
      "inputs": [
        {
          "internalType": "address",
          "name": "newImplementation",
          "type": "address"
        },
        {
          "internalType": "bytes",
          "name": "data",
          "type": "bytes"
        }
      ],
      "name": "upgradeToAndCall",
      "outputs": [],
      "stateMutability": "payable",
      "type": "function"
    }
  ],
  "bytecode": "0x60a080604052346100cc57306080527ff0c57e16840df040f15088dc2f81fe391c3923bec73e23a9662efc9c229c6a009081549060ff8260401c166100bd57506001600160401b036002600160401b031982821601610078575b604051610ca790816100d2823960805181818161071001526107ef0152f35b6001600160401b031990911681179091556040519081527fc7f505b2f371ae2175ee4913f4499e1f2633a7b5936321eed1cdaeb6115181d290602090a1388080610059565b63f92ee8a960e01b8152600490fd5b600080fdfe60406080815260048036101561001457600080fd5b600091823560e01c918263283ea25b14610a35578263370a8fbe146109f9578263398ab9a7146109da5782634254adc81461065a5782634f1ef2861461077457826352d1902d146106fb578263715018a614610691578263788f53521461065a5782638c5119c0146104aa5782638da5cb5b146104705783836394ed4d371461043457508263a448bd23146103f8578263ad3cb1cc14610358578263c4d66de814610157578263c91651bb1461010457505063f2fde38b146100d557600080fd5b34610101576020366003190112610101576100fe6100f1610a63565b6100f9610b74565b610b00565b80f35b80fd5b90915034610153576020366003190112610153577f7bc22304ac771f50d6cc29b56387cb4855f284e7a1f83e6420fe9b8bbdaf45c9916020913590610147610b74565b8160015551908152a180f35b8280fd5b909150346101535760208060031936011261035457610174610a63565b907ff0c57e16840df040f15088dc2f81fe391c3923bec73e23a9662efc9c229c6a009283549060ff9260ff83881c16159467ffffffffffffffff908185169485158061034d575b60018097149081610343575b15908161033a575b5061032a5767ffffffffffffffff198116600117895561020191908861030b575b506101f9610bad565b6100f9610bad565b610209610bad565b8751906101408201908111828210176102f8578894939294526019815260146020820152600f88820152600a91600a606083015260086080830152600760a0830152600560c083015260e08201526003610100820152600361012082015292889489905b8382106102c657505050505050600255610285578280f35b805468ff00000000000000001916905551600181527fc7f505b2f371ae2175ee4913f4499e1f2633a7b5936321eed1cdaeb6115181d290602090a138808280f35b90919293836102eb87988585859a5116919060ff809160031b9316831b921b19161790565b970195949392019061026d565b634e487b7160e01b8a526041845260248afd5b68ffffffffffffffffff191668010000000000000001178955386101f0565b895163f92ee8a960e01b81528590fd5b905015386101cf565b303b1591506101c7565b50876101bb565b8380fd5b909150346101535782600319360112610153578151908282019082821067ffffffffffffffff8311176103e55750825260058152602090640352e302e360dc1b6020820152825193849260208452825192836020860152825b8481106103cf57505050828201840152601f01601f19168101030190f35b81810183015188820188015287955082016103b1565b634e487b7160e01b855260419052602484fd5b90915034610153576020366003190112610153573591600a831015610101575060ff610425602093610ad2565b92905490519260031b1c168152f35b80833461046d57602036600319011261046d5761044f610a63565b610457610b74565b6001600160a01b03168252602082905281205580f35b50fd5b8382346104a657816003193601126104a657600080516020610c528339815191525490516001600160a01b039091168152602090f35b5080fd5b9083346101015761014092836003193601126104a65736602312156104a65782519284840184811067ffffffffffffffff821117610647578152836101443681116106435783915b81831061062557505050610504610b74565b829383945b60ff600a818816101561055157611fe08760051b168301511661ffff8092160190811161053e57600160ff9196011694610509565b634e487b7160e01b855260118452602485fd5b50868385606461ffff899516036105f257508284815b600a81106105c457505060025551809383945b600a86106105aa57847f26d73d99f7b9bc8344f55af5c6c3cffb766441d86855f2cb3293d760f8c4141f8585a180f35b60019060ff8351168152602080910192019501949061057a565b909160206105e96001928460ff875116919060ff809160031b9316831b921b19161790565b93019101610567565b6020606492519162461bcd60e51b8352820152600e60248201526d04d75737420746f74616c203130360941b6044820152fd5b823560ff8116810361063f578152602092830192016104f2565b8680fd5b8480fd5b634e487b7160e01b845260418352602484fd5b8382346104a65760203660031901126104a65760209181906001600160a01b03610682610a63565b16815280845220549051908152f35b83346101015780600319360112610101576106aa610b74565b600080516020610c5283398151915280546001600160a01b0319811690915581906001600160a01b03167f8be0079c531659141344cd1fd0a4f28419497f9722a3daafe3b4186f6b6457e08280a380f35b908334610101578060031936011261010157507f00000000000000000000000000000000000000000000000000000000000000006001600160a01b0316300361076757602090517f360894a13ba1a3210667c828492db98dca3e2076cc3735a920a3ca505d382bbc8152f35b5163703e46dd60e11b8152fd5b91508060031936011261015357610789610a63565b90602493843567ffffffffffffffff81116104a657366023820112156104a657808501356107b681610ab6565b946107c385519687610a7e565b81865260209182870193368a83830101116109d6578186928b8693018737880101526001600160a01b037f000000000000000000000000000000000000000000000000000000000000000081163081149081156109a8575b5061099857610828610b74565b81169585516352d1902d60e01b815283818a818b5afa869181610969575b50610862575050505050505191634c9c8ce360e01b8352820152fd5b9088888894938c7f360894a13ba1a3210667c828492db98dca3e2076cc3735a920a3ca505d382bbc918281036109545750853b15610940575080546001600160a01b031916821790558451889392917fbc7cd75a20ee27fd9adebab32041f755214dbc6bffa90cc0225b39da2e5c2d3b8580a28251156109225750506109149582915190845af4913d15610918573d6109066108fd82610ab6565b92519283610a7e565b81528581943d92013e610bee565b5080f35b5060609250610bee565b95509550505050503461093457505080f35b63b398979f60e01b8152fd5b8651634c9c8ce360e01b8152808501849052fd5b8751632a87526960e21b815280860191909152fd5b9091508481813d8311610991575b6109818183610a7e565b8101031261063f57519038610846565b503d610977565b855163703e46dd60e11b81528890fd5b9050817f360894a13ba1a3210667c828492db98dca3e2076cc3735a920a3ca505d382bbc541614153861081b565b8580fd5b8382346104a657816003193601126104a6576020906001549051908152f35b8382346104a657806003193601126104a657610a13610a63565b610a1b610b74565b6001600160a01b0316825260208290528120602435905580f35b9091503461015357602036600319011261015357359160ff83168303610101575060ff610425602093610ad2565b600435906001600160a01b0382168203610a7957565b600080fd5b90601f8019910116810190811067ffffffffffffffff821117610aa057604052565b634e487b7160e01b600052604160045260246000fd5b67ffffffffffffffff8111610aa057601f01601f191660200190565b90600a821015610aea57601f8260051c600201921690565b634e487b7160e01b600052603260045260246000fd5b6001600160a01b03908116908115610b5b57600080516020610c5283398151915280546001600160a01b031981168417909155167f8be0079c531659141344cd1fd0a4f28419497f9722a3daafe3b4186f6b6457e0600080a3565b604051631e4fbdf760e01b815260006004820152602490fd5b600080516020610c52833981519152546001600160a01b03163303610b9557565b60405163118cdaa760e01b8152336004820152602490fd5b60ff7ff0c57e16840df040f15088dc2f81fe391c3923bec73e23a9662efc9c229c6a005460401c1615610bdc57565b604051631afcd79f60e31b8152600490fd5b90610c155750805115610c0357805190602001fd5b60405163d6bda27560e01b8152600490fd5b81511580610c48575b610c26575090565b604051639996b31560e01b81526001600160a01b039091166004820152602490fd5b50803b15610c1e56fe9016d09d72d40fdae2fd8ceac6b6234c7706214fd39c1cd1e609a0528c199300a26469706673582212204cdd2144dcde8c9e5237ba3f0f4719f9afff762b7bea90ff00bc32535172dc1164736f6c63430008160033",
  "linkReferences": {},
  "deployedLinkReferences": {}
}