{
  "_format": "hh-sol-artifact-1",
  "contractName": "PrizeDistributor",
  "sourceName": "contracts/PrizeDistributor.sol",
  "abi": [
    {
      "inputs": [],
      "stateMutability": "nonpayable",
      "type": "constructor"
    },
    {
      "inputs": [
        {
          "internalType": "address",
          "name": "target",
          "type": "address"
        }
      ],
      "name": "AddressEmptyCode",
      "type": "error"
    },
    {
      "inputs": [
        {
          "internalType": "address",
          "name": "implementation",
          "type": "address"
        }
      ],
      "name": "ERC1967InvalidImplementation",
      "type": "error"
    },
    {
      "inputs": [],
      "name": "ERC1967NonPayable",
      "type": "error"
    },
    {
      "inputs": [],
      "name": "EnforcedPause",
      "type": "error"
    },
    {
      "inputs": [],
      "name": "ExpectedPause",
      "type": "error"
    },
    {
      "inputs": [],
      "name": "FailedCall",
      "type": "error"
    },
    {
      "inputs": [],
      "name": "InvalidInitialization",
      "type": "error"
    },
    {
      "inputs": [],
      "name": "NotInitializing",
      "type": "error"
    },
    {
      "inputs": [
        {
          "internalType": "address",
          "name": "owner",
          "type": "address"
        }
      ],
      "name": "OwnableInvalidOwner",
      "type": "error"
    },
    {
      "inputs": [
        {
          "internalType": "address",
          "name": "account",
          "type": "address"
        }
      ],
      "name": "OwnableUnauthorizedAccount",
      "type": "error"
    },
    {
      "inputs": [],
      "name": "ReentrancyGuardReentrantCall",
      "type": "error"
    },
    {
      "inputs": [],
      "name": "UUPSUnauthorizedCallContext",
      "type": "error"
    },
    {
      "inputs": [
        {
          "internalType": "bytes32",
          "name": "slot",
          "type": "bytes32"
        }
      ],
      "name": "UUPSUnsupportedProxiableUUID",
      "type": "error"
    },
    {
      "anonymous": false,
      "inputs": [
        {
          "indexed": false,
          "internalType": "uint64",
          "name": "version",
          "type": "uint64"
        }
      ],
      "name": "Initialized",
      "type": "event"
    },
    {
      "anonymous": false,
      "inputs": [
        {
          "indexed": true,
          "internalType": "address",
          "name": "previousOwner",
          "type": "address"
        },
        {
          "indexed": true,
          "internalType": "address",
          "name": "newOwner",
          "type": "address"
        }
      ],
      "name": "OwnershipTransferred",
      "type": "event"
    },
    {
      "anonymous": false,
      "inputs": [
        {
          "indexed": false,
          "internalType": "address",
          "name": "account",
          "type": "address"
        }
      ],
      "name": "Paused",
      "type": "event"
    },
    {
      "anonymous": false,
      "inputs": [
        {
          "indexed": true,
          "internalType": "address",
          "name": "winner",
          "type": "address"
        },
        {
          "indexed": false,
          "internalType": "uint256",
          "name": "amount",
          "type": "uint256"
        }
      ],
      "name": "PrizeClaimed",
      "type": "event"
    },
    {
      "anonymous": false,
      "inputs": [],
      "name": "PrizeDistributorInitialized",
      "type": "event"
    },
    {
      "anonymous": false,
      "inputs": [
        {
          "indexed": false,
          "internalType": "address[]",
          "name": "winners",
          "type": "address[]"
        },
        {
          "indexed": false,
          "internalType": "uint256[]",
          "name": "prizes",
          "type": "uint256[]"
        }
      ],
      "name": "PrizesCalculated",
      "type": "event"
    },
    {
      "anonymous": false,
      "inputs": [
        {
          "indexed": false,
          "internalType": "address",
          "name": "account",
          "type": "address"
        }
      ],
      "name": "Unpaused",
      "type": "event"
    },
    {
      "anonymous": false,
      "inputs": [
        {
          "indexed": true,
          "internalType": "address",
          "name": "implementation",
          "type": "address"
        }
      ],
      "name": "Upgraded",
      "type": "event"
    },
    {
      "inputs": [],
      "name": "UPGRADE_INTERFACE_VERSION",
      "outputs": [
        {
          "internalType": "string",
          "name": "",
          "type": "string"
        }
      ],
      "stateMutability": "view",
      "type": "function"
    },
    {
      "inputs": [],
      "name": "claimPrize",
      "outputs": [],
      "stateMutability": "nonpayable",
      "type": "function"
    },
    {
      "inputs": [
        {
          "internalType": "address[]",
          "name": "_winners",
          "type": "address[]"
        },
        {
          "internalType": "uint32[]",
          "name": "_scores",
          "type": "uint32[]"
        }
      ],
      "name": "distributePrizes",
      "outputs": [],
      "stateMutability": "nonpayable",
      "type": "function"
    },
    {
      "inputs": [
        {
          "internalType": "address",
          "name": "_owner",
          "type": "address"
        },
        {
          "internalType": "address",
          "name": "_prizeStorage",
          "type": "address"
        }
      ],
      "name": "initialize",
      "outputs": [],
      "stateMutability": "nonpayable",
      "type": "function"
    },
    {
      "inputs": [],
      "name": "owner",
      "outputs": [
        {
          "internalType": "address",
          "name": "",
          "type": "address"
        }
      ],
      "stateMutability": "view",
      "type": "function"
    },
    {
      "inputs": [],
      "name": "pause",
      "outputs": [],
      "stateMutability": "nonpayable",
      "type": "function"
    },
    {
      "inputs": [],
      "name": "paused",
      "outputs": [
        {
          "internalType": "bool",
          "name": "",
          "type": "bool"
        }
      ],
      "stateMutability": "view",
      "type": "function"
    },
    {
      "inputs": [],
      "name": "prizeStorage",
      "outputs": [
        {
          "internalType": "contract PrizeStorage",
          "name": "",
          "type": "address"
        }
      ],
      "stateMutability": "view",
      "type": "function"
    },
    {
      "inputs": [],
      "name": "proxiableUUID",
      "outputs": [
        {
          "internalType": "bytes32",
          "name": "",
          "type": "bytes32"
        }
      ],
      "stateMutability": "view",
      "type": "function"
    },
    {
      "inputs": [],
      "name": "renounceOwnership",
      "outputs": [],
      "stateMutability": "nonpayable",
      "type": "function"
    },
    {
      "inputs": [
        {
          "internalType": "address",
          "name": "newOwner",
          "type": "address"
        }
      ],
      "name": "transferOwnership",
      "outputs": [],
      "stateMutability": "nonpayable",
      "type": "function"
    },
    {
      "inputs": [],
      "name": "unpause",
      "outputs": [],
      "stateMutability": "nonpayable",
      "type": "function"
    },
    {
      "inputs": [
        {
          "internalType": "address",
          "name": "newImplementation",
          "type": "address"
        },
        {
          "internalType": "bytes",
          "name": "data",
          "type": "bytes"
        }
      ],
      "name": "upgradeToAndCall",
      "outputs": [],
      "stateMutability": "payable",
      "type": "function"
    },
    {
      "inputs": [],
      "name": "withdrawRemainingBalance",
      "outputs": [],
      "stateMutability": "nonpayable",
      "type": "function"
    },
    {
      "stateMutability": "payable",
      "type": "receive"
    }
  ],
  "bytecode": "0x60a080604052346100cc57306080527ff0c57e16840df040f15088dc2f81fe391c3923bec73e23a9662efc9c229c6a009081549060ff8260401c166100bd57506001600160401b036002600160401b031982821601610078575b60405161123f90816100d2823960805181818161055101526106310152f35b6001600160401b031990911681179091556040519081527fc7f505b2f371ae2175ee4913f4499e1f2633a7b5936321eed1cdaeb6115181d290602090a1388080610059565b63f92ee8a960e01b8152600490fd5b600080fdfe6080604081815260049182361015610079575b50361561001e57600080fd5b600080546001600160a01b0316924790843b15610075579060248392838651978894859363c91651bb60e01b85528401525af191821561006b57505061006057005b61006990610eca565b005b51903d90823e3d90fd5b8280fd5b600090813560e01c9081631620d0c314610ea6575080632486709214610a345780633f4ba83a146109bc578063485cc955146107f05780634f1ef286146105b557806352d1902d1461053d5780635c975abb1461050c57806370740ac914610396578063715018a61461032c5780638456cb59146102c45780638da5cb5b1461028a578063ad3cb1cc146101eb578063b91d53c61461014b5763f2fde38b03610012573461014857602036600319011261014857610145610138610f2e565b610140611071565b610ffd565b80f35b80fd5b509134610075578260031936011261007557610165611071565b61016d6110d5565b479182156101bb57836101a6818080808860018060a01b036000805160206111aa83398151915254165af16101a0610f8f565b50610fbf565b60016000805160206111ea8339815191525580f35b906020606492519162461bcd60e51b8352820152600a6024820152694e6f2062616c616e636560b01b6044820152fd5b5091346100755782600319360112610075578151908282019082821067ffffffffffffffff8311176102775750825260058152602090640352e302e360dc1b6020820152825193849260208452825192836020860152825b84811061026157505050828201840152601f01601f19168101030190f35b8181018301518882018801528795508201610243565b634e487b7160e01b855260419052602484fd5b5090346102c057816003193601126102c0576000805160206111aa8339815191525490516001600160a01b039091168152602090f35b5080fd5b5090346102c057816003193601126102c05760207f62e78cea01bee320cd4e420270b5ea74000d11b0c9f74754ebdbfc544b05a25891610302611071565b61030a6110aa565b6000805160206111ca833981519152805460ff1916600117905551338152a180f35b5034610148578060031936011261014857610345611071565b6000805160206111aa83398151915280546001600160a01b0319811690915581906001600160a01b03167f8be0079c531659141344cd1fd0a4f28419497f9722a3daafe3b4186f6b6457e08280a380f35b5090346102c057816003193601126102c0576103b06110d5565b6103b86110aa565b8154815163084a95b960e31b815233858201526001600160a01b039091169390916020918284602481895afa9384156105025785946104cf575b50831561049a578585963b156104965760248692845197889384926394ed4d3760e01b845233908401525af193841561048c577f95681e512bc0fe659e195e06c283eada494316f3d801213e48e7101af92bf770939461047d575b506104618580808088335af16101a0610f8f565b519283523392a260016000805160206111ea8339815191525580f35b61048690610eca565b3861044d565b81513d87823e3d90fd5b8580fd5b82606492519162461bcd60e51b835282015260116024820152704e6f207072697a6520746f20636c61696d60781b6044820152fd5b9093508281813d83116104fb575b6104e78183610ef4565b810103126104f7575192386103f2565b8480fd5b503d6104dd565b82513d87823e3d90fd5b5090346102c057816003193601126102c05760209060ff6000805160206111ca833981519152541690519015158152f35b5034610148578060031936011261014857507f00000000000000000000000000000000000000000000000000000000000000006001600160a01b031630036105a857602090517f360894a13ba1a3210667c828492db98dca3e2076cc3735a920a3ca505d382bbc8152f35b5163703e46dd60e11b8152fd5b50919080600319360112610075576105cb610f2e565b90602493843567ffffffffffffffff81116102c057366023820112156102c05780850135936105f985610f49565b61060585519182610ef4565b85815260209586820193368a8383010111610496578186928b8a93018737830101526001600160a01b037f000000000000000000000000000000000000000000000000000000000000000081163081149081156107c2575b506107b25761066a611071565b85516352d1902d60e01b81529083169680828a818b5afa9182918793610782575b50506106a75750505050505191634c9c8ce360e01b8352820152fd5b86899689927f360894a13ba1a3210667c828492db98dca3e2076cc3735a920a3ca505d382bbc9081810361076d5750853b156107585780546001600160a01b0319168317905551869392917fbc7cd75a20ee27fd9adebab32041f755214dbc6bffa90cc0225b39da2e5c2d3b8580a282511561073c5750506107389382915190845af4610732610f8f565b91611146565b5080f35b9350935050503461074c57505080f35b63b398979f60e01b8152fd5b5051634c9c8ce360e01b815291820152859150fd5b848a91845191632a87526960e21b8352820152fd5b9080929350813d83116107ab575b61079a8183610ef4565b81010312610496575190388061068b565b503d610790565b855163703e46dd60e11b81528890fd5b9050817f360894a13ba1a3210667c828492db98dca3e2076cc3735a920a3ca505d382bbc541614153861065d565b5091903461007557806003193601126100755761080b610f2e565b906024356001600160a01b038116908190036104f7577ff0c57e16840df040f15088dc2f81fe391c3923bec73e23a9662efc9c229c6a0092835460ff81851c16159567ffffffffffffffff8216801590816109b4575b60011490816109aa575b1590816109a1575b50610993575067ffffffffffffffff19811660011785556108a6919086610974575b5061089e611105565b610140611105565b6108ae611105565b6108b6611105565b6108be611105565b60016000805160206111ea833981519152556108d8611105565b6108e0611105565b6000805160206111ca833981519152805460ff1916905584546001600160a01b03191617845551917f4f07e2e38a1864fa9c225af602b3688bf29a7ff7ef415c98b9a864165e83e2618480a1610934578280f35b805468ff000000000000000019169055600181527fc7f505b2f371ae2175ee4913f4499e1f2633a7b5936321eed1cdaeb6115181d290602090a138808280f35b68ffffffffffffffffff19166801000000000000000117855538610895565b845163f92ee8a960e01b8152fd5b90501538610873565b303b15915061086b565b889150610861565b5091346100755782600319360112610075576109d6611071565b6000805160206111ca8339815191529081549060ff821615610a26575060ff19169055513381527f5db9ee0a495bf2e6ff9c91a7834c1ba4fdd244a5e8aa4e537bd38aeae4b073aa90602090a180f35b8351638dfc202b60e01b8152fd5b5082346102c057826003193601126102c05767ffffffffffffffff9181358381116102c057366023820112156102c0578083013593602492610a7586610f16565b95610a8288519788610ef4565b80875260209384880186819360051b830101913683116104f7578701905b828210610e875750505084359283116102c057366023840112156102c0578286013592610acc84610f16565b93610ad98a519586610ef4565b808552868686019160051b830101913683116104f7578701905b828210610e6b57505050610b05611071565b610b0d6110aa565b8651835103610e3557865115610e065760015b8351811015610bab576000198101818111610b9957610b479063ffffffff91829187610f65565b511690610b548387610f65565b511611610b6357600101610b20565b885162461bcd60e51b81528088018690526011818801527014d8dbdc995cc81b9bdd081cdbdc9d1959607a1b6044820152606490fd5b634e487b7160e01b8452601188528684fd5b50964794939092508415610dc5578651600a811115610dbd575060ff600a5b1695610bd587610f16565b95610be285519788610ef4565b878752610bee88610f16565b87840190601f1901368237845b60ff81168a811015610d22578654885163283ea25b60e01b81528681018390526001600160a01b03918216919088818d81865afa8015610d18578a90610ce0575b60ff16878102915087820403610cce5790610c5e8f9460648195940495610f65565b511690803b15610cca578b916044898c80948f8990519788968795631b8547df60e11b87528601528401525af18015610cc05760ff949260019492610ca992610cb1575b508d610f65565b520116610bfb565b610cba90610eca565b38610ca2565b8a513d8b823e3d90fd5b8980fd5b634e487b7160e01b8a52601188528b8afd5b508881813d8311610d11575b610cf68183610ef4565b81010312610cca575160ff81168103610cca5760ff90610c3c565b503d610cec565b8b513d8c823e3d90fd5b868c848f89908e8d80519581870191875251809152606086019290875b818110610da05750505084820385840152518082529082019291855b828110610d8c57867fe7d58a1d290fcecc00041f0d1eedfc15a8601ba209c8a6ede7d5c5e33dbe5e4b87870388a180f35b835185529381019392810192600101610d5b565b82516001600160a01b031685529385019391850191600101610d3f565b60ff90610bca565b8560178560649386519362461bcd60e51b85528401528201527f4e6f207072697a657320746f20646973747269627574650000000000000000006044820152fd5b875162461bcd60e51b8152808701859052600a81870152694e6f2077696e6e65727360b01b6044820152606490fd5b875162461bcd60e51b8152808701859052601181870152704d69736d6174636865642061727261797360781b6044820152606490fd5b813563ffffffff81168103610496578152908601908601610af3565b81356001600160a01b0381168103610496578152908601908601610aa0565b9050346102c057816003193601126102c05790546001600160a01b03168152602090f35b67ffffffffffffffff8111610ede57604052565b634e487b7160e01b600052604160045260246000fd5b90601f8019910116810190811067ffffffffffffffff821117610ede57604052565b67ffffffffffffffff8111610ede5760051b60200190565b600435906001600160a01b0382168203610f4457565b600080fd5b67ffffffffffffffff8111610ede57601f01601f191660200190565b8051821015610f795760209160051b010190565b634e487b7160e01b600052603260045260246000fd5b3d15610fba573d90610fa082610f49565b91610fae6040519384610ef4565b82523d6000602084013e565b606090565b15610fc657565b60405162461bcd60e51b815260206004820152600f60248201526e151c985b9cd9995c8819985a5b1959608a1b6044820152606490fd5b6001600160a01b03908116908115611058576000805160206111aa83398151915280546001600160a01b031981168417909155167f8be0079c531659141344cd1fd0a4f28419497f9722a3daafe3b4186f6b6457e0600080a3565b604051631e4fbdf760e01b815260006004820152602490fd5b6000805160206111aa833981519152546001600160a01b0316330361109257565b60405163118cdaa760e01b8152336004820152602490fd5b60ff6000805160206111ca83398151915254166110c357565b60405163d93c066560e01b8152600490fd5b6000805160206111ea83398151915260028154146110f35760029055565b604051633ee5aeb560e01b8152600490fd5b60ff7ff0c57e16840df040f15088dc2f81fe391c3923bec73e23a9662efc9c229c6a005460401c161561113457565b604051631afcd79f60e31b8152600490fd5b9061116d575080511561115b57805190602001fd5b60405163d6bda27560e01b8152600490fd5b815115806111a0575b61117e575090565b604051639996b31560e01b81526001600160a01b039091166004820152602490fd5b50803b1561117656fe9016d09d72d40fdae2fd8ceac6b6234c7706214fd39c1cd1e609a0528c199300cd5ed15c6e187e77e9aee88184c21f4f2182ab5827cb3b7e07fbedcd63f033009b779b17422d0df92223018b32b4d1fa46e071723d6817e2486d003becc55f00a264697066735822122097dc39dded84c6ffb573d7e341f0a2a44f27436b379a235c1b6ae21ba27aee0464736f6c63430008160033",
  "linkReferences": {},
  "deployedLinkReferences": {}
}