{
  "_format": "hh-sol-artifact-1",
  "contractName": "PointsRules",
  "sourceName": "contracts/PointsRules.sol",
  "abi": [
    {
      "inputs": [],
      "stateMutability": "nonpayable",
      "type": "constructor"
    },
    {
      "inputs": [
        {
          "internalType": "address",
          "name": "target",
          "type": "address"
        }
      ],
      "name": "AddressEmptyCode",
      "type": "error"
    },
    {
      "inputs": [
        {
          "internalType": "address",
          "name": "implementation",
          "type": "address"
        }
      ],
      "name": "ERC1967InvalidImplementation",
      "type": "error"
    },
    {
      "inputs": [],
      "name": "ERC1967NonPayable",
      "type": "error"
    },
    {
      "inputs": [],
      "name": "FailedCall",
      "type": "error"
    },
    {
      "inputs": [],
      "name": "InvalidInitialization",
      "type": "error"
    },
    {
      "inputs": [],
      "name": "NotInitializing",
      "type": "error"
    },
    {
      "inputs": [
        {
          "internalType": "address",
          "name": "owner",
          "type": "address"
        }
      ],
      "name": "OwnableInvalidOwner",
      "type": "error"
    },
    {
      "inputs": [
        {
          "internalType": "address",
          "name": "account",
          "type": "address"
        }
      ],
      "name": "OwnableUnauthorizedAccount",
      "type": "error"
    },
    {
      "inputs": [],
      "name": "UUPSUnauthorizedCallContext",
      "type": "error"
    },
    {
      "inputs": [
        {
          "internalType": "bytes32",
          "name": "slot",
          "type": "bytes32"
        }
      ],
      "name": "UUPSUnsupportedProxiableUUID",
      "type": "error"
    },
    {
      "anonymous": false,
      "inputs": [
        {
          "indexed": false,
          "internalType": "uint64",
          "name": "version",
          "type": "uint64"
        }
      ],
      "name": "Initialized",
      "type": "event"
    },
    {
      "anonymous": false,
      "inputs": [
        {
          "indexed": true,
          "internalType": "address",
          "name": "previousOwner",
          "type": "address"
        },
        {
          "indexed": true,
          "internalType": "address",
          "name": "newOwner",
          "type": "address"
        }
      ],
      "name": "OwnershipTransferred",
      "type": "event"
    },
    {
      "anonymous": false,
      "inputs": [
        {
          "indexed": true,
          "internalType": "address",
          "name": "implementation",
          "type": "address"
        }
      ],
      "name": "Upgraded",
      "type": "event"
    },
    {
      "inputs": [],
      "name": "UPGRADE_INTERFACE_VERSION",
      "outputs": [
        {
          "internalType": "string",
          "name": "",
          "type": "string"
        }
      ],
      "stateMutability": "view",
      "type": "function"
    },
    {
      "inputs": [
        {
          "internalType": "uint32",
          "name": "currentScore",
          "type": "uint32"
        },
        {
          "internalType": "uint32",
          "name": "lastAccrualTime",
          "type": "uint32"
        },
        {
          "internalType": "uint32",
          "name": "currentTime",
          "type": "uint32"
        }
      ],
      "name": "calculateAccrued",
      "outputs": [
        {
          "internalType": "uint32",
          "name": "",
          "type": "uint32"
        }
      ],
      "stateMutability": "view",
      "type": "function"
    },
    {
      "inputs": [
        {
          "internalType": "uint32",
          "name": "score1",
          "type": "uint32"
        },
        {
          "internalType": "uint32",
          "name": "score2",
          "type": "uint32"
        }
      ],
      "name": "calculateInteraction",
      "outputs": [
        {
          "internalType": "uint32",
          "name": "",
          "type": "uint32"
        },
        {
          "internalType": "uint32",
          "name": "",
          "type": "uint32"
        }
      ],
      "stateMutability": "view",
      "type": "function"
    },
    {
      "inputs": [
        {
          "internalType": "uint32",
          "name": "currentScore",
          "type": "uint32"
        }
      ],
      "name": "calculateMeetup",
      "outputs": [
        {
          "internalType": "uint32",
          "name": "",
          "type": "uint32"
        }
      ],
      "stateMutability": "view",
      "type": "function"
    },
    {
      "inputs": [
        {
          "internalType": "address",
          "name": "_owner",
          "type": "address"
        }
      ],
      "name": "initialize",
      "outputs": [],
      "stateMutability": "nonpayable",
      "type": "function"
    },
    {
      "inputs": [],
      "name": "interactionPoints",
      "outputs": [
        {
          "internalType": "uint8",
          "name": "",
          "type": "uint8"
        }
      ],
      "stateMutability": "view",
      "type": "function"
    },
    {
      "inputs": [],
      "name": "maxScore",
      "outputs": [
        {
          "internalType": "uint32",
          "name": "",
          "type": "uint32"
        }
      ],
      "stateMutability": "view",
      "type": "function"
    },
    {
      "inputs": [],
      "name": "meetupPoints",
      "outputs": [
        {
          "internalType": "uint8",
          "name": "",
          "type": "uint8"
        }
      ],
      "stateMutability": "view",
      "type": "function"
    },
    {
      "inputs": [],
      "name": "owner",
      "outputs": [
        {
          "internalType": "address",
          "name": "",
          "type": "address"
        }
      ],
      "stateMutability": "view",
      "type": "function"
    },
    {
      "inputs": [],
      "name": "pointsPerTenHours",
      "outputs": [
        {
          "internalType": "uint8",
          "name": "",
          "type": "uint8"
        }
      ],
      "stateMutability": "view",
      "type": "function"
    },
    {
      "inputs": [],
      "name": "proxiableUUID",
      "outputs": [
        {
          "internalType": "bytes32",
          "name": "",
          "type": "bytes32"
        }
      ],
      "stateMutability": "view",
      "type": "function"
    },
    {
      "inputs": [],
      "name": "renounceOwnership",
      "outputs": [],
      "stateMutability": "nonpayable",
      "type": "function"
    },
    {
      "inputs": [
        {
          "internalType": "address",
          "name": "newOwner",
          "type": "address"
        }
      ],
      "name": "transferOwnership",
      "outputs": [],
      "stateMutability": "nonpayable",
      "type": "function"
    },
    {
      "inputs": [
        {
          "internalType": "address",
          "name": "newImplementation",
          "type": "address"
        },
        {
          "internalType": "bytes",
          "name": "data",
          "type": "bytes"
        }
      ],
      "name": "upgradeToAndCall",
      "outputs": [],
      "stateMutability": "payable",
      "type": "function"
    }
  ],
  "bytecode": "0x60a080604052346100cc57306080527ff0c57e16840df040f15088dc2f81fe391c3923bec73e23a9662efc9c229c6a009081549060ff8260401c166100bd57506001600160401b036002600160401b031982821601610078575b604051610b8690816100d282396080518181816104c601526105a50152f35b6001600160401b031990911681179091556040519081527fc7f505b2f371ae2175ee4913f4499e1f2633a7b5936321eed1cdaeb6115181d290602090a1388080610059565b63f92ee8a960e01b8152600490fd5b600080fdfe608060409080825260048036101561001657600080fd5b600091823560e01c90816309e0721c146108715750806331074d45146107f857806338f25862146107d55780633c222c04146107945780634f1ef2861461052a57806352d1902d146104b05780635d5d8b7014610490578063715018a6146104265780638da5cb5b146103f05780639a1b4b38146103ca578063ad3cb1cc1461032a578063c4d66de8146101d5578063f2fde38b146101a55763f66d6078146100be57600080fd5b346101a15760603660031901126101a1576100d7610891565b916100e06108a9565b63ffffffff90604435828116810361019d57610100618ca0928492610954565b1604918054928260ff8560101c169116029082821691820361018a575081610129819287610926565b169416841015918261017a575b505015610147575060209151908152f35b606490602084519162461bcd60e51b8352820152600d60248201526c496e76616c69642073636f726560981b6044820152fd5b60181c1683111590503880610136565b634e487b7160e01b815260118552602490fd5b8380fd5b5080fd5b82346101d25760203660031901126101d2576101cf6101c26108bc565b6101ca610a53565b6109df565b80f35b80fd5b50829034610326576020366003190112610326576101f16108bc565b907ff0c57e16840df040f15088dc2f81fe391c3923bec73e23a9662efc9c229c6a0091825460ff81861c16159267ffffffffffffffff82168015908161031e575b6001149081610314575b15908161030b575b506102fd575067ffffffffffffffff19811660011784556102779190836102de575b5061026f610a8c565b6101ca610a8c565b61027f610a8c565b835466ffffffffffffff1916650f424001040217845561029d578280f35b805468ff00000000000000001916905551600181527fc7f505b2f371ae2175ee4913f4499e1f2633a7b5936321eed1cdaeb6115181d290602090a181808280f35b68ffffffffffffffffff19166801000000000000000117845586610266565b855163f92ee8a960e01b8152fd5b90501588610244565b303b15915061023c565b859150610232565b8280fd5b508290346103265782600319360112610326578151908282019082821067ffffffffffffffff8311176103b75750825260058152602090640352e302e360dc1b6020820152825193849260208452825192836020860152825b8481106103a157505050828201840152601f01601f19168101030190f35b8181018301518882018801528795508201610383565b634e487b7160e01b855260419052602484fd5b8284346101a157816003193601126101a15763ffffffff6020925460181c169051908152f35b8284346101a157816003193601126101a157600080516020610b318339815191525490516001600160a01b039091168152602090f35b82346101d257806003193601126101d25761043f610a53565b600080516020610b3183398151915280546001600160a01b0319811690915581906001600160a01b03167f8be0079c531659141344cd1fd0a4f28419497f9722a3daafe3b4186f6b6457e08280a380f35b8284346101a157816003193601126101a15760ff60209254169051908152f35b509190346101d257806003193601126101d257507f00000000000000000000000000000000000000000000000000000000000000006001600160a01b0316300361051d57602090517f360894a13ba1a3210667c828492db98dca3e2076cc3735a920a3ca505d382bbc8152f35b5163703e46dd60e11b8152fd5b5082806003193601126103265761053f6108bc565b90602493843567ffffffffffffffff81116101a157366023820112156101a1578085013561056c8161090a565b94610579855196876108d2565b81865260209182870193368a8383010111610790578186928b8693018737880101526001600160a01b037f00000000000000000000000000000000000000000000000000000000000000008116308114908115610762575b50610752576105de610a53565b81169585516352d1902d60e01b815283818a818b5afa86918161071f575b50610618575050505050505191634c9c8ce360e01b8352820152fd5b9088888894938c7f360894a13ba1a3210667c828492db98dca3e2076cc3735a920a3ca505d382bbc9182810361070a5750853b156106f6575080546001600160a01b031916821790558451889392917fbc7cd75a20ee27fd9adebab32041f755214dbc6bffa90cc0225b39da2e5c2d3b8580a28251156106d85750506106ca9582915190845af4913d156106ce573d6106bc6106b38261090a565b925192836108d2565b81528581943d92013e610acd565b5080f35b5060609250610acd565b9550955050505050346106ea57505080f35b63b398979f60e01b8152fd5b8651634c9c8ce360e01b8152808501849052fd5b8751632a87526960e21b815280860191909152fd5b9091508481813d831161074b575b61073781836108d2565b810103126107475751908b6105fc565b8680fd5b503d61072d565b855163703e46dd60e11b81528890fd5b9050817f360894a13ba1a3210667c828492db98dca3e2076cc3735a920a3ca505d382bbc541614158a6105d1565b8580fd5b5050346101d257816003193601126101d257506107c06107b2610891565b6107ba6108a9565b9061096a565b825163ffffffff928316815291166020820152f35b8284346101a157816003193601126101a15760ff6020925460081c169051908152f35b50346101a15760203660031901126101a15761082360ff610817610891565b935460081c1683610926565b63ffffffff8091169216821061083d575060209151908152f35b606490602084519162461bcd60e51b8352820152600e60248201526d53636f7265206f766572666c6f7760901b6044820152fd5b8390346101a157816003193601126101a15760ff6020925460101c168152f35b6004359063ffffffff821682036108a457565b600080fd5b6024359063ffffffff821682036108a457565b600435906001600160a01b03821682036108a457565b90601f8019910116810190811067ffffffffffffffff8211176108f457604052565b634e487b7160e01b600052604160045260246000fd5b67ffffffffffffffff81116108f457601f01601f191660200190565b91909163ffffffff8080941691160191821161093e57565b634e487b7160e01b600052601160045260246000fd5b63ffffffff918216908216039190821161093e57565b63ffffffff808316939291908116848111156109ae57506109949060ff6000541691828092610926565b9411156109a7576109a491610954565b90565b5050600090565b906109a492945060ff60005416808093116000146109d5576109cf91610954565b93610926565b5050600093610926565b6001600160a01b03908116908115610a3a57600080516020610b3183398151915280546001600160a01b031981168417909155167f8be0079c531659141344cd1fd0a4f28419497f9722a3daafe3b4186f6b6457e0600080a3565b604051631e4fbdf760e01b815260006004820152602490fd5b600080516020610b31833981519152546001600160a01b03163303610a7457565b60405163118cdaa760e01b8152336004820152602490fd5b60ff7ff0c57e16840df040f15088dc2f81fe391c3923bec73e23a9662efc9c229c6a005460401c1615610abb57565b604051631afcd79f60e31b8152600490fd5b90610af45750805115610ae257805190602001fd5b60405163d6bda27560e01b8152600490fd5b81511580610b27575b610b05575090565b604051639996b31560e01b81526001600160a01b039091166004820152602490fd5b50803b15610afd56fe9016d09d72d40fdae2fd8ceac6b6234c7706214fd39c1cd1e609a0528c199300a264697066735822122008fc0c634d5396abf1bc08f62ef85c33a8cd669fc885b1c96e602160f00bc44d64736f6c63430008160033",
  "linkReferences": {},
  "deployedLinkReferences": {}
}