{
  "_format": "hh-sol-artifact-1",
  "contractName": "PointsCalculator",
  "sourceName": "contracts/PointsCalculator.sol",
  "abi": [
    {
      "inputs": [],
      "stateMutability": "nonpayable",
      "type": "constructor"
    },
    {
      "inputs": [
        {
          "internalType": "address",
          "name": "target",
          "type": "address"
        }
      ],
      "name": "AddressEmptyCode",
      "type": "error"
    },
    {
      "inputs": [
        {
          "internalType": "address",
          "name": "implementation",
          "type": "address"
        }
      ],
      "name": "ERC1967InvalidImplementation",
      "type": "error"
    },
    {
      "inputs": [],
      "name": "ERC1967NonPayable",
      "type": "error"
    },
    {
      "inputs": [],
      "name": "FailedCall",
      "type": "error"
    },
    {
      "inputs": [],
      "name": "InvalidInitialization",
      "type": "error"
    },
    {
      "inputs": [],
      "name": "NotInitializing",
      "type": "error"
    },
    {
      "inputs": [
        {
          "internalType": "address",
          "name": "owner",
          "type": "address"
        }
      ],
      "name": "OwnableInvalidOwner",
      "type": "error"
    },
    {
      "inputs": [
        {
          "internalType": "address",
          "name": "account",
          "type": "address"
        }
      ],
      "name": "OwnableUnauthorizedAccount",
      "type": "error"
    },
    {
      "inputs": [],
      "name": "UUPSUnauthorizedCallContext",
      "type": "error"
    },
    {
      "inputs": [
        {
          "internalType": "bytes32",
          "name": "slot",
          "type": "bytes32"
        }
      ],
      "name": "UUPSUnsupportedProxiableUUID",
      "type": "error"
    },
    {
      "anonymous": false,
      "inputs": [
        {
          "indexed": false,
          "internalType": "uint64",
          "name": "version",
          "type": "uint64"
        }
      ],
      "name": "Initialized",
      "type": "event"
    },
    {
      "anonymous": false,
      "inputs": [
        {
          "indexed": true,
          "internalType": "address",
          "name": "previousOwner",
          "type": "address"
        },
        {
          "indexed": true,
          "internalType": "address",
          "name": "newOwner",
          "type": "address"
        }
      ],
      "name": "OwnershipTransferred",
      "type": "event"
    },
    {
      "anonymous": false,
      "inputs": [
        {
          "indexed": true,
          "internalType": "address",
          "name": "player",
          "type": "address"
        },
        {
          "indexed": false,
          "internalType": "uint32",
          "name": "newScore",
          "type": "uint32"
        }
      ],
      "name": "PointsCalculated",
      "type": "event"
    },
    {
      "anonymous": false,
      "inputs": [
        {
          "indexed": true,
          "internalType": "address",
          "name": "implementation",
          "type": "address"
        }
      ],
      "name": "Upgraded",
      "type": "event"
    },
    {
      "inputs": [],
      "name": "UPGRADE_INTERFACE_VERSION",
      "outputs": [
        {
          "internalType": "string",
          "name": "",
          "type": "string"
        }
      ],
      "stateMutability": "view",
      "type": "function"
    },
    {
      "inputs": [
        {
          "internalType": "address",
          "name": "_player",
          "type": "address"
        }
      ],
      "name": "calculateAccruedPoints",
      "outputs": [],
      "stateMutability": "nonpayable",
      "type": "function"
    },
    {
      "inputs": [
        {
          "internalType": "address",
          "name": "_player1",
          "type": "address"
        },
        {
          "internalType": "address",
          "name": "_player2",
          "type": "address"
        }
      ],
      "name": "calculateInteractionPoints",
      "outputs": [],
      "stateMutability": "nonpayable",
      "type": "function"
    },
    {
      "inputs": [
        {
          "internalType": "address",
          "name": "_player",
          "type": "address"
        }
      ],
      "name": "calculateMeetupPoints",
      "outputs": [],
      "stateMutability": "nonpayable",
      "type": "function"
    },
    {
      "inputs": [
        {
          "internalType": "address",
          "name": "_playerManager",
          "type": "address"
        },
        {
          "internalType": "address",
          "name": "_pointsRules",
          "type": "address"
        },
        {
          "internalType": "address",
          "name": "_owner",
          "type": "address"
        }
      ],
      "name": "initialize",
      "outputs": [],
      "stateMutability": "nonpayable",
      "type": "function"
    },
    {
      "inputs": [],
      "name": "owner",
      "outputs": [
        {
          "internalType": "address",
          "name": "",
          "type": "address"
        }
      ],
      "stateMutability": "view",
      "type": "function"
    },
    {
      "inputs": [],
      "name": "playerManager",
      "outputs": [
        {
          "internalType": "contract PlayerManager",
          "name": "",
          "type": "address"
        }
      ],
      "stateMutability": "view",
      "type": "function"
    },
    {
      "inputs": [],
      "name": "pointsRules",
      "outputs": [
        {
          "internalType": "contract PointsRules",
          "name": "",
          "type": "address"
        }
      ],
      "stateMutability": "view",
      "type": "function"
    },
    {
      "inputs": [],
      "name": "proxiableUUID",
      "outputs": [
        {
          "internalType": "bytes32",
          "name": "",
          "type": "bytes32"
        }
      ],
      "stateMutability": "view",
      "type": "function"
    },
    {
      "inputs": [],
      "name": "renounceOwnership",
      "outputs": [],
      "stateMutability": "nonpayable",
      "type": "function"
    },
    {
      "inputs": [
        {
          "internalType": "address",
          "name": "newOwner",
          "type": "address"
        }
      ],
      "name": "transferOwnership",
      "outputs": [],
      "stateMutability": "nonpayable",
      "type": "function"
    },
    {
      "inputs": [
        {
          "internalType": "address",
          "name": "newImplementation",
          "type": "address"
        },
        {
          "internalType": "bytes",
          "name": "data",
          "type": "bytes"
        }
      ],
      "name": "upgradeToAndCall",
      "outputs": [],
      "stateMutability": "payable",
      "type": "function"
    }
  ],
  "bytecode": "0x60a080604052346100cc57306080527ff0c57e16840df040f15088dc2f81fe391c3923bec73e23a9662efc9c229c6a009081549060ff8260401c166100bd57506001600160401b036002600160401b031982821601610078575b604051610eb990816100d282396080518181816106db0152610a560152f35b6001600160401b031990911681179091556040519081527fc7f505b2f371ae2175ee4913f4499e1f2633a7b5936321eed1cdaeb6115181d290602090a1388080610059565b63f92ee8a960e01b8152600490fd5b600080fdfe60406080815260048036101561001457600080fd5b600091823560e01c9182634f1ef286146109db57826352a6092e1461073f57826352d1902d146106c6578263715018a61461065b5782638da5cb5b146106255782639cdac8b8146105fd578263a0d5b223146104e9578263ad3cb1cc14610447578263c0c53b8b146102c4578263e515776114610297578263ea276a74146100d657505063f2fde38b146100a757600080fd5b346100d35760203660031901126100d3576100d06100c3610c3d565b6100cb610d86565b610d12565b80f35b80fd5b909150346102935760209182600319360112610210576100f4610c3d565b926100fd610d86565b60018060a01b03938585815416845192635c12cd4b60e01b8452878116968781860152608085602481865afa9485156102895795809798996024978697610255575b50600154168951978880926331074d4560e01b825263ffffffff809a16868301525afa95861561024b578496610214575b50823b1561021057875163e631fb1d60e01b81526001600160a01b0390921690820190815263ffffffff86166020820152909183918391908290849082906040015b03925af18015610206576101ee575b50507f89cb75684f3cccb8e054732bed784af8a1bbf4e1176fb270eaf3c7b7466c5d55935191168152a280f35b6101f790610c69565b6102025785386101c1565b8580fd5b86513d84823e3d90fd5b8380fd5b9095508681813d8311610244575b61022c8183610c93565b810103126102105761023d90610cd1565b9438610170565b503d610222565b88513d86823e3d90fd5b61027891975060803d608011610282575b6102708183610c93565b810190610ce2565b505050953861013f565b503d610266565b87513d86823e3d90fd5b8280fd5b8382346102c057816003193601126102c05760015490516001600160a01b039091168152602090f35b5080fd5b90915034610293576060366003190112610293576102e0610c3d565b906102e9610c53565b60443592906001600160a01b03908185168503610442577ff0c57e16840df040f15088dc2f81fe391c3923bec73e23a9662efc9c229c6a0094855460ff81891c16159567ffffffffffffffff82168015908161043a575b6001149081610430575b159081610427575b50610419575067ffffffffffffffff19811660011787556103859190866103fa575b5061037d610dbf565b6100cb610dbf565b61038d610dbf565b816bffffffffffffffffffffffff60a01b931683885416178755169060015416176001556103b9578280f35b805468ff00000000000000001916905551600181527fc7f505b2f371ae2175ee4913f4499e1f2633a7b5936321eed1cdaeb6115181d290602090a138808280f35b68ffffffffffffffffff19166801000000000000000117875538610374565b885163f92ee8a960e01b8152fd5b90501538610352565b303b15915061034a565b889150610340565b600080fd5b909150346102935782600319360112610293578151908282019082821067ffffffffffffffff8311176104d45750825260058152602090640352e302e360dc1b6020820152825193849260208452825192836020860152825b8481106104be57505050828201840152601f01601f19168101030190f35b81810183015188820188015287955082016104a0565b604190634e487b7160e01b6000525260246000fd5b9150346102935760208060031936011261021057610505610c3d565b61050d610d86565b60018060a01b03908582815416855192635c12cd4b60e01b8452848116978881860152608085602481865afa95861561024b578790859686986105d4575b506001548a51631ecdac0f60e31b815263ffffffff9889168582015298881660248a015242881660448a015288916064918391165afa95861561024b5784966102145750823b1561021057875163e631fb1d60e01b81526001600160a01b0390921690820190815263ffffffff86166020820152909183918391908290849082906040016101b2565b9097506105f191965060803d608011610282576102708183610c93565b5050959095963861054b565b8382346102c057816003193601126102c057905490516001600160a01b039091168152602090f35b8382346102c057816003193601126102c057600080516020610e648339815191525490516001600160a01b039091168152602090f35b83346100d357806003193601126100d357610674610d86565b600080516020610e6483398151915280546001600160a01b031981169091556000906001600160a01b03167f8be0079c531659141344cd1fd0a4f28419497f9722a3daafe3b4186f6b6457e08280a380f35b9083346100d357806003193601126100d357507f00000000000000000000000000000000000000000000000000000000000000006001600160a01b0316300361073257602090517f360894a13ba1a3210667c828492db98dca3e2076cc3735a920a3ca505d382bbc8152f35b5163703e46dd60e11b8152fd5b915034610293578060031936011261029357610759610c3d565b91610762610c53565b9161076b610d86565b60018060a01b03908186541692815190635c12cd4b60e01b9687835284811696878385015260809586856024818b5afa94851561098d578b956109b9575b508551998a52808216998a8582015287816024818c5afa978815610936578c98610997575b5050858160015416956044825180988193630f088b0160e21b835263ffffffff9c8d8092168b8501521660248301525afa97881561098d578b958c99610944575b50803b1561094057865163e631fb1d60e01b8082526001600160a01b0390951686820190815263ffffffff8816602082015290918d9183919082908490829060400103925af180156109365761091d575b50908a939291845416803b156109195786519283526001600160a01b0390911692820192835263ffffffff8816602084015290918391839182908490829060400103925af1801561090f576108ef575b50509060209483928695948351911681527f89cb75684f3cccb8e054732bed784af8a1bbf4e1176fb270eaf3c7b7466c5d55968791a25191168152a280f35b6108fd909594939295610c69565b61090b5790919286386108b0565b8680fd5b84513d84823e3d90fd5b8480fd5b61092c909b919493929b610c69565b9990919238610860565b87513d8e823e3d90fd5b8b80fd5b8780929a508197503d8311610986575b61095e8183610c93565b810103126109825761097b602061097487610cd1565b9601610cd1565b973861080f565b8a80fd5b503d610954565b86513d8d823e3d90fd5b6109ae929850803d10610282576102708183610c93565b5050509538806107ce565b6109d1919550873d8911610282576102708183610c93565b50505093386107a9565b915080600319360112610293576109f0610c3d565b90602493843567ffffffffffffffff81116102c057366023820112156102c05780850135610a1d81610cb5565b94610a2a85519687610c93565b81865260209182870193368a8383010111610202578186928b8693018737880101526001600160a01b037f00000000000000000000000000000000000000000000000000000000000000008116308114908115610c0f575b50610bff57610a8f610d86565b81169585516352d1902d60e01b815283818a818b5afa869181610bd0575b50610ac9575050505050505191634c9c8ce360e01b8352820152fd5b9088888894938c7f360894a13ba1a3210667c828492db98dca3e2076cc3735a920a3ca505d382bbc91828103610bbb5750853b15610ba7575080546001600160a01b031916821790558451889392917fbc7cd75a20ee27fd9adebab32041f755214dbc6bffa90cc0225b39da2e5c2d3b8580a2825115610b89575050610b7b9582915190845af4913d15610b7f573d610b6d610b6482610cb5565b92519283610c93565b81528581943d92013e610e00565b5080f35b5060609250610e00565b955095505050505034610b9b57505080f35b63b398979f60e01b8152fd5b8651634c9c8ce360e01b8152808501849052fd5b8751632a87526960e21b815280860191909152fd5b9091508481813d8311610bf8575b610be88183610c93565b8101031261090b57519038610aad565b503d610bde565b855163703e46dd60e11b81528890fd5b9050817f360894a13ba1a3210667c828492db98dca3e2076cc3735a920a3ca505d382bbc5416141538610a82565b600435906001600160a01b038216820361044257565b602435906001600160a01b038216820361044257565b67ffffffffffffffff8111610c7d57604052565b634e487b7160e01b600052604160045260246000fd5b90601f8019910116810190811067ffffffffffffffff821117610c7d57604052565b67ffffffffffffffff8111610c7d57601f01601f191660200190565b519063ffffffff8216820361044257565b919082608091031261044257610cf782610cd1565b91610d0460208201610cd1565b916060604083015192015190565b6001600160a01b03908116908115610d6d57600080516020610e6483398151915280546001600160a01b031981168417909155167f8be0079c531659141344cd1fd0a4f28419497f9722a3daafe3b4186f6b6457e0600080a3565b604051631e4fbdf760e01b815260006004820152602490fd5b600080516020610e64833981519152546001600160a01b03163303610da757565b60405163118cdaa760e01b8152336004820152602490fd5b60ff7ff0c57e16840df040f15088dc2f81fe391c3923bec73e23a9662efc9c229c6a005460401c1615610dee57565b604051631afcd79f60e31b8152600490fd5b90610e275750805115610e1557805190602001fd5b60405163d6bda27560e01b8152600490fd5b81511580610e5a575b610e38575090565b604051639996b31560e01b81526001600160a01b039091166004820152602490fd5b50803b15610e3056fe9016d09d72d40fdae2fd8ceac6b6234c7706214fd39c1cd1e609a0528c199300a26469706673582212209fa24f80fa01e2d0e2af90258cc5a3c6455fdfea933b7acc2f9090e912f630e764736f6c63430008160033",
  "linkReferences": {},
  "deployedLinkReferences": {}
}